{
  "_format": "hh-sol-artifact-1",
  "contractName": "AMMRouter",
  "sourceName": "src/backend/contracts/AMMRouter.sol",
  "abi": [
    {
      "inputs": [
        {
          "internalType": "address",
          "name": "_factory",
          "type": "address"
        }
      ],
      "stateMutability": "nonpayable",
      "type": "constructor"
    },
    {
      "inputs": [
        {
          "internalType": "address",
          "name": "tokenA",
          "type": "address"
        },
        {
          "internalType": "address",
          "name": "tokenB",
          "type": "address"
        },
        {
          "internalType": "uint256",
          "name": "amountADesired",
          "type": "uint256"
        },
        {
          "internalType": "uint256",
          "name": "amountBDesired",
          "type": "uint256"
        },
        {
          "internalType": "uint256",
          "name": "amountAMin",
          "type": "uint256"
        },
        {
          "internalType": "uint256",
          "name": "amountBMin",
          "type": "uint256"
        },
        {
          "internalType": "address",
          "name": "to",
          "type": "address"
        },
        {
          "internalType": "uint256",
          "name": "deadline",
          "type": "uint256"
        }
      ],
      "name": "addLiquidity",
      "outputs": [
        {
          "internalType": "uint256",
          "name": "amountA",
          "type": "uint256"
        },
        {
          "internalType": "uint256",
          "name": "amountB",
          "type": "uint256"
        },
        {
          "internalType": "uint256",
          "name": "liquidity",
          "type": "uint256"
        }
      ],
      "stateMutability": "nonpayable",
      "type": "function"
    },
    {
      "inputs": [],
      "name": "factory",
      "outputs": [
        {
          "internalType": "address",
          "name": "",
          "type": "address"
        }
      ],
      "stateMutability": "view",
      "type": "function"
    },
    {
      "inputs": [
        {
          "internalType": "uint256",
          "name": "amountOut",
          "type": "uint256"
        },
        {
          "internalType": "address[]",
          "name": "path",
          "type": "address[]"
        }
      ],
      "name": "getAmountsIn",
      "outputs": [
        {
          "internalType": "uint256[]",
          "name": "amounts",
          "type": "uint256[]"
        }
      ],
      "stateMutability": "view",
      "type": "function"
    },
    {
      "inputs": [
        {
          "internalType": "uint256",
          "name": "amountIn",
          "type": "uint256"
        },
        {
          "internalType": "address[]",
          "name": "path",
          "type": "address[]"
        }
      ],
      "name": "getAmountsOut",
      "outputs": [
        {
          "internalType": "uint256[]",
          "name": "amounts",
          "type": "uint256[]"
        }
      ],
      "stateMutability": "view",
      "type": "function"
    },
    {
      "inputs": [
        {
          "internalType": "address",
          "name": "tokenA",
          "type": "address"
        },
        {
          "internalType": "address",
          "name": "tokenB",
          "type": "address"
        }
      ],
      "name": "getReserves",
      "outputs": [
        {
          "internalType": "uint256",
          "name": "reserveA",
          "type": "uint256"
        },
        {
          "internalType": "uint256",
          "name": "reserveB",
          "type": "uint256"
        },
        {
          "internalType": "address",
          "name": "pair",
          "type": "address"
        }
      ],
      "stateMutability": "view",
      "type": "function"
    },
    {
      "inputs": [
        {
          "internalType": "address",
          "name": "tokenA",
          "type": "address"
        },
        {
          "internalType": "address",
          "name": "tokenB",
          "type": "address"
        },
        {
          "internalType": "uint256",
          "name": "liquidity",
          "type": "uint256"
        },
        {
          "internalType": "uint256",
          "name": "amountAMin",
          "type": "uint256"
        },
        {
          "internalType": "uint256",
          "name": "amountBMin",
          "type": "uint256"
        },
        {
          "internalType": "address",
          "name": "to",
          "type": "address"
        },
        {
          "internalType": "uint256",
          "name": "deadline",
          "type": "uint256"
        }
      ],
      "name": "removeLiquidity",
      "outputs": [
        {
          "internalType": "uint256",
          "name": "amountA",
          "type": "uint256"
        },
        {
          "internalType": "uint256",
          "name": "amountB",
          "type": "uint256"
        }
      ],
      "stateMutability": "nonpayable",
      "type": "function"
    },
    {
      "inputs": [
        {
          "internalType": "uint256",
          "name": "amountIn",
          "type": "uint256"
        },
        {
          "internalType": "uint256",
          "name": "amountOutMin",
          "type": "uint256"
        },
        {
          "internalType": "address[]",
          "name": "path",
          "type": "address[]"
        },
        {
          "internalType": "address",
          "name": "to",
          "type": "address"
        },
        {
          "internalType": "uint256",
          "name": "deadline",
          "type": "uint256"
        }
      ],
      "name": "swapExactTokensForTokens",
      "outputs": [
        {
          "internalType": "uint256[]",
          "name": "amounts",
          "type": "uint256[]"
        }
      ],
      "stateMutability": "nonpayable",
      "type": "function"
    },
    {
      "inputs": [
        {
          "internalType": "uint256",
          "name": "amountOut",
          "type": "uint256"
        },
        {
          "internalType": "uint256",
          "name": "amountInMax",
          "type": "uint256"
        },
        {
          "internalType": "address[]",
          "name": "path",
          "type": "address[]"
        },
        {
          "internalType": "address",
          "name": "to",
          "type": "address"
        },
        {
          "internalType": "uint256",
          "name": "deadline",
          "type": "uint256"
        }
      ],
      "name": "swapTokensForExactTokens",
      "outputs": [
        {
          "internalType": "uint256[]",
          "name": "amounts",
          "type": "uint256[]"
        }
      ],
      "stateMutability": "nonpayable",
      "type": "function"
    }
  ],
  "bytecode": "0x60806040523480156200001157600080fd5b5060405162002c2f38038062002c2f833981810160405281019062000037919062000180565b806000806101000a81548173ffffffffffffffffffffffffffffffffffffffff021916908373ffffffffffffffffffffffffffffffffffffffff16021790555060008054906101000a900473ffffffffffffffffffffffffffffffffffffffff1673ffffffffffffffffffffffffffffffffffffffff16635855a25a6040518163ffffffff1660e01b8152600401602060405180830381865afa158015620000e3573d6000803e3d6000fd5b505050506040513d601f19601f82011682018060405250810190620001099190620001ed565b600181905550506200021f565b600080fd5b600073ffffffffffffffffffffffffffffffffffffffff82169050919050565b600062000148826200011b565b9050919050565b6200015a816200013b565b81146200016657600080fd5b50565b6000815190506200017a816200014f565b92915050565b60006020828403121562000199576200019862000116565b5b6000620001a98482850162000169565b91505092915050565b6000819050919050565b620001c781620001b2565b8114620001d357600080fd5b50565b600081519050620001e781620001bc565b92915050565b60006020828403121562000206576200020562000116565b5b60006200021684828501620001d6565b91505092915050565b612a00806200022f6000396000f3fe608060405234801561001057600080fd5b50600436106100885760003560e01c8063c45a01551161005b578063c45a01551461014e578063d06ca61f1461016c578063d52bb6f41461019c578063e8e33700146101ce57610088565b80631f00ca741461008d57806338ed1739146100bd5780638803dbee146100ed578063baa2abde1461011d575b600080fd5b6100a760048036038101906100a29190611961565b610200565b6040516100b49190611a7b565b60405180910390f35b6100d760048036038101906100d29190611af8565b61039a565b6040516100e49190611a7b565b60405180910390f35b61010760048036038101906101029190611af8565b6105ba565b6040516101149190611a7b565b60405180910390f35b61013760048036038101906101329190611b92565b6107ce565b604051610145929190611c43565b60405180910390f35b6101566109c0565b6040516101639190611c7b565b60405180910390f35b61018660048036038101906101819190611961565b6109e4565b6040516101939190611a7b565b60405180910390f35b6101b660048036038101906101b19190611c96565b610b6e565b6040516101c593929190611cd6565b60405180910390f35b6101e860048036038101906101e39190611d0d565b610c77565b6040516101f793929190611dc3565b60405180910390f35b6060600282511015610247576040517f08c379a000000000000000000000000000000000000000000000000000000000815260040161023e90611e57565b60405180910390fd5b815167ffffffffffffffff811115610262576102616117c0565b5b6040519080825280602002602001820160405280156102905781602001602082028036833780820191505090505b5090508281600183516102a39190611ea6565b815181106102b4576102b3611eda565b5b6020026020010181815250506000600183516102d09190611ea6565b90505b600081111561039357600080610329856001856102f09190611ea6565b8151811061030157610300611eda565b5b602002602001015186858151811061031c5761031b611eda565b5b6020026020010151610b6e565b509150915061035384848151811061034457610343611eda565b5b60200260200101518383610fe9565b846001856103619190611ea6565b8151811061037257610371611eda565b5b6020026020010181815250505050808061038b90611f09565b9150506102d3565b5092915050565b606081428110156103e0576040517f08c379a00000000000000000000000000000000000000000000000000000000081526004016103d790611f7e565b60405180910390fd5b61042b88878780806020026020016040519081016040528093929190818152602001838360200280828437600081840152601f19601f820116905080830192505050505050506109e4565b915086826001845161043d9190611ea6565b8151811061044e5761044d611eda565b5b60200260200101511015610497576040517f08c379a000000000000000000000000000000000000000000000000000000000815260040161048e90611fea565b60405180910390fd5b610563868660008181106104ae576104ad611eda565b5b90506020020160208101906104c3919061200a565b3361054260008054906101000a900473ffffffffffffffffffffffffffffffffffffffff168a8a60008181106104fc576104fb611eda565b5b9050602002016020810190610511919061200a565b8b8b600181811061052557610524611eda565b5b905060200201602081019061053a919061200a565b6001546110d9565b8560008151811061055657610555611eda565b5b602002602001015161114e565b6105af82878780806020026020016040519081016040528093929190818152602001838360200280828437600081840152601f19601f8201169050808301925050505050505086611287565b509695505050505050565b60608142811015610600576040517f08c379a00000000000000000000000000000000000000000000000000000000081526004016105f790611f7e565b60405180910390fd5b61064b88878780806020026020016040519081016040528093929190818152602001838360200280828437600081840152601f19601f82011690508083019250505050505050610200565b9150868260008151811061066257610661611eda565b5b602002602001015111156106ab576040517f08c379a00000000000000000000000000000000000000000000000000000000081526004016106a290612083565b60405180910390fd5b610777868660008181106106c2576106c1611eda565b5b90506020020160208101906106d7919061200a565b3361075660008054906101000a900473ffffffffffffffffffffffffffffffffffffffff168a8a60008181106107105761070f611eda565b5b9050602002016020810190610725919061200a565b8b8b600181811061073957610738611eda565b5b905060200201602081019061074e919061200a565b6001546110d9565b8560008151811061076a57610769611eda565b5b602002602001015161114e565b6107c382878780806020026020016040519081016040528093929190818152602001838360200280828437600081840152601f19601f8201169050808301925050505050505086611287565b509695505050505050565b6000808242811015610815576040517f08c379a000000000000000000000000000000000000000000000000000000000815260040161080c90611f7e565b60405180910390fd5b600061084560008054906101000a900473ffffffffffffffffffffffffffffffffffffffff168c8c6001546110d9565b90506108538133838c61114e565b6000808273ffffffffffffffffffffffffffffffffffffffff166389afcb44896040518263ffffffff1660e01b815260040161088f9190611c7b565b60408051808303816000875af11580156108ad573d6000803e3d6000fd5b505050506040513d601f19601f820116820180604052508101906108d191906120b8565b9150915060006108e18e8e611497565b5090508073ffffffffffffffffffffffffffffffffffffffff168e73ffffffffffffffffffffffffffffffffffffffff161461091e578183610921565b82825b80975081985050508a87101561096c576040517f08c379a000000000000000000000000000000000000000000000000000000000815260040161096390612144565b60405180910390fd5b898610156109af576040517f08c379a00000000000000000000000000000000000000000000000000000000081526004016109a6906121b0565b60405180910390fd5b505050505097509795505050505050565b60008054906101000a900473ffffffffffffffffffffffffffffffffffffffff1681565b6060600282511015610a2b576040517f08c379a0000000000000000000000000000000000000000000000000000000008152600401610a2290611e57565b60405180910390fd5b815167ffffffffffffffff811115610a4657610a456117c0565b5b604051908082528060200260200182016040528015610a745781602001602082028036833780820191505090505b5090508281600081518110610a8c57610a8b611eda565b5b60200260200101818152505060005b60018351610aa99190611ea6565b811015610b6757600080610afd858481518110610ac957610ac8611eda565b5b602002602001015186600186610adf91906121d0565b81518110610af057610aef611eda565b5b6020026020010151610b6e565b5091509150610b27848481518110610b1857610b17611eda565b5b602002602001015183836115c3565b84600185610b3591906121d0565b81518110610b4657610b45611eda565b5b60200260200101818152505050508080610b5f90612204565b915050610a9b565b5092915050565b600080600080610b7e8686611497565b509050610baf60008054906101000a900473ffffffffffffffffffffffffffffffffffffffff1687876001546110d9565b91506000808373ffffffffffffffffffffffffffffffffffffffff16630902f1ac6040518163ffffffff1660e01b8152600401606060405180830381865afa158015610bff573d6000803e3d6000fd5b505050506040513d601f19601f82011682018060405250810190610c23919061224c565b50915091508273ffffffffffffffffffffffffffffffffffffffff168873ffffffffffffffffffffffffffffffffffffffff1614610c62578082610c65565b81815b80965081975050505050509250925092565b60008060008342811015610cc0576040517f08c379a0000000000000000000000000000000000000000000000000000000008152600401610cb790611f7e565b60405180910390fd5b600073ffffffffffffffffffffffffffffffffffffffff1660008054906101000a900473ffffffffffffffffffffffffffffffffffffffff1673ffffffffffffffffffffffffffffffffffffffff1663e6a439058e8e6040518363ffffffff1660e01b8152600401610d3392919061229f565b602060405180830381865afa158015610d50573d6000803e3d6000fd5b505050506040513d601f19601f82011682018060405250810190610d7491906122dd565b73ffffffffffffffffffffffffffffffffffffffff1603610e2f5760008054906101000a900473ffffffffffffffffffffffffffffffffffffffff1673ffffffffffffffffffffffffffffffffffffffff1663c9c653968d8d6040518363ffffffff1660e01b8152600401610dea92919061229f565b6020604051808303816000875af1158015610e09573d6000803e3d6000fd5b505050506040513d601f19601f82011682018060405250810190610e2d91906122dd565b505b6000806000610e3e8f8f610b6e565b925092509250600083148015610e545750600082145b15610e68578c8c8097508198505050610f41565b6000610e758e85856116ad565b90508c8111610ed0578a811015610ec1576040517f08c379a0000000000000000000000000000000000000000000000000000000008152600401610eb890612356565b60405180910390fd5b8d818098508199505050610f3f565b6000610edd8e85876116ad565b90508e811115610ef057610eef612376565b5b8c811015610f33576040517f08c379a0000000000000000000000000000000000000000000000000000000008152600401610f2a906123f1565b60405180910390fd5b808e809950819a505050505b505b610f4d8f33838a61114e565b610f598e33838961114e565b8073ffffffffffffffffffffffffffffffffffffffff16636a6278428a6040518263ffffffff1660e01b8152600401610f929190611c7b565b6020604051808303816000875af1158015610fb1573d6000803e3d6000fd5b505050506040513d601f19601f82011682018060405250810190610fd59190612411565b945050505050985098509895505050505050565b600080841161102d576040517f08c379a000000000000000000000000000000000000000000000000000000000815260040161102490611fea565b60405180910390fd5b60008311801561103d5750600082115b61107c576040517f08c379a00000000000000000000000000000000000000000000000000000000081526004016110739061248a565b60405180910390fd5b60006103e8858561108d91906124aa565b61109791906124aa565b905060006103e686856110aa9190611ea6565b6110b491906124aa565b9050600181836110c4919061251b565b6110ce91906121d0565b925050509392505050565b60008060006110e88686611497565b91509150868282604051602001611100929190612594565b604051602081830303815290604052805190602001208560405160200161112993929190612642565b6040516020818303038152906040528051906020012060001c92505050949350505050565b6000808573ffffffffffffffffffffffffffffffffffffffff166323b872dd8686866040516024016111829392919061268a565b6040516020818303038152906040529060e01b6020820180517bffffffffffffffffffffffffffffffffffffffffffffffffffffffff83818316178352505050506040516111d09190612732565b6000604051808303816000865af19150503d806000811461120d576040519150601f19603f3d011682016040523d82523d6000602084013e611212565b606091505b5091509150818015611240575060008151148061123f57508080602001905181019061123e9190612781565b5b5b61127f576040517f08c379a0000000000000000000000000000000000000000000000000000000008152600401611276906127fa565b60405180910390fd5b505050505050565b60005b600183516112989190611ea6565b811015611491576000808483815181106112b5576112b4611eda565b5b6020026020010151856001856112cb91906121d0565b815181106112dc576112db611eda565b5b60200260200101519150915060006112f48383611497565b50905060008760018661130791906121d0565b8151811061131857611317611eda565b5b602002602001015190506000808373ffffffffffffffffffffffffffffffffffffffff168673ffffffffffffffffffffffffffffffffffffffff161461136057826000611364565b6000835b91509150600060028a516113789190611ea6565b881061138457886113d9565b6113d860008054906101000a900473ffffffffffffffffffffffffffffffffffffffff16878c60028c6113b791906121d0565b815181106113c8576113c7611eda565b5b60200260200101516001546110d9565b5b905061140960008054906101000a900473ffffffffffffffffffffffffffffffffffffffff1688886001546110d9565b73ffffffffffffffffffffffffffffffffffffffff16636d9a640a8484846040518463ffffffff1660e01b815260040161144593929190611cd6565b600060405180830381600087803b15801561145f57600080fd5b505af1158015611473573d6000803e3d6000fd5b5050505050505050505050808061148990612204565b91505061128a565b50505050565b6000808273ffffffffffffffffffffffffffffffffffffffff168473ffffffffffffffffffffffffffffffffffffffff1603611508576040517f08c379a00000000000000000000000000000000000000000000000000000000081526004016114ff90612866565b60405180910390fd5b8273ffffffffffffffffffffffffffffffffffffffff168473ffffffffffffffffffffffffffffffffffffffff1610611542578284611545565b83835b8092508193505050600073ffffffffffffffffffffffffffffffffffffffff168273ffffffffffffffffffffffffffffffffffffffff16036115bc576040517f08c379a00000000000000000000000000000000000000000000000000000000081526004016115b3906128d2565b60405180910390fd5b9250929050565b6000808411611607576040517f08c379a00000000000000000000000000000000000000000000000000000000081526004016115fe9061293e565b60405180910390fd5b6000831180156116175750600082115b611656576040517f08c379a000000000000000000000000000000000000000000000000000000000815260040161164d9061248a565b60405180910390fd5b60006103e68561166691906124aa565b90506000838261167691906124aa565b90506000826103e88761168991906124aa565b61169391906121d0565b905080826116a1919061251b565b93505050509392505050565b60008084116116f1576040517f08c379a00000000000000000000000000000000000000000000000000000000081526004016116e8906129aa565b60405180910390fd5b6000831180156117015750600082115b611740576040517f08c379a00000000000000000000000000000000000000000000000000000000081526004016117379061248a565b60405180910390fd5b82828561174d91906124aa565b611757919061251b565b90509392505050565b6000604051905090565b600080fd5b600080fd5b6000819050919050565b61178781611774565b811461179257600080fd5b50565b6000813590506117a48161177e565b92915050565b600080fd5b6000601f19601f8301169050919050565b7f4e487b7100000000000000000000000000000000000000000000000000000000600052604160045260246000fd5b6117f8826117af565b810181811067ffffffffffffffff82111715611817576118166117c0565b5b80604052505050565b600061182a611760565b905061183682826117ef565b919050565b600067ffffffffffffffff821115611856576118556117c0565b5b602082029050602081019050919050565b600080fd5b600073ffffffffffffffffffffffffffffffffffffffff82169050919050565b60006118978261186c565b9050919050565b6118a78161188c565b81146118b257600080fd5b50565b6000813590506118c48161189e565b92915050565b60006118dd6118d88461183b565b611820565b90508083825260208201905060208402830185811115611900576118ff611867565b5b835b81811015611929578061191588826118b5565b845260208401935050602081019050611902565b5050509392505050565b600082601f830112611948576119476117aa565b5b81356119588482602086016118ca565b91505092915050565b600080604083850312156119785761197761176a565b5b600061198685828601611795565b925050602083013567ffffffffffffffff8111156119a7576119a661176f565b5b6119b385828601611933565b9150509250929050565b600081519050919050565b600082825260208201905092915050565b6000819050602082019050919050565b6119f281611774565b82525050565b6000611a0483836119e9565b60208301905092915050565b6000602082019050919050565b6000611a28826119bd565b611a3281856119c8565b9350611a3d836119d9565b8060005b83811015611a6e578151611a5588826119f8565b9750611a6083611a10565b925050600181019050611a41565b5085935050505092915050565b60006020820190508181036000830152611a958184611a1d565b905092915050565b600080fd5b60008083601f840112611ab857611ab76117aa565b5b8235905067ffffffffffffffff811115611ad557611ad4611a9d565b5b602083019150836020820283011115611af157611af0611867565b5b9250929050565b60008060008060008060a08789031215611b1557611b1461176a565b5b6000611b2389828a01611795565b9650506020611b3489828a01611795565b955050604087013567ffffffffffffffff811115611b5557611b5461176f565b5b611b6189828a01611aa2565b94509450506060611b7489828a016118b5565b9250506080611b8589828a01611795565b9150509295509295509295565b600080600080600080600060e0888a031215611bb157611bb061176a565b5b6000611bbf8a828b016118b5565b9750506020611bd08a828b016118b5565b9650506040611be18a828b01611795565b9550506060611bf28a828b01611795565b9450506080611c038a828b01611795565b93505060a0611c148a828b016118b5565b92505060c0611c258a828b01611795565b91505092959891949750929550565b611c3d81611774565b82525050565b6000604082019050611c586000830185611c34565b611c656020830184611c34565b9392505050565b611c758161188c565b82525050565b6000602082019050611c906000830184611c6c565b92915050565b60008060408385031215611cad57611cac61176a565b5b6000611cbb858286016118b5565b9250506020611ccc858286016118b5565b9150509250929050565b6000606082019050611ceb6000830186611c34565b611cf86020830185611c34565b611d056040830184611c6c565b949350505050565b600080600080600080600080610100898b031215611d2e57611d2d61176a565b5b6000611d3c8b828c016118b5565b9850506020611d4d8b828c016118b5565b9750506040611d5e8b828c01611795565b9650506060611d6f8b828c01611795565b9550506080611d808b828c01611795565b94505060a0611d918b828c01611795565b93505060c0611da28b828c016118b5565b92505060e0611db38b828c01611795565b9150509295985092959890939650565b6000606082019050611dd86000830186611c34565b611de56020830185611c34565b611df26040830184611c34565b949350505050565b600082825260208201905092915050565b7f494e56414c49445f504154480000000000000000000000000000000000000000600082015250565b6000611e41600c83611dfa565b9150611e4c82611e0b565b602082019050919050565b60006020820190508181036000830152611e7081611e34565b9050919050565b7f4e487b7100000000000000000000000000000000000000000000000000000000600052601160045260246000fd5b6000611eb182611774565b9150611ebc83611774565b9250828203905081811115611ed457611ed3611e77565b5b92915050565b7f4e487b7100000000000000000000000000000000000000000000000000000000600052603260045260246000fd5b6000611f1482611774565b915060008203611f2757611f26611e77565b5b600182039050919050565b7f4558504952454400000000000000000000000000000000000000000000000000600082015250565b6000611f68600783611dfa565b9150611f7382611f32565b602082019050919050565b60006020820190508181036000830152611f9781611f5b565b9050919050565b7f494e53554646494349454e545f4f55545055545f414d4f554e54000000000000600082015250565b6000611fd4601a83611dfa565b9150611fdf82611f9e565b602082019050919050565b6000602082019050818103600083015261200381611fc7565b9050919050565b6000602082840312156120205761201f61176a565b5b600061202e848285016118b5565b91505092915050565b7f4558434553534956455f494e5055545f414d4f554e5400000000000000000000600082015250565b600061206d601683611dfa565b915061207882612037565b602082019050919050565b6000602082019050818103600083015261209c81612060565b9050919050565b6000815190506120b28161177e565b92915050565b600080604083850312156120cf576120ce61176a565b5b60006120dd858286016120a3565b92505060206120ee858286016120a3565b9150509250929050565b7f494e53554646494349454e545f415f414d4f554e540000000000000000000000600082015250565b600061212e601583611dfa565b9150612139826120f8565b602082019050919050565b6000602082019050818103600083015261215d81612121565b9050919050565b7f494e53554646494349454e545f425f414d4f554e540000000000000000000000600082015250565b600061219a601583611dfa565b91506121a582612164565b602082019050919050565b600060208201905081810360008301526121c98161218d565b9050919050565b60006121db82611774565b91506121e683611774565b92508282019050808211156121fe576121fd611e77565b5b92915050565b600061220f82611774565b91507fffffffffffffffffffffffffffffffffffffffffffffffffffffffffffffffff820361224157612240611e77565b5b600182019050919050565b6000806000606084860312156122655761226461176a565b5b6000612273868287016120a3565b9350506020612284868287016120a3565b9250506040612295868287016120a3565b9150509250925092565b60006040820190506122b46000830185611c6c565b6122c16020830184611c6c565b9392505050565b6000815190506122d78161189e565b92915050565b6000602082840312156122f3576122f261176a565b5b6000612301848285016122c8565b91505092915050565b7f494e53554646494349454e545f746f6b656e425f414d4f554e54000000000000600082015250565b6000612340601a83611dfa565b915061234b8261230a565b602082019050919050565b6000602082019050818103600083015261236f81612333565b9050919050565b7f4e487b7100000000000000000000000000000000000000000000000000000000600052600160045260246000fd5b7f494e53554646494349454e545f746f6b656e415f414d4f554e54000000000000600082015250565b60006123db601a83611dfa565b91506123e6826123a5565b602082019050919050565b6000602082019050818103600083015261240a816123ce565b9050919050565b6000602082840312156124275761242661176a565b5b6000612435848285016120a3565b91505092915050565b7f494e53554646494349454e545f4c495155494449545900000000000000000000600082015250565b6000612474601683611dfa565b915061247f8261243e565b602082019050919050565b600060208201905081810360008301526124a381612467565b9050919050565b60006124b582611774565b91506124c083611774565b92508282026124ce81611774565b915082820484148315176124e5576124e4611e77565b5b5092915050565b7f4e487b7100000000000000000000000000000000000000000000000000000000600052601260045260246000fd5b600061252682611774565b915061253183611774565b925082612541576125406124ec565b5b828204905092915050565b60008160601b9050919050565b60006125648261254c565b9050919050565b600061257682612559565b9050919050565b61258e6125898261188c565b61256b565b82525050565b60006125a0828561257d565b6014820191506125b0828461257d565b6014820191508190509392505050565b600081905092915050565b7fff00000000000000000000000000000000000000000000000000000000000000600082015250565b60006126016001836125c0565b915061260c826125cb565b600182019050919050565b6000819050919050565b6000819050919050565b61263c61263782612617565b612621565b82525050565b600061264d826125f4565b9150612659828661257d565b601482019150612669828561262b565b602082019150612679828461262b565b602082019150819050949350505050565b600060608201905061269f6000830186611c6c565b6126ac6020830185611c6c565b6126b96040830184611c34565b949350505050565b600081519050919050565b600081905092915050565b60005b838110156126f55780820151818401526020810190506126da565b60008484015250505050565b600061270c826126c1565b61271681856126cc565b93506127268185602086016126d7565b80840191505092915050565b600061273e8284612701565b915081905092915050565b60008115159050919050565b61275e81612749565b811461276957600080fd5b50565b60008151905061277b81612755565b92915050565b6000602082840312156127975761279661176a565b5b60006127a58482850161276c565b91505092915050565b7f5452414e534645525f46524f4d5f4641494c4544000000000000000000000000600082015250565b60006127e4601483611dfa565b91506127ef826127ae565b602082019050919050565b60006020820190508181036000830152612813816127d7565b9050919050565b7f4944454e544943414c5f4144445245535345535f4e4f545f414c4c4f57454400600082015250565b6000612850601f83611dfa565b915061285b8261281a565b602082019050919050565b6000602082019050818103600083015261287f81612843565b9050919050565b7f5a45524f5f414444524553535f4e4f545f414c4c4f5745440000000000000000600082015250565b60006128bc601883611dfa565b91506128c782612886565b602082019050919050565b600060208201905081810360008301526128eb816128af565b9050919050565b7f494e53554646494349454e545f494e5055545f414d4f554e5400000000000000600082015250565b6000612928601983611dfa565b9150612933826128f2565b602082019050919050565b600060208201905081810360008301526129578161291b565b9050919050565b7f494e53554646494349454e545f414d4f554e5400000000000000000000000000600082015250565b6000612994601383611dfa565b915061299f8261295e565b602082019050919050565b600060208201905081810360008301526129c381612987565b905091905056fea26469706673582212202cac687e783217f3cfb39ee68f169c5ded6d29073f20e3dabcbfa8b4a3e2dce364736f6c63430008110033",
  "linkReferences": {},
  "deployedLinkReferences": {}
}