{
  "_format": "hh-sol-artifact-1",
  "contractName": "AMMRouter",
  "sourceName": "src/backend/contracts/AMMRouter.sol",
  "abi": [
    {
      "inputs": [
        {
          "internalType": "address",
          "name": "_factory",
          "type": "address"
        },
        {
          "internalType": "address",
          "name": "_WETH",
          "type": "address"
        }
      ],
      "stateMutability": "nonpayable",
      "type": "constructor"
    },
    {
      "inputs": [],
      "name": "WETH",
      "outputs": [
        {
          "internalType": "address",
          "name": "",
          "type": "address"
        }
      ],
      "stateMutability": "view",
      "type": "function"
    },
    {
      "inputs": [
        {
          "internalType": "address",
          "name": "tokenA",
          "type": "address"
        },
        {
          "internalType": "address",
          "name": "tokenB",
          "type": "address"
        },
        {
          "internalType": "uint256",
          "name": "amountADesired",
          "type": "uint256"
        },
        {
          "internalType": "uint256",
          "name": "amountBDesired",
          "type": "uint256"
        },
        {
          "internalType": "uint256",
          "name": "amountAMin",
          "type": "uint256"
        },
        {
          "internalType": "uint256",
          "name": "amountBMin",
          "type": "uint256"
        },
        {
          "internalType": "address",
          "name": "to",
          "type": "address"
        },
        {
          "internalType": "uint256",
          "name": "deadline",
          "type": "uint256"
        }
      ],
      "name": "addLiquidity",
      "outputs": [
        {
          "internalType": "uint256",
          "name": "amountA",
          "type": "uint256"
        },
        {
          "internalType": "uint256",
          "name": "amountB",
          "type": "uint256"
        },
        {
          "internalType": "uint256",
          "name": "liquidity",
          "type": "uint256"
        }
      ],
      "stateMutability": "nonpayable",
      "type": "function"
    },
    {
      "inputs": [
        {
          "internalType": "address",
          "name": "token",
          "type": "address"
        },
        {
          "internalType": "uint256",
          "name": "amountTokenDesired",
          "type": "uint256"
        },
        {
          "internalType": "uint256",
          "name": "amountTokenMin",
          "type": "uint256"
        },
        {
          "internalType": "uint256",
          "name": "amountETHMin",
          "type": "uint256"
        },
        {
          "internalType": "address",
          "name": "to",
          "type": "address"
        },
        {
          "internalType": "uint256",
          "name": "deadline",
          "type": "uint256"
        }
      ],
      "name": "addLiquidityETH",
      "outputs": [
        {
          "internalType": "uint256",
          "name": "amountToken",
          "type": "uint256"
        },
        {
          "internalType": "uint256",
          "name": "amountETH",
          "type": "uint256"
        },
        {
          "internalType": "uint256",
          "name": "liquidity",
          "type": "uint256"
        }
      ],
      "stateMutability": "payable",
      "type": "function"
    },
    {
      "inputs": [],
      "name": "factory",
      "outputs": [
        {
          "internalType": "address",
          "name": "",
          "type": "address"
        }
      ],
      "stateMutability": "view",
      "type": "function"
    },
    {
      "inputs": [
        {
          "internalType": "uint256",
          "name": "amountOut",
          "type": "uint256"
        },
        {
          "internalType": "address[]",
          "name": "path",
          "type": "address[]"
        }
      ],
      "name": "getAmountsIn",
      "outputs": [
        {
          "internalType": "uint256[]",
          "name": "amounts",
          "type": "uint256[]"
        }
      ],
      "stateMutability": "view",
      "type": "function"
    },
    {
      "inputs": [
        {
          "internalType": "uint256",
          "name": "amountIn",
          "type": "uint256"
        },
        {
          "internalType": "address[]",
          "name": "path",
          "type": "address[]"
        }
      ],
      "name": "getAmountsOut",
      "outputs": [
        {
          "internalType": "uint256[]",
          "name": "amounts",
          "type": "uint256[]"
        }
      ],
      "stateMutability": "view",
      "type": "function"
    },
    {
      "inputs": [
        {
          "internalType": "address",
          "name": "tokenA",
          "type": "address"
        },
        {
          "internalType": "address",
          "name": "tokenB",
          "type": "address"
        }
      ],
      "name": "getReserves",
      "outputs": [
        {
          "internalType": "uint256",
          "name": "reserveA",
          "type": "uint256"
        },
        {
          "internalType": "uint256",
          "name": "reserveB",
          "type": "uint256"
        },
        {
          "internalType": "address",
          "name": "pair",
          "type": "address"
        }
      ],
      "stateMutability": "view",
      "type": "function"
    },
    {
      "inputs": [
        {
          "internalType": "address",
          "name": "tokenA",
          "type": "address"
        },
        {
          "internalType": "address",
          "name": "tokenB",
          "type": "address"
        },
        {
          "internalType": "uint256",
          "name": "liquidity",
          "type": "uint256"
        },
        {
          "internalType": "uint256",
          "name": "amountAMin",
          "type": "uint256"
        },
        {
          "internalType": "uint256",
          "name": "amountBMin",
          "type": "uint256"
        },
        {
          "internalType": "address",
          "name": "to",
          "type": "address"
        },
        {
          "internalType": "uint256",
          "name": "deadline",
          "type": "uint256"
        }
      ],
      "name": "removeLiquidity",
      "outputs": [
        {
          "internalType": "uint256",
          "name": "amountA",
          "type": "uint256"
        },
        {
          "internalType": "uint256",
          "name": "amountB",
          "type": "uint256"
        }
      ],
      "stateMutability": "nonpayable",
      "type": "function"
    },
    {
      "inputs": [
        {
          "internalType": "address",
          "name": "token",
          "type": "address"
        },
        {
          "internalType": "uint256",
          "name": "liquidity",
          "type": "uint256"
        },
        {
          "internalType": "uint256",
          "name": "amountTokenMin",
          "type": "uint256"
        },
        {
          "internalType": "uint256",
          "name": "amountETHMin",
          "type": "uint256"
        },
        {
          "internalType": "address",
          "name": "to",
          "type": "address"
        },
        {
          "internalType": "uint256",
          "name": "deadline",
          "type": "uint256"
        }
      ],
      "name": "removeLiquidityETH",
      "outputs": [
        {
          "internalType": "uint256",
          "name": "amountToken",
          "type": "uint256"
        },
        {
          "internalType": "uint256",
          "name": "amountETH",
          "type": "uint256"
        }
      ],
      "stateMutability": "nonpayable",
      "type": "function"
    },
    {
      "inputs": [
        {
          "internalType": "uint256",
          "name": "amountOut",
          "type": "uint256"
        },
        {
          "internalType": "address[]",
          "name": "path",
          "type": "address[]"
        },
        {
          "internalType": "address",
          "name": "to",
          "type": "address"
        },
        {
          "internalType": "uint256",
          "name": "deadline",
          "type": "uint256"
        }
      ],
      "name": "swapETHForExactTokens",
      "outputs": [
        {
          "internalType": "uint256[]",
          "name": "amounts",
          "type": "uint256[]"
        }
      ],
      "stateMutability": "payable",
      "type": "function"
    },
    {
      "inputs": [
        {
          "internalType": "uint256",
          "name": "amountOutMin",
          "type": "uint256"
        },
        {
          "internalType": "address[]",
          "name": "path",
          "type": "address[]"
        },
        {
          "internalType": "address",
          "name": "to",
          "type": "address"
        },
        {
          "internalType": "uint256",
          "name": "deadline",
          "type": "uint256"
        }
      ],
      "name": "swapExactETHForTokens",
      "outputs": [
        {
          "internalType": "uint256[]",
          "name": "amounts",
          "type": "uint256[]"
        }
      ],
      "stateMutability": "payable",
      "type": "function"
    },
    {
      "inputs": [
        {
          "internalType": "uint256",
          "name": "amountIn",
          "type": "uint256"
        },
        {
          "internalType": "uint256",
          "name": "amountOutMin",
          "type": "uint256"
        },
        {
          "internalType": "address[]",
          "name": "path",
          "type": "address[]"
        },
        {
          "internalType": "address",
          "name": "to",
          "type": "address"
        },
        {
          "internalType": "uint256",
          "name": "deadline",
          "type": "uint256"
        }
      ],
      "name": "swapExactTokensForETH",
      "outputs": [
        {
          "internalType": "uint256[]",
          "name": "amounts",
          "type": "uint256[]"
        }
      ],
      "stateMutability": "nonpayable",
      "type": "function"
    },
    {
      "inputs": [
        {
          "internalType": "uint256",
          "name": "amountIn",
          "type": "uint256"
        },
        {
          "internalType": "uint256",
          "name": "amountOutMin",
          "type": "uint256"
        },
        {
          "internalType": "address[]",
          "name": "path",
          "type": "address[]"
        },
        {
          "internalType": "address",
          "name": "to",
          "type": "address"
        },
        {
          "internalType": "uint256",
          "name": "deadline",
          "type": "uint256"
        }
      ],
      "name": "swapExactTokensForTokens",
      "outputs": [
        {
          "internalType": "uint256[]",
          "name": "amounts",
          "type": "uint256[]"
        }
      ],
      "stateMutability": "nonpayable",
      "type": "function"
    },
    {
      "inputs": [
        {
          "internalType": "uint256",
          "name": "amountOut",
          "type": "uint256"
        },
        {
          "internalType": "uint256",
          "name": "amountInMax",
          "type": "uint256"
        },
        {
          "internalType": "address[]",
          "name": "path",
          "type": "address[]"
        },
        {
          "internalType": "address",
          "name": "to",
          "type": "address"
        },
        {
          "internalType": "uint256",
          "name": "deadline",
          "type": "uint256"
        }
      ],
      "name": "swapTokensForExactETH",
      "outputs": [
        {
          "internalType": "uint256[]",
          "name": "amounts",
          "type": "uint256[]"
        }
      ],
      "stateMutability": "nonpayable",
      "type": "function"
    },
    {
      "inputs": [
        {
          "internalType": "uint256",
          "name": "amountOut",
          "type": "uint256"
        },
        {
          "internalType": "uint256",
          "name": "amountInMax",
          "type": "uint256"
        },
        {
          "internalType": "address[]",
          "name": "path",
          "type": "address[]"
        },
        {
          "internalType": "address",
          "name": "to",
          "type": "address"
        },
        {
          "internalType": "uint256",
          "name": "deadline",
          "type": "uint256"
        }
      ],
      "name": "swapTokensForExactTokens",
      "outputs": [
        {
          "internalType": "uint256[]",
          "name": "amounts",
          "type": "uint256[]"
        }
      ],
      "stateMutability": "nonpayable",
      "type": "function"
    },
    {
      "stateMutability": "payable",
      "type": "receive"
    }
  ],
  "bytecode": "0x60c06040523480156200001157600080fd5b5060405162003093380380620030938339810160408190526200003491620000d5565b6001600160a01b03808316608081905290821660a05260408051632c2ad12d60e11b81529051635855a25a916004808201926020929091908290030181865afa15801562000086573d6000803e3d6000fd5b505050506040513d601f19601f82011682018060405250810190620000ac91906200010d565b60005550620001279050565b80516001600160a01b0381168114620000d057600080fd5b919050565b60008060408385031215620000e957600080fd5b620000f483620000b8565b91506200010460208401620000b8565b90509250929050565b6000602082840312156200012057600080fd5b5051919050565b60805160a051612e9f620001f46000396000818160fc0152818161023c015281816103d801528181610440015281816105010152818161075501528181610b4601528181610cc401528181610e1001528181610e9e01528181611680015281816116bd01528181611752015281816118a5015281816119e50152611a730152600081816102a80152818161067d01528181610ed0015281816111390152818161146201528181611aa5015281816120fa0152818161214d0152818161254701526126000152612e9f6000f3fe6080604052600436106100ec5760003560e01c8063ad5c46481161008a578063d52bb6f411610059578063d52bb6f4146102ea578063e8e337001461032e578063f305d71914610369578063fb3bdb411461037c57600080fd5b8063ad5c46481461022a578063baa2abde14610276578063c45a015514610296578063d06ca61f146102ca57600080fd5b806338ed1739116100c657806338ed1739146101b75780634a25d94a146101d75780637ff36ab5146101f75780638803dbee1461020a57600080fd5b806302751cec1461013057806318cbafe51461016a5780631f00ca741461019757600080fd5b3661012b57336001600160a01b037f000000000000000000000000000000000000000000000000000000000000000016146101295761012961285e565b005b600080fd5b34801561013c57600080fd5b5061015061014b36600461289c565b61038f565b604080519283526020830191909152015b60405180910390f35b34801561017657600080fd5b5061018a61018536600461293f565b6104ba565b60405161016191906129b2565b3480156101a357600080fd5b5061018a6101b2366004612a0c565b610834565b3480156101c357600080fd5b5061018a6101d236600461293f565b6109b8565b3480156101e357600080fd5b5061018a6101f236600461293f565b610aff565b61018a610205366004612add565b610c85565b34801561021657600080fd5b5061018a61022536600461293f565b61100e565b34801561023657600080fd5b5061025e7f000000000000000000000000000000000000000000000000000000000000000081565b6040516001600160a01b039091168152602001610161565b34801561028257600080fd5b50610150610291366004612b44565b6110f4565b3480156102a257600080fd5b5061025e7f000000000000000000000000000000000000000000000000000000000000000081565b3480156102d657600080fd5b5061018a6102e5366004612a0c565b6112e5565b3480156102f657600080fd5b5061030a610305366004612bb6565b61144a565b6040805193845260208401929092526001600160a01b031690820152606001610161565b34801561033a57600080fd5b5061034e610349366004612bef565b61154b565b60408051938452602084019290925290820152606001610161565b61034e61037736600461289c565b611638565b61018a61038a366004612add565b611866565b60008082428110156103d25760405162461bcd60e51b81526020600482015260076024820152661156141254915160ca1b60448201526064015b60405180910390fd5b610401897f00000000000000000000000000000000000000000000000000000000000000008a8a8a308a6110f4565b9093509150610411898685611bfd565b6040517f2e1a7d4d000000000000000000000000000000000000000000000000000000008152600481018390527f00000000000000000000000000000000000000000000000000000000000000006001600160a01b031690632e1a7d4d90602401600060405180830381600087803b15801561048c57600080fd5b505af11580156104a0573d6000803e3d6000fd5b505050506104ae8583611d2d565b50965096945050505050565b606081428110156104f75760405162461bcd60e51b81526020600482015260076024820152661156141254915160ca1b60448201526064016103c9565b6001600160a01b037f000000000000000000000000000000000000000000000000000000000000000016868661052e600182612c81565b81811061053d5761053d612c9a565b90506020020160208101906105529190612cb0565b6001600160a01b0316146105975760405162461bcd60e51b815260206004820152600c60248201526b0929cac82989288bea082a8960a31b60448201526064016103c9565b6105d4888787808060200260200160405190810160405280939291908181526020018383602002808284376000920191909152506112e592505050565b91508682600184516105e69190612c81565b815181106105f6576105f6612c9a565b6020026020010151101561064c5760405162461bcd60e51b815260206004820152601a60248201527f494e53554646494349454e545f4f55545055545f414d4f554e5400000000000060448201526064016103c9565b6107148686600081811061066257610662612c9a565b90506020020160208101906106779190612cb0565b336106f47f00000000000000000000000000000000000000000000000000000000000000008a8a60008181106106af576106af612c9a565b90506020020160208101906106c49190612cb0565b8b8b60018181106106d7576106d7612c9a565b90506020020160208101906106ec9190612cb0565b600054611def565b8560008151811061070757610707612c9a565b6020026020010151611ec5565b61075382878780806020026020016040519081016040528093929190818152602001838360200280828437600092019190915250309250612017915050565b7f00000000000000000000000000000000000000000000000000000000000000006001600160a01b0316632e1a7d4d83600185516107919190612c81565b815181106107a1576107a1612c9a565b60200260200101516040518263ffffffff1660e01b81526004016107c791815260200190565b600060405180830381600087803b1580156107e157600080fd5b505af11580156107f5573d6000803e3d6000fd5b5050505061082984836001855161080c9190612c81565b8151811061081c5761081c612c9a565b6020026020010151611d2d565b509695505050505050565b60606002825110156108775760405162461bcd60e51b815260206004820152600c60248201526b0929cac82989288bea082a8960a31b60448201526064016103c9565b815167ffffffffffffffff811115610891576108916129f6565b6040519080825280602002602001820160405280156108ba578160200160208202803683370190505b5090508281600183516108cd9190612c81565b815181106108dd576108dd612c9a565b6020026020010181815250506000600183516108f99190612c81565b90505b80156109b15760008061094b85610914600186612c81565b8151811061092457610924612c9a565b602002602001015186858151811061093e5761093e612c9a565b602002602001015161144a565b509150915061097484848151811061096557610965612c9a565b6020026020010151838361221a565b84610980600186612c81565b8151811061099057610990612c9a565b602002602001018181525050505080806109a990612cd4565b9150506108fc565b5092915050565b606081428110156109f55760405162461bcd60e51b81526020600482015260076024820152661156141254915160ca1b60448201526064016103c9565b610a32888787808060200260200160405190810160405280939291908181526020018383602002808284376000920191909152506112e592505050565b9150868260018451610a449190612c81565b81518110610a5457610a54612c9a565b60200260200101511015610aaa5760405162461bcd60e51b815260206004820152601a60248201527f494e53554646494349454e545f4f55545055545f414d4f554e5400000000000060448201526064016103c9565b610ac08686600081811061066257610662612c9a565b61082982878780806020026020016040519081016040528093929190818152602001838360200280828437600092019190915250899250612017915050565b60608142811015610b3c5760405162461bcd60e51b81526020600482015260076024820152661156141254915160ca1b60448201526064016103c9565b6001600160a01b037f0000000000000000000000000000000000000000000000000000000000000000168686610b73600182612c81565b818110610b8257610b82612c9a565b9050602002016020810190610b979190612cb0565b6001600160a01b031614610bdc5760405162461bcd60e51b815260206004820152600c60248201526b0929cac82989288bea082a8960a31b60448201526064016103c9565b610c198887878080602002602001604051908101604052809392919081815260200183836020028082843760009201919091525061083492505050565b91508682600081518110610c2f57610c2f612c9a565b6020026020010151111561064c5760405162461bcd60e51b815260206004820152601660248201527f4558434553534956455f494e5055545f414d4f554e540000000000000000000060448201526064016103c9565b60608142811015610cc25760405162461bcd60e51b81526020600482015260076024820152661156141254915160ca1b60448201526064016103c9565b7f00000000000000000000000000000000000000000000000000000000000000006001600160a01b031686866000818110610cff57610cff612c9a565b9050602002016020810190610d149190612cb0565b6001600160a01b031614610d595760405162461bcd60e51b815260206004820152600c60248201526b0929cac82989288bea082a8960a31b60448201526064016103c9565b610d96348787808060200260200160405190810160405280939291908181526020018383602002808284376000920191909152506112e592505050565b9150868260018451610da89190612c81565b81518110610db857610db8612c9a565b60200260200101511015610e0e5760405162461bcd60e51b815260206004820152601a60248201527f494e53554646494349454e545f4f55545055545f414d4f554e5400000000000060448201526064016103c9565b7f00000000000000000000000000000000000000000000000000000000000000006001600160a01b031663d0e30db083600081518110610e5057610e50612c9a565b60200260200101516040518263ffffffff1660e01b81526004016000604051808303818588803b158015610e8357600080fd5b505af1158015610e97573d6000803e3d6000fd5b50505050507f00000000000000000000000000000000000000000000000000000000000000006001600160a01b031663a9059cbb610f2a7f000000000000000000000000000000000000000000000000000000000000000089896000818110610f0257610f02612c9a565b9050602002016020810190610f179190612cb0565b8a8a60018181106106d7576106d7612c9a565b84600081518110610f3d57610f3d612c9a565b60200260200101516040518363ffffffff1660e01b8152600401610f769291906001600160a01b03929092168252602082015260400190565b6020604051808303816000875af1158015610f95573d6000803e3d6000fd5b505050506040513d601f19601f82011682018060405250810190610fb99190612ceb565b610fc557610fc561285e565b61100482878780806020026020016040519081016040528093929190818152602001838360200280828437600092019190915250899250612017915050565b5095945050505050565b6060814281101561104b5760405162461bcd60e51b81526020600482015260076024820152661156141254915160ca1b60448201526064016103c9565b6110888887878080602002602001604051908101604052809392919081815260200183836020028082843760009201919091525061083492505050565b9150868260008151811061109e5761109e612c9a565b60200260200101511115610aaa5760405162461bcd60e51b815260206004820152601660248201527f4558434553534956455f494e5055545f414d4f554e540000000000000000000060448201526064016103c9565b60008082428110156111325760405162461bcd60e51b81526020600482015260076024820152661156141254915160ca1b60448201526064016103c9565b60006111627f00000000000000000000000000000000000000000000000000000000000000008c8c600054611def565b90506111708133838c611ec5565b6040517f89afcb440000000000000000000000000000000000000000000000000000000081526001600160a01b03878116600483015260009182918416906389afcb449060240160408051808303816000875af11580156111d5573d6000803e3d6000fd5b505050506040513d601f19601f820116820180604052508101906111f99190612d0d565b9150915060006112098e8e61231a565b509050806001600160a01b03168e6001600160a01b03161461122c57818361122f565b82825b90975095508a8710156112845760405162461bcd60e51b815260206004820152601560248201527f494e53554646494349454e545f415f414d4f554e54000000000000000000000060448201526064016103c9565b898610156112d45760405162461bcd60e51b815260206004820152601560248201527f494e53554646494349454e545f425f414d4f554e54000000000000000000000060448201526064016103c9565b505050505097509795505050505050565b60606002825110156113285760405162461bcd60e51b815260206004820152600c60248201526b0929cac82989288bea082a8960a31b60448201526064016103c9565b815167ffffffffffffffff811115611342576113426129f6565b60405190808252806020026020018201604052801561136b578160200160208202803683370190505b509050828160008151811061138257611382612c9a565b60200260200101818152505060005b6001835161139f9190612c81565b8110156109b1576000806113e48584815181106113be576113be612c9a565b6020026020010151868560016113d49190612d31565b8151811061093e5761093e612c9a565b509150915061140d8484815181106113fe576113fe612c9a565b60200260200101518383612403565b84611419856001612d31565b8151811061142957611429612c9a565b6020026020010181815250505050808061144290612d44565b915050611391565b60008060008061145a868661231a565b50905061148b7f00000000000000000000000000000000000000000000000000000000000000008787600054611def565b9150600080836001600160a01b0316630902f1ac6040518163ffffffff1660e01b8152600401606060405180830381865afa1580156114ce573d6000803e3d6000fd5b505050506040513d601f19601f820116820180604052508101906114f29190612d7b565b506dffffffffffffffffffffffffffff1691506dffffffffffffffffffffffffffff169150826001600160a01b0316886001600160a01b03161461153757808261153a565b81815b909990985093965092945050505050565b6000806000834281101561158b5760405162461bcd60e51b81526020600482015260076024820152661156141254915160ca1b60448201526064016103c9565b600061159b8d8d8d8d8d8d6124fe565b919650945090506115ae8d338388611ec5565b6115ba8c338387611ec5565b6040516335313c2160e11b81526001600160a01b038881166004830152821690636a627842906024016020604051808303816000875af1158015611602573d6000803e3d6000fd5b505050506040513d601f19601f820116820180604052508101906116269190612dcb565b92505050985098509895505050505050565b600080600083428110156116785760405162461bcd60e51b81526020600482015260076024820152661156141254915160ca1b60448201526064016103c9565b60006116a88b7f00000000000000000000000000000000000000000000000000000000000000008c348d8d6124fe565b919650945090506116bb8b338388611ec5565b7f00000000000000000000000000000000000000000000000000000000000000006001600160a01b031663d0e30db0856040518263ffffffff1660e01b81526004016000604051808303818588803b15801561171657600080fd5b505af115801561172a573d6000803e3d6000fd5b505060405163a9059cbb60e01b81526001600160a01b038581166004830152602482018990527f000000000000000000000000000000000000000000000000000000000000000016935063a9059cbb925060440190506020604051808303816000875af115801561179f573d6000803e3d6000fd5b505050506040513d601f19601f820116820180604052508101906117c39190612ceb565b6117cf576117cf61285e565b6040516335313c2160e11b81526001600160a01b038881166004830152821690636a627842906024016020604051808303816000875af1158015611817573d6000803e3d6000fd5b505050506040513d601f19601f8201168201806040525081019061183b9190612dcb565b92508334111561185857611858336118538634612c81565b611d2d565b505096509650969350505050565b606081428110156118a35760405162461bcd60e51b81526020600482015260076024820152661156141254915160ca1b60448201526064016103c9565b7f00000000000000000000000000000000000000000000000000000000000000006001600160a01b0316868660008181106118e0576118e0612c9a565b90506020020160208101906118f59190612cb0565b6001600160a01b03161461193a5760405162461bcd60e51b815260206004820152600c60248201526b0929cac82989288bea082a8960a31b60448201526064016103c9565b6119778787878080602002602001604051908101604052809392919081815260200183836020028082843760009201919091525061083492505050565b9150348260008151811061198d5761198d612c9a565b602002602001015111156119e35760405162461bcd60e51b815260206004820152601660248201527f4558434553534956455f494e5055545f414d4f554e540000000000000000000060448201526064016103c9565b7f00000000000000000000000000000000000000000000000000000000000000006001600160a01b031663d0e30db083600081518110611a2557611a25612c9a565b60200260200101516040518263ffffffff1660e01b81526004016000604051808303818588803b158015611a5857600080fd5b505af1158015611a6c573d6000803e3d6000fd5b50505050507f00000000000000000000000000000000000000000000000000000000000000006001600160a01b031663a9059cbb611ad77f000000000000000000000000000000000000000000000000000000000000000089896000818110610f0257610f02612c9a565b84600081518110611aea57611aea612c9a565b60200260200101516040518363ffffffff1660e01b8152600401611b239291906001600160a01b03929092168252602082015260400190565b6020604051808303816000875af1158015611b42573d6000803e3d6000fd5b505050506040513d601f19601f82011682018060405250810190611b669190612ceb565b611b7257611b7261285e565b611bb182878780806020026020016040519081016040528093929190818152602001838360200280828437600092019190915250899250612017915050565b81600081518110611bc457611bc4612c9a565b6020026020010151341115611004576110043383600081518110611bea57611bea612c9a565b6020026020010151346118539190612c81565b604080516001600160a01b038481166024830152604480830185905283518084039091018152606490920183526020820180517bffffffffffffffffffffffffffffffffffffffffffffffffffffffff1663a9059cbb60e01b1790529151600092839290871691611c6e9190612de4565b6000604051808303816000865af19150503d8060008114611cab576040519150601f19603f3d011682016040523d82523d6000602084013e611cb0565b606091505b5091509150818015611cda575080511580611cda575080806020019051810190611cda9190612ceb565b611d265760405162461bcd60e51b815260206004820152601f60248201527f5472616e7366657248656c7065723a205452414e534645525f4641494c45440060448201526064016103c9565b5050505050565b604080516000808252602082019092526001600160a01b038416908390604051611d579190612de4565b60006040518083038185875af1925050503d8060008114611d94576040519150601f19603f3d011682016040523d82523d6000602084013e611d99565b606091505b5050905080611dea5760405162461bcd60e51b815260206004820152601360248201527f4554485f5452414e534645525f4641494c45440000000000000000000000000060448201526064016103c9565b505050565b6000806000611dfe868661231a565b6040516bffffffffffffffffffffffff19606084811b8216602084015283901b166034820152919350915087906048016040516020818303038152906040528051906020012085604051602001611ea2939291907fff00000000000000000000000000000000000000000000000000000000000000815260609390931b6bffffffffffffffffffffffff191660018401526015830191909152603582015260550190565b60408051601f198184030181529190528051602090910120979650505050505050565b604080516001600160a01b0385811660248301528481166044830152606480830185905283518084039091018152608490920183526020820180517bffffffffffffffffffffffffffffffffffffffffffffffffffffffff167f23b872dd000000000000000000000000000000000000000000000000000000001790529151600092839290881691611f579190612de4565b6000604051808303816000865af19150503d8060008114611f94576040519150601f19603f3d011682016040523d82523d6000602084013e611f99565b606091505b5091509150818015611fc3575080511580611fc3575080806020019051810190611fc39190612ceb565b61200f5760405162461bcd60e51b815260206004820152601460248201527f5452414e534645525f46524f4d5f4641494c454400000000000000000000000060448201526064016103c9565b505050505050565b60005b600183516120289190612c81565b8110156122145760008084838151811061204457612044612c9a565b60200260200101518584600161205a9190612d31565b8151811061206a5761206a612c9a565b6020026020010151915091506000612082838361231a565b509050600087612093866001612d31565b815181106120a3576120a3612c9a565b60200260200101519050600080836001600160a01b0316866001600160a01b0316146120d1578260006120d5565b6000835b91509150600060028a516120e99190612c81565b88106120f55788612146565b6121467f0000000000000000000000000000000000000000000000000000000000000000878c6121268c6002612d31565b8151811061213657612136612c9a565b6020026020010151600054611def565b90506121767f00000000000000000000000000000000000000000000000000000000000000008888600054611def565b6040517f6d9a640a00000000000000000000000000000000000000000000000000000000815260048101859052602481018490526001600160a01b0383811660448301529190911690636d9a640a90606401600060405180830381600087803b1580156121e257600080fd5b505af11580156121f6573d6000803e3d6000fd5b5050505050505050505050808061220c90612d44565b91505061201a565b50505050565b600080841161226b5760405162461bcd60e51b815260206004820152601a60248201527f494e53554646494349454e545f4f55545055545f414d4f554e5400000000000060448201526064016103c9565b60008311801561227b5750600082115b6122c75760405162461bcd60e51b815260206004820152601660248201527f494e53554646494349454e545f4c49515549444954590000000000000000000060448201526064016103c9565b60006122d38585612e13565b6122df906103e8612e13565b905060006122ed8685612c81565b6122f9906103e6612e13565b90506123058183612e2a565b612310906001612d31565b9695505050505050565b600080826001600160a01b0316846001600160a01b03160361237e5760405162461bcd60e51b815260206004820152601f60248201527f4944454e544943414c5f4144445245535345535f4e4f545f414c4c4f5745440060448201526064016103c9565b826001600160a01b0316846001600160a01b03161061239e5782846123a1565b83835b90925090506001600160a01b0382166123fc5760405162461bcd60e51b815260206004820152601860248201527f5a45524f5f414444524553535f4e4f545f414c4c4f574544000000000000000060448201526064016103c9565b9250929050565b60008084116124545760405162461bcd60e51b815260206004820152601960248201527f494e53554646494349454e545f494e5055545f414d4f554e540000000000000060448201526064016103c9565b6000831180156124645750600082115b6124b05760405162461bcd60e51b815260206004820152601660248201527f494e53554646494349454e545f4c49515549444954590000000000000000000060448201526064016103c9565b60006124be856103e6612e13565b905060006124cc8483612e13565b90506000826124dd876103e8612e13565b6124e79190612d31565b90506124f38183612e2a565b979650505050505050565b6040517fe6a439050000000000000000000000000000000000000000000000000000000081526001600160a01b03878116600483015286811660248301526000918291829182917f0000000000000000000000000000000000000000000000000000000000000000169063e6a4390590604401602060405180830381865afa15801561258e573d6000803e3d6000fd5b505050506040513d601f19601f820116820180604052508101906125b29190612e4c565b6001600160a01b03160361266f576040517fc9c653960000000000000000000000000000000000000000000000000000000081526001600160a01b038a8116600483015289811660248301527f0000000000000000000000000000000000000000000000000000000000000000169063c9c65396906044016020604051808303816000875af1158015612649573d6000803e3d6000fd5b505050506040513d601f19601f8201168201806040525081019061266d9190612e4c565b505b60008061267c8b8b61144a565b945090925090508115801561268f575080155b1561269f57889450879350611858565b60006126ac8a8484612794565b905088811161271057868110156127055760405162461bcd60e51b815260206004820152601a60248201527f494e53554646494349454e545f746f6b656e425f414d4f554e5400000000000060448201526064016103c9565b899550935083612785565b600061271d8a8486612794565b90508a81111561272f5761272f61285e565b8881101561277f5760405162461bcd60e51b815260206004820152601a60248201527f494e53554646494349454e545f746f6b656e415f414d4f554e5400000000000060448201526064016103c9565b95508894505b50505096509650969350505050565b60008084116127e55760405162461bcd60e51b815260206004820152601360248201527f494e53554646494349454e545f414d4f554e540000000000000000000000000060448201526064016103c9565b6000831180156127f55750600082115b6128415760405162461bcd60e51b815260206004820152601660248201527f494e53554646494349454e545f4c49515549444954590000000000000000000060448201526064016103c9565b8261284c8386612e13565b6128569190612e2a565b949350505050565b634e487b7160e01b600052600160045260246000fd5b6001600160a01b038116811461288957600080fd5b50565b803561289781612874565b919050565b60008060008060008060c087890312156128b557600080fd5b86356128c081612874565b955060208701359450604087013593506060870135925060808701356128e581612874565b8092505060a087013590509295509295509295565b60008083601f84011261290c57600080fd5b50813567ffffffffffffffff81111561292457600080fd5b6020830191508360208260051b85010111156123fc57600080fd5b60008060008060008060a0878903121561295857600080fd5b8635955060208701359450604087013567ffffffffffffffff81111561297d57600080fd5b61298989828a016128fa565b909550935050606087013561299d81612874565b80925050608087013590509295509295509295565b6020808252825182820181905260009190848201906040850190845b818110156129ea578351835292840192918401916001016129ce565b50909695505050505050565b634e487b7160e01b600052604160045260246000fd5b60008060408385031215612a1f57600080fd5b8235915060208084013567ffffffffffffffff80821115612a3f57600080fd5b818601915086601f830112612a5357600080fd5b813581811115612a6557612a656129f6565b8060051b604051601f19603f83011681018181108582111715612a8a57612a8a6129f6565b604052918252848201925083810185019189831115612aa857600080fd5b938501935b82851015612acd57612abe8561288c565b84529385019392850192612aad565b8096505050505050509250929050565b600080600080600060808688031215612af557600080fd5b85359450602086013567ffffffffffffffff811115612b1357600080fd5b612b1f888289016128fa565b9095509350506040860135612b3381612874565b949793965091946060013592915050565b600080600080600080600060e0888a031215612b5f57600080fd5b8735612b6a81612874565b96506020880135612b7a81612874565b955060408801359450606088013593506080880135925060a0880135612b9f81612874565b8092505060c0880135905092959891949750929550565b60008060408385031215612bc957600080fd5b8235612bd481612874565b91506020830135612be481612874565b809150509250929050565b600080600080600080600080610100898b031215612c0c57600080fd5b8835612c1781612874565b97506020890135612c2781612874565b965060408901359550606089013594506080890135935060a0890135925060c0890135612c5381612874565b8092505060e089013590509295985092959890939650565b634e487b7160e01b600052601160045260246000fd5b81810381811115612c9457612c94612c6b565b92915050565b634e487b7160e01b600052603260045260246000fd5b600060208284031215612cc257600080fd5b8135612ccd81612874565b9392505050565b600081612ce357612ce3612c6b565b506000190190565b600060208284031215612cfd57600080fd5b81518015158114612ccd57600080fd5b60008060408385031215612d2057600080fd5b505080516020909101519092909150565b80820180821115612c9457612c94612c6b565b600060018201612d5657612d56612c6b565b5060010190565b80516dffffffffffffffffffffffffffff8116811461289757600080fd5b600080600060608486031215612d9057600080fd5b612d9984612d5d565b9250612da760208501612d5d565b9150604084015163ffffffff81168114612dc057600080fd5b809150509250925092565b600060208284031215612ddd57600080fd5b5051919050565b6000825160005b81811015612e055760208186018101518583015201612deb565b506000920191825250919050565b8082028115828204841417612c9457612c94612c6b565b600082612e4757634e487b7160e01b600052601260045260246000fd5b500490565b600060208284031215612e5e57600080fd5b8151612ccd8161287456fea264697066735822122058c23201abd1a7bb53e5a2a1f7a73d9344d948568434b0dbb25d94ee1adef30964736f6c63430008110033",
  "linkReferences": {},
  "deployedLinkReferences": {}
}