{
  "_format": "hh-sol-artifact-1",
  "contractName": "AMMRouter",
  "sourceName": "src/backend/contracts/AMMRouter.sol",
  "abi": [
    {
      "inputs": [
        {
          "internalType": "address",
          "name": "_factory",
          "type": "address"
        },
        {
          "internalType": "address",
          "name": "_WETH",
          "type": "address"
        }
      ],
      "stateMutability": "nonpayable",
      "type": "constructor"
    },
    {
      "inputs": [],
      "name": "WETH",
      "outputs": [
        {
          "internalType": "address",
          "name": "",
          "type": "address"
        }
      ],
      "stateMutability": "view",
      "type": "function"
    },
    {
      "inputs": [
        {
          "internalType": "address",
          "name": "tokenA",
          "type": "address"
        },
        {
          "internalType": "address",
          "name": "tokenB",
          "type": "address"
        },
        {
          "internalType": "uint256",
          "name": "amountADesired",
          "type": "uint256"
        },
        {
          "internalType": "uint256",
          "name": "amountBDesired",
          "type": "uint256"
        },
        {
          "internalType": "uint256",
          "name": "amountAMin",
          "type": "uint256"
        },
        {
          "internalType": "uint256",
          "name": "amountBMin",
          "type": "uint256"
        },
        {
          "internalType": "address",
          "name": "to",
          "type": "address"
        },
        {
          "internalType": "uint256",
          "name": "deadline",
          "type": "uint256"
        }
      ],
      "name": "addLiquidity",
      "outputs": [
        {
          "internalType": "uint256",
          "name": "amountA",
          "type": "uint256"
        },
        {
          "internalType": "uint256",
          "name": "amountB",
          "type": "uint256"
        },
        {
          "internalType": "uint256",
          "name": "liquidity",
          "type": "uint256"
        }
      ],
      "stateMutability": "nonpayable",
      "type": "function"
    },
    {
      "inputs": [
        {
          "internalType": "address",
          "name": "token",
          "type": "address"
        },
        {
          "internalType": "uint256",
          "name": "amountTokenDesired",
          "type": "uint256"
        },
        {
          "internalType": "uint256",
          "name": "amountTokenMin",
          "type": "uint256"
        },
        {
          "internalType": "uint256",
          "name": "amountETHMin",
          "type": "uint256"
        },
        {
          "internalType": "address",
          "name": "to",
          "type": "address"
        },
        {
          "internalType": "uint256",
          "name": "deadline",
          "type": "uint256"
        }
      ],
      "name": "addLiquidityETH",
      "outputs": [
        {
          "internalType": "uint256",
          "name": "amountToken",
          "type": "uint256"
        },
        {
          "internalType": "uint256",
          "name": "amountETH",
          "type": "uint256"
        },
        {
          "internalType": "uint256",
          "name": "liquidity",
          "type": "uint256"
        }
      ],
      "stateMutability": "payable",
      "type": "function"
    },
    {
      "inputs": [],
      "name": "factory",
      "outputs": [
        {
          "internalType": "address",
          "name": "",
          "type": "address"
        }
      ],
      "stateMutability": "view",
      "type": "function"
    },
    {
      "inputs": [
        {
          "internalType": "uint256",
          "name": "amountOut",
          "type": "uint256"
        },
        {
          "internalType": "address[]",
          "name": "path",
          "type": "address[]"
        }
      ],
      "name": "getAmountsIn",
      "outputs": [
        {
          "internalType": "uint256[]",
          "name": "amounts",
          "type": "uint256[]"
        }
      ],
      "stateMutability": "view",
      "type": "function"
    },
    {
      "inputs": [
        {
          "internalType": "uint256",
          "name": "amountIn",
          "type": "uint256"
        },
        {
          "internalType": "address[]",
          "name": "path",
          "type": "address[]"
        }
      ],
      "name": "getAmountsOut",
      "outputs": [
        {
          "internalType": "uint256[]",
          "name": "amounts",
          "type": "uint256[]"
        }
      ],
      "stateMutability": "view",
      "type": "function"
    },
    {
      "inputs": [
        {
          "internalType": "address",
          "name": "tokenA",
          "type": "address"
        },
        {
          "internalType": "address",
          "name": "tokenB",
          "type": "address"
        }
      ],
      "name": "getReserves",
      "outputs": [
        {
          "internalType": "uint256",
          "name": "reserveA",
          "type": "uint256"
        },
        {
          "internalType": "uint256",
          "name": "reserveB",
          "type": "uint256"
        },
        {
          "internalType": "address",
          "name": "pair",
          "type": "address"
        }
      ],
      "stateMutability": "view",
      "type": "function"
    },
    {
      "inputs": [
        {
          "internalType": "address",
          "name": "tokenA",
          "type": "address"
        },
        {
          "internalType": "address",
          "name": "tokenB",
          "type": "address"
        },
        {
          "internalType": "uint256",
          "name": "liquidity",
          "type": "uint256"
        },
        {
          "internalType": "uint256",
          "name": "amountAMin",
          "type": "uint256"
        },
        {
          "internalType": "uint256",
          "name": "amountBMin",
          "type": "uint256"
        },
        {
          "internalType": "address",
          "name": "to",
          "type": "address"
        },
        {
          "internalType": "uint256",
          "name": "deadline",
          "type": "uint256"
        }
      ],
      "name": "removeLiquidity",
      "outputs": [
        {
          "internalType": "uint256",
          "name": "amountA",
          "type": "uint256"
        },
        {
          "internalType": "uint256",
          "name": "amountB",
          "type": "uint256"
        }
      ],
      "stateMutability": "nonpayable",
      "type": "function"
    },
    {
      "inputs": [
        {
          "internalType": "address",
          "name": "token",
          "type": "address"
        },
        {
          "internalType": "uint256",
          "name": "liquidity",
          "type": "uint256"
        },
        {
          "internalType": "uint256",
          "name": "amountTokenMin",
          "type": "uint256"
        },
        {
          "internalType": "uint256",
          "name": "amountETHMin",
          "type": "uint256"
        },
        {
          "internalType": "address",
          "name": "to",
          "type": "address"
        },
        {
          "internalType": "uint256",
          "name": "deadline",
          "type": "uint256"
        }
      ],
      "name": "removeLiquidityETH",
      "outputs": [
        {
          "internalType": "uint256",
          "name": "amountToken",
          "type": "uint256"
        },
        {
          "internalType": "uint256",
          "name": "amountETH",
          "type": "uint256"
        }
      ],
      "stateMutability": "nonpayable",
      "type": "function"
    },
    {
      "inputs": [
        {
          "internalType": "uint256",
          "name": "amountOut",
          "type": "uint256"
        },
        {
          "internalType": "address[]",
          "name": "path",
          "type": "address[]"
        },
        {
          "internalType": "address",
          "name": "to",
          "type": "address"
        },
        {
          "internalType": "uint256",
          "name": "deadline",
          "type": "uint256"
        }
      ],
      "name": "swapETHForExactTokens",
      "outputs": [
        {
          "internalType": "uint256[]",
          "name": "amounts",
          "type": "uint256[]"
        }
      ],
      "stateMutability": "payable",
      "type": "function"
    },
    {
      "inputs": [
        {
          "internalType": "uint256",
          "name": "amountOutMin",
          "type": "uint256"
        },
        {
          "internalType": "address[]",
          "name": "path",
          "type": "address[]"
        },
        {
          "internalType": "address",
          "name": "to",
          "type": "address"
        },
        {
          "internalType": "uint256",
          "name": "deadline",
          "type": "uint256"
        }
      ],
      "name": "swapExactETHForTokens",
      "outputs": [
        {
          "internalType": "uint256[]",
          "name": "amounts",
          "type": "uint256[]"
        }
      ],
      "stateMutability": "payable",
      "type": "function"
    },
    {
      "inputs": [
        {
          "internalType": "uint256",
          "name": "amountIn",
          "type": "uint256"
        },
        {
          "internalType": "uint256",
          "name": "amountOutMin",
          "type": "uint256"
        },
        {
          "internalType": "address[]",
          "name": "path",
          "type": "address[]"
        },
        {
          "internalType": "address",
          "name": "to",
          "type": "address"
        },
        {
          "internalType": "uint256",
          "name": "deadline",
          "type": "uint256"
        }
      ],
      "name": "swapExactTokensForETH",
      "outputs": [
        {
          "internalType": "uint256[]",
          "name": "amounts",
          "type": "uint256[]"
        }
      ],
      "stateMutability": "nonpayable",
      "type": "function"
    },
    {
      "inputs": [
        {
          "internalType": "uint256",
          "name": "amountIn",
          "type": "uint256"
        },
        {
          "internalType": "uint256",
          "name": "amountOutMin",
          "type": "uint256"
        },
        {
          "internalType": "address[]",
          "name": "path",
          "type": "address[]"
        },
        {
          "internalType": "address",
          "name": "to",
          "type": "address"
        },
        {
          "internalType": "uint256",
          "name": "deadline",
          "type": "uint256"
        }
      ],
      "name": "swapExactTokensForTokens",
      "outputs": [
        {
          "internalType": "uint256[]",
          "name": "amounts",
          "type": "uint256[]"
        }
      ],
      "stateMutability": "nonpayable",
      "type": "function"
    },
    {
      "inputs": [
        {
          "internalType": "uint256",
          "name": "amountOut",
          "type": "uint256"
        },
        {
          "internalType": "uint256",
          "name": "amountInMax",
          "type": "uint256"
        },
        {
          "internalType": "address[]",
          "name": "path",
          "type": "address[]"
        },
        {
          "internalType": "address",
          "name": "to",
          "type": "address"
        },
        {
          "internalType": "uint256",
          "name": "deadline",
          "type": "uint256"
        }
      ],
      "name": "swapTokensForExactETH",
      "outputs": [
        {
          "internalType": "uint256[]",
          "name": "amounts",
          "type": "uint256[]"
        }
      ],
      "stateMutability": "nonpayable",
      "type": "function"
    },
    {
      "inputs": [
        {
          "internalType": "uint256",
          "name": "amountOut",
          "type": "uint256"
        },
        {
          "internalType": "uint256",
          "name": "amountInMax",
          "type": "uint256"
        },
        {
          "internalType": "address[]",
          "name": "path",
          "type": "address[]"
        },
        {
          "internalType": "address",
          "name": "to",
          "type": "address"
        },
        {
          "internalType": "uint256",
          "name": "deadline",
          "type": "uint256"
        }
      ],
      "name": "swapTokensForExactTokens",
      "outputs": [
        {
          "internalType": "uint256[]",
          "name": "amounts",
          "type": "uint256[]"
        }
      ],
      "stateMutability": "nonpayable",
      "type": "function"
    },
    {
      "stateMutability": "payable",
      "type": "receive"
    }
  ],
  "bytecode": "0x60c06040523480156200001157600080fd5b5060405162003033380380620030338339810160408190526200003491620000d5565b6001600160a01b03808316608081905290821660a05260408051632c2ad12d60e11b81529051635855a25a916004808201926020929091908290030181865afa15801562000086573d6000803e3d6000fd5b505050506040513d601f19601f82011682018060405250810190620000ac91906200010d565b60005550620001279050565b80516001600160a01b0381168114620000d057600080fd5b919050565b60008060408385031215620000e957600080fd5b620000f483620000b8565b91506200010460208401620000b8565b90509250929050565b6000602082840312156200012057600080fd5b5051919050565b60805160a051612e3f620001f46000396000818160fc0152818161023c015281816103d801528181610440015281816105010152818161075501528181610b4601528181610cc401528181610e1001528181610e9e015281816116600152818161169d0152818161173201528181611885015281816119c50152611a530152600081816102a80152818161067d01528181610ed0015281816111390152818161146201528181611a85015281816120da0152818161212d0152818161252701526125e00152612e3f6000f3fe6080604052600436106100ec5760003560e01c8063ad5c46481161008a578063d52bb6f411610059578063d52bb6f4146102ea578063e8e337001461032e578063f305d71914610369578063fb3bdb411461037c57600080fd5b8063ad5c46481461022a578063baa2abde14610276578063c45a015514610296578063d06ca61f146102ca57600080fd5b806338ed1739116100c657806338ed1739146101b75780634a25d94a146101d75780637ff36ab5146101f75780638803dbee1461020a57600080fd5b806302751cec1461013057806318cbafe51461016a5780631f00ca741461019757600080fd5b3661012b57336001600160a01b037f000000000000000000000000000000000000000000000000000000000000000016146101295761012961283e565b005b600080fd5b34801561013c57600080fd5b5061015061014b36600461287c565b61038f565b604080519283526020830191909152015b60405180910390f35b34801561017657600080fd5b5061018a61018536600461291f565b6104ba565b6040516101619190612992565b3480156101a357600080fd5b5061018a6101b23660046129ec565b610834565b3480156101c357600080fd5b5061018a6101d236600461291f565b6109b8565b3480156101e357600080fd5b5061018a6101f236600461291f565b610aff565b61018a610205366004612abd565b610c85565b34801561021657600080fd5b5061018a61022536600461291f565b61100e565b34801561023657600080fd5b5061025e7f000000000000000000000000000000000000000000000000000000000000000081565b6040516001600160a01b039091168152602001610161565b34801561028257600080fd5b50610150610291366004612b24565b6110f4565b3480156102a257600080fd5b5061025e7f000000000000000000000000000000000000000000000000000000000000000081565b3480156102d657600080fd5b5061018a6102e53660046129ec565b6112e5565b3480156102f657600080fd5b5061030a610305366004612b96565b61144a565b6040805193845260208401929092526001600160a01b031690820152606001610161565b34801561033a57600080fd5b5061034e610349366004612bcf565b61152b565b60408051938452602084019290925290820152606001610161565b61034e61037736600461287c565b611618565b61018a61038a366004612abd565b611846565b60008082428110156103d25760405162461bcd60e51b81526020600482015260076024820152661156141254915160ca1b60448201526064015b60405180910390fd5b610401897f00000000000000000000000000000000000000000000000000000000000000008a8a8a308a6110f4565b9093509150610411898685611bdd565b6040517f2e1a7d4d000000000000000000000000000000000000000000000000000000008152600481018390527f00000000000000000000000000000000000000000000000000000000000000006001600160a01b031690632e1a7d4d90602401600060405180830381600087803b15801561048c57600080fd5b505af11580156104a0573d6000803e3d6000fd5b505050506104ae8583611d0d565b50965096945050505050565b606081428110156104f75760405162461bcd60e51b81526020600482015260076024820152661156141254915160ca1b60448201526064016103c9565b6001600160a01b037f000000000000000000000000000000000000000000000000000000000000000016868661052e600182612c61565b81811061053d5761053d612c7a565b90506020020160208101906105529190612c90565b6001600160a01b0316146105975760405162461bcd60e51b815260206004820152600c60248201526b0929cac82989288bea082a8960a31b60448201526064016103c9565b6105d4888787808060200260200160405190810160405280939291908181526020018383602002808284376000920191909152506112e592505050565b91508682600184516105e69190612c61565b815181106105f6576105f6612c7a565b6020026020010151101561064c5760405162461bcd60e51b815260206004820152601a60248201527f494e53554646494349454e545f4f55545055545f414d4f554e5400000000000060448201526064016103c9565b6107148686600081811061066257610662612c7a565b90506020020160208101906106779190612c90565b336106f47f00000000000000000000000000000000000000000000000000000000000000008a8a60008181106106af576106af612c7a565b90506020020160208101906106c49190612c90565b8b8b60018181106106d7576106d7612c7a565b90506020020160208101906106ec9190612c90565b600054611dcf565b8560008151811061070757610707612c7a565b6020026020010151611ea5565b61075382878780806020026020016040519081016040528093929190818152602001838360200280828437600092019190915250309250611ff7915050565b7f00000000000000000000000000000000000000000000000000000000000000006001600160a01b0316632e1a7d4d83600185516107919190612c61565b815181106107a1576107a1612c7a565b60200260200101516040518263ffffffff1660e01b81526004016107c791815260200190565b600060405180830381600087803b1580156107e157600080fd5b505af11580156107f5573d6000803e3d6000fd5b5050505061082984836001855161080c9190612c61565b8151811061081c5761081c612c7a565b6020026020010151611d0d565b509695505050505050565b60606002825110156108775760405162461bcd60e51b815260206004820152600c60248201526b0929cac82989288bea082a8960a31b60448201526064016103c9565b815167ffffffffffffffff811115610891576108916129d6565b6040519080825280602002602001820160405280156108ba578160200160208202803683370190505b5090508281600183516108cd9190612c61565b815181106108dd576108dd612c7a565b6020026020010181815250506000600183516108f99190612c61565b90505b80156109b15760008061094b85610914600186612c61565b8151811061092457610924612c7a565b602002602001015186858151811061093e5761093e612c7a565b602002602001015161144a565b509150915061097484848151811061096557610965612c7a565b602002602001015183836121fa565b84610980600186612c61565b8151811061099057610990612c7a565b602002602001018181525050505080806109a990612cb4565b9150506108fc565b5092915050565b606081428110156109f55760405162461bcd60e51b81526020600482015260076024820152661156141254915160ca1b60448201526064016103c9565b610a32888787808060200260200160405190810160405280939291908181526020018383602002808284376000920191909152506112e592505050565b9150868260018451610a449190612c61565b81518110610a5457610a54612c7a565b60200260200101511015610aaa5760405162461bcd60e51b815260206004820152601a60248201527f494e53554646494349454e545f4f55545055545f414d4f554e5400000000000060448201526064016103c9565b610ac08686600081811061066257610662612c7a565b61082982878780806020026020016040519081016040528093929190818152602001838360200280828437600092019190915250899250611ff7915050565b60608142811015610b3c5760405162461bcd60e51b81526020600482015260076024820152661156141254915160ca1b60448201526064016103c9565b6001600160a01b037f0000000000000000000000000000000000000000000000000000000000000000168686610b73600182612c61565b818110610b8257610b82612c7a565b9050602002016020810190610b979190612c90565b6001600160a01b031614610bdc5760405162461bcd60e51b815260206004820152600c60248201526b0929cac82989288bea082a8960a31b60448201526064016103c9565b610c198887878080602002602001604051908101604052809392919081815260200183836020028082843760009201919091525061083492505050565b91508682600081518110610c2f57610c2f612c7a565b6020026020010151111561064c5760405162461bcd60e51b815260206004820152601660248201527f4558434553534956455f494e5055545f414d4f554e540000000000000000000060448201526064016103c9565b60608142811015610cc25760405162461bcd60e51b81526020600482015260076024820152661156141254915160ca1b60448201526064016103c9565b7f00000000000000000000000000000000000000000000000000000000000000006001600160a01b031686866000818110610cff57610cff612c7a565b9050602002016020810190610d149190612c90565b6001600160a01b031614610d595760405162461bcd60e51b815260206004820152600c60248201526b0929cac82989288bea082a8960a31b60448201526064016103c9565b610d96348787808060200260200160405190810160405280939291908181526020018383602002808284376000920191909152506112e592505050565b9150868260018451610da89190612c61565b81518110610db857610db8612c7a565b60200260200101511015610e0e5760405162461bcd60e51b815260206004820152601a60248201527f494e53554646494349454e545f4f55545055545f414d4f554e5400000000000060448201526064016103c9565b7f00000000000000000000000000000000000000000000000000000000000000006001600160a01b031663d0e30db083600081518110610e5057610e50612c7a565b60200260200101516040518263ffffffff1660e01b81526004016000604051808303818588803b158015610e8357600080fd5b505af1158015610e97573d6000803e3d6000fd5b50505050507f00000000000000000000000000000000000000000000000000000000000000006001600160a01b031663a9059cbb610f2a7f000000000000000000000000000000000000000000000000000000000000000089896000818110610f0257610f02612c7a565b9050602002016020810190610f179190612c90565b8a8a60018181106106d7576106d7612c7a565b84600081518110610f3d57610f3d612c7a565b60200260200101516040518363ffffffff1660e01b8152600401610f769291906001600160a01b03929092168252602082015260400190565b6020604051808303816000875af1158015610f95573d6000803e3d6000fd5b505050506040513d601f19601f82011682018060405250810190610fb99190612ccb565b610fc557610fc561283e565b61100482878780806020026020016040519081016040528093929190818152602001838360200280828437600092019190915250899250611ff7915050565b5095945050505050565b6060814281101561104b5760405162461bcd60e51b81526020600482015260076024820152661156141254915160ca1b60448201526064016103c9565b6110888887878080602002602001604051908101604052809392919081815260200183836020028082843760009201919091525061083492505050565b9150868260008151811061109e5761109e612c7a565b60200260200101511115610aaa5760405162461bcd60e51b815260206004820152601660248201527f4558434553534956455f494e5055545f414d4f554e540000000000000000000060448201526064016103c9565b60008082428110156111325760405162461bcd60e51b81526020600482015260076024820152661156141254915160ca1b60448201526064016103c9565b60006111627f00000000000000000000000000000000000000000000000000000000000000008c8c600054611dcf565b90506111708133838c611ea5565b6040517f89afcb440000000000000000000000000000000000000000000000000000000081526001600160a01b03878116600483015260009182918416906389afcb449060240160408051808303816000875af11580156111d5573d6000803e3d6000fd5b505050506040513d601f19601f820116820180604052508101906111f99190612ced565b9150915060006112098e8e6122fa565b509050806001600160a01b03168e6001600160a01b03161461122c57818361122f565b82825b90975095508a8710156112845760405162461bcd60e51b815260206004820152601560248201527f494e53554646494349454e545f415f414d4f554e54000000000000000000000060448201526064016103c9565b898610156112d45760405162461bcd60e51b815260206004820152601560248201527f494e53554646494349454e545f425f414d4f554e54000000000000000000000060448201526064016103c9565b505050505097509795505050505050565b60606002825110156113285760405162461bcd60e51b815260206004820152600c60248201526b0929cac82989288bea082a8960a31b60448201526064016103c9565b815167ffffffffffffffff811115611342576113426129d6565b60405190808252806020026020018201604052801561136b578160200160208202803683370190505b509050828160008151811061138257611382612c7a565b60200260200101818152505060005b6001835161139f9190612c61565b8110156109b1576000806113e48584815181106113be576113be612c7a565b6020026020010151868560016113d49190612d11565b8151811061093e5761093e612c7a565b509150915061140d8484815181106113fe576113fe612c7a565b602002602001015183836123e3565b84611419856001612d11565b8151811061142957611429612c7a565b6020026020010181815250505050808061144290612d24565b915050611391565b60008060008061145a86866122fa565b50905061148b7f00000000000000000000000000000000000000000000000000000000000000008787600054611dcf565b9150600080836001600160a01b0316630902f1ac6040518163ffffffff1660e01b8152600401606060405180830381865afa1580156114ce573d6000803e3d6000fd5b505050506040513d601f19601f820116820180604052508101906114f29190612d3d565b5091509150826001600160a01b0316886001600160a01b03161461151757808261151a565b81815b909990985093965092945050505050565b6000806000834281101561156b5760405162461bcd60e51b81526020600482015260076024820152661156141254915160ca1b60448201526064016103c9565b600061157b8d8d8d8d8d8d6124de565b9196509450905061158e8d338388611ea5565b61159a8c338387611ea5565b6040516335313c2160e11b81526001600160a01b038881166004830152821690636a627842906024016020604051808303816000875af11580156115e2573d6000803e3d6000fd5b505050506040513d601f19601f820116820180604052508101906116069190612d6b565b92505050985098509895505050505050565b600080600083428110156116585760405162461bcd60e51b81526020600482015260076024820152661156141254915160ca1b60448201526064016103c9565b60006116888b7f00000000000000000000000000000000000000000000000000000000000000008c348d8d6124de565b9196509450905061169b8b338388611ea5565b7f00000000000000000000000000000000000000000000000000000000000000006001600160a01b031663d0e30db0856040518263ffffffff1660e01b81526004016000604051808303818588803b1580156116f657600080fd5b505af115801561170a573d6000803e3d6000fd5b505060405163a9059cbb60e01b81526001600160a01b038581166004830152602482018990527f000000000000000000000000000000000000000000000000000000000000000016935063a9059cbb925060440190506020604051808303816000875af115801561177f573d6000803e3d6000fd5b505050506040513d601f19601f820116820180604052508101906117a39190612ccb565b6117af576117af61283e565b6040516335313c2160e11b81526001600160a01b038881166004830152821690636a627842906024016020604051808303816000875af11580156117f7573d6000803e3d6000fd5b505050506040513d601f19601f8201168201806040525081019061181b9190612d6b565b92508334111561183857611838336118338634612c61565b611d0d565b505096509650969350505050565b606081428110156118835760405162461bcd60e51b81526020600482015260076024820152661156141254915160ca1b60448201526064016103c9565b7f00000000000000000000000000000000000000000000000000000000000000006001600160a01b0316868660008181106118c0576118c0612c7a565b90506020020160208101906118d59190612c90565b6001600160a01b03161461191a5760405162461bcd60e51b815260206004820152600c60248201526b0929cac82989288bea082a8960a31b60448201526064016103c9565b6119578787878080602002602001604051908101604052809392919081815260200183836020028082843760009201919091525061083492505050565b9150348260008151811061196d5761196d612c7a565b602002602001015111156119c35760405162461bcd60e51b815260206004820152601660248201527f4558434553534956455f494e5055545f414d4f554e540000000000000000000060448201526064016103c9565b7f00000000000000000000000000000000000000000000000000000000000000006001600160a01b031663d0e30db083600081518110611a0557611a05612c7a565b60200260200101516040518263ffffffff1660e01b81526004016000604051808303818588803b158015611a3857600080fd5b505af1158015611a4c573d6000803e3d6000fd5b50505050507f00000000000000000000000000000000000000000000000000000000000000006001600160a01b031663a9059cbb611ab77f000000000000000000000000000000000000000000000000000000000000000089896000818110610f0257610f02612c7a565b84600081518110611aca57611aca612c7a565b60200260200101516040518363ffffffff1660e01b8152600401611b039291906001600160a01b03929092168252602082015260400190565b6020604051808303816000875af1158015611b22573d6000803e3d6000fd5b505050506040513d601f19601f82011682018060405250810190611b469190612ccb565b611b5257611b5261283e565b611b9182878780806020026020016040519081016040528093929190818152602001838360200280828437600092019190915250899250611ff7915050565b81600081518110611ba457611ba4612c7a565b6020026020010151341115611004576110043383600081518110611bca57611bca612c7a565b6020026020010151346118339190612c61565b604080516001600160a01b038481166024830152604480830185905283518084039091018152606490920183526020820180517bffffffffffffffffffffffffffffffffffffffffffffffffffffffff1663a9059cbb60e01b1790529151600092839290871691611c4e9190612d84565b6000604051808303816000865af19150503d8060008114611c8b576040519150601f19603f3d011682016040523d82523d6000602084013e611c90565b606091505b5091509150818015611cba575080511580611cba575080806020019051810190611cba9190612ccb565b611d065760405162461bcd60e51b815260206004820152601f60248201527f5472616e7366657248656c7065723a205452414e534645525f4641494c45440060448201526064016103c9565b5050505050565b604080516000808252602082019092526001600160a01b038416908390604051611d379190612d84565b60006040518083038185875af1925050503d8060008114611d74576040519150601f19603f3d011682016040523d82523d6000602084013e611d79565b606091505b5050905080611dca5760405162461bcd60e51b815260206004820152601360248201527f4554485f5452414e534645525f4641494c45440000000000000000000000000060448201526064016103c9565b505050565b6000806000611dde86866122fa565b6040516bffffffffffffffffffffffff19606084811b8216602084015283901b166034820152919350915087906048016040516020818303038152906040528051906020012085604051602001611e82939291907fff00000000000000000000000000000000000000000000000000000000000000815260609390931b6bffffffffffffffffffffffff191660018401526015830191909152603582015260550190565b60408051601f198184030181529190528051602090910120979650505050505050565b604080516001600160a01b0385811660248301528481166044830152606480830185905283518084039091018152608490920183526020820180517bffffffffffffffffffffffffffffffffffffffffffffffffffffffff167f23b872dd000000000000000000000000000000000000000000000000000000001790529151600092839290881691611f379190612d84565b6000604051808303816000865af19150503d8060008114611f74576040519150601f19603f3d011682016040523d82523d6000602084013e611f79565b606091505b5091509150818015611fa3575080511580611fa3575080806020019051810190611fa39190612ccb565b611fef5760405162461bcd60e51b815260206004820152601460248201527f5452414e534645525f46524f4d5f4641494c454400000000000000000000000060448201526064016103c9565b505050505050565b60005b600183516120089190612c61565b8110156121f45760008084838151811061202457612024612c7a565b60200260200101518584600161203a9190612d11565b8151811061204a5761204a612c7a565b602002602001015191509150600061206283836122fa565b509050600087612073866001612d11565b8151811061208357612083612c7a565b60200260200101519050600080836001600160a01b0316866001600160a01b0316146120b1578260006120b5565b6000835b91509150600060028a516120c99190612c61565b88106120d55788612126565b6121267f0000000000000000000000000000000000000000000000000000000000000000878c6121068c6002612d11565b8151811061211657612116612c7a565b6020026020010151600054611dcf565b90506121567f00000000000000000000000000000000000000000000000000000000000000008888600054611dcf565b6040517f6d9a640a00000000000000000000000000000000000000000000000000000000815260048101859052602481018490526001600160a01b0383811660448301529190911690636d9a640a90606401600060405180830381600087803b1580156121c257600080fd5b505af11580156121d6573d6000803e3d6000fd5b505050505050505050505080806121ec90612d24565b915050611ffa565b50505050565b600080841161224b5760405162461bcd60e51b815260206004820152601a60248201527f494e53554646494349454e545f4f55545055545f414d4f554e5400000000000060448201526064016103c9565b60008311801561225b5750600082115b6122a75760405162461bcd60e51b815260206004820152601660248201527f494e53554646494349454e545f4c49515549444954590000000000000000000060448201526064016103c9565b60006122b38585612db3565b6122bf906103e8612db3565b905060006122cd8685612c61565b6122d9906103e6612db3565b90506122e58183612dca565b6122f0906001612d11565b9695505050505050565b600080826001600160a01b0316846001600160a01b03160361235e5760405162461bcd60e51b815260206004820152601f60248201527f4944454e544943414c5f4144445245535345535f4e4f545f414c4c4f5745440060448201526064016103c9565b826001600160a01b0316846001600160a01b03161061237e578284612381565b83835b90925090506001600160a01b0382166123dc5760405162461bcd60e51b815260206004820152601860248201527f5a45524f5f414444524553535f4e4f545f414c4c4f574544000000000000000060448201526064016103c9565b9250929050565b60008084116124345760405162461bcd60e51b815260206004820152601960248201527f494e53554646494349454e545f494e5055545f414d4f554e540000000000000060448201526064016103c9565b6000831180156124445750600082115b6124905760405162461bcd60e51b815260206004820152601660248201527f494e53554646494349454e545f4c49515549444954590000000000000000000060448201526064016103c9565b600061249e856103e6612db3565b905060006124ac8483612db3565b90506000826124bd876103e8612db3565b6124c79190612d11565b90506124d38183612dca565b979650505050505050565b6040517fe6a439050000000000000000000000000000000000000000000000000000000081526001600160a01b03878116600483015286811660248301526000918291829182917f0000000000000000000000000000000000000000000000000000000000000000169063e6a4390590604401602060405180830381865afa15801561256e573d6000803e3d6000fd5b505050506040513d601f19601f820116820180604052508101906125929190612dec565b6001600160a01b03160361264f576040517fc9c653960000000000000000000000000000000000000000000000000000000081526001600160a01b038a8116600483015289811660248301527f0000000000000000000000000000000000000000000000000000000000000000169063c9c65396906044016020604051808303816000875af1158015612629573d6000803e3d6000fd5b505050506040513d601f19601f8201168201806040525081019061264d9190612dec565b505b60008061265c8b8b61144a565b945090925090508115801561266f575080155b1561267f57889450879350611838565b600061268c8a8484612774565b90508881116126f057868110156126e55760405162461bcd60e51b815260206004820152601a60248201527f494e53554646494349454e545f746f6b656e425f414d4f554e5400000000000060448201526064016103c9565b899550935083612765565b60006126fd8a8486612774565b90508a81111561270f5761270f61283e565b8881101561275f5760405162461bcd60e51b815260206004820152601a60248201527f494e53554646494349454e545f746f6b656e415f414d4f554e5400000000000060448201526064016103c9565b95508894505b50505096509650969350505050565b60008084116127c55760405162461bcd60e51b815260206004820152601360248201527f494e53554646494349454e545f414d4f554e540000000000000000000000000060448201526064016103c9565b6000831180156127d55750600082115b6128215760405162461bcd60e51b815260206004820152601660248201527f494e53554646494349454e545f4c49515549444954590000000000000000000060448201526064016103c9565b8261282c8386612db3565b6128369190612dca565b949350505050565b634e487b7160e01b600052600160045260246000fd5b6001600160a01b038116811461286957600080fd5b50565b803561287781612854565b919050565b60008060008060008060c0878903121561289557600080fd5b86356128a081612854565b955060208701359450604087013593506060870135925060808701356128c581612854565b8092505060a087013590509295509295509295565b60008083601f8401126128ec57600080fd5b50813567ffffffffffffffff81111561290457600080fd5b6020830191508360208260051b85010111156123dc57600080fd5b60008060008060008060a0878903121561293857600080fd5b8635955060208701359450604087013567ffffffffffffffff81111561295d57600080fd5b61296989828a016128da565b909550935050606087013561297d81612854565b80925050608087013590509295509295509295565b6020808252825182820181905260009190848201906040850190845b818110156129ca578351835292840192918401916001016129ae565b50909695505050505050565b634e487b7160e01b600052604160045260246000fd5b600080604083850312156129ff57600080fd5b8235915060208084013567ffffffffffffffff80821115612a1f57600080fd5b818601915086601f830112612a3357600080fd5b813581811115612a4557612a456129d6565b8060051b604051601f19603f83011681018181108582111715612a6a57612a6a6129d6565b604052918252848201925083810185019189831115612a8857600080fd5b938501935b82851015612aad57612a9e8561286c565b84529385019392850192612a8d565b8096505050505050509250929050565b600080600080600060808688031215612ad557600080fd5b85359450602086013567ffffffffffffffff811115612af357600080fd5b612aff888289016128da565b9095509350506040860135612b1381612854565b949793965091946060013592915050565b600080600080600080600060e0888a031215612b3f57600080fd5b8735612b4a81612854565b96506020880135612b5a81612854565b955060408801359450606088013593506080880135925060a0880135612b7f81612854565b8092505060c0880135905092959891949750929550565b60008060408385031215612ba957600080fd5b8235612bb481612854565b91506020830135612bc481612854565b809150509250929050565b600080600080600080600080610100898b031215612bec57600080fd5b8835612bf781612854565b97506020890135612c0781612854565b965060408901359550606089013594506080890135935060a0890135925060c0890135612c3381612854565b8092505060e089013590509295985092959890939650565b634e487b7160e01b600052601160045260246000fd5b81810381811115612c7457612c74612c4b565b92915050565b634e487b7160e01b600052603260045260246000fd5b600060208284031215612ca257600080fd5b8135612cad81612854565b9392505050565b600081612cc357612cc3612c4b565b506000190190565b600060208284031215612cdd57600080fd5b81518015158114612cad57600080fd5b60008060408385031215612d0057600080fd5b505080516020909101519092909150565b80820180821115612c7457612c74612c4b565b600060018201612d3657612d36612c4b565b5060010190565b600080600060608486031215612d5257600080fd5b8351925060208401519150604084015190509250925092565b600060208284031215612d7d57600080fd5b5051919050565b6000825160005b81811015612da55760208186018101518583015201612d8b565b506000920191825250919050565b8082028115828204841417612c7457612c74612c4b565b600082612de757634e487b7160e01b600052601260045260246000fd5b500490565b600060208284031215612dfe57600080fd5b8151612cad8161285456fea264697066735822122026a6e4dc08e5364670abf4c3f8603a578324b91ebf277453e388bd63f912401d64736f6c63430008110033",
  "linkReferences": {},
  "deployedLinkReferences": {}
}