{
  "_format": "hh-sol-artifact-1",
  "contractName": "AMMRouter",
  "sourceName": "src/backend/contracts/AMMRouter.sol",
  "abi": [
    {
      "inputs": [
        {
          "internalType": "address",
          "name": "_factory",
          "type": "address"
        }
      ],
      "stateMutability": "nonpayable",
      "type": "constructor"
    },
    {
      "inputs": [
        {
          "internalType": "address",
          "name": "tokenA",
          "type": "address"
        },
        {
          "internalType": "address",
          "name": "tokenB",
          "type": "address"
        },
        {
          "internalType": "uint256",
          "name": "amountADesired",
          "type": "uint256"
        },
        {
          "internalType": "uint256",
          "name": "amountBDesired",
          "type": "uint256"
        },
        {
          "internalType": "uint256",
          "name": "amountAMin",
          "type": "uint256"
        },
        {
          "internalType": "uint256",
          "name": "amountBMin",
          "type": "uint256"
        },
        {
          "internalType": "address",
          "name": "to",
          "type": "address"
        },
        {
          "internalType": "uint256",
          "name": "deadline",
          "type": "uint256"
        }
      ],
      "name": "addLiquidity",
      "outputs": [
        {
          "internalType": "uint256",
          "name": "amountA",
          "type": "uint256"
        },
        {
          "internalType": "uint256",
          "name": "amountB",
          "type": "uint256"
        },
        {
          "internalType": "uint256",
          "name": "liquidity",
          "type": "uint256"
        }
      ],
      "stateMutability": "nonpayable",
      "type": "function"
    },
    {
      "inputs": [],
      "name": "factory",
      "outputs": [
        {
          "internalType": "address",
          "name": "",
          "type": "address"
        }
      ],
      "stateMutability": "view",
      "type": "function"
    },
    {
      "inputs": [
        {
          "internalType": "address",
          "name": "tokenA",
          "type": "address"
        },
        {
          "internalType": "address",
          "name": "tokenB",
          "type": "address"
        }
      ],
      "name": "getReserves",
      "outputs": [
        {
          "internalType": "uint256",
          "name": "reserveA",
          "type": "uint256"
        },
        {
          "internalType": "uint256",
          "name": "reserveB",
          "type": "uint256"
        },
        {
          "internalType": "address",
          "name": "pair",
          "type": "address"
        }
      ],
      "stateMutability": "view",
      "type": "function"
    },
    {
      "inputs": [
        {
          "internalType": "address",
          "name": "tokenA",
          "type": "address"
        },
        {
          "internalType": "address",
          "name": "tokenB",
          "type": "address"
        },
        {
          "internalType": "uint256",
          "name": "liquidity",
          "type": "uint256"
        },
        {
          "internalType": "uint256",
          "name": "amountAMin",
          "type": "uint256"
        },
        {
          "internalType": "uint256",
          "name": "amountBMin",
          "type": "uint256"
        },
        {
          "internalType": "address",
          "name": "to",
          "type": "address"
        },
        {
          "internalType": "uint256",
          "name": "deadline",
          "type": "uint256"
        }
      ],
      "name": "removeLiquidity",
      "outputs": [
        {
          "internalType": "uint256",
          "name": "amountA",
          "type": "uint256"
        },
        {
          "internalType": "uint256",
          "name": "amountB",
          "type": "uint256"
        }
      ],
      "stateMutability": "nonpayable",
      "type": "function"
    },
    {
      "inputs": [
        {
          "internalType": "uint256",
          "name": "amountIn",
          "type": "uint256"
        },
        {
          "internalType": "uint256",
          "name": "amountOutMin",
          "type": "uint256"
        },
        {
          "internalType": "address[]",
          "name": "path",
          "type": "address[]"
        },
        {
          "internalType": "address",
          "name": "to",
          "type": "address"
        },
        {
          "internalType": "uint256",
          "name": "deadline",
          "type": "uint256"
        }
      ],
      "name": "swapExactTokensForTokens",
      "outputs": [
        {
          "internalType": "uint256[]",
          "name": "amounts",
          "type": "uint256[]"
        }
      ],
      "stateMutability": "nonpayable",
      "type": "function"
    },
    {
      "inputs": [
        {
          "internalType": "uint256",
          "name": "amountOut",
          "type": "uint256"
        },
        {
          "internalType": "uint256",
          "name": "amountInMax",
          "type": "uint256"
        },
        {
          "internalType": "address[]",
          "name": "path",
          "type": "address[]"
        },
        {
          "internalType": "address",
          "name": "to",
          "type": "address"
        },
        {
          "internalType": "uint256",
          "name": "deadline",
          "type": "uint256"
        }
      ],
      "name": "swapTokensForExactTokens",
      "outputs": [
        {
          "internalType": "uint256[]",
          "name": "amounts",
          "type": "uint256[]"
        }
      ],
      "stateMutability": "nonpayable",
      "type": "function"
    }
  ],
  "bytecode": "0x60806040523480156200001157600080fd5b5060405162002a2338038062002a23833981810160405281019062000037919062000180565b806000806101000a81548173ffffffffffffffffffffffffffffffffffffffff021916908373ffffffffffffffffffffffffffffffffffffffff16021790555060008054906101000a900473ffffffffffffffffffffffffffffffffffffffff1673ffffffffffffffffffffffffffffffffffffffff16635855a25a6040518163ffffffff1660e01b8152600401602060405180830381865afa158015620000e3573d6000803e3d6000fd5b505050506040513d601f19601f82011682018060405250810190620001099190620001ed565b600181905550506200021f565b600080fd5b600073ffffffffffffffffffffffffffffffffffffffff82169050919050565b600062000148826200011b565b9050919050565b6200015a816200013b565b81146200016657600080fd5b50565b6000815190506200017a816200014f565b92915050565b60006020828403121562000199576200019862000116565b5b6000620001a98482850162000169565b91505092915050565b6000819050919050565b620001c781620001b2565b8114620001d357600080fd5b50565b600081519050620001e781620001bc565b92915050565b60006020828403121562000206576200020562000116565b5b60006200021684828501620001d6565b91505092915050565b6127f4806200022f6000396000f3fe608060405234801561001057600080fd5b50600436106100625760003560e01c806338ed1739146100675780638803dbee14610097578063baa2abde146100c7578063c45a0155146100f8578063d52bb6f414610116578063e8e3370014610148575b600080fd5b610081600480360381019061007c91906117dd565b61017a565b60405161008e9190611935565b60405180910390f35b6100b160048036038101906100ac91906117dd565b61039a565b6040516100be9190611935565b60405180910390f35b6100e160048036038101906100dc9190611957565b6105ae565b6040516100ef929190611a08565b60405180910390f35b6101006107a0565b60405161010d9190611a40565b60405180910390f35b610130600480360381019061012b9190611a5b565b6107c4565b60405161013f93929190611a9b565b60405180910390f35b610162600480360381019061015d9190611ad2565b6108cd565b60405161017193929190611b88565b60405180910390f35b606081428110156101c0576040517f08c379a00000000000000000000000000000000000000000000000000000000081526004016101b790611c1c565b60405180910390fd5b61020b88878780806020026020016040519081016040528093929190818152602001838360200280828437600081840152601f19601f82011690508083019250505050505050610c3f565b915086826001845161021d9190611c6b565b8151811061022e5761022d611c9f565b5b60200260200101511015610277576040517f08c379a000000000000000000000000000000000000000000000000000000000815260040161026e90611d1a565b60405180910390fd5b6103438686600081811061028e5761028d611c9f565b5b90506020020160208101906102a39190611d3a565b3361032260008054906101000a900473ffffffffffffffffffffffffffffffffffffffff168a8a60008181106102dc576102db611c9f565b5b90506020020160208101906102f19190611d3a565b8b8b600181811061030557610304611c9f565b5b905060200201602081019061031a9190611d3a565b600154610dc9565b8560008151811061033657610335611c9f565b5b6020026020010151610e3e565b61038f82878780806020026020016040519081016040528093929190818152602001838360200280828437600081840152601f19601f8201169050808301925050505050505086610f77565b509695505050505050565b606081428110156103e0576040517f08c379a00000000000000000000000000000000000000000000000000000000081526004016103d790611c1c565b60405180910390fd5b61042b88878780806020026020016040519081016040528093929190818152602001838360200280828437600081840152601f19601f82011690508083019250505050505050611187565b9150868260008151811061044257610441611c9f565b5b6020026020010151111561048b576040517f08c379a000000000000000000000000000000000000000000000000000000000815260040161048290611db3565b60405180910390fd5b610557868660008181106104a2576104a1611c9f565b5b90506020020160208101906104b79190611d3a565b3361053660008054906101000a900473ffffffffffffffffffffffffffffffffffffffff168a8a60008181106104f0576104ef611c9f565b5b90506020020160208101906105059190611d3a565b8b8b600181811061051957610518611c9f565b5b905060200201602081019061052e9190611d3a565b600154610dc9565b8560008151811061054a57610549611c9f565b5b6020026020010151610e3e565b6105a382878780806020026020016040519081016040528093929190818152602001838360200280828437600081840152601f19601f8201169050808301925050505050505086610f77565b509695505050505050565b60008082428110156105f5576040517f08c379a00000000000000000000000000000000000000000000000000000000081526004016105ec90611c1c565b60405180910390fd5b600061062560008054906101000a900473ffffffffffffffffffffffffffffffffffffffff168c8c600154610dc9565b90506106338133838c610e3e565b6000808273ffffffffffffffffffffffffffffffffffffffff166389afcb44896040518263ffffffff1660e01b815260040161066f9190611a40565b60408051808303816000875af115801561068d573d6000803e3d6000fd5b505050506040513d601f19601f820116820180604052508101906106b19190611de8565b9150915060006106c18e8e611321565b5090508073ffffffffffffffffffffffffffffffffffffffff168e73ffffffffffffffffffffffffffffffffffffffff16146106fe578183610701565b82825b80975081985050508a87101561074c576040517f08c379a000000000000000000000000000000000000000000000000000000000815260040161074390611e74565b60405180910390fd5b8986101561078f576040517f08c379a000000000000000000000000000000000000000000000000000000000815260040161078690611ee0565b60405180910390fd5b505050505097509795505050505050565b60008054906101000a900473ffffffffffffffffffffffffffffffffffffffff1681565b6000806000806107d48686611321565b50905061080560008054906101000a900473ffffffffffffffffffffffffffffffffffffffff168787600154610dc9565b91506000808373ffffffffffffffffffffffffffffffffffffffff16630902f1ac6040518163ffffffff1660e01b8152600401606060405180830381865afa158015610855573d6000803e3d6000fd5b505050506040513d601f19601f820116820180604052508101906108799190611f00565b50915091508273ffffffffffffffffffffffffffffffffffffffff168873ffffffffffffffffffffffffffffffffffffffff16146108b85780826108bb565b81815b80965081975050505050509250925092565b60008060008342811015610916576040517f08c379a000000000000000000000000000000000000000000000000000000000815260040161090d90611c1c565b60405180910390fd5b600073ffffffffffffffffffffffffffffffffffffffff1660008054906101000a900473ffffffffffffffffffffffffffffffffffffffff1673ffffffffffffffffffffffffffffffffffffffff1663e6a439058e8e6040518363ffffffff1660e01b8152600401610989929190611f53565b602060405180830381865afa1580156109a6573d6000803e3d6000fd5b505050506040513d601f19601f820116820180604052508101906109ca9190611f91565b73ffffffffffffffffffffffffffffffffffffffff1603610a855760008054906101000a900473ffffffffffffffffffffffffffffffffffffffff1673ffffffffffffffffffffffffffffffffffffffff1663c9c653968d8d6040518363ffffffff1660e01b8152600401610a40929190611f53565b6020604051808303816000875af1158015610a5f573d6000803e3d6000fd5b505050506040513d601f19601f82011682018060405250810190610a839190611f91565b505b6000806000610a948f8f6107c4565b925092509250600083148015610aaa5750600082145b15610abe578c8c8097508198505050610b97565b6000610acb8e858561144d565b90508c8111610b26578a811015610b17576040517f08c379a0000000000000000000000000000000000000000000000000000000008152600401610b0e9061200a565b60405180910390fd5b8d818098508199505050610b95565b6000610b338e858761144d565b90508e811115610b4657610b4561202a565b5b8c811015610b89576040517f08c379a0000000000000000000000000000000000000000000000000000000008152600401610b80906120a5565b60405180910390fd5b808e809950819a505050505b505b610ba38f33838a610e3e565b610baf8e338389610e3e565b8073ffffffffffffffffffffffffffffffffffffffff16636a6278428a6040518263ffffffff1660e01b8152600401610be89190611a40565b6020604051808303816000875af1158015610c07573d6000803e3d6000fd5b505050506040513d601f19601f82011682018060405250810190610c2b91906120c5565b945050505050985098509895505050505050565b6060600282511015610c86576040517f08c379a0000000000000000000000000000000000000000000000000000000008152600401610c7d9061213e565b60405180910390fd5b815167ffffffffffffffff811115610ca157610ca061215e565b5b604051908082528060200260200182016040528015610ccf5781602001602082028036833780820191505090505b5090508281600081518110610ce757610ce6611c9f565b5b60200260200101818152505060005b60018351610d049190611c6b565b811015610dc257600080610d58858481518110610d2457610d23611c9f565b5b602002602001015186600186610d3a919061218d565b81518110610d4b57610d4a611c9f565b5b60200260200101516107c4565b5091509150610d82848481518110610d7357610d72611c9f565b5b60200260200101518383611500565b84600185610d90919061218d565b81518110610da157610da0611c9f565b5b60200260200101818152505050508080610dba906121c1565b915050610cf6565b5092915050565b6000806000610dd88686611321565b91509150868282604051602001610df0929190612251565b6040516020818303038152906040528051906020012085604051602001610e19939291906122ff565b6040516020818303038152906040528051906020012060001c92505050949350505050565b6000808573ffffffffffffffffffffffffffffffffffffffff166323b872dd868686604051602401610e7293929190612347565b6040516020818303038152906040529060e01b6020820180517bffffffffffffffffffffffffffffffffffffffffffffffffffffffff8381831617835250505050604051610ec091906123ef565b6000604051808303816000865af19150503d8060008114610efd576040519150601f19603f3d011682016040523d82523d6000602084013e610f02565b606091505b5091509150818015610f305750600081511480610f2f575080806020019051810190610f2e919061243e565b5b5b610f6f576040517f08c379a0000000000000000000000000000000000000000000000000000000008152600401610f66906124b7565b60405180910390fd5b505050505050565b60005b60018351610f889190611c6b565b81101561118157600080848381518110610fa557610fa4611c9f565b5b602002602001015185600185610fbb919061218d565b81518110610fcc57610fcb611c9f565b5b6020026020010151915091506000610fe48383611321565b509050600087600186610ff7919061218d565b8151811061100857611007611c9f565b5b602002602001015190506000808373ffffffffffffffffffffffffffffffffffffffff168673ffffffffffffffffffffffffffffffffffffffff161461105057826000611054565b6000835b91509150600060028a516110689190611c6b565b881061107457886110c9565b6110c860008054906101000a900473ffffffffffffffffffffffffffffffffffffffff16878c60028c6110a7919061218d565b815181106110b8576110b7611c9f565b5b6020026020010151600154610dc9565b5b90506110f960008054906101000a900473ffffffffffffffffffffffffffffffffffffffff168888600154610dc9565b73ffffffffffffffffffffffffffffffffffffffff16636d9a640a8484846040518463ffffffff1660e01b815260040161113593929190611a9b565b600060405180830381600087803b15801561114f57600080fd5b505af1158015611163573d6000803e3d6000fd5b50505050505050505050508080611179906121c1565b915050610f7a565b50505050565b60606002825110156111ce576040517f08c379a00000000000000000000000000000000000000000000000000000000081526004016111c59061213e565b60405180910390fd5b815167ffffffffffffffff8111156111e9576111e861215e565b5b6040519080825280602002602001820160405280156112175781602001602082028036833780820191505090505b50905082816001835161122a9190611c6b565b8151811061123b5761123a611c9f565b5b6020026020010181815250506000600183516112579190611c6b565b90505b600081111561131a576000806112b0856001856112779190611c6b565b8151811061128857611287611c9f565b5b60200260200101518685815181106112a3576112a2611c9f565b5b60200260200101516107c4565b50915091506112da8484815181106112cb576112ca611c9f565b5b602002602001015183836115ea565b846001856112e89190611c6b565b815181106112f9576112f8611c9f565b5b60200260200101818152505050508080611312906124d7565b91505061125a565b5092915050565b6000808273ffffffffffffffffffffffffffffffffffffffff168473ffffffffffffffffffffffffffffffffffffffff1603611392576040517f08c379a00000000000000000000000000000000000000000000000000000000081526004016113899061254c565b60405180910390fd5b8273ffffffffffffffffffffffffffffffffffffffff168473ffffffffffffffffffffffffffffffffffffffff16106113cc5782846113cf565b83835b8092508193505050600073ffffffffffffffffffffffffffffffffffffffff168273ffffffffffffffffffffffffffffffffffffffff1603611446576040517f08c379a000000000000000000000000000000000000000000000000000000000815260040161143d906125b8565b60405180910390fd5b9250929050565b6000808411611491576040517f08c379a000000000000000000000000000000000000000000000000000000000815260040161148890612624565b60405180910390fd5b6000831180156114a15750600082115b6114e0576040517f08c379a00000000000000000000000000000000000000000000000000000000081526004016114d790612690565b60405180910390fd5b8282856114ed91906126b0565b6114f79190612721565b90509392505050565b6000808411611544576040517f08c379a000000000000000000000000000000000000000000000000000000000815260040161153b9061279e565b60405180910390fd5b6000831180156115545750600082115b611593576040517f08c379a000000000000000000000000000000000000000000000000000000000815260040161158a90612690565b60405180910390fd5b60006103e6856115a391906126b0565b9050600083826115b391906126b0565b90506000826103e8876115c691906126b0565b6115d0919061218d565b905080826115de9190612721565b93505050509392505050565b600080841161162e576040517f08c379a000000000000000000000000000000000000000000000000000000000815260040161162590611d1a565b60405180910390fd5b60008311801561163e5750600082115b61167d576040517f08c379a000000000000000000000000000000000000000000000000000000000815260040161167490612690565b60405180910390fd5b60006103e8858561168e91906126b0565b61169891906126b0565b905060006103e686856116ab9190611c6b565b6116b591906126b0565b9050600181836116c59190612721565b6116cf919061218d565b925050509392505050565b600080fd5b600080fd5b6000819050919050565b6116f7816116e4565b811461170257600080fd5b50565b600081359050611714816116ee565b92915050565b600080fd5b600080fd5b600080fd5b60008083601f84011261173f5761173e61171a565b5b8235905067ffffffffffffffff81111561175c5761175b61171f565b5b60208301915083602082028301111561177857611777611724565b5b9250929050565b600073ffffffffffffffffffffffffffffffffffffffff82169050919050565b60006117aa8261177f565b9050919050565b6117ba8161179f565b81146117c557600080fd5b50565b6000813590506117d7816117b1565b92915050565b60008060008060008060a087890312156117fa576117f96116da565b5b600061180889828a01611705565b965050602061181989828a01611705565b955050604087013567ffffffffffffffff81111561183a576118396116df565b5b61184689828a01611729565b9450945050606061185989828a016117c8565b925050608061186a89828a01611705565b9150509295509295509295565b600081519050919050565b600082825260208201905092915050565b6000819050602082019050919050565b6118ac816116e4565b82525050565b60006118be83836118a3565b60208301905092915050565b6000602082019050919050565b60006118e282611877565b6118ec8185611882565b93506118f783611893565b8060005b8381101561192857815161190f88826118b2565b975061191a836118ca565b9250506001810190506118fb565b5085935050505092915050565b6000602082019050818103600083015261194f81846118d7565b905092915050565b600080600080600080600060e0888a031215611976576119756116da565b5b60006119848a828b016117c8565b97505060206119958a828b016117c8565b96505060406119a68a828b01611705565b95505060606119b78a828b01611705565b94505060806119c88a828b01611705565b93505060a06119d98a828b016117c8565b92505060c06119ea8a828b01611705565b91505092959891949750929550565b611a02816116e4565b82525050565b6000604082019050611a1d60008301856119f9565b611a2a60208301846119f9565b9392505050565b611a3a8161179f565b82525050565b6000602082019050611a556000830184611a31565b92915050565b60008060408385031215611a7257611a716116da565b5b6000611a80858286016117c8565b9250506020611a91858286016117c8565b9150509250929050565b6000606082019050611ab060008301866119f9565b611abd60208301856119f9565b611aca6040830184611a31565b949350505050565b600080600080600080600080610100898b031215611af357611af26116da565b5b6000611b018b828c016117c8565b9850506020611b128b828c016117c8565b9750506040611b238b828c01611705565b9650506060611b348b828c01611705565b9550506080611b458b828c01611705565b94505060a0611b568b828c01611705565b93505060c0611b678b828c016117c8565b92505060e0611b788b828c01611705565b9150509295985092959890939650565b6000606082019050611b9d60008301866119f9565b611baa60208301856119f9565b611bb760408301846119f9565b949350505050565b600082825260208201905092915050565b7f4558504952454400000000000000000000000000000000000000000000000000600082015250565b6000611c06600783611bbf565b9150611c1182611bd0565b602082019050919050565b60006020820190508181036000830152611c3581611bf9565b9050919050565b7f4e487b7100000000000000000000000000000000000000000000000000000000600052601160045260246000fd5b6000611c76826116e4565b9150611c81836116e4565b9250828203905081811115611c9957611c98611c3c565b5b92915050565b7f4e487b7100000000000000000000000000000000000000000000000000000000600052603260045260246000fd5b7f494e53554646494349454e545f4f55545055545f414d4f554e54000000000000600082015250565b6000611d04601a83611bbf565b9150611d0f82611cce565b602082019050919050565b60006020820190508181036000830152611d3381611cf7565b9050919050565b600060208284031215611d5057611d4f6116da565b5b6000611d5e848285016117c8565b91505092915050565b7f4558434553534956455f494e5055545f414d4f554e5400000000000000000000600082015250565b6000611d9d601683611bbf565b9150611da882611d67565b602082019050919050565b60006020820190508181036000830152611dcc81611d90565b9050919050565b600081519050611de2816116ee565b92915050565b60008060408385031215611dff57611dfe6116da565b5b6000611e0d85828601611dd3565b9250506020611e1e85828601611dd3565b9150509250929050565b7f494e53554646494349454e545f415f414d4f554e540000000000000000000000600082015250565b6000611e5e601583611bbf565b9150611e6982611e28565b602082019050919050565b60006020820190508181036000830152611e8d81611e51565b9050919050565b7f494e53554646494349454e545f425f414d4f554e540000000000000000000000600082015250565b6000611eca601583611bbf565b9150611ed582611e94565b602082019050919050565b60006020820190508181036000830152611ef981611ebd565b9050919050565b600080600060608486031215611f1957611f186116da565b5b6000611f2786828701611dd3565b9350506020611f3886828701611dd3565b9250506040611f4986828701611dd3565b9150509250925092565b6000604082019050611f686000830185611a31565b611f756020830184611a31565b9392505050565b600081519050611f8b816117b1565b92915050565b600060208284031215611fa757611fa66116da565b5b6000611fb584828501611f7c565b91505092915050565b7f494e53554646494349454e545f746f6b656e425f414d4f554e54000000000000600082015250565b6000611ff4601a83611bbf565b9150611fff82611fbe565b602082019050919050565b6000602082019050818103600083015261202381611fe7565b9050919050565b7f4e487b7100000000000000000000000000000000000000000000000000000000600052600160045260246000fd5b7f494e53554646494349454e545f746f6b656e415f414d4f554e54000000000000600082015250565b600061208f601a83611bbf565b915061209a82612059565b602082019050919050565b600060208201905081810360008301526120be81612082565b9050919050565b6000602082840312156120db576120da6116da565b5b60006120e984828501611dd3565b91505092915050565b7f494e56414c49445f504154480000000000000000000000000000000000000000600082015250565b6000612128600c83611bbf565b9150612133826120f2565b602082019050919050565b600060208201905081810360008301526121578161211b565b9050919050565b7f4e487b7100000000000000000000000000000000000000000000000000000000600052604160045260246000fd5b6000612198826116e4565b91506121a3836116e4565b92508282019050808211156121bb576121ba611c3c565b5b92915050565b60006121cc826116e4565b91507fffffffffffffffffffffffffffffffffffffffffffffffffffffffffffffffff82036121fe576121fd611c3c565b5b600182019050919050565b60008160601b9050919050565b600061222182612209565b9050919050565b600061223382612216565b9050919050565b61224b6122468261179f565b612228565b82525050565b600061225d828561223a565b60148201915061226d828461223a565b6014820191508190509392505050565b600081905092915050565b7fff00000000000000000000000000000000000000000000000000000000000000600082015250565b60006122be60018361227d565b91506122c982612288565b600182019050919050565b6000819050919050565b6000819050919050565b6122f96122f4826122d4565b6122de565b82525050565b600061230a826122b1565b9150612316828661223a565b60148201915061232682856122e8565b60208201915061233682846122e8565b602082019150819050949350505050565b600060608201905061235c6000830186611a31565b6123696020830185611a31565b61237660408301846119f9565b949350505050565b600081519050919050565b600081905092915050565b60005b838110156123b2578082015181840152602081019050612397565b60008484015250505050565b60006123c98261237e565b6123d38185612389565b93506123e3818560208601612394565b80840191505092915050565b60006123fb82846123be565b915081905092915050565b60008115159050919050565b61241b81612406565b811461242657600080fd5b50565b60008151905061243881612412565b92915050565b600060208284031215612454576124536116da565b5b600061246284828501612429565b91505092915050565b7f5452414e534645525f46524f4d5f4641494c4544000000000000000000000000600082015250565b60006124a1601483611bbf565b91506124ac8261246b565b602082019050919050565b600060208201905081810360008301526124d081612494565b9050919050565b60006124e2826116e4565b9150600082036124f5576124f4611c3c565b5b600182039050919050565b7f4944454e544943414c5f4144445245535345535f4e4f545f414c4c4f57454400600082015250565b6000612536601f83611bbf565b915061254182612500565b602082019050919050565b6000602082019050818103600083015261256581612529565b9050919050565b7f5a45524f5f414444524553535f4e4f545f414c4c4f5745440000000000000000600082015250565b60006125a2601883611bbf565b91506125ad8261256c565b602082019050919050565b600060208201905081810360008301526125d181612595565b9050919050565b7f494e53554646494349454e545f414d4f554e5400000000000000000000000000600082015250565b600061260e601383611bbf565b9150612619826125d8565b602082019050919050565b6000602082019050818103600083015261263d81612601565b9050919050565b7f494e53554646494349454e545f4c495155494449545900000000000000000000600082015250565b600061267a601683611bbf565b915061268582612644565b602082019050919050565b600060208201905081810360008301526126a98161266d565b9050919050565b60006126bb826116e4565b91506126c6836116e4565b92508282026126d4816116e4565b915082820484148315176126eb576126ea611c3c565b5b5092915050565b7f4e487b7100000000000000000000000000000000000000000000000000000000600052601260045260246000fd5b600061272c826116e4565b9150612737836116e4565b925082612747576127466126f2565b5b828204905092915050565b7f494e53554646494349454e545f494e5055545f414d4f554e5400000000000000600082015250565b6000612788601983611bbf565b915061279382612752565b602082019050919050565b600060208201905081810360008301526127b78161277b565b905091905056fea26469706673582212201865f8f789b58d16bedeef9ae442bc77dd05b20aab25e1737384b4101db1f31e64736f6c63430008110033",
  "linkReferences": {},
  "deployedLinkReferences": {}
}