{
  "_format": "hh-sol-artifact-1",
  "contractName": "AssetPool",
  "sourceName": "src/backend/contracts/AssetPool.sol",
  "abi": [
    {
      "inputs": [
        {
          "internalType": "contract AssetPoolShareDeployer",
          "name": "_shareDeployer",
          "type": "address"
        },
        {
          "internalType": "contract IPriceOracle",
          "name": "_priceOracle",
          "type": "address"
        }
      ],
      "stateMutability": "nonpayable",
      "type": "constructor"
    },
    {
      "anonymous": false,
      "inputs": [
        {
          "indexed": true,
          "internalType": "address",
          "name": "pool",
          "type": "address"
        },
        {
          "indexed": true,
          "internalType": "address",
          "name": "user",
          "type": "address"
        },
        {
          "indexed": false,
          "internalType": "uint256",
          "name": "borrowShares",
          "type": "uint256"
        },
        {
          "indexed": false,
          "internalType": "uint256",
          "name": "borrowAmount",
          "type": "uint256"
        }
      ],
      "name": "Borrow",
      "type": "event"
    },
    {
      "anonymous": false,
      "inputs": [
        {
          "indexed": true,
          "internalType": "address",
          "name": "pool",
          "type": "address"
        },
        {
          "indexed": true,
          "internalType": "address",
          "name": "user",
          "type": "address"
        },
        {
          "indexed": false,
          "internalType": "uint256",
          "name": "depositShares",
          "type": "uint256"
        },
        {
          "indexed": false,
          "internalType": "uint256",
          "name": "depositAmount",
          "type": "uint256"
        }
      ],
      "name": "Deposit",
      "type": "event"
    },
    {
      "anonymous": false,
      "inputs": [
        {
          "indexed": true,
          "internalType": "address",
          "name": "user",
          "type": "address"
        },
        {
          "indexed": false,
          "internalType": "address",
          "name": "pool",
          "type": "address"
        },
        {
          "indexed": false,
          "internalType": "address",
          "name": "collateral",
          "type": "address"
        },
        {
          "indexed": false,
          "internalType": "uint256",
          "name": "liquidateAmount",
          "type": "uint256"
        },
        {
          "indexed": false,
          "internalType": "uint256",
          "name": "liquidateShares",
          "type": "uint256"
        },
        {
          "indexed": false,
          "internalType": "uint256",
          "name": "collateralAmount",
          "type": "uint256"
        },
        {
          "indexed": false,
          "internalType": "uint256",
          "name": "collateralShares",
          "type": "uint256"
        },
        {
          "indexed": false,
          "internalType": "address",
          "name": "liquidator",
          "type": "address"
        }
      ],
      "name": "Liquidate",
      "type": "event"
    },
    {
      "anonymous": false,
      "inputs": [
        {
          "indexed": true,
          "internalType": "address",
          "name": "previousOwner",
          "type": "address"
        },
        {
          "indexed": true,
          "internalType": "address",
          "name": "newOwner",
          "type": "address"
        }
      ],
      "name": "OwnershipTransferred",
      "type": "event"
    },
    {
      "anonymous": false,
      "inputs": [
        {
          "indexed": true,
          "internalType": "address",
          "name": "token",
          "type": "address"
        },
        {
          "indexed": false,
          "internalType": "address",
          "name": "poolConfigAddress",
          "type": "address"
        }
      ],
      "name": "PoolConfigUpdated",
      "type": "event"
    },
    {
      "anonymous": false,
      "inputs": [
        {
          "indexed": true,
          "internalType": "address",
          "name": "token",
          "type": "address"
        },
        {
          "indexed": true,
          "internalType": "address",
          "name": "shareAddress",
          "type": "address"
        },
        {
          "indexed": true,
          "internalType": "address",
          "name": "poolConfigAddress",
          "type": "address"
        }
      ],
      "name": "PoolInitialized",
      "type": "event"
    },
    {
      "anonymous": false,
      "inputs": [
        {
          "indexed": true,
          "internalType": "address",
          "name": "token",
          "type": "address"
        },
        {
          "indexed": false,
          "internalType": "uint256",
          "name": "cumulativeBorrowInterestRate",
          "type": "uint256"
        },
        {
          "indexed": false,
          "internalType": "uint256",
          "name": "totalBorrows",
          "type": "uint256"
        }
      ],
      "name": "PoolInterestUpdated",
      "type": "event"
    },
    {
      "anonymous": false,
      "inputs": [
        {
          "indexed": true,
          "internalType": "address",
          "name": "pool",
          "type": "address"
        },
        {
          "indexed": true,
          "internalType": "address",
          "name": "user",
          "type": "address"
        },
        {
          "indexed": false,
          "internalType": "uint256",
          "name": "repayShares",
          "type": "uint256"
        },
        {
          "indexed": false,
          "internalType": "uint256",
          "name": "repayAmount",
          "type": "uint256"
        }
      ],
      "name": "Repay",
      "type": "event"
    },
    {
      "anonymous": false,
      "inputs": [
        {
          "indexed": true,
          "internalType": "address",
          "name": "pool",
          "type": "address"
        },
        {
          "indexed": true,
          "internalType": "address",
          "name": "user",
          "type": "address"
        },
        {
          "indexed": false,
          "internalType": "uint256",
          "name": "withdrawShares",
          "type": "uint256"
        },
        {
          "indexed": false,
          "internalType": "uint256",
          "name": "withdrawAmount",
          "type": "uint256"
        }
      ],
      "name": "Withdraw",
      "type": "event"
    },
    {
      "inputs": [],
      "name": "CLOSE_FACTOR",
      "outputs": [
        {
          "internalType": "uint256",
          "name": "",
          "type": "uint256"
        }
      ],
      "stateMutability": "view",
      "type": "function"
    },
    {
      "inputs": [
        {
          "internalType": "contract ERC20",
          "name": "_token",
          "type": "address"
        },
        {
          "internalType": "uint256",
          "name": "_amount",
          "type": "uint256"
        }
      ],
      "name": "borrow",
      "outputs": [],
      "stateMutability": "nonpayable",
      "type": "function"
    },
    {
      "inputs": [
        {
          "internalType": "contract ERC20",
          "name": "_token",
          "type": "address"
        },
        {
          "internalType": "uint256",
          "name": "_amount",
          "type": "uint256"
        }
      ],
      "name": "deposit",
      "outputs": [],
      "stateMutability": "nonpayable",
      "type": "function"
    },
    {
      "inputs": [
        {
          "internalType": "contract ERC20",
          "name": "_token",
          "type": "address"
        }
      ],
      "name": "getAvailableLiquidity",
      "outputs": [
        {
          "internalType": "uint256",
          "name": "",
          "type": "uint256"
        }
      ],
      "stateMutability": "view",
      "type": "function"
    },
    {
      "inputs": [
        {
          "internalType": "contract ERC20",
          "name": "_token",
          "type": "address"
        }
      ],
      "name": "getPool",
      "outputs": [
        {
          "internalType": "enum AssetPool.PoolStatus",
          "name": "status",
          "type": "uint8"
        },
        {
          "internalType": "address",
          "name": "shareToken",
          "type": "address"
        },
        {
          "internalType": "address",
          "name": "poolConfig",
          "type": "address"
        },
        {
          "internalType": "uint256",
          "name": "totalBorrows",
          "type": "uint256"
        },
        {
          "internalType": "uint256",
          "name": "totalBorrowShares",
          "type": "uint256"
        },
        {
          "internalType": "uint256",
          "name": "totalLiquidity",
          "type": "uint256"
        },
        {
          "internalType": "uint256",
          "name": "availableLiquidity",
          "type": "uint256"
        },
        {
          "internalType": "uint256",
          "name": "lastUpdateTimestamp",
          "type": "uint256"
        },
        {
          "internalType": "uint256",
          "name": "borrowRate",
          "type": "uint256"
        },
        {
          "internalType": "uint256",
          "name": "lendingRate",
          "type": "uint256"
        }
      ],
      "stateMutability": "view",
      "type": "function"
    },
    {
      "inputs": [
        {
          "internalType": "address",
          "name": "_token",
          "type": "address"
        }
      ],
      "name": "getPriceInWETH",
      "outputs": [
        {
          "internalType": "uint256",
          "name": "",
          "type": "uint256"
        }
      ],
      "stateMutability": "view",
      "type": "function"
    },
    {
      "inputs": [
        {
          "internalType": "contract ERC20",
          "name": "_token",
          "type": "address"
        }
      ],
      "name": "getTotalLiquidity",
      "outputs": [
        {
          "internalType": "uint256",
          "name": "",
          "type": "uint256"
        }
      ],
      "stateMutability": "view",
      "type": "function"
    },
    {
      "inputs": [
        {
          "internalType": "address",
          "name": "_user",
          "type": "address"
        },
        {
          "internalType": "contract ERC20",
          "name": "_token",
          "type": "address"
        }
      ],
      "name": "getUserCompoundedBorrowBalance",
      "outputs": [
        {
          "internalType": "uint256",
          "name": "",
          "type": "uint256"
        }
      ],
      "stateMutability": "view",
      "type": "function"
    },
    {
      "inputs": [
        {
          "internalType": "address",
          "name": "_user",
          "type": "address"
        },
        {
          "internalType": "contract ERC20",
          "name": "_token",
          "type": "address"
        }
      ],
      "name": "getUserCompoundedLiquidityBalance",
      "outputs": [
        {
          "internalType": "uint256",
          "name": "",
          "type": "uint256"
        }
      ],
      "stateMutability": "view",
      "type": "function"
    },
    {
      "inputs": [
        {
          "internalType": "address",
          "name": "_user",
          "type": "address"
        }
      ],
      "name": "getUserInfo",
      "outputs": [
        {
          "internalType": "uint256",
          "name": "totalLiquidityValue",
          "type": "uint256"
        },
        {
          "internalType": "uint256",
          "name": "totalCollateralValue",
          "type": "uint256"
        },
        {
          "internalType": "uint256",
          "name": "totalBorrowedValue",
          "type": "uint256"
        }
      ],
      "stateMutability": "view",
      "type": "function"
    },
    {
      "inputs": [
        {
          "internalType": "address",
          "name": "_user",
          "type": "address"
        },
        {
          "internalType": "contract ERC20",
          "name": "_token",
          "type": "address"
        }
      ],
      "name": "getUserPoolData",
      "outputs": [
        {
          "internalType": "uint256",
          "name": "compoundedLiquidityBalance",
          "type": "uint256"
        },
        {
          "internalType": "uint256",
          "name": "compoundedBorrowBalance",
          "type": "uint256"
        },
        {
          "internalType": "bool",
          "name": "usePoolAsCollateral",
          "type": "bool"
        }
      ],
      "stateMutability": "view",
      "type": "function"
    },
    {
      "inputs": [
        {
          "internalType": "contract ERC20",
          "name": "_token",
          "type": "address"
        },
        {
          "internalType": "contract PoolConfiguration",
          "name": "_poolConfig",
          "type": "address"
        }
      ],
      "name": "initPool",
      "outputs": [],
      "stateMutability": "nonpayable",
      "type": "function"
    },
    {
      "inputs": [
        {
          "internalType": "address",
          "name": "_user",
          "type": "address"
        }
      ],
      "name": "isAccountHealthy",
      "outputs": [
        {
          "internalType": "bool",
          "name": "",
          "type": "bool"
        }
      ],
      "stateMutability": "view",
      "type": "function"
    },
    {
      "inputs": [
        {
          "internalType": "address",
          "name": "_user",
          "type": "address"
        },
        {
          "internalType": "contract ERC20",
          "name": "_token",
          "type": "address"
        },
        {
          "internalType": "uint256",
          "name": "_shares",
          "type": "uint256"
        },
        {
          "internalType": "contract ERC20",
          "name": "_collateral",
          "type": "address"
        }
      ],
      "name": "liquidate",
      "outputs": [],
      "stateMutability": "nonpayable",
      "type": "function"
    },
    {
      "inputs": [],
      "name": "owner",
      "outputs": [
        {
          "internalType": "address",
          "name": "",
          "type": "address"
        }
      ],
      "stateMutability": "view",
      "type": "function"
    },
    {
      "inputs": [
        {
          "internalType": "address",
          "name": "",
          "type": "address"
        }
      ],
      "name": "pools",
      "outputs": [
        {
          "internalType": "enum AssetPool.PoolStatus",
          "name": "status",
          "type": "uint8"
        },
        {
          "internalType": "contract AssetPoolShare",
          "name": "shareToken",
          "type": "address"
        },
        {
          "internalType": "contract PoolConfiguration",
          "name": "poolConfig",
          "type": "address"
        },
        {
          "internalType": "uint256",
          "name": "totalBorrows",
          "type": "uint256"
        },
        {
          "internalType": "uint256",
          "name": "totalBorrowShares",
          "type": "uint256"
        },
        {
          "internalType": "uint256",
          "name": "poolReserves",
          "type": "uint256"
        },
        {
          "internalType": "uint256",
          "name": "lastUpdateTimestamp",
          "type": "uint256"
        }
      ],
      "stateMutability": "view",
      "type": "function"
    },
    {
      "inputs": [],
      "name": "renounceOwnership",
      "outputs": [],
      "stateMutability": "nonpayable",
      "type": "function"
    },
    {
      "inputs": [
        {
          "internalType": "contract ERC20",
          "name": "_token",
          "type": "address"
        },
        {
          "internalType": "uint256",
          "name": "_amount",
          "type": "uint256"
        }
      ],
      "name": "repayByAmount",
      "outputs": [],
      "stateMutability": "nonpayable",
      "type": "function"
    },
    {
      "inputs": [
        {
          "internalType": "contract ERC20",
          "name": "_token",
          "type": "address"
        },
        {
          "internalType": "uint256",
          "name": "_share",
          "type": "uint256"
        }
      ],
      "name": "repayByShare",
      "outputs": [],
      "stateMutability": "nonpayable",
      "type": "function"
    },
    {
      "inputs": [],
      "name": "reserveRate",
      "outputs": [
        {
          "internalType": "uint256",
          "name": "",
          "type": "uint256"
        }
      ],
      "stateMutability": "view",
      "type": "function"
    },
    {
      "inputs": [
        {
          "internalType": "contract ERC20",
          "name": "_token",
          "type": "address"
        },
        {
          "internalType": "enum AssetPool.PoolStatus",
          "name": "_status",
          "type": "uint8"
        }
      ],
      "name": "setPoolStatus",
      "outputs": [],
      "stateMutability": "nonpayable",
      "type": "function"
    },
    {
      "inputs": [
        {
          "internalType": "contract IPriceOracle",
          "name": "_priceOracle",
          "type": "address"
        }
      ],
      "name": "setPriceOracle",
      "outputs": [],
      "stateMutability": "nonpayable",
      "type": "function"
    },
    {
      "inputs": [
        {
          "internalType": "uint256",
          "name": "_reserveRate",
          "type": "uint256"
        }
      ],
      "name": "setReserveRate",
      "outputs": [],
      "stateMutability": "nonpayable",
      "type": "function"
    },
    {
      "inputs": [
        {
          "internalType": "address",
          "name": "_user",
          "type": "address"
        },
        {
          "internalType": "contract ERC20",
          "name": "_token",
          "type": "address"
        },
        {
          "internalType": "bool",
          "name": "_useAsCollateral",
          "type": "bool"
        }
      ],
      "name": "setUserUseTokenAsCollateral",
      "outputs": [],
      "stateMutability": "nonpayable",
      "type": "function"
    },
    {
      "inputs": [],
      "name": "shareDeployer",
      "outputs": [
        {
          "internalType": "contract AssetPoolShareDeployer",
          "name": "",
          "type": "address"
        }
      ],
      "stateMutability": "view",
      "type": "function"
    },
    {
      "inputs": [
        {
          "internalType": "uint256",
          "name": "",
          "type": "uint256"
        }
      ],
      "name": "tokenList",
      "outputs": [
        {
          "internalType": "contract ERC20",
          "name": "",
          "type": "address"
        }
      ],
      "stateMutability": "view",
      "type": "function"
    },
    {
      "inputs": [
        {
          "internalType": "address",
          "name": "newOwner",
          "type": "address"
        }
      ],
      "name": "transferOwnership",
      "outputs": [],
      "stateMutability": "nonpayable",
      "type": "function"
    },
    {
      "inputs": [
        {
          "internalType": "contract ERC20",
          "name": "_token",
          "type": "address"
        },
        {
          "internalType": "contract PoolConfiguration",
          "name": "_poolConfig",
          "type": "address"
        }
      ],
      "name": "updatePool",
      "outputs": [],
      "stateMutability": "nonpayable",
      "type": "function"
    },
    {
      "inputs": [
        {
          "internalType": "address",
          "name": "",
          "type": "address"
        },
        {
          "internalType": "address",
          "name": "",
          "type": "address"
        }
      ],
      "name": "userPoolData",
      "outputs": [
        {
          "internalType": "bool",
          "name": "disableAsCollateral",
          "type": "bool"
        },
        {
          "internalType": "uint256",
          "name": "borrowShares",
          "type": "uint256"
        }
      ],
      "stateMutability": "view",
      "type": "function"
    },
    {
      "inputs": [
        {
          "internalType": "contract ERC20",
          "name": "_token",
          "type": "address"
        },
        {
          "internalType": "uint256",
          "name": "_amount",
          "type": "uint256"
        }
      ],
      "name": "withdrawByAmount",
      "outputs": [],
      "stateMutability": "nonpayable",
      "type": "function"
    },
    {
      "inputs": [
        {
          "internalType": "contract ERC20",
          "name": "_token",
          "type": "address"
        },
        {
          "internalType": "uint256",
          "name": "_share",
          "type": "uint256"
        }
      ],
      "name": "withdrawByShare",
      "outputs": [],
      "stateMutability": "nonpayable",
      "type": "function"
    },
    {
      "inputs": [
        {
          "internalType": "contract ERC20",
          "name": "_token",
          "type": "address"
        },
        {
          "internalType": "uint256",
          "name": "_amount",
          "type": "uint256"
        }
      ],
      "name": "withdrawReserve",
      "outputs": [],
      "stateMutability": "nonpayable",
      "type": "function"
    }
  ],
  "bytecode": "0x608060405266b1a2bc2ec500006007553480156200001c57600080fd5b506040516200402a3803806200402a8339810160408190526200003f91620000e9565b6200004a3362000080565b60018055600680546001600160a01b039384166001600160a01b0319918216179091556005805492909316911617905562000128565b600080546001600160a01b038381166001600160a01b0319831681178455604051919092169283917f8be0079c531659141344cd1fd0a4f28419497f9722a3daafe3b4186f6b6457e09190a35050565b6001600160a01b0381168114620000e657600080fd5b50565b60008060408385031215620000fd57600080fd5b82516200010a81620000d0565b60208401519092506200011d81620000d0565b809150509250929050565b613ef280620001386000396000f3fe608060405234801561001057600080fd5b50600436106101f05760003560e01c80636386c1c71161010f578063a4063dbc116100a2578063c520b56311610071578063c520b563146104d0578063e526e4ab146104e3578063e5700388146104f6578063f2fde38b1461054557600080fd5b8063a4063dbc14610417578063a4bae00814610481578063bbe4f6db14610494578063c2ec0dca146104bd57600080fd5b80638da5cb5b116100de5780638da5cb5b146103cd5780638fbe0f10146103de5780639de8ef79146103f15780639ead72221461040457600080fd5b80636386c1c714610371578063715018a61461039f57806380e1ed82146103a757806381cc7e5c146103ba57600080fd5b806347e7ef241161018757806351723e301161015657806351723e3014610317578063530e784f1461034257806358d7bf80146103555780635dd34bc61461035e57600080fd5b806347e7ef24146102b2578063491db4a2146102c55780634b8a3529146102f55780634dab4dc01461030857600080fd5b806336481862116101c357806336481862146102565780633d4c95b7146102795780633de2f6b21461028c5780633f395c021461029f57600080fd5b8063181428ae146101f55780631c58ce141461021b578063266e2bd8146102305780632f02d91f14610243575b600080fd5b610208610203366004613994565b610558565b6040519081526020015b60405180910390f35b61022e6102293660046139cd565b6105f8565b005b61020861023e3660046139f9565b6108e6565b610208610251366004613994565b610951565b6102696102643660046139f9565b61098e565b6040519015158152602001610212565b61022e610287366004613a24565b6109a7565b61022e61029a366004613a6f565b610a65565b61022e6102ad366004613994565b610d7e565b61022e6102c03660046139cd565b611189565b6102d86102d3366004613994565b6114ad565b604080519384526020840192909252151590820152606001610212565b61022e6103033660046139cd565b611500565b6102086706f05b59d3b2000081565b60065461032a906001600160a01b031681565b6040516001600160a01b039091168152602001610212565b61022e6103503660046139f9565b611897565b61020860075481565b61022e61036c3660046139cd565b6118ce565b61038461037f3660046139f9565b611a76565b60408051938452602084019290925290820152606001610212565b61022e611c6d565b61022e6103b5366004613994565b611c81565b6102086103c83660046139f9565b611d63565b6000546001600160a01b031661032a565b61022e6103ec3660046139cd565b611e9d565b6102086103ff3660046139f9565b612036565b61032a610412366004613ac2565b61207c565b61046e6104253660046139f9565b600260208190526000918252604090912080546001820154928201546003830154600484015460059094015460ff8416956001600160a01b036101009095048516959416939087565b6040516102129796959493929190613b13565b61022e61048f3660046139cd565b6120a6565b6104a76104a23660046139f9565b612231565b6040516102129a99989796959493929190613b5d565b61022e6104cb366004613bbc565b612394565b61022e6104de3660046139cd565b612434565b61022e6104f1366004613ac2565b6125cd565b61052e610504366004613994565b60036020908152600092835260408084209091529082529020805460019091015460ff9091169082565b604080519215158352602083019190915201610212565b61022e6105533660046139f9565b6125da565b6001600160a01b03818116600090815260026020526040808220805491516370a0823160e01b815286851660048201529293909284926101009004909116906370a0823190602401602060405180830381865afa1580156105bd573d6000803e3d6000fd5b505050506040513d601f19601f820116820180604052508101906105e19190613bee565b90506105ed848261266a565b925050505b92915050565b610600612746565b6001600160a01b0380831660009081526002602081905260408220600181015491810154869491939290911690631a7929449061063c86612036565b6040516001600160e01b031960e085901b16815260048101929092526024820152604401602060405180830381865afa15801561067d573d6000803e3d6000fd5b505050506040513d601f19601f820116820180604052508101906106a19190613bee565b905060006106b48284600501544261279f565b6002840154909150670de0b6b3a76400006106cf8284613c1d565b6106d99190613c4a565b60028501819055600754670de0b6b3a7640000916106f8908490613c5e565b6107029190613c1d565b61070c9190613c4a565b84600401600082825461071f9190613c71565b909155505042600585015560028401546040516001600160a01b038716917f4459cec4806e5d45ce1ebf79e0c92583bc5f7567c93ee849aaeded68aa2c7b209161077191868252602082015260400190565b60405180910390a26107816127d6565b6001600160a01b03871660008181526002602052604080822090516370a0823160e01b81523060048201529092906370a0823190602401602060405180830381865afa1580156107d5573d6000803e3d6000fd5b505050506040513d601f19601f820116820180604052508101906107f99190613bee565b9050808811156108505760405162461bcd60e51b815260206004820152601460248201527f494e53554646494349454e545f42414c414e434500000000000000000000000060448201526064015b60405180910390fd5b81600401548811156108a45760405162461bcd60e51b815260206004820152601a60248201527f494e53554646494349454e545f504f4f4c5f52455345525645530000000000006044820152606401610847565b6108b86001600160a01b038a16338a612830565b878260040160008282546108cc9190613c5e565b909155505060018055506108e295505050505050565b5050565b6040516370a0823160e01b81523060048201526000906001600160a01b038316906370a0823190602401602060405180830381865afa15801561092d573d6000803e3d6000fd5b505050506040513d601f19601f820116820180604052508101906105f29190613bee565b6001600160a01b03808316600090815260036020908152604080832093851683529290529081206001015461098683826128ad565b949350505050565b600080600061099c84611a76565b111595945050505050565b6109af6127d6565b6001600160a01b038084166000908152600360209081526040808320938616835292905220805460ff1916821517815581610a5f576109ed8461098e565b610a5f5760405162461bcd60e51b815260206004820152603260248201527f63616e2774207365742075736520617320636f6c6c61746572616c2c2061636360448201527f6f756e7420697320756e6865616c7468792e00000000000000000000000000006064820152608401610847565b50505050565b610a6d612746565b6001600160a01b0380841660009081526002602081905260408220600181015491810154879491939290911690631a79294490610aa986612036565b6040516001600160e01b031960e085901b16815260048101929092526024820152604401602060405180830381865afa158015610aea573d6000803e3d6000fd5b505050506040513d601f19601f82011682018060405250810190610b0e9190613bee565b90506000610b218284600501544261279f565b6002840154909150670de0b6b3a7640000610b3c8284613c1d565b610b469190613c4a565b60028501819055600754670de0b6b3a764000091610b65908490613c5e565b610b6f9190613c1d565b610b799190613c4a565b846004016000828254610b8c9190613c71565b909155505042600585015560028401546040516001600160a01b038716917f4459cec4806e5d45ce1ebf79e0c92583bc5f7567c93ee849aaeded68aa2c7b2091610bde91868252602082015260400190565b60405180910390a26001600160a01b03808716600090815260026020819052604082206001810154918101548a9491939290911690631a79294490610c2286612036565b6040516001600160e01b031960e085901b16815260048101929092526024820152604401602060405180830381865afa158015610c63573d6000803e3d6000fd5b505050506040513d601f19601f82011682018060405250810190610c879190613bee565b90506000610c9a8284600501544261279f565b6002840154909150670de0b6b3a7640000610cb58284613c1d565b610cbf9190613c4a565b60028501819055600754670de0b6b3a764000091610cde908490613c5e565b610ce89190613c1d565b610cf29190613c4a565b846004016000828254610d059190613c71565b909155505042600585015560028401546040516001600160a01b038716917f4459cec4806e5d45ce1ebf79e0c92583bc5f7567c93ee849aaeded68aa2c7b2091610d5791868252602082015260400190565b60405180910390a2610d6b8e8e8e8e612904565b50505050505050505050610a5f60018055565b610d866127d6565b60005b600454811015610e2457826001600160a01b031660048281548110610db057610db0613c84565b6000918252602090912001546001600160a01b031603610e125760405162461bcd60e51b815260206004820152600a60248201527f504f4f4c5f4558495354000000000000000000000000000000000000000000006044820152606401610847565b80610e1c81613c9a565b915050610d89565b506000826001600160a01b03166395d89b416040518163ffffffff1660e01b8152600401600060405180830381865afa158015610e65573d6000803e3d6000fd5b505050506040513d6000823e601f3d908101601f19168201604052610e8d9190810190613ced565b604051602001610e9d9190613d8f565b60405160208183030381529060405290506000836001600160a01b03166306fdde036040518163ffffffff1660e01b8152600401600060405180830381865afa158015610eee573d6000803e3d6000fd5b505050506040513d6000823e601f3d908101601f19168201604052610f169190810190613ced565b604051602001610f269190613d8f565b60408051601f19818403018152908290526006547f564cdcb10000000000000000000000000000000000000000000000000000000083529092506000916001600160a01b039091169063564cdcb190610f8790859087908a90600401613e00565b6020604051808303816000875af1158015610fa6573d6000803e3d6000fd5b505050506040513d601f19601f82011682018060405250810190610fca9190613e3f565b905060006040518060e0016040528060006002811115610fec57610fec613adb565b8152602001836001600160a01b03168152602001866001600160a01b031681526020016000815260200160008152602001600081526020014281525090508060026000886001600160a01b03166001600160a01b0316815260200190815260200160002060008201518160000160006101000a81548160ff0219169083600281111561107a5761107a613adb565b0217905550602082015181546001600160a01b03918216610100027fffffffffffffffffffffff0000000000000000000000000000000000000000ff9091161782556040808401516001808501805492851673ffffffffffffffffffffffffffffffffffffffff19938416179055606086015160028601556080860151600386015560a086015160048087019190915560c0909601516005909501949094558454938401855560009485527f8a35acfbc15ff81a39ae7d344fd709f28e8600b4aa8c65c6b64bfe7fe36bd19b90930180548b8416941684179055518882169391861692917fb2684e1b8e116bbb42a14d7a6bc6afa19d85ff0a8666a6b424b79a738c661d8191a4505050505050565b611191612746565b6001600160a01b0380831660009081526002602081905260408220600181015491810154869491939290911690631a792944906111cd86612036565b6040516001600160e01b031960e085901b16815260048101929092526024820152604401602060405180830381865afa15801561120e573d6000803e3d6000fd5b505050506040513d601f19601f820116820180604052508101906112329190613bee565b905060006112458284600501544261279f565b6002840154909150670de0b6b3a76400006112608284613c1d565b61126a9190613c4a565b60028501819055600754670de0b6b3a764000091611289908490613c5e565b6112939190613c1d565b61129d9190613c4a565b8460040160008282546112b09190613c71565b909155505042600585015560028401546040516001600160a01b038716917f4459cec4806e5d45ce1ebf79e0c92583bc5f7567c93ee849aaeded68aa2c7b209161130291868252602082015260400190565b60405180910390a26000861161135a5760405162461bcd60e51b815260206004820152601660248201527f494e56414c49445f4445504f5349545f414d4f554e54000000000000000000006044820152606401610847565b6001600160a01b03871660009081526002602052604090206001815460ff16600281111561138a5761138a613adb565b146113cc5760405162461bcd60e51b8152602060048201526012602482015271494e56414c49445f504f4f4c5f535441544560701b6044820152606401610847565b60006113d88989612e57565b82546040516340c10f1960e01b81523360048201526024810183905291925061010090046001600160a01b0316906340c10f1990604401600060405180830381600087803b15801561142957600080fd5b505af115801561143d573d6000803e3d6000fd5b50611457925050506001600160a01b038a1633308b612f1e565b60408051828152602081018a905233916001600160a01b038c16917fdcbc1c05240f31ff3ad067ef1ee35ce4997762752e3a095284754544f4c709d7910160405180910390a3505050505050506108e260018055565b60008060006114bc8585610558565b92506114c88585610951565b6001600160a01b039586166000908152600360209081526040808320979098168252959095529490932054919460ff90921615925050565b611508612746565b6001600160a01b0380831660009081526002602081905260408220600181015491810154869491939290911690631a7929449061154486612036565b6040516001600160e01b031960e085901b16815260048101929092526024820152604401602060405180830381865afa158015611585573d6000803e3d6000fd5b505050506040513d601f19601f820116820180604052508101906115a99190613bee565b905060006115bc8284600501544261279f565b6002840154909150670de0b6b3a76400006115d78284613c1d565b6115e19190613c4a565b60028501819055600754670de0b6b3a764000091611600908490613c5e565b61160a9190613c1d565b6116149190613c4a565b8460040160008282546116279190613c71565b909155505042600585015560028401546040516001600160a01b038716917f4459cec4806e5d45ce1ebf79e0c92583bc5f7567c93ee849aaeded68aa2c7b209161167991868252602082015260400190565b60405180910390a26001600160a01b03871660009081526002602052604090206001815460ff1660028111156116b1576116b1613adb565b146116f35760405162461bcd60e51b8152602060048201526012602482015271494e56414c49445f504f4f4c5f535441544560701b6044820152606401610847565b60008711801561170b5750611707886108e6565b8711155b6117575760405162461bcd60e51b815260206004820152601560248201527f494e56414c49445f424f52524f575f414d4f554e5400000000000000000000006044820152606401610847565b60006117638989612f6f565b9050878260020160008282546117799190613c71565b92505081905550808260030160008282546117949190613c71565b90915550503360009081526003602090815260408083206001600160a01b038d1684529091528120600181018054919284926117d1908490613c71565b909155506117eb90506001600160a01b038b16338b612830565b6117f43361098e565b6118405760405162461bcd60e51b815260206004820152601160248201527f4143434f554e545f554e4845414c5448590000000000000000000000000000006044820152606401610847565b60408051838152602081018b905233916001600160a01b038d16917fc1561b330e73faa7d5d1ac03c968d8f359b0191ccdb9cc002cf7d8eb6ae038cb910160405180910390a350505050505050506108e260018055565b61189f6127d6565b6005805473ffffffffffffffffffffffffffffffffffffffff19166001600160a01b0392909216919091179055565b6118d6612746565b6001600160a01b0380831660009081526002602081905260408220600181015491810154869491939290911690631a7929449061191286612036565b6040516001600160e01b031960e085901b16815260048101929092526024820152604401602060405180830381865afa158015611953573d6000803e3d6000fd5b505050506040513d601f19601f820116820180604052508101906119779190613bee565b9050600061198a8284600501544261279f565b6002840154909150670de0b6b3a76400006119a58284613c1d565b6119af9190613c4a565b60028501819055600754670de0b6b3a7640000916119ce908490613c5e565b6119d89190613c1d565b6119e29190613c4a565b8460040160008282546119f59190613c71565b909155505042600585015560028401546040516001600160a01b038716917f4459cec4806e5d45ce1ebf79e0c92583bc5f7567c93ee849aaeded68aa2c7b2091611a4791868252602082015260400190565b60405180910390a26000611a5b8888612fc6565b9050611a67888261301f565b5050505050506108e260018055565b60008080805b600454811015611c6557600060048281548110611a9b57611a9b613c84565b60009182526020808320909101546001600160a01b0316808352600290915260408220909250908080611ace8a866114ad565b925092509250826000141580611ae357508115155b15611c4d57600184015460408051631629af8760e21b815290516000926001600160a01b0316916358a6be1c9160048083019260209291908290030181865afa158015611b34573d6000803e3d6000fd5b505050506040513d601f19601f82011682018060405250810190611b589190613bee565b90506000611b6587611d63565b905060008111611bb75760405162461bcd60e51b815260206004820152600d60248201527f494e56414c49445f5052494345000000000000000000000000000000000000006044820152606401610847565b6000670de0b6b3a7640000611bcc8784613c1d565b611bd69190613c4a565b9050611be2818d613c71565b9b50600083118015611bf15750835b15611c2057670de0b6b3a7640000611c098483613c1d565b611c139190613c4a565b611c1d908c613c71565b9a505b670de0b6b3a7640000611c338684613c1d565b611c3d9190613c4a565b611c47908b613c71565b99505050505b50505050508080611c5d90613c9a565b915050611a7c565b509193909250565b611c756127d6565b611c7f600061318a565b565b611c896127d6565b6001600160a01b0380831660009081526002602052604090208054909161010090910416611cf95760405162461bcd60e51b815260206004820152600e60248201527f504f4f4c5f4e4f545f45584953540000000000000000000000000000000000006044820152606401610847565b60018101805473ffffffffffffffffffffffffffffffffffffffff19166001600160a01b03848116918217909255604051908152908416907fed7692d7eac8e25ca74b0bcb7b52fe51d01a8910e8e320c6f3223365708d76de9060200160405180910390a2505050565b600554604080517fad5c464800000000000000000000000000000000000000000000000000000000815290516000926001600160a01b03169163ad5c46489160048083019260209291908290030181865afa158015611dc6573d6000803e3d6000fd5b505050506040513d601f19601f82011682018060405250810190611dea9190613e3f565b6001600160a01b0316826001600160a01b031614611e8e576005546040517f81cc7e5c0000000000000000000000000000000000000000000000000000000081526001600160a01b038481166004830152909116906381cc7e5c90602401602060405180830381865afa158015611e65573d6000803e3d6000fd5b505050506040513d601f19601f82011682018060405250810190611e899190613bee565b6105f2565b670de0b6b3a764000092915050565b611ea5612746565b6001600160a01b0380831660009081526002602081905260408220600181015491810154869491939290911690631a79294490611ee186612036565b6040516001600160e01b031960e085901b16815260048101929092526024820152604401602060405180830381865afa158015611f22573d6000803e3d6000fd5b505050506040513d601f19601f82011682018060405250810190611f469190613bee565b90506000611f598284600501544261279f565b6002840154909150670de0b6b3a7640000611f748284613c1d565b611f7e9190613c4a565b60028501819055600754670de0b6b3a764000091611f9d908490613c5e565b611fa79190613c1d565b611fb19190613c4a565b846004016000828254611fc49190613c71565b909155505042600585015560028401546040516001600160a01b038716917f4459cec4806e5d45ce1ebf79e0c92583bc5f7567c93ee849aaeded68aa2c7b209161201691868252602082015260400190565b60405180910390a261202887876131e7565b50505050506108e260018055565b6001600160a01b0381166000908152600260205260408120600481015461205c846108e6565b826002015461206b9190613c71565b6120759190613c5e565b9392505050565b6004818154811061208c57600080fd5b6000918252602090912001546001600160a01b0316905081565b6120ae612746565b6001600160a01b0380831660009081526002602081905260408220600181015491810154869491939290911690631a792944906120ea86612036565b6040516001600160e01b031960e085901b16815260048101929092526024820152604401602060405180830381865afa15801561212b573d6000803e3d6000fd5b505050506040513d601f19601f8201168201806040525081019061214f9190613bee565b905060006121628284600501544261279f565b6002840154909150670de0b6b3a764000061217d8284613c1d565b6121879190613c4a565b60028501819055600754670de0b6b3a7640000916121a6908490613c5e565b6121b09190613c1d565b6121ba9190613c4a565b8460040160008282546121cd9190613c71565b909155505042600585015560028401546040516001600160a01b038716917f4459cec4806e5d45ce1ebf79e0c92583bc5f7567c93ee849aaeded68aa2c7b209161221f91868252602082015260400190565b60405180910390a2612028878761301f565b6001600160a01b038082166000908152600260208190526040822080546001820154928201546003830154949561010090920482169493909116929091859081908190819081906122818c612036565b955061228c8c6108e6565b6005820154825460018401546040517f1a792944000000000000000000000000000000000000000000000000000000008152600481018d9052602481018b905260ff9092169e509297509095506001600160a01b0390911690631a79294490604401602060405180830381865afa15801561230b573d6000803e3d6000fd5b505050506040513d601f19601f8201168201806040525081019061232f9190613bee565b925085156123815761234986670de0b6b3a7640000613c1d565b60075461235e90670de0b6b3a7640000613c5e565b6123688a86613c1d565b6123729190613c1d565b61237c9190613c4a565b612384565b60005b9150509193959799509193959799565b61239c6127d6565b6001600160a01b038083166000908152600260205260409020805490916101009091041661240c5760405162461bcd60e51b815260206004820152600e60248201527f504f4f4c5f4e4f545f45584953540000000000000000000000000000000000006044820152606401610847565b80548290829060ff1916600183600281111561242a5761242a613adb565b0217905550505050565b61243c612746565b6001600160a01b0380831660009081526002602081905260408220600181015491810154869491939290911690631a7929449061247886612036565b6040516001600160e01b031960e085901b16815260048101929092526024820152604401602060405180830381865afa1580156124b9573d6000803e3d6000fd5b505050506040513d601f19601f820116820180604052508101906124dd9190613bee565b905060006124f08284600501544261279f565b6002840154909150670de0b6b3a764000061250b8284613c1d565b6125159190613c4a565b60028501819055600754670de0b6b3a764000091612534908490613c5e565b61253e9190613c1d565b6125489190613c4a565b84600401600082825461255b9190613c71565b909155505042600585015560028401546040516001600160a01b038716917f4459cec4806e5d45ce1ebf79e0c92583bc5f7567c93ee849aaeded68aa2c7b20916125ad91868252602082015260400190565b60405180910390a260006125c18888613452565b9050611a6788826131e7565b6125d56127d6565b600755565b6125e26127d6565b6001600160a01b03811661265e5760405162461bcd60e51b815260206004820152602660248201527f4f776e61626c653a206e6577206f776e657220697320746865207a65726f206160448201527f64647265737300000000000000000000000000000000000000000000000000006064820152608401610847565b6126678161318a565b50565b6001600160a01b03821660009081526002602052604081208161268c85612036565b905060008260000160019054906101000a90046001600160a01b03166001600160a01b03166318160ddd6040518163ffffffff1660e01b8152600401602060405180830381865afa1580156126e5573d6000803e3d6000fd5b505050506040513d601f19601f820116820180604052508101906127099190613bee565b9050811580612716575080155b1561272757600093505050506105f2565b806127328387613c1d565b61273c9190613c4a565b9695505050505050565b6002600154036127985760405162461bcd60e51b815260206004820152601f60248201527f5265656e7472616e637947756172643a207265656e7472616e742063616c6c006044820152606401610847565b6002600155565b60006301e133806127b08484613c5e565b6127ba9086613c1d565b6127c49190613c4a565b61098690670de0b6b3a7640000613c71565b6000546001600160a01b03163314611c7f5760405162461bcd60e51b815260206004820181905260248201527f4f776e61626c653a2063616c6c6572206973206e6f7420746865206f776e65726044820152606401610847565b6040516001600160a01b0383166024820152604481018290526128a890849063a9059cbb60e01b906064015b60408051601f198184030181529190526020810180517bffffffffffffffffffffffffffffffffffffffffffffffffffffffff166001600160e01b031990931692909217909152613521565b505050565b6001600160a01b038216600090815260026020819052604082209081015415806128d957506003810154155b156128e757829150506105f2565b6109868160020154846128fa9190613c1d565b8260030154613609565b61290d8461098e565b1561295a5760405162461bcd60e51b815260206004820152601160248201527f4143434f554e545f49535f4845414c54480000000000000000000000000000006044820152606401610847565b6001600160a01b038316600090815260026020526040812090815460ff16600281111561298957612989613adb565b036129cb5760405162461bcd60e51b8152602060048201526012602482015271494e56414c49445f504f4f4c5f535441544560701b6044820152606401610847565b6001600160a01b038086166000908152600360209081526040808320938616835292905220805460ff1615612a425760405162461bcd60e51b815260206004820152601360248201527f434f4c4c41544552414c5f44495341424c4544000000000000000000000000006044820152606401610847565b6001600160a01b03808416600090815260026020908152604080832060018101548251631629af8760e21b81529251919516926358a6be1c92600480820193918290030181865afa158015612a9b573d6000803e3d6000fd5b505050506040513d601f19601f82011682018060405250810190612abf9190613bee565b11612b0c5760405162461bcd60e51b815260206004820152601860248201527f504f4f4c5f434f4c4c41544552414c5f44495341424c454400000000000000006044820152606401610847565b6001600160a01b038088166000908152600360209081526040808320938a168352929052206001810154612b825760405162461bcd60e51b815260206004820152601360248201527f555345525f4449445f4e4f545f424f52524f57000000000000000000000000006044820152606401610847565b6000670de0b6b3a76400006706f05b59d3b200008360010154612ba59190613c1d565b612baf9190613c4a565b90508681811115612bbd5750805b6000612bc98a836128ad565b90506000612bd88b838b613682565b90506000612be68a83613452565b9050612bfd6001600160a01b038d16333086612f1e565b86546040516370a0823160e01b81526001600160a01b038f811660048301528392610100900416906370a0823190602401602060405180830381865afa158015612c4b573d6000803e3d6000fd5b505050506040513d601f19601f82011682018060405250810190612c6f9190613bee565b11612cbc5760405162461bcd60e51b815260206004820152601760248201527f494e53554646494349454e545f434f4c4c41544552414c0000000000000000006044820152606401610847565b8654604051632770a7eb60e21b81526001600160a01b038f811660048301526024820184905261010090920490911690639dc29fac90604401600060405180830381600087803b158015612d0f57600080fd5b505af1158015612d23573d6000803e3d6000fd5b505088546040516340c10f1960e01b8152336004820152602481018590526101009091046001600160a01b031692506340c10f199150604401600060405180830381600087803b158015612d7657600080fd5b505af1158015612d8a573d6000803e3d6000fd5b5050505082896002016000828254612da29190613c5e565b9250508190555083896003016000828254612dbd9190613c5e565b9250508190555083866001016000828254612dd89190613c5e565b9091555050604080516001600160a01b038e811682528c81166020830152918101859052606081018690526080810184905260a081018390523360c0820152908e16907f602f496956f48338da240f5132098504dfefea6c18ee6d8bcb1879c137942ab39060e00160405180910390a250505050505050505050505050565b6001600160a01b038216600090815260026020526040812081612e7985612036565b905060008260000160019054906101000a90046001600160a01b03166001600160a01b03166318160ddd6040518163ffffffff1660e01b8152600401602060405180830381865afa158015612ed2573d6000803e3d6000fd5b505050506040513d601f19601f82011682018060405250810190612ef69190613bee565b9050811580612f03575080155b15612f13578493505050506105f2565b816127328287613c1d565b6040516001600160a01b0380851660248301528316604482015260648101829052610a5f9085907f23b872dd000000000000000000000000000000000000000000000000000000009060840161285c565b6001600160a01b03821660009081526002602081905260408220908101541580612f9b57506003810154155b15612fa957829150506105f2565b610986816003015484612fbc9190613c1d565b8260020154613609565b6001600160a01b03821660009081526002602081905260408220908101541580612ff257506003810154155b156130015760009150506105f2565b600281015460038201546130159085613c1d565b6109869190613c4a565b6001600160a01b038216600090815260026020526040812090815460ff16600281111561304e5761304e613adb565b036130905760405162461bcd60e51b8152602060048201526012602482015271494e56414c49445f504f4f4c5f535441544560701b6044820152606401610847565b3360009081526003602090815260408083206001600160a01b03871684529091529020600181015483908111156130c8575060018101545b60006130d486836128ad565b9050808460020160008282546130ea9190613c5e565b92505081905550818460030160008282546131059190613c5e565b92505081905550818360010160008282546131209190613c5e565b9091555061313b90506001600160a01b038716333084612f1e565b604080518381526020810183905233916001600160a01b038916917fe4a1ae657f49cb1fb1c7d3a94ae6093565c4c8c0e03de488f79c377c3c3a24e091015b60405180910390a3505050505050565b600080546001600160a01b0383811673ffffffffffffffffffffffffffffffffffffffff19831681178455604051919092169283917f8be0079c531659141344cd1fd0a4f28419497f9722a3daafe3b4186f6b6457e09190a35050565b6001600160a01b03828116600090815260026020526040808220805491516370a0823160e01b81523360048201529093610100909204909116906370a0823190602401602060405180830381865afa158015613247573d6000803e3d6000fd5b505050506040513d601f19601f8201168201806040525081019061326b9190613bee565b90506000825460ff16600281111561328557613285613adb565b036132c75760405162461bcd60e51b8152602060048201526012602482015271494e56414c49445f504f4f4c5f535441544560701b6044820152606401610847565b82818111156132d35750805b60006132df868361266a565b8454604051632770a7eb60e21b81523360048201526024810185905291925061010090046001600160a01b031690639dc29fac90604401600060405180830381600087803b15801561333057600080fd5b505af1158015613344573d6000803e3d6000fd5b505060405163a9059cbb60e01b8152336004820152602481018490526001600160a01b038916925063a9059cbb91506044016020604051808303816000875af1158015613395573d6000803e3d6000fd5b505050506040513d601f19601f820116820180604052508101906133b99190613e5c565b506133c33361098e565b61340f5760405162461bcd60e51b815260206004820152601160248201527f4143434f554e545f554e4845414c5448590000000000000000000000000000006044820152606401610847565b604080518381526020810183905233916001600160a01b038916917ff341246adaac6f497bc2a656f546ab9e182111d630394f0c57c710a59a2cb567910161317a565b6001600160a01b03821660009081526002602052604081208161347485612036565b905060008260000160019054906101000a90046001600160a01b03166001600160a01b03166318160ddd6040518163ffffffff1660e01b8152600401602060405180830381865afa1580156134cd573d6000803e3d6000fd5b505050506040513d601f19601f820116820180604052508101906134f19190613bee565b90508115806134fe575080155b1561350e578493505050506105f2565b61273c61351b8287613c1d565b83613609565b6000613576826040518060400160405280602081526020017f5361666545524332303a206c6f772d6c6576656c2063616c6c206661696c6564815250856001600160a01b031661386c9092919063ffffffff16565b90508051600014806135975750808060200190518101906135979190613e5c565b6128a85760405162461bcd60e51b815260206004820152602a60248201527f5361666545524332303a204552433230206f7065726174696f6e20646964206e60448201527f6f742073756363656564000000000000000000000000000000000000000000006064820152608401610847565b600080821161365a5760405162461bcd60e51b815260206004820152600f60248201527f444956494445445f42595f5a45524f00000000000000000000000000000000006044820152606401610847565b60006136668385613c4a565b90506136728385613e79565b1561207557610986816001613c71565b6005546000906001600160a01b03166136dd5760405162461bcd60e51b815260206004820152601460248201527f494e56414c49445f50524943455f4f5241434c450000000000000000000000006044820152606401610847565b60006136e885611d63565b90506000811161373a5760405162461bcd60e51b815260206004820152601360248201527f494e56414c49445f544f4b454e5f5052494345000000000000000000000000006044820152606401610847565b600061374584611d63565b9050600081116137975760405162461bcd60e51b815260206004820152601860248201527f494e56414c49445f434f4c4c41544552414c5f505249434500000000000000006044820152606401610847565b6001600160a01b0380871660009081526002602090815260408083206001015481517fe98376da00000000000000000000000000000000000000000000000000000000815291519394169263e98376da926004808401939192918290030181865afa15801561380a573d6000803e3d6000fd5b505050506040513d601f19601f8201168201806040525081019061382e9190613bee565b905061384282670de0b6b3a7640000613c1d565b8161384d8886613c1d565b6138579190613c1d565b6138619190613c4a565b979650505050505050565b6060610986848460008585600080866001600160a01b031685876040516138939190613e8d565b60006040518083038185875af1925050503d80600081146138d0576040519150601f19603f3d011682016040523d82523d6000602084013e6138d5565b606091505b50915091506138618783838760608315613950578251600003613949576001600160a01b0385163b6139495760405162461bcd60e51b815260206004820152601d60248201527f416464726573733a2063616c6c20746f206e6f6e2d636f6e74726163740000006044820152606401610847565b5081610986565b61098683838151156139655781518083602001fd5b8060405162461bcd60e51b81526004016108479190613ea9565b6001600160a01b038116811461266757600080fd5b600080604083850312156139a757600080fd5b82356139b28161397f565b915060208301356139c28161397f565b809150509250929050565b600080604083850312156139e057600080fd5b82356139eb8161397f565b946020939093013593505050565b600060208284031215613a0b57600080fd5b81356120758161397f565b801515811461266757600080fd5b600080600060608486031215613a3957600080fd5b8335613a448161397f565b92506020840135613a548161397f565b91506040840135613a6481613a16565b809150509250925092565b60008060008060808587031215613a8557600080fd5b8435613a908161397f565b93506020850135613aa08161397f565b9250604085013591506060850135613ab78161397f565b939692955090935050565b600060208284031215613ad457600080fd5b5035919050565b634e487b7160e01b600052602160045260246000fd5b60038110613b0f57634e487b7160e01b600052602160045260246000fd5b9052565b60e08101613b21828a613af1565b6001600160a01b0397881660208301529590961660408701526060860193909352608085019190915260a084015260c090920191909152919050565b6101408101613b6c828d613af1565b6001600160a01b039a8b1660208301529890991660408a01526060890196909652608088019490945260a087019290925260c086015260e085015261010084015261012090920191909152919050565b60008060408385031215613bcf57600080fd5b8235613bda8161397f565b91506020830135600381106139c257600080fd5b600060208284031215613c0057600080fd5b5051919050565b634e487b7160e01b600052601160045260246000fd5b80820281158282048414176105f2576105f2613c07565b634e487b7160e01b600052601260045260246000fd5b600082613c5957613c59613c34565b500490565b818103818111156105f2576105f2613c07565b808201808211156105f2576105f2613c07565b634e487b7160e01b600052603260045260246000fd5b600060018201613cac57613cac613c07565b5060010190565b634e487b7160e01b600052604160045260246000fd5b60005b83811015613ce4578181015183820152602001613ccc565b50506000910152565b600060208284031215613cff57600080fd5b815167ffffffffffffffff80821115613d1757600080fd5b818401915084601f830112613d2b57600080fd5b815181811115613d3d57613d3d613cb3565b604051601f8201601f19908116603f01168101908382118183101715613d6557613d65613cb3565b81604052828152876020848701011115613d7e57600080fd5b613861836020830160208801613cc9565b7f4173736574200000000000000000000000000000000000000000000000000000815260008251613dc7816006850160208701613cc9565b9190910160060192915050565b60008151808452613dec816020860160208601613cc9565b601f01601f19169290920160200192915050565b606081526000613e136060830186613dd4565b8281036020840152613e258186613dd4565b9150506001600160a01b0383166040830152949350505050565b600060208284031215613e5157600080fd5b81516120758161397f565b600060208284031215613e6e57600080fd5b815161207581613a16565b600082613e8857613e88613c34565b500690565b60008251613e9f818460208701613cc9565b9190910192915050565b6020815260006120756020830184613dd456fea2646970667358221220e820ddae15a5de43c46857755e1da3d4f1e6571c7b6916cf19b3f5c4e1874c7c64736f6c63430008110033",
  "linkReferences": {},
  "deployedLinkReferences": {}
}