{
  "_format": "hh-sol-artifact-1",
  "contractName": "AssetPool",
  "sourceName": "src/backend/contracts/AssetPool.sol",
  "abi": [
    {
      "inputs": [
        {
          "internalType": "contract AssetPoolShareDeployer",
          "name": "_shareDeployer",
          "type": "address"
        },
        {
          "internalType": "contract IPriceOracle",
          "name": "_priceOracle",
          "type": "address"
        }
      ],
      "stateMutability": "nonpayable",
      "type": "constructor"
    },
    {
      "anonymous": false,
      "inputs": [
        {
          "indexed": true,
          "internalType": "address",
          "name": "pool",
          "type": "address"
        },
        {
          "indexed": true,
          "internalType": "address",
          "name": "user",
          "type": "address"
        },
        {
          "indexed": false,
          "internalType": "uint256",
          "name": "borrowShares",
          "type": "uint256"
        },
        {
          "indexed": false,
          "internalType": "uint256",
          "name": "borrowAmount",
          "type": "uint256"
        }
      ],
      "name": "Borrow",
      "type": "event"
    },
    {
      "anonymous": false,
      "inputs": [
        {
          "indexed": true,
          "internalType": "address",
          "name": "pool",
          "type": "address"
        },
        {
          "indexed": true,
          "internalType": "address",
          "name": "user",
          "type": "address"
        },
        {
          "indexed": false,
          "internalType": "uint256",
          "name": "depositShares",
          "type": "uint256"
        },
        {
          "indexed": false,
          "internalType": "uint256",
          "name": "depositAmount",
          "type": "uint256"
        }
      ],
      "name": "Deposit",
      "type": "event"
    },
    {
      "anonymous": false,
      "inputs": [
        {
          "indexed": true,
          "internalType": "address",
          "name": "user",
          "type": "address"
        },
        {
          "indexed": false,
          "internalType": "address",
          "name": "pool",
          "type": "address"
        },
        {
          "indexed": false,
          "internalType": "address",
          "name": "collateral",
          "type": "address"
        },
        {
          "indexed": false,
          "internalType": "uint256",
          "name": "liquidateAmount",
          "type": "uint256"
        },
        {
          "indexed": false,
          "internalType": "uint256",
          "name": "liquidateShares",
          "type": "uint256"
        },
        {
          "indexed": false,
          "internalType": "uint256",
          "name": "collateralAmount",
          "type": "uint256"
        },
        {
          "indexed": false,
          "internalType": "uint256",
          "name": "collateralShares",
          "type": "uint256"
        },
        {
          "indexed": false,
          "internalType": "address",
          "name": "liquidator",
          "type": "address"
        }
      ],
      "name": "Liquidate",
      "type": "event"
    },
    {
      "anonymous": false,
      "inputs": [
        {
          "indexed": true,
          "internalType": "address",
          "name": "previousOwner",
          "type": "address"
        },
        {
          "indexed": true,
          "internalType": "address",
          "name": "newOwner",
          "type": "address"
        }
      ],
      "name": "OwnershipTransferred",
      "type": "event"
    },
    {
      "anonymous": false,
      "inputs": [
        {
          "indexed": true,
          "internalType": "address",
          "name": "token",
          "type": "address"
        },
        {
          "indexed": false,
          "internalType": "address",
          "name": "poolConfigAddress",
          "type": "address"
        }
      ],
      "name": "PoolConfigUpdated",
      "type": "event"
    },
    {
      "anonymous": false,
      "inputs": [
        {
          "indexed": true,
          "internalType": "address",
          "name": "token",
          "type": "address"
        },
        {
          "indexed": true,
          "internalType": "address",
          "name": "shareAddress",
          "type": "address"
        },
        {
          "indexed": true,
          "internalType": "address",
          "name": "poolConfigAddress",
          "type": "address"
        }
      ],
      "name": "PoolInitialized",
      "type": "event"
    },
    {
      "anonymous": false,
      "inputs": [
        {
          "indexed": true,
          "internalType": "address",
          "name": "token",
          "type": "address"
        },
        {
          "indexed": false,
          "internalType": "uint256",
          "name": "cumulativeBorrowInterestRate",
          "type": "uint256"
        },
        {
          "indexed": false,
          "internalType": "uint256",
          "name": "totalBorrows",
          "type": "uint256"
        }
      ],
      "name": "PoolInterestUpdated",
      "type": "event"
    },
    {
      "anonymous": false,
      "inputs": [
        {
          "indexed": true,
          "internalType": "address",
          "name": "pool",
          "type": "address"
        },
        {
          "indexed": true,
          "internalType": "address",
          "name": "user",
          "type": "address"
        },
        {
          "indexed": false,
          "internalType": "uint256",
          "name": "repayShares",
          "type": "uint256"
        },
        {
          "indexed": false,
          "internalType": "uint256",
          "name": "repayAmount",
          "type": "uint256"
        }
      ],
      "name": "Repay",
      "type": "event"
    },
    {
      "anonymous": false,
      "inputs": [
        {
          "indexed": true,
          "internalType": "address",
          "name": "pool",
          "type": "address"
        },
        {
          "indexed": true,
          "internalType": "address",
          "name": "user",
          "type": "address"
        },
        {
          "indexed": false,
          "internalType": "uint256",
          "name": "withdrawShares",
          "type": "uint256"
        },
        {
          "indexed": false,
          "internalType": "uint256",
          "name": "withdrawAmount",
          "type": "uint256"
        }
      ],
      "name": "Withdraw",
      "type": "event"
    },
    {
      "inputs": [],
      "name": "CLOSE_FACTOR",
      "outputs": [
        {
          "internalType": "uint256",
          "name": "",
          "type": "uint256"
        }
      ],
      "stateMutability": "view",
      "type": "function"
    },
    {
      "inputs": [
        {
          "internalType": "contract ERC20",
          "name": "_token",
          "type": "address"
        },
        {
          "internalType": "uint256",
          "name": "_amount",
          "type": "uint256"
        }
      ],
      "name": "borrow",
      "outputs": [],
      "stateMutability": "nonpayable",
      "type": "function"
    },
    {
      "inputs": [
        {
          "internalType": "contract ERC20",
          "name": "_token",
          "type": "address"
        },
        {
          "internalType": "uint256",
          "name": "_amount",
          "type": "uint256"
        }
      ],
      "name": "deposit",
      "outputs": [],
      "stateMutability": "nonpayable",
      "type": "function"
    },
    {
      "inputs": [
        {
          "internalType": "contract ERC20",
          "name": "_token",
          "type": "address"
        }
      ],
      "name": "getAvailableLiquidity",
      "outputs": [
        {
          "internalType": "uint256",
          "name": "",
          "type": "uint256"
        }
      ],
      "stateMutability": "view",
      "type": "function"
    },
    {
      "inputs": [
        {
          "internalType": "contract ERC20",
          "name": "_token",
          "type": "address"
        }
      ],
      "name": "getPool",
      "outputs": [
        {
          "internalType": "enum AssetPool.PoolStatus",
          "name": "status",
          "type": "uint8"
        },
        {
          "internalType": "address",
          "name": "shareToken",
          "type": "address"
        },
        {
          "internalType": "address",
          "name": "poolConfig",
          "type": "address"
        },
        {
          "internalType": "uint256",
          "name": "totalBorrows",
          "type": "uint256"
        },
        {
          "internalType": "uint256",
          "name": "totalBorrowShares",
          "type": "uint256"
        },
        {
          "internalType": "uint256",
          "name": "totalLiquidity",
          "type": "uint256"
        },
        {
          "internalType": "uint256",
          "name": "availableLiquidity",
          "type": "uint256"
        },
        {
          "internalType": "uint256",
          "name": "lastUpdateTimestamp",
          "type": "uint256"
        },
        {
          "internalType": "uint256",
          "name": "borrowRate",
          "type": "uint256"
        },
        {
          "internalType": "uint256",
          "name": "lendingRate",
          "type": "uint256"
        }
      ],
      "stateMutability": "view",
      "type": "function"
    },
    {
      "inputs": [
        {
          "internalType": "address",
          "name": "_token",
          "type": "address"
        }
      ],
      "name": "getPriceInWETH",
      "outputs": [
        {
          "internalType": "uint256",
          "name": "",
          "type": "uint256"
        }
      ],
      "stateMutability": "view",
      "type": "function"
    },
    {
      "inputs": [
        {
          "internalType": "contract ERC20",
          "name": "_token",
          "type": "address"
        }
      ],
      "name": "getTotalLiquidity",
      "outputs": [
        {
          "internalType": "uint256",
          "name": "",
          "type": "uint256"
        }
      ],
      "stateMutability": "view",
      "type": "function"
    },
    {
      "inputs": [
        {
          "internalType": "address",
          "name": "_user",
          "type": "address"
        },
        {
          "internalType": "contract ERC20",
          "name": "_token",
          "type": "address"
        }
      ],
      "name": "getUserCompoundedBorrowBalance",
      "outputs": [
        {
          "internalType": "uint256",
          "name": "",
          "type": "uint256"
        }
      ],
      "stateMutability": "view",
      "type": "function"
    },
    {
      "inputs": [
        {
          "internalType": "address",
          "name": "_user",
          "type": "address"
        },
        {
          "internalType": "contract ERC20",
          "name": "_token",
          "type": "address"
        }
      ],
      "name": "getUserCompoundedLiquidityBalance",
      "outputs": [
        {
          "internalType": "uint256",
          "name": "",
          "type": "uint256"
        }
      ],
      "stateMutability": "view",
      "type": "function"
    },
    {
      "inputs": [
        {
          "internalType": "address",
          "name": "_user",
          "type": "address"
        }
      ],
      "name": "getUserInfo",
      "outputs": [
        {
          "internalType": "uint256",
          "name": "totalLiquidityValue",
          "type": "uint256"
        },
        {
          "internalType": "uint256",
          "name": "totalCollateralValue",
          "type": "uint256"
        },
        {
          "internalType": "uint256",
          "name": "totalBorrowedValue",
          "type": "uint256"
        }
      ],
      "stateMutability": "view",
      "type": "function"
    },
    {
      "inputs": [
        {
          "internalType": "address",
          "name": "_user",
          "type": "address"
        },
        {
          "internalType": "contract ERC20",
          "name": "_token",
          "type": "address"
        }
      ],
      "name": "getUserPoolData",
      "outputs": [
        {
          "internalType": "uint256",
          "name": "compoundedLiquidityBalance",
          "type": "uint256"
        },
        {
          "internalType": "uint256",
          "name": "compoundedBorrowBalance",
          "type": "uint256"
        },
        {
          "internalType": "bool",
          "name": "usePoolAsCollateral",
          "type": "bool"
        }
      ],
      "stateMutability": "view",
      "type": "function"
    },
    {
      "inputs": [
        {
          "internalType": "contract ERC20",
          "name": "_token",
          "type": "address"
        },
        {
          "internalType": "contract PoolConfiguration",
          "name": "_poolConfig",
          "type": "address"
        }
      ],
      "name": "initPool",
      "outputs": [],
      "stateMutability": "nonpayable",
      "type": "function"
    },
    {
      "inputs": [
        {
          "internalType": "address",
          "name": "_user",
          "type": "address"
        }
      ],
      "name": "isAccountHealthy",
      "outputs": [
        {
          "internalType": "bool",
          "name": "",
          "type": "bool"
        }
      ],
      "stateMutability": "view",
      "type": "function"
    },
    {
      "inputs": [
        {
          "internalType": "address",
          "name": "_user",
          "type": "address"
        },
        {
          "internalType": "contract ERC20",
          "name": "_token",
          "type": "address"
        },
        {
          "internalType": "uint256",
          "name": "_shares",
          "type": "uint256"
        },
        {
          "internalType": "contract ERC20",
          "name": "_collateral",
          "type": "address"
        }
      ],
      "name": "liquidate",
      "outputs": [],
      "stateMutability": "nonpayable",
      "type": "function"
    },
    {
      "inputs": [],
      "name": "owner",
      "outputs": [
        {
          "internalType": "address",
          "name": "",
          "type": "address"
        }
      ],
      "stateMutability": "view",
      "type": "function"
    },
    {
      "inputs": [
        {
          "internalType": "address",
          "name": "",
          "type": "address"
        }
      ],
      "name": "pools",
      "outputs": [
        {
          "internalType": "enum AssetPool.PoolStatus",
          "name": "status",
          "type": "uint8"
        },
        {
          "internalType": "contract AssetPoolShare",
          "name": "shareToken",
          "type": "address"
        },
        {
          "internalType": "contract PoolConfiguration",
          "name": "poolConfig",
          "type": "address"
        },
        {
          "internalType": "uint256",
          "name": "totalBorrows",
          "type": "uint256"
        },
        {
          "internalType": "uint256",
          "name": "totalBorrowShares",
          "type": "uint256"
        },
        {
          "internalType": "uint256",
          "name": "poolReserves",
          "type": "uint256"
        },
        {
          "internalType": "uint256",
          "name": "lastUpdateTimestamp",
          "type": "uint256"
        }
      ],
      "stateMutability": "view",
      "type": "function"
    },
    {
      "inputs": [],
      "name": "renounceOwnership",
      "outputs": [],
      "stateMutability": "nonpayable",
      "type": "function"
    },
    {
      "inputs": [
        {
          "internalType": "contract ERC20",
          "name": "_token",
          "type": "address"
        },
        {
          "internalType": "uint256",
          "name": "_amount",
          "type": "uint256"
        }
      ],
      "name": "repayByAmount",
      "outputs": [],
      "stateMutability": "nonpayable",
      "type": "function"
    },
    {
      "inputs": [
        {
          "internalType": "contract ERC20",
          "name": "_token",
          "type": "address"
        },
        {
          "internalType": "uint256",
          "name": "_share",
          "type": "uint256"
        }
      ],
      "name": "repayByShare",
      "outputs": [],
      "stateMutability": "nonpayable",
      "type": "function"
    },
    {
      "inputs": [],
      "name": "reserveRate",
      "outputs": [
        {
          "internalType": "uint256",
          "name": "",
          "type": "uint256"
        }
      ],
      "stateMutability": "view",
      "type": "function"
    },
    {
      "inputs": [
        {
          "internalType": "contract ERC20",
          "name": "_token",
          "type": "address"
        },
        {
          "internalType": "enum AssetPool.PoolStatus",
          "name": "_status",
          "type": "uint8"
        }
      ],
      "name": "setPoolStatus",
      "outputs": [],
      "stateMutability": "nonpayable",
      "type": "function"
    },
    {
      "inputs": [
        {
          "internalType": "contract IPriceOracle",
          "name": "_priceOracle",
          "type": "address"
        }
      ],
      "name": "setPriceOracle",
      "outputs": [],
      "stateMutability": "nonpayable",
      "type": "function"
    },
    {
      "inputs": [
        {
          "internalType": "uint256",
          "name": "_reserveRate",
          "type": "uint256"
        }
      ],
      "name": "setReserveRate",
      "outputs": [],
      "stateMutability": "nonpayable",
      "type": "function"
    },
    {
      "inputs": [],
      "name": "shareDeployer",
      "outputs": [
        {
          "internalType": "contract AssetPoolShareDeployer",
          "name": "",
          "type": "address"
        }
      ],
      "stateMutability": "view",
      "type": "function"
    },
    {
      "inputs": [
        {
          "internalType": "uint256",
          "name": "",
          "type": "uint256"
        }
      ],
      "name": "tokenList",
      "outputs": [
        {
          "internalType": "contract ERC20",
          "name": "",
          "type": "address"
        }
      ],
      "stateMutability": "view",
      "type": "function"
    },
    {
      "inputs": [
        {
          "internalType": "address",
          "name": "newOwner",
          "type": "address"
        }
      ],
      "name": "transferOwnership",
      "outputs": [],
      "stateMutability": "nonpayable",
      "type": "function"
    },
    {
      "inputs": [
        {
          "internalType": "contract ERC20",
          "name": "_token",
          "type": "address"
        },
        {
          "internalType": "contract PoolConfiguration",
          "name": "_poolConfig",
          "type": "address"
        }
      ],
      "name": "updatePool",
      "outputs": [],
      "stateMutability": "nonpayable",
      "type": "function"
    },
    {
      "inputs": [
        {
          "internalType": "address",
          "name": "",
          "type": "address"
        },
        {
          "internalType": "address",
          "name": "",
          "type": "address"
        }
      ],
      "name": "userPoolData",
      "outputs": [
        {
          "internalType": "bool",
          "name": "disableAsCollateral",
          "type": "bool"
        },
        {
          "internalType": "uint256",
          "name": "borrowShares",
          "type": "uint256"
        }
      ],
      "stateMutability": "view",
      "type": "function"
    },
    {
      "inputs": [
        {
          "internalType": "contract ERC20",
          "name": "_token",
          "type": "address"
        },
        {
          "internalType": "uint256",
          "name": "_amount",
          "type": "uint256"
        }
      ],
      "name": "withdrawByAmount",
      "outputs": [],
      "stateMutability": "nonpayable",
      "type": "function"
    },
    {
      "inputs": [
        {
          "internalType": "contract ERC20",
          "name": "_token",
          "type": "address"
        },
        {
          "internalType": "uint256",
          "name": "_share",
          "type": "uint256"
        }
      ],
      "name": "withdrawByShare",
      "outputs": [],
      "stateMutability": "nonpayable",
      "type": "function"
    },
    {
      "inputs": [
        {
          "internalType": "contract ERC20",
          "name": "_token",
          "type": "address"
        },
        {
          "internalType": "uint256",
          "name": "_amount",
          "type": "uint256"
        }
      ],
      "name": "withdrawReserve",
      "outputs": [],
      "stateMutability": "nonpayable",
      "type": "function"
    }
  ],
  "bytecode": "0x608060405266b1a2bc2ec500006007553480156200001c57600080fd5b5060405162003efd38038062003efd8339810160408190526200003f91620000e9565b6200004a3362000080565b60018055600680546001600160a01b039384166001600160a01b0319918216179091556005805492909316911617905562000128565b600080546001600160a01b038381166001600160a01b0319831681178455604051919092169283917f8be0079c531659141344cd1fd0a4f28419497f9722a3daafe3b4186f6b6457e09190a35050565b6001600160a01b0381168114620000e657600080fd5b50565b60008060408385031215620000fd57600080fd5b82516200010a81620000d0565b60208401519092506200011d81620000d0565b809150509250929050565b613dc580620001386000396000f3fe608060405234801561001057600080fd5b50600436106101e55760003560e01c80636386c1c71161010f578063a4063dbc116100a2578063c520b56311610071578063c520b563146104b2578063e526e4ab146104c5578063e5700388146104d8578063f2fde38b1461052757600080fd5b8063a4063dbc146103f9578063a4bae00814610463578063bbe4f6db14610476578063c2ec0dca1461049f57600080fd5b80638da5cb5b116100de5780638da5cb5b146103af5780638fbe0f10146103c05780639de8ef79146103d35780639ead7222146103e657600080fd5b80636386c1c714610353578063715018a61461038157806380e1ed821461038957806381cc7e5c1461039c57600080fd5b806347e7ef241161018757806351723e301161015657806351723e30146102f9578063530e784f1461032457806358d7bf80146103375780635dd34bc61461034057600080fd5b806347e7ef2414610294578063491db4a2146102a75780634b8a3529146102d75780634dab4dc0146102ea57600080fd5b80632f02d91f116101c35780632f02d91f14610238578063364818621461024b5780633de2f6b21461026e5780633f395c021461028157600080fd5b8063181428ae146101ea5780631c58ce1414610210578063266e2bd814610225575b600080fd5b6101fd6101f83660046138bb565b61053a565b6040519081526020015b60405180910390f35b61022361021e3660046138f4565b6105da565b005b6101fd610233366004613920565b6108c8565b6101fd6102463660046138bb565b610933565b61025e610259366004613920565b610970565b6040519015158152602001610207565b61022361027c36600461393d565b610989565b61022361028f3660046138bb565b610ca8565b6102236102a23660046138f4565b6110b3565b6102ba6102b53660046138bb565b6113d7565b604080519384526020840192909252151590820152606001610207565b6102236102e53660046138f4565b61142a565b6101fd6706f05b59d3b2000081565b60065461030c906001600160a01b031681565b6040516001600160a01b039091168152602001610207565b610223610332366004613920565b6117c1565b6101fd60075481565b61022361034e3660046138f4565b6117f8565b610366610361366004613920565b6119a0565b60408051938452602084019290925290820152606001610207565b610223611b97565b6102236103973660046138bb565b611bab565b6101fd6103aa366004613920565b611c8d565b6000546001600160a01b031661030c565b6102236103ce3660046138f4565b611dc7565b6101fd6103e1366004613920565b611f60565b61030c6103f4366004613990565b611fa6565b610450610407366004613920565b600260208190526000918252604090912080546001820154928201546003830154600484015460059094015460ff8416956001600160a01b036101009095048516959416939087565b60405161020797969594939291906139e1565b6102236104713660046138f4565b611fd0565b610489610484366004613920565b61215b565b6040516102079a99989796959493929190613a2b565b6102236104ad366004613a8a565b6122be565b6102236104c03660046138f4565b61235e565b6102236104d3366004613990565b6124f7565b6105106104e63660046138bb565b60036020908152600092835260408084209091529082529020805460019091015460ff9091169082565b604080519215158352602083019190915201610207565b610223610535366004613920565b612504565b6001600160a01b03818116600090815260026020526040808220805491516370a0823160e01b815286851660048201529293909284926101009004909116906370a0823190602401602060405180830381865afa15801561059f573d6000803e3d6000fd5b505050506040513d601f19601f820116820180604052508101906105c39190613abc565b90506105cf8482612594565b925050505b92915050565b6105e2612670565b6001600160a01b0380831660009081526002602081905260408220600181015491810154869491939290911690631a7929449061061e86611f60565b6040516001600160e01b031960e085901b16815260048101929092526024820152604401602060405180830381865afa15801561065f573d6000803e3d6000fd5b505050506040513d601f19601f820116820180604052508101906106839190613abc565b90506000610696828460050154426126c9565b6002840154909150670de0b6b3a76400006106b18284613aeb565b6106bb9190613b18565b60028501819055600754670de0b6b3a7640000916106da908490613b2c565b6106e49190613aeb565b6106ee9190613b18565b8460040160008282546107019190613b3f565b909155505042600585015560028401546040516001600160a01b038716917f4459cec4806e5d45ce1ebf79e0c92583bc5f7567c93ee849aaeded68aa2c7b209161075391868252602082015260400190565b60405180910390a2610763612700565b6001600160a01b03871660008181526002602052604080822090516370a0823160e01b81523060048201529092906370a0823190602401602060405180830381865afa1580156107b7573d6000803e3d6000fd5b505050506040513d601f19601f820116820180604052508101906107db9190613abc565b9050808811156108325760405162461bcd60e51b815260206004820152601460248201527f494e53554646494349454e545f42414c414e434500000000000000000000000060448201526064015b60405180910390fd5b81600401548811156108865760405162461bcd60e51b815260206004820152601a60248201527f494e53554646494349454e545f504f4f4c5f52455345525645530000000000006044820152606401610829565b61089a6001600160a01b038a16338a61275a565b878260040160008282546108ae9190613b2c565b909155505060018055506108c495505050505050565b5050565b6040516370a0823160e01b81523060048201526000906001600160a01b038316906370a0823190602401602060405180830381865afa15801561090f573d6000803e3d6000fd5b505050506040513d601f19601f820116820180604052508101906105d49190613abc565b6001600160a01b03808316600090815260036020908152604080832093851683529290529081206001015461096883826127d7565b949350505050565b600080600061097e846119a0565b111595945050505050565b610991612670565b6001600160a01b0380841660009081526002602081905260408220600181015491810154879491939290911690631a792944906109cd86611f60565b6040516001600160e01b031960e085901b16815260048101929092526024820152604401602060405180830381865afa158015610a0e573d6000803e3d6000fd5b505050506040513d601f19601f82011682018060405250810190610a329190613abc565b90506000610a45828460050154426126c9565b6002840154909150670de0b6b3a7640000610a608284613aeb565b610a6a9190613b18565b60028501819055600754670de0b6b3a764000091610a89908490613b2c565b610a939190613aeb565b610a9d9190613b18565b846004016000828254610ab09190613b3f565b909155505042600585015560028401546040516001600160a01b038716917f4459cec4806e5d45ce1ebf79e0c92583bc5f7567c93ee849aaeded68aa2c7b2091610b0291868252602082015260400190565b60405180910390a26001600160a01b03808716600090815260026020819052604082206001810154918101548a9491939290911690631a79294490610b4686611f60565b6040516001600160e01b031960e085901b16815260048101929092526024820152604401602060405180830381865afa158015610b87573d6000803e3d6000fd5b505050506040513d601f19601f82011682018060405250810190610bab9190613abc565b90506000610bbe828460050154426126c9565b6002840154909150670de0b6b3a7640000610bd98284613aeb565b610be39190613b18565b60028501819055600754670de0b6b3a764000091610c02908490613b2c565b610c0c9190613aeb565b610c169190613b18565b846004016000828254610c299190613b3f565b909155505042600585015560028401546040516001600160a01b038716917f4459cec4806e5d45ce1ebf79e0c92583bc5f7567c93ee849aaeded68aa2c7b2091610c7b91868252602082015260400190565b60405180910390a2610c8f8e8e8e8e61282e565b50505050505050505050610ca260018055565b50505050565b610cb0612700565b60005b600454811015610d4e57826001600160a01b031660048281548110610cda57610cda613b52565b6000918252602090912001546001600160a01b031603610d3c5760405162461bcd60e51b815260206004820152600a60248201527f504f4f4c5f4558495354000000000000000000000000000000000000000000006044820152606401610829565b80610d4681613b68565b915050610cb3565b506000826001600160a01b03166395d89b416040518163ffffffff1660e01b8152600401600060405180830381865afa158015610d8f573d6000803e3d6000fd5b505050506040513d6000823e601f3d908101601f19168201604052610db79190810190613bbb565b604051602001610dc79190613c5d565b60405160208183030381529060405290506000836001600160a01b03166306fdde036040518163ffffffff1660e01b8152600401600060405180830381865afa158015610e18573d6000803e3d6000fd5b505050506040513d6000823e601f3d908101601f19168201604052610e409190810190613bbb565b604051602001610e509190613c5d565b60408051601f19818403018152908290526006547f564cdcb10000000000000000000000000000000000000000000000000000000083529092506000916001600160a01b039091169063564cdcb190610eb190859087908a90600401613cce565b6020604051808303816000875af1158015610ed0573d6000803e3d6000fd5b505050506040513d601f19601f82011682018060405250810190610ef49190613d0d565b905060006040518060e0016040528060006002811115610f1657610f166139a9565b8152602001836001600160a01b03168152602001866001600160a01b031681526020016000815260200160008152602001600081526020014281525090508060026000886001600160a01b03166001600160a01b0316815260200190815260200160002060008201518160000160006101000a81548160ff02191690836002811115610fa457610fa46139a9565b0217905550602082015181546001600160a01b03918216610100027fffffffffffffffffffffff0000000000000000000000000000000000000000ff9091161782556040808401516001808501805492851673ffffffffffffffffffffffffffffffffffffffff19938416179055606086015160028601556080860151600386015560a086015160048087019190915560c0909601516005909501949094558454938401855560009485527f8a35acfbc15ff81a39ae7d344fd709f28e8600b4aa8c65c6b64bfe7fe36bd19b90930180548b8416941684179055518882169391861692917fb2684e1b8e116bbb42a14d7a6bc6afa19d85ff0a8666a6b424b79a738c661d8191a4505050505050565b6110bb612670565b6001600160a01b0380831660009081526002602081905260408220600181015491810154869491939290911690631a792944906110f786611f60565b6040516001600160e01b031960e085901b16815260048101929092526024820152604401602060405180830381865afa158015611138573d6000803e3d6000fd5b505050506040513d601f19601f8201168201806040525081019061115c9190613abc565b9050600061116f828460050154426126c9565b6002840154909150670de0b6b3a764000061118a8284613aeb565b6111949190613b18565b60028501819055600754670de0b6b3a7640000916111b3908490613b2c565b6111bd9190613aeb565b6111c79190613b18565b8460040160008282546111da9190613b3f565b909155505042600585015560028401546040516001600160a01b038716917f4459cec4806e5d45ce1ebf79e0c92583bc5f7567c93ee849aaeded68aa2c7b209161122c91868252602082015260400190565b60405180910390a2600086116112845760405162461bcd60e51b815260206004820152601660248201527f494e56414c49445f4445504f5349545f414d4f554e54000000000000000000006044820152606401610829565b6001600160a01b03871660009081526002602052604090206001815460ff1660028111156112b4576112b46139a9565b146112f65760405162461bcd60e51b8152602060048201526012602482015271494e56414c49445f504f4f4c5f535441544560701b6044820152606401610829565b60006113028989612d81565b82546040516340c10f1960e01b81523360048201526024810183905291925061010090046001600160a01b0316906340c10f1990604401600060405180830381600087803b15801561135357600080fd5b505af1158015611367573d6000803e3d6000fd5b50611381925050506001600160a01b038a1633308b612e48565b60408051828152602081018a905233916001600160a01b038c16917fdcbc1c05240f31ff3ad067ef1ee35ce4997762752e3a095284754544f4c709d7910160405180910390a3505050505050506108c460018055565b60008060006113e6858561053a565b92506113f28585610933565b6001600160a01b039586166000908152600360209081526040808320979098168252959095529490932054919460ff90921615925050565b611432612670565b6001600160a01b0380831660009081526002602081905260408220600181015491810154869491939290911690631a7929449061146e86611f60565b6040516001600160e01b031960e085901b16815260048101929092526024820152604401602060405180830381865afa1580156114af573d6000803e3d6000fd5b505050506040513d601f19601f820116820180604052508101906114d39190613abc565b905060006114e6828460050154426126c9565b6002840154909150670de0b6b3a76400006115018284613aeb565b61150b9190613b18565b60028501819055600754670de0b6b3a76400009161152a908490613b2c565b6115349190613aeb565b61153e9190613b18565b8460040160008282546115519190613b3f565b909155505042600585015560028401546040516001600160a01b038716917f4459cec4806e5d45ce1ebf79e0c92583bc5f7567c93ee849aaeded68aa2c7b20916115a391868252602082015260400190565b60405180910390a26001600160a01b03871660009081526002602052604090206001815460ff1660028111156115db576115db6139a9565b1461161d5760405162461bcd60e51b8152602060048201526012602482015271494e56414c49445f504f4f4c5f535441544560701b6044820152606401610829565b6000871180156116355750611631886108c8565b8711155b6116815760405162461bcd60e51b815260206004820152601560248201527f494e56414c49445f424f52524f575f414d4f554e5400000000000000000000006044820152606401610829565b600061168d8989612e99565b9050878260020160008282546116a39190613b3f565b92505081905550808260030160008282546116be9190613b3f565b90915550503360009081526003602090815260408083206001600160a01b038d1684529091528120600181018054919284926116fb908490613b3f565b9091555061171590506001600160a01b038b16338b61275a565b61171e33610970565b61176a5760405162461bcd60e51b815260206004820152601160248201527f4143434f554e545f554e4845414c5448590000000000000000000000000000006044820152606401610829565b60408051838152602081018b905233916001600160a01b038d16917fc1561b330e73faa7d5d1ac03c968d8f359b0191ccdb9cc002cf7d8eb6ae038cb910160405180910390a350505050505050506108c460018055565b6117c9612700565b6005805473ffffffffffffffffffffffffffffffffffffffff19166001600160a01b0392909216919091179055565b611800612670565b6001600160a01b0380831660009081526002602081905260408220600181015491810154869491939290911690631a7929449061183c86611f60565b6040516001600160e01b031960e085901b16815260048101929092526024820152604401602060405180830381865afa15801561187d573d6000803e3d6000fd5b505050506040513d601f19601f820116820180604052508101906118a19190613abc565b905060006118b4828460050154426126c9565b6002840154909150670de0b6b3a76400006118cf8284613aeb565b6118d99190613b18565b60028501819055600754670de0b6b3a7640000916118f8908490613b2c565b6119029190613aeb565b61190c9190613b18565b84600401600082825461191f9190613b3f565b909155505042600585015560028401546040516001600160a01b038716917f4459cec4806e5d45ce1ebf79e0c92583bc5f7567c93ee849aaeded68aa2c7b209161197191868252602082015260400190565b60405180910390a260006119858888612ef0565b90506119918882612f49565b5050505050506108c460018055565b60008080805b600454811015611b8f576000600482815481106119c5576119c5613b52565b60009182526020808320909101546001600160a01b03168083526002909152604082209092509080806119f88a866113d7565b925092509250826000141580611a0d57508115155b15611b7757600184015460408051631629af8760e21b815290516000926001600160a01b0316916358a6be1c9160048083019260209291908290030181865afa158015611a5e573d6000803e3d6000fd5b505050506040513d601f19601f82011682018060405250810190611a829190613abc565b90506000611a8f87611c8d565b905060008111611ae15760405162461bcd60e51b815260206004820152600d60248201527f494e56414c49445f5052494345000000000000000000000000000000000000006044820152606401610829565b6000670de0b6b3a7640000611af68784613aeb565b611b009190613b18565b9050611b0c818d613b3f565b9b50600083118015611b1b5750835b15611b4a57670de0b6b3a7640000611b338483613aeb565b611b3d9190613b18565b611b47908c613b3f565b9a505b670de0b6b3a7640000611b5d8684613aeb565b611b679190613b18565b611b71908b613b3f565b99505050505b50505050508080611b8790613b68565b9150506119a6565b509193909250565b611b9f612700565b611ba960006130b4565b565b611bb3612700565b6001600160a01b0380831660009081526002602052604090208054909161010090910416611c235760405162461bcd60e51b815260206004820152600e60248201527f504f4f4c5f4e4f545f45584953540000000000000000000000000000000000006044820152606401610829565b60018101805473ffffffffffffffffffffffffffffffffffffffff19166001600160a01b03848116918217909255604051908152908416907fed7692d7eac8e25ca74b0bcb7b52fe51d01a8910e8e320c6f3223365708d76de9060200160405180910390a2505050565b600554604080517fad5c464800000000000000000000000000000000000000000000000000000000815290516000926001600160a01b03169163ad5c46489160048083019260209291908290030181865afa158015611cf0573d6000803e3d6000fd5b505050506040513d601f19601f82011682018060405250810190611d149190613d0d565b6001600160a01b0316826001600160a01b031614611db8576005546040517f81cc7e5c0000000000000000000000000000000000000000000000000000000081526001600160a01b038481166004830152909116906381cc7e5c90602401602060405180830381865afa158015611d8f573d6000803e3d6000fd5b505050506040513d601f19601f82011682018060405250810190611db39190613abc565b6105d4565b670de0b6b3a764000092915050565b611dcf612670565b6001600160a01b0380831660009081526002602081905260408220600181015491810154869491939290911690631a79294490611e0b86611f60565b6040516001600160e01b031960e085901b16815260048101929092526024820152604401602060405180830381865afa158015611e4c573d6000803e3d6000fd5b505050506040513d601f19601f82011682018060405250810190611e709190613abc565b90506000611e83828460050154426126c9565b6002840154909150670de0b6b3a7640000611e9e8284613aeb565b611ea89190613b18565b60028501819055600754670de0b6b3a764000091611ec7908490613b2c565b611ed19190613aeb565b611edb9190613b18565b846004016000828254611eee9190613b3f565b909155505042600585015560028401546040516001600160a01b038716917f4459cec4806e5d45ce1ebf79e0c92583bc5f7567c93ee849aaeded68aa2c7b2091611f4091868252602082015260400190565b60405180910390a2611f528787613111565b50505050506108c460018055565b6001600160a01b03811660009081526002602052604081206004810154611f86846108c8565b8260020154611f959190613b3f565b611f9f9190613b2c565b9392505050565b60048181548110611fb657600080fd5b6000918252602090912001546001600160a01b0316905081565b611fd8612670565b6001600160a01b0380831660009081526002602081905260408220600181015491810154869491939290911690631a7929449061201486611f60565b6040516001600160e01b031960e085901b16815260048101929092526024820152604401602060405180830381865afa158015612055573d6000803e3d6000fd5b505050506040513d601f19601f820116820180604052508101906120799190613abc565b9050600061208c828460050154426126c9565b6002840154909150670de0b6b3a76400006120a78284613aeb565b6120b19190613b18565b60028501819055600754670de0b6b3a7640000916120d0908490613b2c565b6120da9190613aeb565b6120e49190613b18565b8460040160008282546120f79190613b3f565b909155505042600585015560028401546040516001600160a01b038716917f4459cec4806e5d45ce1ebf79e0c92583bc5f7567c93ee849aaeded68aa2c7b209161214991868252602082015260400190565b60405180910390a2611f528787612f49565b6001600160a01b038082166000908152600260208190526040822080546001820154928201546003830154949561010090920482169493909116929091859081908190819081906121ab8c611f60565b95506121b68c6108c8565b6005820154825460018401546040517f1a792944000000000000000000000000000000000000000000000000000000008152600481018d9052602481018b905260ff9092169e509297509095506001600160a01b0390911690631a79294490604401602060405180830381865afa158015612235573d6000803e3d6000fd5b505050506040513d601f19601f820116820180604052508101906122599190613abc565b925085156122ab5761227386670de0b6b3a7640000613aeb565b60075461228890670de0b6b3a7640000613b2c565b6122928a86613aeb565b61229c9190613aeb565b6122a69190613b18565b6122ae565b60005b9150509193959799509193959799565b6122c6612700565b6001600160a01b03808316600090815260026020526040902080549091610100909104166123365760405162461bcd60e51b815260206004820152600e60248201527f504f4f4c5f4e4f545f45584953540000000000000000000000000000000000006044820152606401610829565b80548290829060ff19166001836002811115612354576123546139a9565b0217905550505050565b612366612670565b6001600160a01b0380831660009081526002602081905260408220600181015491810154869491939290911690631a792944906123a286611f60565b6040516001600160e01b031960e085901b16815260048101929092526024820152604401602060405180830381865afa1580156123e3573d6000803e3d6000fd5b505050506040513d601f19601f820116820180604052508101906124079190613abc565b9050600061241a828460050154426126c9565b6002840154909150670de0b6b3a76400006124358284613aeb565b61243f9190613b18565b60028501819055600754670de0b6b3a76400009161245e908490613b2c565b6124689190613aeb565b6124729190613b18565b8460040160008282546124859190613b3f565b909155505042600585015560028401546040516001600160a01b038716917f4459cec4806e5d45ce1ebf79e0c92583bc5f7567c93ee849aaeded68aa2c7b20916124d791868252602082015260400190565b60405180910390a260006124eb888861337c565b90506119918882613111565b6124ff612700565b600755565b61250c612700565b6001600160a01b0381166125885760405162461bcd60e51b815260206004820152602660248201527f4f776e61626c653a206e6577206f776e657220697320746865207a65726f206160448201527f64647265737300000000000000000000000000000000000000000000000000006064820152608401610829565b612591816130b4565b50565b6001600160a01b0382166000908152600260205260408120816125b685611f60565b905060008260000160019054906101000a90046001600160a01b03166001600160a01b03166318160ddd6040518163ffffffff1660e01b8152600401602060405180830381865afa15801561260f573d6000803e3d6000fd5b505050506040513d601f19601f820116820180604052508101906126339190613abc565b9050811580612640575080155b1561265157600093505050506105d4565b8061265c8387613aeb565b6126669190613b18565b9695505050505050565b6002600154036126c25760405162461bcd60e51b815260206004820152601f60248201527f5265656e7472616e637947756172643a207265656e7472616e742063616c6c006044820152606401610829565b6002600155565b60006301e133806126da8484613b2c565b6126e49086613aeb565b6126ee9190613b18565b61096890670de0b6b3a7640000613b3f565b6000546001600160a01b03163314611ba95760405162461bcd60e51b815260206004820181905260248201527f4f776e61626c653a2063616c6c6572206973206e6f7420746865206f776e65726044820152606401610829565b6040516001600160a01b0383166024820152604481018290526127d290849063a9059cbb60e01b906064015b60408051601f198184030181529190526020810180517bffffffffffffffffffffffffffffffffffffffffffffffffffffffff166001600160e01b03199093169290921790915261344b565b505050565b6001600160a01b0382166000908152600260208190526040822090810154158061280357506003810154155b1561281157829150506105d4565b6109688160020154846128249190613aeb565b8260030154613530565b61283784610970565b156128845760405162461bcd60e51b815260206004820152601160248201527f4143434f554e545f49535f4845414c54480000000000000000000000000000006044820152606401610829565b6001600160a01b038316600090815260026020526040812090815460ff1660028111156128b3576128b36139a9565b036128f55760405162461bcd60e51b8152602060048201526012602482015271494e56414c49445f504f4f4c5f535441544560701b6044820152606401610829565b6001600160a01b038086166000908152600360209081526040808320938616835292905220805460ff161561296c5760405162461bcd60e51b815260206004820152601360248201527f434f4c4c41544552414c5f44495341424c4544000000000000000000000000006044820152606401610829565b6001600160a01b03808416600090815260026020908152604080832060018101548251631629af8760e21b81529251919516926358a6be1c92600480820193918290030181865afa1580156129c5573d6000803e3d6000fd5b505050506040513d601f19601f820116820180604052508101906129e99190613abc565b11612a365760405162461bcd60e51b815260206004820152601860248201527f504f4f4c5f434f4c4c41544552414c5f44495341424c454400000000000000006044820152606401610829565b6001600160a01b038088166000908152600360209081526040808320938a168352929052206001810154612aac5760405162461bcd60e51b815260206004820152601360248201527f555345525f4449445f4e4f545f424f52524f57000000000000000000000000006044820152606401610829565b6000670de0b6b3a76400006706f05b59d3b200008360010154612acf9190613aeb565b612ad99190613b18565b90508681811115612ae75750805b6000612af38a836127d7565b90506000612b028b838b6135a9565b90506000612b108a8361337c565b9050612b276001600160a01b038d16333086612e48565b86546040516370a0823160e01b81526001600160a01b038f811660048301528392610100900416906370a0823190602401602060405180830381865afa158015612b75573d6000803e3d6000fd5b505050506040513d601f19601f82011682018060405250810190612b999190613abc565b11612be65760405162461bcd60e51b815260206004820152601760248201527f494e53554646494349454e545f434f4c4c41544552414c0000000000000000006044820152606401610829565b8654604051632770a7eb60e21b81526001600160a01b038f811660048301526024820184905261010090920490911690639dc29fac90604401600060405180830381600087803b158015612c3957600080fd5b505af1158015612c4d573d6000803e3d6000fd5b505088546040516340c10f1960e01b8152336004820152602481018590526101009091046001600160a01b031692506340c10f199150604401600060405180830381600087803b158015612ca057600080fd5b505af1158015612cb4573d6000803e3d6000fd5b5050505082896002016000828254612ccc9190613b2c565b9250508190555083896003016000828254612ce79190613b2c565b9250508190555083866001016000828254612d029190613b2c565b9091555050604080516001600160a01b038e811682528c81166020830152918101859052606081018690526080810184905260a081018390523360c0820152908e16907f602f496956f48338da240f5132098504dfefea6c18ee6d8bcb1879c137942ab39060e00160405180910390a250505050505050505050505050565b6001600160a01b038216600090815260026020526040812081612da385611f60565b905060008260000160019054906101000a90046001600160a01b03166001600160a01b03166318160ddd6040518163ffffffff1660e01b8152600401602060405180830381865afa158015612dfc573d6000803e3d6000fd5b505050506040513d601f19601f82011682018060405250810190612e209190613abc565b9050811580612e2d575080155b15612e3d578493505050506105d4565b8161265c8287613aeb565b6040516001600160a01b0380851660248301528316604482015260648101829052610ca29085907f23b872dd0000000000000000000000000000000000000000000000000000000090608401612786565b6001600160a01b03821660009081526002602081905260408220908101541580612ec557506003810154155b15612ed357829150506105d4565b610968816003015484612ee69190613aeb565b8260020154613530565b6001600160a01b03821660009081526002602081905260408220908101541580612f1c57506003810154155b15612f2b5760009150506105d4565b60028101546003820154612f3f9085613aeb565b6109689190613b18565b6001600160a01b038216600090815260026020526040812090815460ff166002811115612f7857612f786139a9565b03612fba5760405162461bcd60e51b8152602060048201526012602482015271494e56414c49445f504f4f4c5f535441544560701b6044820152606401610829565b3360009081526003602090815260408083206001600160a01b0387168452909152902060018101548390811115612ff2575060018101545b6000612ffe86836127d7565b9050808460020160008282546130149190613b2c565b925050819055508184600301600082825461302f9190613b2c565b925050819055508183600101600082825461304a9190613b2c565b9091555061306590506001600160a01b038716333084612e48565b604080518381526020810183905233916001600160a01b038916917fe4a1ae657f49cb1fb1c7d3a94ae6093565c4c8c0e03de488f79c377c3c3a24e091015b60405180910390a3505050505050565b600080546001600160a01b0383811673ffffffffffffffffffffffffffffffffffffffff19831681178455604051919092169283917f8be0079c531659141344cd1fd0a4f28419497f9722a3daafe3b4186f6b6457e09190a35050565b6001600160a01b03828116600090815260026020526040808220805491516370a0823160e01b81523360048201529093610100909204909116906370a0823190602401602060405180830381865afa158015613171573d6000803e3d6000fd5b505050506040513d601f19601f820116820180604052508101906131959190613abc565b90506000825460ff1660028111156131af576131af6139a9565b036131f15760405162461bcd60e51b8152602060048201526012602482015271494e56414c49445f504f4f4c5f535441544560701b6044820152606401610829565b82818111156131fd5750805b60006132098683612594565b8454604051632770a7eb60e21b81523360048201526024810185905291925061010090046001600160a01b031690639dc29fac90604401600060405180830381600087803b15801561325a57600080fd5b505af115801561326e573d6000803e3d6000fd5b505060405163a9059cbb60e01b8152336004820152602481018490526001600160a01b038916925063a9059cbb91506044016020604051808303816000875af11580156132bf573d6000803e3d6000fd5b505050506040513d601f19601f820116820180604052508101906132e39190613d2a565b506132ed33610970565b6133395760405162461bcd60e51b815260206004820152601160248201527f4143434f554e545f554e4845414c5448590000000000000000000000000000006044820152606401610829565b604080518381526020810183905233916001600160a01b038916917ff341246adaac6f497bc2a656f546ab9e182111d630394f0c57c710a59a2cb56791016130a4565b6001600160a01b03821660009081526002602052604081208161339e85611f60565b905060008260000160019054906101000a90046001600160a01b03166001600160a01b03166318160ddd6040518163ffffffff1660e01b8152600401602060405180830381865afa1580156133f7573d6000803e3d6000fd5b505050506040513d601f19601f8201168201806040525081019061341b9190613abc565b9050811580613428575080155b15613438578493505050506105d4565b6126666134458287613aeb565b83613530565b60006134a0826040518060400160405280602081526020017f5361666545524332303a206c6f772d6c6576656c2063616c6c206661696c6564815250856001600160a01b03166137939092919063ffffffff16565b8051909150156127d257808060200190518101906134be9190613d2a565b6127d25760405162461bcd60e51b815260206004820152602a60248201527f5361666545524332303a204552433230206f7065726174696f6e20646964206e60448201527f6f742073756363656564000000000000000000000000000000000000000000006064820152608401610829565b60008082116135815760405162461bcd60e51b815260206004820152600f60248201527f444956494445445f42595f5a45524f00000000000000000000000000000000006044820152606401610829565b600061358d8385613b18565b90506135998385613d4c565b15611f9f57610968816001613b3f565b6005546000906001600160a01b03166136045760405162461bcd60e51b815260206004820152601460248201527f494e56414c49445f50524943455f4f5241434c450000000000000000000000006044820152606401610829565b600061360f85611c8d565b9050600081116136615760405162461bcd60e51b815260206004820152601360248201527f494e56414c49445f544f4b454e5f5052494345000000000000000000000000006044820152606401610829565b600061366c84611c8d565b9050600081116136be5760405162461bcd60e51b815260206004820152601860248201527f494e56414c49445f434f4c4c41544552414c5f505249434500000000000000006044820152606401610829565b6001600160a01b0380871660009081526002602090815260408083206001015481517fe98376da00000000000000000000000000000000000000000000000000000000815291519394169263e98376da926004808401939192918290030181865afa158015613731573d6000803e3d6000fd5b505050506040513d601f19601f820116820180604052508101906137559190613abc565b905061376982670de0b6b3a7640000613aeb565b816137748886613aeb565b61377e9190613aeb565b6137889190613b18565b979650505050505050565b6060610968848460008585600080866001600160a01b031685876040516137ba9190613d60565b60006040518083038185875af1925050503d80600081146137f7576040519150601f19603f3d011682016040523d82523d6000602084013e6137fc565b606091505b50915091506137888783838760608315613877578251600003613870576001600160a01b0385163b6138705760405162461bcd60e51b815260206004820152601d60248201527f416464726573733a2063616c6c20746f206e6f6e2d636f6e74726163740000006044820152606401610829565b5081610968565b610968838381511561388c5781518083602001fd5b8060405162461bcd60e51b81526004016108299190613d7c565b6001600160a01b038116811461259157600080fd5b600080604083850312156138ce57600080fd5b82356138d9816138a6565b915060208301356138e9816138a6565b809150509250929050565b6000806040838503121561390757600080fd5b8235613912816138a6565b946020939093013593505050565b60006020828403121561393257600080fd5b8135611f9f816138a6565b6000806000806080858703121561395357600080fd5b843561395e816138a6565b9350602085013561396e816138a6565b9250604085013591506060850135613985816138a6565b939692955090935050565b6000602082840312156139a257600080fd5b5035919050565b634e487b7160e01b600052602160045260246000fd5b600381106139dd57634e487b7160e01b600052602160045260246000fd5b9052565b60e081016139ef828a6139bf565b6001600160a01b0397881660208301529590961660408701526060860193909352608085019190915260a084015260c090920191909152919050565b6101408101613a3a828d6139bf565b6001600160a01b039a8b1660208301529890991660408a01526060890196909652608088019490945260a087019290925260c086015260e085015261010084015261012090920191909152919050565b60008060408385031215613a9d57600080fd5b8235613aa8816138a6565b91506020830135600381106138e957600080fd5b600060208284031215613ace57600080fd5b5051919050565b634e487b7160e01b600052601160045260246000fd5b80820281158282048414176105d4576105d4613ad5565b634e487b7160e01b600052601260045260246000fd5b600082613b2757613b27613b02565b500490565b818103818111156105d4576105d4613ad5565b808201808211156105d4576105d4613ad5565b634e487b7160e01b600052603260045260246000fd5b600060018201613b7a57613b7a613ad5565b5060010190565b634e487b7160e01b600052604160045260246000fd5b60005b83811015613bb2578181015183820152602001613b9a565b50506000910152565b600060208284031215613bcd57600080fd5b815167ffffffffffffffff80821115613be557600080fd5b818401915084601f830112613bf957600080fd5b815181811115613c0b57613c0b613b81565b604051601f8201601f19908116603f01168101908382118183101715613c3357613c33613b81565b81604052828152876020848701011115613c4c57600080fd5b613788836020830160208801613b97565b7f4173736574200000000000000000000000000000000000000000000000000000815260008251613c95816006850160208701613b97565b9190910160060192915050565b60008151808452613cba816020860160208601613b97565b601f01601f19169290920160200192915050565b606081526000613ce16060830186613ca2565b8281036020840152613cf38186613ca2565b9150506001600160a01b0383166040830152949350505050565b600060208284031215613d1f57600080fd5b8151611f9f816138a6565b600060208284031215613d3c57600080fd5b81518015158114611f9f57600080fd5b600082613d5b57613d5b613b02565b500690565b60008251613d72818460208701613b97565b9190910192915050565b602081526000611f9f6020830184613ca256fea2646970667358221220dbb1dc392140f5aad258c39aed29d212a5cc0693f725b58d0cd33e6600b1f91164736f6c63430008110033",
  "linkReferences": {},
  "deployedLinkReferences": {}
}