{
  "_format": "hh-sol-artifact-1",
  "contractName": "AssetPool",
  "sourceName": "src/backend/contracts/AssetPool.sol",
  "abi": [
    {
      "inputs": [
        {
          "internalType": "contract AssetPoolShareDeployer",
          "name": "_shareDeployer",
          "type": "address"
        },
        {
          "internalType": "contract PriceOracle",
          "name": "_priceOracle",
          "type": "address"
        }
      ],
      "stateMutability": "nonpayable",
      "type": "constructor"
    },
    {
      "anonymous": false,
      "inputs": [
        {
          "indexed": true,
          "internalType": "address",
          "name": "pool",
          "type": "address"
        },
        {
          "indexed": true,
          "internalType": "address",
          "name": "user",
          "type": "address"
        },
        {
          "indexed": false,
          "internalType": "uint256",
          "name": "borrowShares",
          "type": "uint256"
        },
        {
          "indexed": false,
          "internalType": "uint256",
          "name": "borrowAmount",
          "type": "uint256"
        }
      ],
      "name": "Borrow",
      "type": "event"
    },
    {
      "anonymous": false,
      "inputs": [
        {
          "indexed": true,
          "internalType": "address",
          "name": "pool",
          "type": "address"
        },
        {
          "indexed": true,
          "internalType": "address",
          "name": "user",
          "type": "address"
        },
        {
          "indexed": false,
          "internalType": "uint256",
          "name": "depositShares",
          "type": "uint256"
        },
        {
          "indexed": false,
          "internalType": "uint256",
          "name": "depositAmount",
          "type": "uint256"
        }
      ],
      "name": "Deposit",
      "type": "event"
    },
    {
      "anonymous": false,
      "inputs": [
        {
          "indexed": true,
          "internalType": "address",
          "name": "user",
          "type": "address"
        },
        {
          "indexed": false,
          "internalType": "address",
          "name": "pool",
          "type": "address"
        },
        {
          "indexed": false,
          "internalType": "address",
          "name": "collateral",
          "type": "address"
        },
        {
          "indexed": false,
          "internalType": "uint256",
          "name": "liquidateAmount",
          "type": "uint256"
        },
        {
          "indexed": false,
          "internalType": "uint256",
          "name": "liquidateShares",
          "type": "uint256"
        },
        {
          "indexed": false,
          "internalType": "uint256",
          "name": "collateralAmount",
          "type": "uint256"
        },
        {
          "indexed": false,
          "internalType": "uint256",
          "name": "collateralShares",
          "type": "uint256"
        },
        {
          "indexed": false,
          "internalType": "address",
          "name": "liquidator",
          "type": "address"
        }
      ],
      "name": "Liquidate",
      "type": "event"
    },
    {
      "anonymous": false,
      "inputs": [
        {
          "indexed": true,
          "internalType": "address",
          "name": "previousOwner",
          "type": "address"
        },
        {
          "indexed": true,
          "internalType": "address",
          "name": "newOwner",
          "type": "address"
        }
      ],
      "name": "OwnershipTransferred",
      "type": "event"
    },
    {
      "anonymous": false,
      "inputs": [
        {
          "indexed": true,
          "internalType": "address",
          "name": "token",
          "type": "address"
        },
        {
          "indexed": false,
          "internalType": "address",
          "name": "poolConfigAddress",
          "type": "address"
        }
      ],
      "name": "PoolConfigUpdated",
      "type": "event"
    },
    {
      "anonymous": false,
      "inputs": [
        {
          "indexed": true,
          "internalType": "address",
          "name": "token",
          "type": "address"
        },
        {
          "indexed": true,
          "internalType": "address",
          "name": "shareAddress",
          "type": "address"
        },
        {
          "indexed": true,
          "internalType": "address",
          "name": "poolConfigAddress",
          "type": "address"
        }
      ],
      "name": "PoolInitialized",
      "type": "event"
    },
    {
      "anonymous": false,
      "inputs": [
        {
          "indexed": true,
          "internalType": "address",
          "name": "token",
          "type": "address"
        },
        {
          "indexed": false,
          "internalType": "uint256",
          "name": "cumulativeBorrowInterestRate",
          "type": "uint256"
        },
        {
          "indexed": false,
          "internalType": "uint256",
          "name": "totalBorrows",
          "type": "uint256"
        }
      ],
      "name": "PoolInterestUpdated",
      "type": "event"
    },
    {
      "anonymous": false,
      "inputs": [
        {
          "indexed": true,
          "internalType": "address",
          "name": "pool",
          "type": "address"
        },
        {
          "indexed": true,
          "internalType": "address",
          "name": "user",
          "type": "address"
        },
        {
          "indexed": false,
          "internalType": "uint256",
          "name": "repayShares",
          "type": "uint256"
        },
        {
          "indexed": false,
          "internalType": "uint256",
          "name": "repayAmount",
          "type": "uint256"
        }
      ],
      "name": "Repay",
      "type": "event"
    },
    {
      "anonymous": false,
      "inputs": [
        {
          "indexed": true,
          "internalType": "address",
          "name": "pool",
          "type": "address"
        },
        {
          "indexed": true,
          "internalType": "address",
          "name": "user",
          "type": "address"
        },
        {
          "indexed": false,
          "internalType": "uint256",
          "name": "withdrawShares",
          "type": "uint256"
        },
        {
          "indexed": false,
          "internalType": "uint256",
          "name": "withdrawAmount",
          "type": "uint256"
        }
      ],
      "name": "Withdraw",
      "type": "event"
    },
    {
      "inputs": [],
      "name": "CLOSE_FACTOR",
      "outputs": [
        {
          "internalType": "uint256",
          "name": "",
          "type": "uint256"
        }
      ],
      "stateMutability": "view",
      "type": "function"
    },
    {
      "inputs": [
        {
          "internalType": "contract ERC20",
          "name": "_token",
          "type": "address"
        },
        {
          "internalType": "uint256",
          "name": "_amount",
          "type": "uint256"
        }
      ],
      "name": "borrow",
      "outputs": [],
      "stateMutability": "nonpayable",
      "type": "function"
    },
    {
      "inputs": [
        {
          "internalType": "contract ERC20",
          "name": "_token",
          "type": "address"
        },
        {
          "internalType": "uint256",
          "name": "_amount",
          "type": "uint256"
        }
      ],
      "name": "deposit",
      "outputs": [],
      "stateMutability": "nonpayable",
      "type": "function"
    },
    {
      "inputs": [
        {
          "internalType": "contract ERC20",
          "name": "_token",
          "type": "address"
        }
      ],
      "name": "getAvailableLiquidity",
      "outputs": [
        {
          "internalType": "uint256",
          "name": "",
          "type": "uint256"
        }
      ],
      "stateMutability": "view",
      "type": "function"
    },
    {
      "inputs": [
        {
          "internalType": "contract ERC20",
          "name": "_token",
          "type": "address"
        }
      ],
      "name": "getPool",
      "outputs": [
        {
          "internalType": "enum AssetPool.PoolStatus",
          "name": "status",
          "type": "uint8"
        },
        {
          "internalType": "address",
          "name": "shareToken",
          "type": "address"
        },
        {
          "internalType": "address",
          "name": "poolConfig",
          "type": "address"
        },
        {
          "internalType": "uint256",
          "name": "totalBorrows",
          "type": "uint256"
        },
        {
          "internalType": "uint256",
          "name": "totalBorrowShares",
          "type": "uint256"
        },
        {
          "internalType": "uint256",
          "name": "totalLiquidity",
          "type": "uint256"
        },
        {
          "internalType": "uint256",
          "name": "availableLiquidity",
          "type": "uint256"
        },
        {
          "internalType": "uint256",
          "name": "lastUpdateTimestamp",
          "type": "uint256"
        },
        {
          "internalType": "uint256",
          "name": "borrowRate",
          "type": "uint256"
        },
        {
          "internalType": "uint256",
          "name": "lendingRate",
          "type": "uint256"
        }
      ],
      "stateMutability": "view",
      "type": "function"
    },
    {
      "inputs": [
        {
          "internalType": "contract ERC20",
          "name": "_token",
          "type": "address"
        }
      ],
      "name": "getTotalLiquidity",
      "outputs": [
        {
          "internalType": "uint256",
          "name": "",
          "type": "uint256"
        }
      ],
      "stateMutability": "view",
      "type": "function"
    },
    {
      "inputs": [
        {
          "internalType": "address",
          "name": "_user",
          "type": "address"
        },
        {
          "internalType": "contract ERC20",
          "name": "_token",
          "type": "address"
        }
      ],
      "name": "getUserCompoundedBorrowBalance",
      "outputs": [
        {
          "internalType": "uint256",
          "name": "",
          "type": "uint256"
        }
      ],
      "stateMutability": "view",
      "type": "function"
    },
    {
      "inputs": [
        {
          "internalType": "address",
          "name": "_user",
          "type": "address"
        },
        {
          "internalType": "contract ERC20",
          "name": "_token",
          "type": "address"
        }
      ],
      "name": "getUserCompoundedLiquidityBalance",
      "outputs": [
        {
          "internalType": "uint256",
          "name": "",
          "type": "uint256"
        }
      ],
      "stateMutability": "view",
      "type": "function"
    },
    {
      "inputs": [
        {
          "internalType": "address",
          "name": "_user",
          "type": "address"
        }
      ],
      "name": "getUserInfo",
      "outputs": [
        {
          "internalType": "uint256",
          "name": "totalLiquidityValue",
          "type": "uint256"
        },
        {
          "internalType": "uint256",
          "name": "totalCollateralValue",
          "type": "uint256"
        },
        {
          "internalType": "uint256",
          "name": "totalBorrowedValue",
          "type": "uint256"
        }
      ],
      "stateMutability": "view",
      "type": "function"
    },
    {
      "inputs": [
        {
          "internalType": "address",
          "name": "_user",
          "type": "address"
        },
        {
          "internalType": "contract ERC20",
          "name": "_token",
          "type": "address"
        }
      ],
      "name": "getUserPoolData",
      "outputs": [
        {
          "internalType": "uint256",
          "name": "compoundedLiquidityBalance",
          "type": "uint256"
        },
        {
          "internalType": "uint256",
          "name": "compoundedBorrowBalance",
          "type": "uint256"
        },
        {
          "internalType": "bool",
          "name": "usePoolAsCollateral",
          "type": "bool"
        }
      ],
      "stateMutability": "view",
      "type": "function"
    },
    {
      "inputs": [
        {
          "internalType": "contract ERC20",
          "name": "_token",
          "type": "address"
        },
        {
          "internalType": "contract PoolConfiguration",
          "name": "_poolConfig",
          "type": "address"
        }
      ],
      "name": "initPool",
      "outputs": [],
      "stateMutability": "nonpayable",
      "type": "function"
    },
    {
      "inputs": [
        {
          "internalType": "address",
          "name": "_user",
          "type": "address"
        }
      ],
      "name": "isAccountHealthy",
      "outputs": [
        {
          "internalType": "bool",
          "name": "",
          "type": "bool"
        }
      ],
      "stateMutability": "view",
      "type": "function"
    },
    {
      "inputs": [
        {
          "internalType": "address",
          "name": "_user",
          "type": "address"
        },
        {
          "internalType": "contract ERC20",
          "name": "_token",
          "type": "address"
        },
        {
          "internalType": "uint256",
          "name": "_shares",
          "type": "uint256"
        },
        {
          "internalType": "contract ERC20",
          "name": "_collateral",
          "type": "address"
        }
      ],
      "name": "liquidate",
      "outputs": [],
      "stateMutability": "nonpayable",
      "type": "function"
    },
    {
      "inputs": [],
      "name": "owner",
      "outputs": [
        {
          "internalType": "address",
          "name": "",
          "type": "address"
        }
      ],
      "stateMutability": "view",
      "type": "function"
    },
    {
      "inputs": [
        {
          "internalType": "address",
          "name": "",
          "type": "address"
        }
      ],
      "name": "pools",
      "outputs": [
        {
          "internalType": "enum AssetPool.PoolStatus",
          "name": "status",
          "type": "uint8"
        },
        {
          "internalType": "contract AssetPoolShare",
          "name": "shareToken",
          "type": "address"
        },
        {
          "internalType": "contract PoolConfiguration",
          "name": "poolConfig",
          "type": "address"
        },
        {
          "internalType": "uint256",
          "name": "totalBorrows",
          "type": "uint256"
        },
        {
          "internalType": "uint256",
          "name": "totalBorrowShares",
          "type": "uint256"
        },
        {
          "internalType": "uint256",
          "name": "poolReserves",
          "type": "uint256"
        },
        {
          "internalType": "uint256",
          "name": "lastUpdateTimestamp",
          "type": "uint256"
        }
      ],
      "stateMutability": "view",
      "type": "function"
    },
    {
      "inputs": [],
      "name": "renounceOwnership",
      "outputs": [],
      "stateMutability": "nonpayable",
      "type": "function"
    },
    {
      "inputs": [
        {
          "internalType": "contract ERC20",
          "name": "_token",
          "type": "address"
        },
        {
          "internalType": "uint256",
          "name": "_amount",
          "type": "uint256"
        }
      ],
      "name": "repayByAmount",
      "outputs": [],
      "stateMutability": "nonpayable",
      "type": "function"
    },
    {
      "inputs": [
        {
          "internalType": "contract ERC20",
          "name": "_token",
          "type": "address"
        },
        {
          "internalType": "uint256",
          "name": "_share",
          "type": "uint256"
        }
      ],
      "name": "repayByShare",
      "outputs": [],
      "stateMutability": "nonpayable",
      "type": "function"
    },
    {
      "inputs": [],
      "name": "reserveRate",
      "outputs": [
        {
          "internalType": "uint256",
          "name": "",
          "type": "uint256"
        }
      ],
      "stateMutability": "view",
      "type": "function"
    },
    {
      "inputs": [
        {
          "internalType": "contract ERC20",
          "name": "_token",
          "type": "address"
        },
        {
          "internalType": "enum AssetPool.PoolStatus",
          "name": "_status",
          "type": "uint8"
        }
      ],
      "name": "setPoolStatus",
      "outputs": [],
      "stateMutability": "nonpayable",
      "type": "function"
    },
    {
      "inputs": [
        {
          "internalType": "contract PriceOracle",
          "name": "_priceOracle",
          "type": "address"
        }
      ],
      "name": "setPriceOracle",
      "outputs": [],
      "stateMutability": "nonpayable",
      "type": "function"
    },
    {
      "inputs": [
        {
          "internalType": "uint256",
          "name": "_reserveRate",
          "type": "uint256"
        }
      ],
      "name": "setReserveRate",
      "outputs": [],
      "stateMutability": "nonpayable",
      "type": "function"
    },
    {
      "inputs": [],
      "name": "shareDeployer",
      "outputs": [
        {
          "internalType": "contract AssetPoolShareDeployer",
          "name": "",
          "type": "address"
        }
      ],
      "stateMutability": "view",
      "type": "function"
    },
    {
      "inputs": [
        {
          "internalType": "uint256",
          "name": "",
          "type": "uint256"
        }
      ],
      "name": "tokenList",
      "outputs": [
        {
          "internalType": "contract ERC20",
          "name": "",
          "type": "address"
        }
      ],
      "stateMutability": "view",
      "type": "function"
    },
    {
      "inputs": [
        {
          "internalType": "address",
          "name": "newOwner",
          "type": "address"
        }
      ],
      "name": "transferOwnership",
      "outputs": [],
      "stateMutability": "nonpayable",
      "type": "function"
    },
    {
      "inputs": [
        {
          "internalType": "contract ERC20",
          "name": "_token",
          "type": "address"
        },
        {
          "internalType": "contract PoolConfiguration",
          "name": "_poolConfig",
          "type": "address"
        }
      ],
      "name": "updatePool",
      "outputs": [],
      "stateMutability": "nonpayable",
      "type": "function"
    },
    {
      "inputs": [
        {
          "internalType": "address",
          "name": "",
          "type": "address"
        },
        {
          "internalType": "address",
          "name": "",
          "type": "address"
        }
      ],
      "name": "userPoolData",
      "outputs": [
        {
          "internalType": "bool",
          "name": "disableAsCollateral",
          "type": "bool"
        },
        {
          "internalType": "uint256",
          "name": "borrowShares",
          "type": "uint256"
        }
      ],
      "stateMutability": "view",
      "type": "function"
    },
    {
      "inputs": [
        {
          "internalType": "contract ERC20",
          "name": "_token",
          "type": "address"
        },
        {
          "internalType": "uint256",
          "name": "_amount",
          "type": "uint256"
        }
      ],
      "name": "withdrawByAmount",
      "outputs": [],
      "stateMutability": "nonpayable",
      "type": "function"
    },
    {
      "inputs": [
        {
          "internalType": "contract ERC20",
          "name": "_token",
          "type": "address"
        },
        {
          "internalType": "uint256",
          "name": "_share",
          "type": "uint256"
        }
      ],
      "name": "withdrawByShare",
      "outputs": [],
      "stateMutability": "nonpayable",
      "type": "function"
    },
    {
      "inputs": [
        {
          "internalType": "contract ERC20",
          "name": "_token",
          "type": "address"
        },
        {
          "internalType": "uint256",
          "name": "_amount",
          "type": "uint256"
        }
      ],
      "name": "withdrawReserve",
      "outputs": [],
      "stateMutability": "nonpayable",
      "type": "function"
    }
  ],
  "bytecode": "0x608060405266b1a2bc2ec500006007553480156200001c57600080fd5b5060405162003ed938038062003ed98339810160408190526200003f91620000e9565b6200004a3362000080565b60018055600680546001600160a01b039384166001600160a01b0319918216179091556005805492909316911617905562000128565b600080546001600160a01b038381166001600160a01b0319831681178455604051919092169283917f8be0079c531659141344cd1fd0a4f28419497f9722a3daafe3b4186f6b6457e09190a35050565b6001600160a01b0381168114620000e657600080fd5b50565b60008060408385031215620000fd57600080fd5b82516200010a81620000d0565b60208401519092506200011d81620000d0565b809150509250929050565b613da180620001386000396000f3fe608060405234801561001057600080fd5b50600436106101da5760003560e01c80636386c1c711610104578063a4063dbc116100a2578063c520b56311610071578063c520b56314610494578063e526e4ab146104a7578063e5700388146104ba578063f2fde38b1461050957600080fd5b8063a4063dbc146103db578063a4bae00814610445578063bbe4f6db14610458578063c2ec0dca1461048157600080fd5b80638da5cb5b116100de5780638da5cb5b146103915780638fbe0f10146103a25780639de8ef79146103b55780639ead7222146103c857600080fd5b80636386c1c714610348578063715018a61461037657806380e1ed821461037e57600080fd5b806347e7ef241161017c57806351723e301161014b57806351723e30146102ee578063530e784f1461031957806358d7bf801461032c5780635dd34bc61461033557600080fd5b806347e7ef2414610289578063491db4a21461029c5780634b8a3529146102cc5780634dab4dc0146102df57600080fd5b80632f02d91f116101b85780632f02d91f1461022d57806336481862146102405780633de2f6b2146102635780633f395c021461027657600080fd5b8063181428ae146101df5780631c58ce1414610205578063266e2bd81461021a575b600080fd5b6101f26101ed366004613897565b61051c565b6040519081526020015b60405180910390f35b6102186102133660046138d0565b6105bc565b005b6101f26102283660046138fc565b6108aa565b6101f261023b366004613897565b610915565b61025361024e3660046138fc565b610952565b60405190151581526020016101fc565b610218610271366004613919565b61096b565b610218610284366004613897565b610c8a565b6102186102973660046138d0565b611095565b6102af6102aa366004613897565b6113b9565b6040805193845260208401929092521515908201526060016101fc565b6102186102da3660046138d0565b61140c565b6101f26706f05b59d3b2000081565b600654610301906001600160a01b031681565b6040516001600160a01b0390911681526020016101fc565b6102186103273660046138fc565b6117a3565b6101f260075481565b6102186103433660046138d0565b6117da565b61035b6103563660046138fc565b611982565b604080519384526020840192909252908201526060016101fc565b610218611b79565b61021861038c366004613897565b611b8d565b6000546001600160a01b0316610301565b6102186103b03660046138d0565b611c6f565b6101f26103c33660046138fc565b611e08565b6103016103d636600461396c565b611e4e565b6104326103e93660046138fc565b600260208190526000918252604090912080546001820154928201546003830154600484015460059094015460ff8416956001600160a01b036101009095048516959416939087565b6040516101fc97969594939291906139bd565b6102186104533660046138d0565b611e78565b61046b6104663660046138fc565b612003565b6040516101fc9a99989796959493929190613a07565b61021861048f366004613a66565b61215f565b6102186104a23660046138d0565b6121ff565b6102186104b536600461396c565b612398565b6104f26104c8366004613897565b60036020908152600092835260408084209091529082529020805460019091015460ff9091169082565b6040805192151583526020830191909152016101fc565b6102186105173660046138fc565b6123a5565b6001600160a01b03818116600090815260026020526040808220805491516370a0823160e01b815286851660048201529293909284926101009004909116906370a0823190602401602060405180830381865afa158015610581573d6000803e3d6000fd5b505050506040513d601f19601f820116820180604052508101906105a59190613a98565b90506105b18482612435565b925050505b92915050565b6105c4612511565b6001600160a01b0380831660009081526002602081905260408220600181015491810154869491939290911690631a7929449061060086611e08565b6040516001600160e01b031960e085901b16815260048101929092526024820152604401602060405180830381865afa158015610641573d6000803e3d6000fd5b505050506040513d601f19601f820116820180604052508101906106659190613a98565b905060006106788284600501544261256a565b6002840154909150670de0b6b3a76400006106938284613ac7565b61069d9190613af4565b60028501819055600754670de0b6b3a7640000916106bc908490613b08565b6106c69190613ac7565b6106d09190613af4565b8460040160008282546106e39190613b1b565b909155505042600585015560028401546040516001600160a01b038716917f4459cec4806e5d45ce1ebf79e0c92583bc5f7567c93ee849aaeded68aa2c7b209161073591868252602082015260400190565b60405180910390a26107456125a1565b6001600160a01b03871660008181526002602052604080822090516370a0823160e01b81523060048201529092906370a0823190602401602060405180830381865afa158015610799573d6000803e3d6000fd5b505050506040513d601f19601f820116820180604052508101906107bd9190613a98565b9050808811156108145760405162461bcd60e51b815260206004820152601a60248201527f544946493a20494e53554646494349454e545f42414c414e434500000000000060448201526064015b60405180910390fd5b81600401548811156108685760405162461bcd60e51b815260206004820181905260248201527f544946493a20494e53554646494349454e545f504f4f4c5f5245534552564553604482015260640161080b565b61087c6001600160a01b038a16338a6125fb565b878260040160008282546108909190613b08565b909155505060018055506108a695505050505050565b5050565b6040516370a0823160e01b81523060048201526000906001600160a01b038316906370a0823190602401602060405180830381865afa1580156108f1573d6000803e3d6000fd5b505050506040513d601f19601f820116820180604052508101906105b69190613a98565b6001600160a01b03808316600090815260036020908152604080832093851683529290529081206001015461094a8382612678565b949350505050565b600080600061096084611982565b111595945050505050565b610973612511565b6001600160a01b0380841660009081526002602081905260408220600181015491810154879491939290911690631a792944906109af86611e08565b6040516001600160e01b031960e085901b16815260048101929092526024820152604401602060405180830381865afa1580156109f0573d6000803e3d6000fd5b505050506040513d601f19601f82011682018060405250810190610a149190613a98565b90506000610a278284600501544261256a565b6002840154909150670de0b6b3a7640000610a428284613ac7565b610a4c9190613af4565b60028501819055600754670de0b6b3a764000091610a6b908490613b08565b610a759190613ac7565b610a7f9190613af4565b846004016000828254610a929190613b1b565b909155505042600585015560028401546040516001600160a01b038716917f4459cec4806e5d45ce1ebf79e0c92583bc5f7567c93ee849aaeded68aa2c7b2091610ae491868252602082015260400190565b60405180910390a26001600160a01b03808716600090815260026020819052604082206001810154918101548a9491939290911690631a79294490610b2886611e08565b6040516001600160e01b031960e085901b16815260048101929092526024820152604401602060405180830381865afa158015610b69573d6000803e3d6000fd5b505050506040513d601f19601f82011682018060405250810190610b8d9190613a98565b90506000610ba08284600501544261256a565b6002840154909150670de0b6b3a7640000610bbb8284613ac7565b610bc59190613af4565b60028501819055600754670de0b6b3a764000091610be4908490613b08565b610bee9190613ac7565b610bf89190613af4565b846004016000828254610c0b9190613b1b565b909155505042600585015560028401546040516001600160a01b038716917f4459cec4806e5d45ce1ebf79e0c92583bc5f7567c93ee849aaeded68aa2c7b2091610c5d91868252602082015260400190565b60405180910390a2610c718e8e8e8e6126cf565b50505050505050505050610c8460018055565b50505050565b610c926125a1565b60005b600454811015610d3057826001600160a01b031660048281548110610cbc57610cbc613b2e565b6000918252602090912001546001600160a01b031603610d1e5760405162461bcd60e51b815260206004820152600a60248201527f504f4f4c5f455849535400000000000000000000000000000000000000000000604482015260640161080b565b80610d2881613b44565b915050610c95565b506000826001600160a01b03166395d89b416040518163ffffffff1660e01b8152600401600060405180830381865afa158015610d71573d6000803e3d6000fd5b505050506040513d6000823e601f3d908101601f19168201604052610d999190810190613b97565b604051602001610da99190613c39565b60405160208183030381529060405290506000836001600160a01b03166306fdde036040518163ffffffff1660e01b8152600401600060405180830381865afa158015610dfa573d6000803e3d6000fd5b505050506040513d6000823e601f3d908101601f19168201604052610e229190810190613b97565b604051602001610e329190613c39565b60408051601f19818403018152908290526006547f564cdcb10000000000000000000000000000000000000000000000000000000083529092506000916001600160a01b039091169063564cdcb190610e9390859087908a90600401613caa565b6020604051808303816000875af1158015610eb2573d6000803e3d6000fd5b505050506040513d601f19601f82011682018060405250810190610ed69190613ce9565b905060006040518060e0016040528060006002811115610ef857610ef8613985565b8152602001836001600160a01b03168152602001866001600160a01b031681526020016000815260200160008152602001600081526020014281525090508060026000886001600160a01b03166001600160a01b0316815260200190815260200160002060008201518160000160006101000a81548160ff02191690836002811115610f8657610f86613985565b0217905550602082015181546001600160a01b03918216610100027fffffffffffffffffffffff0000000000000000000000000000000000000000ff9091161782556040808401516001808501805492851673ffffffffffffffffffffffffffffffffffffffff19938416179055606086015160028601556080860151600386015560a086015160048087019190915560c0909601516005909501949094558454938401855560009485527f8a35acfbc15ff81a39ae7d344fd709f28e8600b4aa8c65c6b64bfe7fe36bd19b90930180548b8416941684179055518882169391861692917fb2684e1b8e116bbb42a14d7a6bc6afa19d85ff0a8666a6b424b79a738c661d8191a4505050505050565b61109d612511565b6001600160a01b0380831660009081526002602081905260408220600181015491810154869491939290911690631a792944906110d986611e08565b6040516001600160e01b031960e085901b16815260048101929092526024820152604401602060405180830381865afa15801561111a573d6000803e3d6000fd5b505050506040513d601f19601f8201168201806040525081019061113e9190613a98565b905060006111518284600501544261256a565b6002840154909150670de0b6b3a764000061116c8284613ac7565b6111769190613af4565b60028501819055600754670de0b6b3a764000091611195908490613b08565b61119f9190613ac7565b6111a99190613af4565b8460040160008282546111bc9190613b1b565b909155505042600585015560028401546040516001600160a01b038716917f4459cec4806e5d45ce1ebf79e0c92583bc5f7567c93ee849aaeded68aa2c7b209161120e91868252602082015260400190565b60405180910390a2600086116112665760405162461bcd60e51b815260206004820152601660248201527f494e56414c49445f4445504f5349545f414d4f554e5400000000000000000000604482015260640161080b565b6001600160a01b03871660009081526002602052604090206001815460ff16600281111561129657611296613985565b146112d85760405162461bcd60e51b8152602060048201526012602482015271494e56414c49445f504f4f4c5f535441544560701b604482015260640161080b565b60006112e48989612c22565b82546040516340c10f1960e01b81523360048201526024810183905291925061010090046001600160a01b0316906340c10f1990604401600060405180830381600087803b15801561133557600080fd5b505af1158015611349573d6000803e3d6000fd5b50611363925050506001600160a01b038a1633308b612ce9565b60408051828152602081018a905233916001600160a01b038c16917fdcbc1c05240f31ff3ad067ef1ee35ce4997762752e3a095284754544f4c709d7910160405180910390a3505050505050506108a660018055565b60008060006113c8858561051c565b92506113d48585610915565b6001600160a01b039586166000908152600360209081526040808320979098168252959095529490932054919460ff90921615925050565b611414612511565b6001600160a01b0380831660009081526002602081905260408220600181015491810154869491939290911690631a7929449061145086611e08565b6040516001600160e01b031960e085901b16815260048101929092526024820152604401602060405180830381865afa158015611491573d6000803e3d6000fd5b505050506040513d601f19601f820116820180604052508101906114b59190613a98565b905060006114c88284600501544261256a565b6002840154909150670de0b6b3a76400006114e38284613ac7565b6114ed9190613af4565b60028501819055600754670de0b6b3a76400009161150c908490613b08565b6115169190613ac7565b6115209190613af4565b8460040160008282546115339190613b1b565b909155505042600585015560028401546040516001600160a01b038716917f4459cec4806e5d45ce1ebf79e0c92583bc5f7567c93ee849aaeded68aa2c7b209161158591868252602082015260400190565b60405180910390a26000861180156115a557506115a1876108aa565b8611155b6115f15760405162461bcd60e51b815260206004820152601660248201527f494e56414c49445f4445504f5349545f414d4f554e5400000000000000000000604482015260640161080b565b6001600160a01b03871660009081526002602052604090206001815460ff16600281111561162157611621613985565b146116635760405162461bcd60e51b8152602060048201526012602482015271494e56414c49445f504f4f4c5f535441544560701b604482015260640161080b565b600061166f8989612d3a565b9050878260020160008282546116859190613b1b565b92505081905550808260030160008282546116a09190613b1b565b90915550503360009081526003602090815260408083206001600160a01b038d1684529091528120600181018054919284926116dd908490613b1b565b909155506116f790506001600160a01b038b16338b6125fb565b61170033610952565b61174c5760405162461bcd60e51b815260206004820152601160248201527f4143434f554e545f554e4845414c544859000000000000000000000000000000604482015260640161080b565b60408051838152602081018b905233916001600160a01b038d16917fc1561b330e73faa7d5d1ac03c968d8f359b0191ccdb9cc002cf7d8eb6ae038cb910160405180910390a350505050505050506108a660018055565b6117ab6125a1565b6005805473ffffffffffffffffffffffffffffffffffffffff19166001600160a01b0392909216919091179055565b6117e2612511565b6001600160a01b0380831660009081526002602081905260408220600181015491810154869491939290911690631a7929449061181e86611e08565b6040516001600160e01b031960e085901b16815260048101929092526024820152604401602060405180830381865afa15801561185f573d6000803e3d6000fd5b505050506040513d601f19601f820116820180604052508101906118839190613a98565b905060006118968284600501544261256a565b6002840154909150670de0b6b3a76400006118b18284613ac7565b6118bb9190613af4565b60028501819055600754670de0b6b3a7640000916118da908490613b08565b6118e49190613ac7565b6118ee9190613af4565b8460040160008282546119019190613b1b565b909155505042600585015560028401546040516001600160a01b038716917f4459cec4806e5d45ce1ebf79e0c92583bc5f7567c93ee849aaeded68aa2c7b209161195391868252602082015260400190565b60405180910390a260006119678888612d92565b90506119738882612deb565b5050505050506108a660018055565b60008080805b600454811015611b71576000600482815481106119a7576119a7613b2e565b60009182526020808320909101546001600160a01b03168083526002909152604082209092509080806119da8a866113b9565b9250925092508260001415806119ef57508115155b15611b5957600184015460408051631629af8760e21b815290516000926001600160a01b0316916358a6be1c9160048083019260209291908290030181865afa158015611a40573d6000803e3d6000fd5b505050506040513d601f19601f82011682018060405250810190611a649190613a98565b90506000611a7187612f56565b905060008111611ac35760405162461bcd60e51b815260206004820152600d60248201527f494e56414c49445f505249434500000000000000000000000000000000000000604482015260640161080b565b6000670de0b6b3a7640000611ad88784613ac7565b611ae29190613af4565b9050611aee818d613b1b565b9b50600083118015611afd5750835b15611b2c57670de0b6b3a7640000611b158483613ac7565b611b1f9190613af4565b611b29908c613b1b565b9a505b670de0b6b3a7640000611b3f8684613ac7565b611b499190613af4565b611b53908b613b1b565b99505050505b50505050508080611b6990613b44565b915050611988565b509193909250565b611b816125a1565b611b8b6000613090565b565b611b956125a1565b6001600160a01b0380831660009081526002602052604090208054909161010090910416611c055760405162461bcd60e51b815260206004820152600e60248201527f504f4f4c5f4e4f545f4558495354000000000000000000000000000000000000604482015260640161080b565b60018101805473ffffffffffffffffffffffffffffffffffffffff19166001600160a01b03848116918217909255604051908152908416907fed7692d7eac8e25ca74b0bcb7b52fe51d01a8910e8e320c6f3223365708d76de9060200160405180910390a2505050565b611c77612511565b6001600160a01b0380831660009081526002602081905260408220600181015491810154869491939290911690631a79294490611cb386611e08565b6040516001600160e01b031960e085901b16815260048101929092526024820152604401602060405180830381865afa158015611cf4573d6000803e3d6000fd5b505050506040513d601f19601f82011682018060405250810190611d189190613a98565b90506000611d2b8284600501544261256a565b6002840154909150670de0b6b3a7640000611d468284613ac7565b611d509190613af4565b60028501819055600754670de0b6b3a764000091611d6f908490613b08565b611d799190613ac7565b611d839190613af4565b846004016000828254611d969190613b1b565b909155505042600585015560028401546040516001600160a01b038716917f4459cec4806e5d45ce1ebf79e0c92583bc5f7567c93ee849aaeded68aa2c7b2091611de891868252602082015260400190565b60405180910390a2611dfa87876130ed565b50505050506108a660018055565b6001600160a01b03811660009081526002602052604081206004810154611e2e846108aa565b8260020154611e3d9190613b1b565b611e479190613b08565b9392505050565b60048181548110611e5e57600080fd5b6000918252602090912001546001600160a01b0316905081565b611e80612511565b6001600160a01b0380831660009081526002602081905260408220600181015491810154869491939290911690631a79294490611ebc86611e08565b6040516001600160e01b031960e085901b16815260048101929092526024820152604401602060405180830381865afa158015611efd573d6000803e3d6000fd5b505050506040513d601f19601f82011682018060405250810190611f219190613a98565b90506000611f348284600501544261256a565b6002840154909150670de0b6b3a7640000611f4f8284613ac7565b611f599190613af4565b60028501819055600754670de0b6b3a764000091611f78908490613b08565b611f829190613ac7565b611f8c9190613af4565b846004016000828254611f9f9190613b1b565b909155505042600585015560028401546040516001600160a01b038716917f4459cec4806e5d45ce1ebf79e0c92583bc5f7567c93ee849aaeded68aa2c7b2091611ff191868252602082015260400190565b60405180910390a2611dfa8787612deb565b6001600160a01b038082166000908152600260208190526040822080546001820154928201546003830154949561010090920482169493909116929091859081908190819081906120538c611e08565b955061205e8c6108aa565b6005820154825460018401546040517f1a792944000000000000000000000000000000000000000000000000000000008152600481018d9052602481018b905260ff9092169e509297509095506001600160a01b0390911690631a79294490604401602060405180830381865afa1580156120dd573d6000803e3d6000fd5b505050506040513d601f19601f820116820180604052508101906121019190613a98565b9250851561214c5761211b86670de0b6b3a7640000613ac7565b600754612129906001613b08565b6121338a86613ac7565b61213d9190613ac7565b6121479190613af4565b61214f565b60005b9150509193959799509193959799565b6121676125a1565b6001600160a01b03808316600090815260026020526040902080549091610100909104166121d75760405162461bcd60e51b815260206004820152600e60248201527f504f4f4c5f4e4f545f4558495354000000000000000000000000000000000000604482015260640161080b565b80548290829060ff191660018360028111156121f5576121f5613985565b0217905550505050565b612207612511565b6001600160a01b0380831660009081526002602081905260408220600181015491810154869491939290911690631a7929449061224386611e08565b6040516001600160e01b031960e085901b16815260048101929092526024820152604401602060405180830381865afa158015612284573d6000803e3d6000fd5b505050506040513d601f19601f820116820180604052508101906122a89190613a98565b905060006122bb8284600501544261256a565b6002840154909150670de0b6b3a76400006122d68284613ac7565b6122e09190613af4565b60028501819055600754670de0b6b3a7640000916122ff908490613b08565b6123099190613ac7565b6123139190613af4565b8460040160008282546123269190613b1b565b909155505042600585015560028401546040516001600160a01b038716917f4459cec4806e5d45ce1ebf79e0c92583bc5f7567c93ee849aaeded68aa2c7b209161237891868252602082015260400190565b60405180910390a2600061238c8888613358565b905061197388826130ed565b6123a06125a1565b600755565b6123ad6125a1565b6001600160a01b0381166124295760405162461bcd60e51b815260206004820152602660248201527f4f776e61626c653a206e6577206f776e657220697320746865207a65726f206160448201527f6464726573730000000000000000000000000000000000000000000000000000606482015260840161080b565b61243281613090565b50565b6001600160a01b03821660009081526002602052604081208161245785611e08565b905060008260000160019054906101000a90046001600160a01b03166001600160a01b03166318160ddd6040518163ffffffff1660e01b8152600401602060405180830381865afa1580156124b0573d6000803e3d6000fd5b505050506040513d601f19601f820116820180604052508101906124d49190613a98565b90508115806124e1575080155b156124f257600093505050506105b6565b806124fd8387613ac7565b6125079190613af4565b9695505050505050565b6002600154036125635760405162461bcd60e51b815260206004820152601f60248201527f5265656e7472616e637947756172643a207265656e7472616e742063616c6c00604482015260640161080b565b6002600155565b60006301e1338061257b8484613b08565b6125859086613ac7565b61258f9190613af4565b61094a90670de0b6b3a7640000613b1b565b6000546001600160a01b03163314611b8b5760405162461bcd60e51b815260206004820181905260248201527f4f776e61626c653a2063616c6c6572206973206e6f7420746865206f776e6572604482015260640161080b565b6040516001600160a01b03831660248201526044810182905261267390849063a9059cbb60e01b906064015b60408051601f198184030181529190526020810180517bffffffffffffffffffffffffffffffffffffffffffffffffffffffff166001600160e01b031990931692909217909152613427565b505050565b6001600160a01b038216600090815260026020819052604082209081015415806126a457506003810154155b156126b257829150506105b6565b61094a8160020154846126c59190613ac7565b826003015461350c565b6126d884610952565b156127255760405162461bcd60e51b815260206004820152601160248201527f4143434f554e545f49535f4845414c5448000000000000000000000000000000604482015260640161080b565b6001600160a01b038316600090815260026020526040812090815460ff16600281111561275457612754613985565b036127965760405162461bcd60e51b8152602060048201526012602482015271494e56414c49445f504f4f4c5f535441544560701b604482015260640161080b565b6001600160a01b038086166000908152600360209081526040808320938616835292905220805460ff161561280d5760405162461bcd60e51b815260206004820152601360248201527f434f4c4c41544552414c5f44495341424c454400000000000000000000000000604482015260640161080b565b6001600160a01b03808416600090815260026020908152604080832060018101548251631629af8760e21b81529251919516926358a6be1c92600480820193918290030181865afa158015612866573d6000803e3d6000fd5b505050506040513d601f19601f8201168201806040525081019061288a9190613a98565b116128d75760405162461bcd60e51b815260206004820152601860248201527f504f4f4c5f434f4c4c41544552414c5f44495341424c45440000000000000000604482015260640161080b565b6001600160a01b038088166000908152600360209081526040808320938a16835292905220600181015461294d5760405162461bcd60e51b815260206004820152601360248201527f555345525f4449445f4e4f545f424f52524f5700000000000000000000000000604482015260640161080b565b6000670de0b6b3a76400006706f05b59d3b2000083600101546129709190613ac7565b61297a9190613af4565b905086818111156129885750805b60006129948a83612678565b905060006129a38b838b613585565b905060006129b18a83613358565b90506129c86001600160a01b038d16333086612ce9565b86546040516370a0823160e01b81526001600160a01b038f811660048301528392610100900416906370a0823190602401602060405180830381865afa158015612a16573d6000803e3d6000fd5b505050506040513d601f19601f82011682018060405250810190612a3a9190613a98565b11612a875760405162461bcd60e51b815260206004820152601760248201527f494e53554646494349454e545f434f4c4c41544552414c000000000000000000604482015260640161080b565b8654604051632770a7eb60e21b81526001600160a01b038f811660048301526024820184905261010090920490911690639dc29fac90604401600060405180830381600087803b158015612ada57600080fd5b505af1158015612aee573d6000803e3d6000fd5b505088546040516340c10f1960e01b8152336004820152602481018590526101009091046001600160a01b031692506340c10f199150604401600060405180830381600087803b158015612b4157600080fd5b505af1158015612b55573d6000803e3d6000fd5b5050505082896002016000828254612b6d9190613b08565b9250508190555083896003016000828254612b889190613b08565b9250508190555083866001016000828254612ba39190613b08565b9091555050604080516001600160a01b038e811682528c81166020830152918101859052606081018690526080810184905260a081018390523360c0820152908e16907f602f496956f48338da240f5132098504dfefea6c18ee6d8bcb1879c137942ab39060e00160405180910390a250505050505050505050505050565b6001600160a01b038216600090815260026020526040812081612c4485611e08565b905060008260000160019054906101000a90046001600160a01b03166001600160a01b03166318160ddd6040518163ffffffff1660e01b8152600401602060405180830381865afa158015612c9d573d6000803e3d6000fd5b505050506040513d601f19601f82011682018060405250810190612cc19190613a98565b9050811580612cce575080155b15612cde578493505050506105b6565b816124fd8287613ac7565b6040516001600160a01b0380851660248301528316604482015260648101829052610c849085907f23b872dd0000000000000000000000000000000000000000000000000000000090608401612627565b6001600160a01b03821660009081526002602081905260408220908101541580612d6657506003810154155b15612d755760009150506105b6565b61094a816003015484612d889190613ac7565b826002015461350c565b6001600160a01b03821660009081526002602081905260408220908101541580612dbe57506003810154155b15612dcd5760009150506105b6565b60028101546003820154612de19085613ac7565b61094a9190613af4565b6001600160a01b038216600090815260026020526040812090815460ff166002811115612e1a57612e1a613985565b03612e5c5760405162461bcd60e51b8152602060048201526012602482015271494e56414c49445f504f4f4c5f535441544560701b604482015260640161080b565b3360009081526003602090815260408083206001600160a01b0387168452909152902060018101548390811115612e94575060018101545b6000612ea08683612678565b905080846002016000828254612eb69190613b08565b9250508190555081846003016000828254612ed19190613b08565b9250508190555081836001016000828254612eec9190613b08565b90915550612f0790506001600160a01b038716333084612ce9565b604080518381526020810183905233916001600160a01b038916917fe4a1ae657f49cb1fb1c7d3a94ae6093565c4c8c0e03de488f79c377c3c3a24e091015b60405180910390a3505050505050565b600554604080517fad5c464800000000000000000000000000000000000000000000000000000000815290516000926001600160a01b03169163ad5c46489160048083019260209291908290030181865afa158015612fb9573d6000803e3d6000fd5b505050506040513d601f19601f82011682018060405250810190612fdd9190613ce9565b6001600160a01b0316826001600160a01b031614613081576005546040517f81cc7e5c0000000000000000000000000000000000000000000000000000000081526001600160a01b038481166004830152909116906381cc7e5c90602401602060405180830381865afa158015613058573d6000803e3d6000fd5b505050506040513d601f19601f8201168201806040525081019061307c9190613a98565b6105b6565b670de0b6b3a764000092915050565b600080546001600160a01b0383811673ffffffffffffffffffffffffffffffffffffffff19831681178455604051919092169283917f8be0079c531659141344cd1fd0a4f28419497f9722a3daafe3b4186f6b6457e09190a35050565b6001600160a01b03828116600090815260026020526040808220805491516370a0823160e01b81523360048201529093610100909204909116906370a0823190602401602060405180830381865afa15801561314d573d6000803e3d6000fd5b505050506040513d601f19601f820116820180604052508101906131719190613a98565b90506000825460ff16600281111561318b5761318b613985565b036131cd5760405162461bcd60e51b8152602060048201526012602482015271494e56414c49445f504f4f4c5f535441544560701b604482015260640161080b565b82818111156131d95750805b60006131e58683612435565b8454604051632770a7eb60e21b81523360048201526024810185905291925061010090046001600160a01b031690639dc29fac90604401600060405180830381600087803b15801561323657600080fd5b505af115801561324a573d6000803e3d6000fd5b505060405163a9059cbb60e01b8152336004820152602481018490526001600160a01b038916925063a9059cbb91506044016020604051808303816000875af115801561329b573d6000803e3d6000fd5b505050506040513d601f19601f820116820180604052508101906132bf9190613d06565b506132c933610952565b6133155760405162461bcd60e51b815260206004820152601160248201527f4143434f554e545f554e4845414c544859000000000000000000000000000000604482015260640161080b565b604080518381526020810183905233916001600160a01b038916917ff341246adaac6f497bc2a656f546ab9e182111d630394f0c57c710a59a2cb5679101612f46565b6001600160a01b03821660009081526002602052604081208161337a85611e08565b905060008260000160019054906101000a90046001600160a01b03166001600160a01b03166318160ddd6040518163ffffffff1660e01b8152600401602060405180830381865afa1580156133d3573d6000803e3d6000fd5b505050506040513d601f19601f820116820180604052508101906133f79190613a98565b9050811580613404575080155b15613414578493505050506105b6565b6125076134218287613ac7565b8361350c565b600061347c826040518060400160405280602081526020017f5361666545524332303a206c6f772d6c6576656c2063616c6c206661696c6564815250856001600160a01b031661376f9092919063ffffffff16565b805190915015612673578080602001905181019061349a9190613d06565b6126735760405162461bcd60e51b815260206004820152602a60248201527f5361666545524332303a204552433230206f7065726174696f6e20646964206e60448201527f6f74207375636365656400000000000000000000000000000000000000000000606482015260840161080b565b600080821161355d5760405162461bcd60e51b815260206004820152601860248201527f64697669646572206d757374206d6f7265207468616e20300000000000000000604482015260640161080b565b60006135698385613af4565b90506135758385613d28565b15611e475761094a816001613b1b565b6005546000906001600160a01b03166135e05760405162461bcd60e51b815260206004820152601460248201527f494e56414c49445f50524943455f4f5241434c45000000000000000000000000604482015260640161080b565b60006135eb85612f56565b90506000811161363d5760405162461bcd60e51b815260206004820152601360248201527f494e56414c49445f544f4b454e5f505249434500000000000000000000000000604482015260640161080b565b600061364884612f56565b90506000811161369a5760405162461bcd60e51b815260206004820152601860248201527f494e56414c49445f434f4c4c41544552414c5f50524943450000000000000000604482015260640161080b565b6001600160a01b0380871660009081526002602090815260408083206001015481517fe98376da00000000000000000000000000000000000000000000000000000000815291519394169263e98376da926004808401939192918290030181865afa15801561370d573d6000803e3d6000fd5b505050506040513d601f19601f820116820180604052508101906137319190613a98565b905061374582670de0b6b3a7640000613ac7565b816137508886613ac7565b61375a9190613ac7565b6137649190613af4565b979650505050505050565b606061094a848460008585600080866001600160a01b031685876040516137969190613d3c565b60006040518083038185875af1925050503d80600081146137d3576040519150601f19603f3d011682016040523d82523d6000602084013e6137d8565b606091505b5091509150613764878383876060831561385357825160000361384c576001600160a01b0385163b61384c5760405162461bcd60e51b815260206004820152601d60248201527f416464726573733a2063616c6c20746f206e6f6e2d636f6e7472616374000000604482015260640161080b565b508161094a565b61094a83838151156138685781518083602001fd5b8060405162461bcd60e51b815260040161080b9190613d58565b6001600160a01b038116811461243257600080fd5b600080604083850312156138aa57600080fd5b82356138b581613882565b915060208301356138c581613882565b809150509250929050565b600080604083850312156138e357600080fd5b82356138ee81613882565b946020939093013593505050565b60006020828403121561390e57600080fd5b8135611e4781613882565b6000806000806080858703121561392f57600080fd5b843561393a81613882565b9350602085013561394a81613882565b925060408501359150606085013561396181613882565b939692955090935050565b60006020828403121561397e57600080fd5b5035919050565b634e487b7160e01b600052602160045260246000fd5b600381106139b957634e487b7160e01b600052602160045260246000fd5b9052565b60e081016139cb828a61399b565b6001600160a01b0397881660208301529590961660408701526060860193909352608085019190915260a084015260c090920191909152919050565b6101408101613a16828d61399b565b6001600160a01b039a8b1660208301529890991660408a01526060890196909652608088019490945260a087019290925260c086015260e085015261010084015261012090920191909152919050565b60008060408385031215613a7957600080fd5b8235613a8481613882565b91506020830135600381106138c557600080fd5b600060208284031215613aaa57600080fd5b5051919050565b634e487b7160e01b600052601160045260246000fd5b80820281158282048414176105b6576105b6613ab1565b634e487b7160e01b600052601260045260246000fd5b600082613b0357613b03613ade565b500490565b818103818111156105b6576105b6613ab1565b808201808211156105b6576105b6613ab1565b634e487b7160e01b600052603260045260246000fd5b600060018201613b5657613b56613ab1565b5060010190565b634e487b7160e01b600052604160045260246000fd5b60005b83811015613b8e578181015183820152602001613b76565b50506000910152565b600060208284031215613ba957600080fd5b815167ffffffffffffffff80821115613bc157600080fd5b818401915084601f830112613bd557600080fd5b815181811115613be757613be7613b5d565b604051601f8201601f19908116603f01168101908382118183101715613c0f57613c0f613b5d565b81604052828152876020848701011115613c2857600080fd5b613764836020830160208801613b73565b7f4173736574200000000000000000000000000000000000000000000000000000815260008251613c71816006850160208701613b73565b9190910160060192915050565b60008151808452613c96816020860160208601613b73565b601f01601f19169290920160200192915050565b606081526000613cbd6060830186613c7e565b8281036020840152613ccf8186613c7e565b9150506001600160a01b0383166040830152949350505050565b600060208284031215613cfb57600080fd5b8151611e4781613882565b600060208284031215613d1857600080fd5b81518015158114611e4757600080fd5b600082613d3757613d37613ade565b500690565b60008251613d4e818460208701613b73565b9190910192915050565b602081526000611e476020830184613c7e56fea264697066735822122046402f29fd1fa14900458d24521f64af04a1dd41b4ef63b4aaac7fa5fa5ffe2864736f6c63430008110033",
  "linkReferences": {},
  "deployedLinkReferences": {}
}