{
  "_format": "hh-sol-artifact-1",
  "contractName": "AssetPoolShareDeployer",
  "sourceName": "src/backend/contracts/AssetPoolShareDeployer.sol",
  "abi": [
    {
      "inputs": [
        {
          "internalType": "string",
          "name": "_name",
          "type": "string"
        },
        {
          "internalType": "string",
          "name": "_symbol",
          "type": "string"
        },
        {
          "internalType": "contract ERC20",
          "name": "_underlyingAsset",
          "type": "address"
        }
      ],
      "name": "createAssetPoolShare",
      "outputs": [
        {
          "internalType": "contract AssetPoolShare",
          "name": "",
          "type": "address"
        }
      ],
      "stateMutability": "nonpayable",
      "type": "function"
    }
  ],
  "bytecode": "0x608060405234801561001057600080fd5b50611615806100206000396000f3fe608060405234801561001057600080fd5b506004361061002b5760003560e01c8063564cdcb114610030575b600080fd5b61004361003e3660046101fd565b61006c565b60405173ffffffffffffffffffffffffffffffffffffffff909116815260200160405180910390f35b6000808484338560405161007f90610134565b61008c94939291906102d4565b604051809103906000f0801580156100a8573d6000803e3d6000fd5b506040517ff2fde38b00000000000000000000000000000000000000000000000000000000815233600482015290915073ffffffffffffffffffffffffffffffffffffffff82169063f2fde38b90602401600060405180830381600087803b15801561011357600080fd5b505af1158015610127573d6000803e3d6000fd5b5092979650505050505050565b6112b48061032c83390190565b7f4e487b7100000000000000000000000000000000000000000000000000000000600052604160045260246000fd5b600082601f83011261018157600080fd5b813567ffffffffffffffff8082111561019c5761019c610141565b604051601f8301601f19908116603f011681019082821181831017156101c4576101c4610141565b816040528381528660208588010111156101dd57600080fd5b836020870160208301376000602085830101528094505050505092915050565b60008060006060848603121561021257600080fd5b833567ffffffffffffffff8082111561022a57600080fd5b61023687838801610170565b9450602086013591508082111561024c57600080fd5b5061025986828701610170565b925050604084013573ffffffffffffffffffffffffffffffffffffffff8116811461028357600080fd5b809150509250925092565b6000815180845260005b818110156102b457602081850181015186830182015201610298565b506000602082860101526020601f19601f83011685010191505092915050565b6080815260006102e7608083018761028e565b82810360208401526102f9818761028e565b91505073ffffffffffffffffffffffffffffffffffffffff80851660408401528084166060840152509594505050505056fe60806040523480156200001157600080fd5b50604051620012b4380380620012b48339810160408190526200003491620001d9565b83836003620000448382620002fc565b506004620000538282620002fc565b505050620000706200006a620000a560201b60201c565b620000a9565b600680546001600160a01b039384166001600160a01b0319918216179091556007805492909316911617905550620003c89050565b3390565b600580546001600160a01b038381166001600160a01b0319831681179093556040519116919082907f8be0079c531659141344cd1fd0a4f28419497f9722a3daafe3b4186f6b6457e090600090a35050565b634e487b7160e01b600052604160045260246000fd5b600082601f8301126200012357600080fd5b81516001600160401b0380821115620001405762000140620000fb565b604051601f8301601f19908116603f011681019082821181831017156200016b576200016b620000fb565b816040528381526020925086838588010111156200018857600080fd5b600091505b83821015620001ac57858201830151818301840152908201906200018d565b600093810190920192909252949350505050565b6001600160a01b0381168114620001d657600080fd5b50565b60008060008060808587031215620001f057600080fd5b84516001600160401b03808211156200020857600080fd5b620002168883890162000111565b955060208701519150808211156200022d57600080fd5b506200023c8782880162000111565b93505060408501516200024f81620001c0565b60608601519092506200026281620001c0565b939692955090935050565b600181811c908216806200028257607f821691505b602082108103620002a357634e487b7160e01b600052602260045260246000fd5b50919050565b601f821115620002f757600081815260208120601f850160051c81016020861015620002d25750805b601f850160051c820191505b81811015620002f357828155600101620002de565b5050505b505050565b81516001600160401b03811115620003185762000318620000fb565b62000330816200032984546200026d565b84620002a9565b602080601f8311600181146200036857600084156200034f5750858301515b600019600386901b1c1916600185901b178555620002f3565b600085815260208120601f198616915b82811015620003995788860151825594840194600190910190840162000378565b5085821015620003b85787850151600019600388901b60f8161c191681555b5050505050600190811b01905550565b610edc80620003d86000396000f3fe608060405234801561001057600080fd5b506004361061011b5760003560e01c8063715018a6116100b25780639dc29fac11610081578063a9059cbb11610066578063a9059cbb14610258578063dd62ed3e1461026b578063f2fde38b146102a457600080fd5b80639dc29fac14610232578063a457c2d71461024557600080fd5b8063715018a6146101e65780637158da7c146101ee5780638da5cb5b1461021957806395d89b411461022a57600080fd5b8063313ce567116100ee578063313ce56714610186578063395093511461019557806340c10f19146101a857806370a08231146101bd57600080fd5b806306fdde0314610120578063095ea7b31461013e57806318160ddd1461016157806323b872dd14610173575b600080fd5b6101286102b7565b6040516101359190610d04565b60405180910390f35b61015161014c366004610d6e565b610349565b6040519015158152602001610135565b6002545b604051908152602001610135565b610151610181366004610d98565b610363565b60405160128152602001610135565b6101516101a3366004610d6e565b610387565b6101bb6101b6366004610d6e565b6103c6565b005b6101656101cb366004610dd4565b6001600160a01b031660009081526020819052604090205490565b6101bb6103dc565b600754610201906001600160a01b031681565b6040516001600160a01b039091168152602001610135565b6005546001600160a01b0316610201565b6101286103f0565b6101bb610240366004610d6e565b6103ff565b610151610253366004610d6e565b610411565b610151610266366004610d6e565b6104c0565b610165610279366004610df6565b6001600160a01b03918216600090815260016020908152604080832093909416825291909152205490565b6101bb6102b2366004610dd4565b6104ce565b6060600380546102c690610e29565b80601f01602080910402602001604051908101604052809291908181526020018280546102f290610e29565b801561033f5780601f106103145761010080835404028352916020019161033f565b820191906000526020600020905b81548152906001019060200180831161032257829003601f168201915b5050505050905090565b60003361035781858561055e565b60019150505b92915050565b6000336103718582856106b6565b61037c858585610748565b506001949350505050565b3360008181526001602090815260408083206001600160a01b038716845290915281205490919061035790829086906103c1908790610e63565b61055e565b6103ce61082b565b6103d88282610885565b5050565b6103e461082b565b6103ee6000610944565b565b6060600480546102c690610e29565b61040761082b565b6103d882826109ae565b3360008181526001602090815260408083206001600160a01b0387168452909152812054909190838110156104b35760405162461bcd60e51b815260206004820152602560248201527f45524332303a2064656372656173656420616c6c6f77616e63652062656c6f7760448201527f207a65726f00000000000000000000000000000000000000000000000000000060648201526084015b60405180910390fd5b61037c828686840361055e565b600033610357818585610748565b6104d661082b565b6001600160a01b0381166105525760405162461bcd60e51b815260206004820152602660248201527f4f776e61626c653a206e6577206f776e657220697320746865207a65726f206160448201527f646472657373000000000000000000000000000000000000000000000000000060648201526084016104aa565b61055b81610944565b50565b6001600160a01b0383166105d95760405162461bcd60e51b8152602060048201526024808201527f45524332303a20617070726f76652066726f6d20746865207a65726f2061646460448201527f726573730000000000000000000000000000000000000000000000000000000060648201526084016104aa565b6001600160a01b0382166106555760405162461bcd60e51b815260206004820152602260248201527f45524332303a20617070726f766520746f20746865207a65726f20616464726560448201527f737300000000000000000000000000000000000000000000000000000000000060648201526084016104aa565b6001600160a01b0383811660008181526001602090815260408083209487168084529482529182902085905590518481527f8c5be1e5ebec7d5bd14f71427d1e84f3dd0314c0f7b2291e5b200ac8c7c3b925910160405180910390a3505050565b6001600160a01b03838116600090815260016020908152604080832093861683529290522054600019811461074257818110156107355760405162461bcd60e51b815260206004820152601d60248201527f45524332303a20696e73756666696369656e7420616c6c6f77616e636500000060448201526064016104aa565b610742848484840361055e565b50505050565b610753838383610b17565b6006546040517f364818620000000000000000000000000000000000000000000000000000000081526001600160a01b03858116600483015290911690633648186290602401602060405180830381865afa1580156107b6573d6000803e3d6000fd5b505050506040513d601f19601f820116820180604052508101906107da9190610e84565b6108265760405162461bcd60e51b815260206004820152601460248201527f5452414e534645525f4e4f545f414c4c4f57454400000000000000000000000060448201526064016104aa565b505050565b6005546001600160a01b031633146103ee5760405162461bcd60e51b815260206004820181905260248201527f4f776e61626c653a2063616c6c6572206973206e6f7420746865206f776e657260448201526064016104aa565b6001600160a01b0382166108db5760405162461bcd60e51b815260206004820152601f60248201527f45524332303a206d696e7420746f20746865207a65726f20616464726573730060448201526064016104aa565b80600260008282546108ed9190610e63565b90915550506001600160a01b038216600081815260208181526040808320805486019055518481527fddf252ad1be2c89b69c2b068fc378daa952ba7f163c4a11628f55a4df523b3ef910160405180910390a35050565b600580546001600160a01b038381167fffffffffffffffffffffffff0000000000000000000000000000000000000000831681179093556040519116919082907f8be0079c531659141344cd1fd0a4f28419497f9722a3daafe3b4186f6b6457e090600090a35050565b6001600160a01b038216610a2a5760405162461bcd60e51b815260206004820152602160248201527f45524332303a206275726e2066726f6d20746865207a65726f2061646472657360448201527f730000000000000000000000000000000000000000000000000000000000000060648201526084016104aa565b6001600160a01b03821660009081526020819052604090205481811015610ab95760405162461bcd60e51b815260206004820152602260248201527f45524332303a206275726e20616d6f756e7420657863656564732062616c616e60448201527f636500000000000000000000000000000000000000000000000000000000000060648201526084016104aa565b6001600160a01b0383166000818152602081815260408083208686039055600280548790039055518581529192917fddf252ad1be2c89b69c2b068fc378daa952ba7f163c4a11628f55a4df523b3ef910160405180910390a3505050565b6001600160a01b038316610b935760405162461bcd60e51b815260206004820152602560248201527f45524332303a207472616e736665722066726f6d20746865207a65726f20616460448201527f647265737300000000000000000000000000000000000000000000000000000060648201526084016104aa565b6001600160a01b038216610c0f5760405162461bcd60e51b815260206004820152602360248201527f45524332303a207472616e7366657220746f20746865207a65726f206164647260448201527f657373000000000000000000000000000000000000000000000000000000000060648201526084016104aa565b6001600160a01b03831660009081526020819052604090205481811015610c9e5760405162461bcd60e51b815260206004820152602660248201527f45524332303a207472616e7366657220616d6f756e742065786365656473206260448201527f616c616e6365000000000000000000000000000000000000000000000000000060648201526084016104aa565b6001600160a01b03848116600081815260208181526040808320878703905593871680835291849020805487019055925185815290927fddf252ad1be2c89b69c2b068fc378daa952ba7f163c4a11628f55a4df523b3ef910160405180910390a3610742565b600060208083528351808285015260005b81811015610d3157858101830151858201604001528201610d15565b506000604082860101526040601f19601f8301168501019250505092915050565b80356001600160a01b0381168114610d6957600080fd5b919050565b60008060408385031215610d8157600080fd5b610d8a83610d52565b946020939093013593505050565b600080600060608486031215610dad57600080fd5b610db684610d52565b9250610dc460208501610d52565b9150604084013590509250925092565b600060208284031215610de657600080fd5b610def82610d52565b9392505050565b60008060408385031215610e0957600080fd5b610e1283610d52565b9150610e2060208401610d52565b90509250929050565b600181811c90821680610e3d57607f821691505b602082108103610e5d57634e487b7160e01b600052602260045260246000fd5b50919050565b8082018082111561035d57634e487b7160e01b600052601160045260246000fd5b600060208284031215610e9657600080fd5b81518015158114610def57600080fdfea26469706673582212204dd95d532655752f986168efa8ff4115c47c11a66437817f5492c39853d1442464736f6c63430008110033a2646970667358221220eed42b06bf7e9dc95be1bc9d828043b9ab979cb2c0cff2d1bb40b6c064c7c7fb64736f6c63430008110033",
  "linkReferences": {},
  "deployedLinkReferences": {}
}