{
  "_format": "hh-sol-artifact-1",
  "contractName": "AssetPool",
  "sourceName": "src/backend/contracts/AssetPool.sol",
  "abi": [
    {
      "inputs": [
        {
          "internalType": "contract AssetPoolShareDeployer",
          "name": "_shareDeployer",
          "type": "address"
        },
        {
          "internalType": "contract PriceOracle",
          "name": "_priceOracle",
          "type": "address"
        }
      ],
      "stateMutability": "nonpayable",
      "type": "constructor"
    },
    {
      "anonymous": false,
      "inputs": [
        {
          "indexed": true,
          "internalType": "address",
          "name": "pool",
          "type": "address"
        },
        {
          "indexed": true,
          "internalType": "address",
          "name": "user",
          "type": "address"
        },
        {
          "indexed": false,
          "internalType": "uint256",
          "name": "borrowShares",
          "type": "uint256"
        },
        {
          "indexed": false,
          "internalType": "uint256",
          "name": "borrowAmount",
          "type": "uint256"
        }
      ],
      "name": "Borrow",
      "type": "event"
    },
    {
      "anonymous": false,
      "inputs": [
        {
          "indexed": true,
          "internalType": "address",
          "name": "pool",
          "type": "address"
        },
        {
          "indexed": true,
          "internalType": "address",
          "name": "user",
          "type": "address"
        },
        {
          "indexed": false,
          "internalType": "uint256",
          "name": "depositShares",
          "type": "uint256"
        },
        {
          "indexed": false,
          "internalType": "uint256",
          "name": "depositAmount",
          "type": "uint256"
        }
      ],
      "name": "Deposit",
      "type": "event"
    },
    {
      "anonymous": false,
      "inputs": [
        {
          "indexed": true,
          "internalType": "address",
          "name": "user",
          "type": "address"
        },
        {
          "indexed": false,
          "internalType": "address",
          "name": "pool",
          "type": "address"
        },
        {
          "indexed": false,
          "internalType": "address",
          "name": "collateral",
          "type": "address"
        },
        {
          "indexed": false,
          "internalType": "uint256",
          "name": "liquidateAmount",
          "type": "uint256"
        },
        {
          "indexed": false,
          "internalType": "uint256",
          "name": "liquidateShares",
          "type": "uint256"
        },
        {
          "indexed": false,
          "internalType": "uint256",
          "name": "collateralAmount",
          "type": "uint256"
        },
        {
          "indexed": false,
          "internalType": "uint256",
          "name": "collateralShares",
          "type": "uint256"
        },
        {
          "indexed": false,
          "internalType": "address",
          "name": "liquidator",
          "type": "address"
        }
      ],
      "name": "Liquidate",
      "type": "event"
    },
    {
      "anonymous": false,
      "inputs": [
        {
          "indexed": true,
          "internalType": "address",
          "name": "previousOwner",
          "type": "address"
        },
        {
          "indexed": true,
          "internalType": "address",
          "name": "newOwner",
          "type": "address"
        }
      ],
      "name": "OwnershipTransferred",
      "type": "event"
    },
    {
      "anonymous": false,
      "inputs": [
        {
          "indexed": true,
          "internalType": "address",
          "name": "token",
          "type": "address"
        },
        {
          "indexed": false,
          "internalType": "address",
          "name": "poolConfigAddress",
          "type": "address"
        }
      ],
      "name": "PoolConfigUpdated",
      "type": "event"
    },
    {
      "anonymous": false,
      "inputs": [
        {
          "indexed": true,
          "internalType": "address",
          "name": "token",
          "type": "address"
        },
        {
          "indexed": true,
          "internalType": "address",
          "name": "shareAddress",
          "type": "address"
        },
        {
          "indexed": true,
          "internalType": "address",
          "name": "poolConfigAddress",
          "type": "address"
        }
      ],
      "name": "PoolInitialized",
      "type": "event"
    },
    {
      "anonymous": false,
      "inputs": [
        {
          "indexed": true,
          "internalType": "address",
          "name": "token",
          "type": "address"
        },
        {
          "indexed": false,
          "internalType": "uint256",
          "name": "cumulativeBorrowInterestRate",
          "type": "uint256"
        },
        {
          "indexed": false,
          "internalType": "uint256",
          "name": "totalBorrows",
          "type": "uint256"
        }
      ],
      "name": "PoolInterestUpdated",
      "type": "event"
    },
    {
      "anonymous": false,
      "inputs": [
        {
          "indexed": true,
          "internalType": "address",
          "name": "pool",
          "type": "address"
        },
        {
          "indexed": true,
          "internalType": "address",
          "name": "user",
          "type": "address"
        },
        {
          "indexed": false,
          "internalType": "uint256",
          "name": "repayShares",
          "type": "uint256"
        },
        {
          "indexed": false,
          "internalType": "uint256",
          "name": "repayAmount",
          "type": "uint256"
        }
      ],
      "name": "Repay",
      "type": "event"
    },
    {
      "anonymous": false,
      "inputs": [
        {
          "indexed": true,
          "internalType": "address",
          "name": "pool",
          "type": "address"
        },
        {
          "indexed": true,
          "internalType": "address",
          "name": "user",
          "type": "address"
        },
        {
          "indexed": false,
          "internalType": "uint256",
          "name": "withdrawShares",
          "type": "uint256"
        },
        {
          "indexed": false,
          "internalType": "uint256",
          "name": "withdrawAmount",
          "type": "uint256"
        }
      ],
      "name": "Withdraw",
      "type": "event"
    },
    {
      "inputs": [],
      "name": "CLOSE_FACTOR",
      "outputs": [
        {
          "internalType": "uint256",
          "name": "",
          "type": "uint256"
        }
      ],
      "stateMutability": "view",
      "type": "function"
    },
    {
      "inputs": [
        {
          "internalType": "contract ERC20",
          "name": "_token",
          "type": "address"
        },
        {
          "internalType": "uint256",
          "name": "_amount",
          "type": "uint256"
        }
      ],
      "name": "borrow",
      "outputs": [],
      "stateMutability": "nonpayable",
      "type": "function"
    },
    {
      "inputs": [
        {
          "internalType": "contract ERC20",
          "name": "_token",
          "type": "address"
        },
        {
          "internalType": "uint256",
          "name": "_amount",
          "type": "uint256"
        }
      ],
      "name": "deposit",
      "outputs": [],
      "stateMutability": "nonpayable",
      "type": "function"
    },
    {
      "inputs": [
        {
          "internalType": "contract ERC20",
          "name": "_token",
          "type": "address"
        }
      ],
      "name": "getAvailableLiquidity",
      "outputs": [
        {
          "internalType": "uint256",
          "name": "",
          "type": "uint256"
        }
      ],
      "stateMutability": "view",
      "type": "function"
    },
    {
      "inputs": [
        {
          "internalType": "contract ERC20",
          "name": "_token",
          "type": "address"
        }
      ],
      "name": "getPool",
      "outputs": [
        {
          "internalType": "enum AssetPool.PoolStatus",
          "name": "status",
          "type": "uint8"
        },
        {
          "internalType": "address",
          "name": "shareToken",
          "type": "address"
        },
        {
          "internalType": "address",
          "name": "poolConfig",
          "type": "address"
        },
        {
          "internalType": "uint256",
          "name": "totalBorrows",
          "type": "uint256"
        },
        {
          "internalType": "uint256",
          "name": "totalBorrowShares",
          "type": "uint256"
        },
        {
          "internalType": "uint256",
          "name": "totalLiquidity",
          "type": "uint256"
        },
        {
          "internalType": "uint256",
          "name": "availableLiquidity",
          "type": "uint256"
        },
        {
          "internalType": "uint256",
          "name": "lastUpdateTimestamp",
          "type": "uint256"
        },
        {
          "internalType": "uint256",
          "name": "borrowRate",
          "type": "uint256"
        },
        {
          "internalType": "uint256",
          "name": "lendingRate",
          "type": "uint256"
        }
      ],
      "stateMutability": "view",
      "type": "function"
    },
    {
      "inputs": [
        {
          "internalType": "contract ERC20",
          "name": "_token",
          "type": "address"
        }
      ],
      "name": "getTotalLiquidity",
      "outputs": [
        {
          "internalType": "uint256",
          "name": "",
          "type": "uint256"
        }
      ],
      "stateMutability": "view",
      "type": "function"
    },
    {
      "inputs": [
        {
          "internalType": "address",
          "name": "_user",
          "type": "address"
        },
        {
          "internalType": "contract ERC20",
          "name": "_token",
          "type": "address"
        }
      ],
      "name": "getUserCompoundedBorrowBalance",
      "outputs": [
        {
          "internalType": "uint256",
          "name": "",
          "type": "uint256"
        }
      ],
      "stateMutability": "view",
      "type": "function"
    },
    {
      "inputs": [
        {
          "internalType": "address",
          "name": "_user",
          "type": "address"
        },
        {
          "internalType": "contract ERC20",
          "name": "_token",
          "type": "address"
        }
      ],
      "name": "getUserCompoundedLiquidityBalance",
      "outputs": [
        {
          "internalType": "uint256",
          "name": "",
          "type": "uint256"
        }
      ],
      "stateMutability": "view",
      "type": "function"
    },
    {
      "inputs": [
        {
          "internalType": "address",
          "name": "_user",
          "type": "address"
        }
      ],
      "name": "getUserInfo",
      "outputs": [
        {
          "internalType": "uint256",
          "name": "totalLiquidityValue",
          "type": "uint256"
        },
        {
          "internalType": "uint256",
          "name": "totalCollateralValue",
          "type": "uint256"
        },
        {
          "internalType": "uint256",
          "name": "totalBorrowedValue",
          "type": "uint256"
        }
      ],
      "stateMutability": "view",
      "type": "function"
    },
    {
      "inputs": [
        {
          "internalType": "address",
          "name": "_user",
          "type": "address"
        },
        {
          "internalType": "contract ERC20",
          "name": "_token",
          "type": "address"
        }
      ],
      "name": "getUserPoolData",
      "outputs": [
        {
          "internalType": "uint256",
          "name": "compoundedLiquidityBalance",
          "type": "uint256"
        },
        {
          "internalType": "uint256",
          "name": "compoundedBorrowBalance",
          "type": "uint256"
        },
        {
          "internalType": "bool",
          "name": "usePoolAsCollateral",
          "type": "bool"
        }
      ],
      "stateMutability": "view",
      "type": "function"
    },
    {
      "inputs": [
        {
          "internalType": "contract ERC20",
          "name": "_token",
          "type": "address"
        },
        {
          "internalType": "contract PoolConfiguration",
          "name": "_poolConfig",
          "type": "address"
        }
      ],
      "name": "initPool",
      "outputs": [],
      "stateMutability": "nonpayable",
      "type": "function"
    },
    {
      "inputs": [
        {
          "internalType": "address",
          "name": "_user",
          "type": "address"
        }
      ],
      "name": "isAccountHealthy",
      "outputs": [
        {
          "internalType": "bool",
          "name": "",
          "type": "bool"
        }
      ],
      "stateMutability": "view",
      "type": "function"
    },
    {
      "inputs": [
        {
          "internalType": "address",
          "name": "_user",
          "type": "address"
        },
        {
          "internalType": "contract ERC20",
          "name": "_token",
          "type": "address"
        },
        {
          "internalType": "uint256",
          "name": "_shares",
          "type": "uint256"
        },
        {
          "internalType": "contract ERC20",
          "name": "_collateral",
          "type": "address"
        }
      ],
      "name": "liquidate",
      "outputs": [],
      "stateMutability": "nonpayable",
      "type": "function"
    },
    {
      "inputs": [],
      "name": "owner",
      "outputs": [
        {
          "internalType": "address",
          "name": "",
          "type": "address"
        }
      ],
      "stateMutability": "view",
      "type": "function"
    },
    {
      "inputs": [
        {
          "internalType": "address",
          "name": "",
          "type": "address"
        }
      ],
      "name": "pools",
      "outputs": [
        {
          "internalType": "enum AssetPool.PoolStatus",
          "name": "status",
          "type": "uint8"
        },
        {
          "internalType": "contract AssetPoolShare",
          "name": "shareToken",
          "type": "address"
        },
        {
          "internalType": "contract PoolConfiguration",
          "name": "poolConfig",
          "type": "address"
        },
        {
          "internalType": "uint256",
          "name": "totalBorrows",
          "type": "uint256"
        },
        {
          "internalType": "uint256",
          "name": "totalBorrowShares",
          "type": "uint256"
        },
        {
          "internalType": "uint256",
          "name": "poolReserves",
          "type": "uint256"
        },
        {
          "internalType": "uint256",
          "name": "lastUpdateTimestamp",
          "type": "uint256"
        }
      ],
      "stateMutability": "view",
      "type": "function"
    },
    {
      "inputs": [],
      "name": "renounceOwnership",
      "outputs": [],
      "stateMutability": "nonpayable",
      "type": "function"
    },
    {
      "inputs": [
        {
          "internalType": "contract ERC20",
          "name": "_token",
          "type": "address"
        },
        {
          "internalType": "uint256",
          "name": "_amount",
          "type": "uint256"
        }
      ],
      "name": "repayByAmount",
      "outputs": [],
      "stateMutability": "nonpayable",
      "type": "function"
    },
    {
      "inputs": [
        {
          "internalType": "contract ERC20",
          "name": "_token",
          "type": "address"
        },
        {
          "internalType": "uint256",
          "name": "_share",
          "type": "uint256"
        }
      ],
      "name": "repayByShare",
      "outputs": [],
      "stateMutability": "nonpayable",
      "type": "function"
    },
    {
      "inputs": [],
      "name": "reserveRate",
      "outputs": [
        {
          "internalType": "uint256",
          "name": "",
          "type": "uint256"
        }
      ],
      "stateMutability": "view",
      "type": "function"
    },
    {
      "inputs": [
        {
          "internalType": "contract ERC20",
          "name": "_token",
          "type": "address"
        },
        {
          "internalType": "enum AssetPool.PoolStatus",
          "name": "_status",
          "type": "uint8"
        }
      ],
      "name": "setPoolStatus",
      "outputs": [],
      "stateMutability": "nonpayable",
      "type": "function"
    },
    {
      "inputs": [
        {
          "internalType": "contract PriceOracle",
          "name": "_priceOracle",
          "type": "address"
        }
      ],
      "name": "setPriceOracle",
      "outputs": [],
      "stateMutability": "nonpayable",
      "type": "function"
    },
    {
      "inputs": [
        {
          "internalType": "uint256",
          "name": "_reserveRate",
          "type": "uint256"
        }
      ],
      "name": "setReserveRate",
      "outputs": [],
      "stateMutability": "nonpayable",
      "type": "function"
    },
    {
      "inputs": [],
      "name": "shareDeployer",
      "outputs": [
        {
          "internalType": "contract AssetPoolShareDeployer",
          "name": "",
          "type": "address"
        }
      ],
      "stateMutability": "view",
      "type": "function"
    },
    {
      "inputs": [
        {
          "internalType": "uint256",
          "name": "",
          "type": "uint256"
        }
      ],
      "name": "tokenList",
      "outputs": [
        {
          "internalType": "contract ERC20",
          "name": "",
          "type": "address"
        }
      ],
      "stateMutability": "view",
      "type": "function"
    },
    {
      "inputs": [
        {
          "internalType": "address",
          "name": "newOwner",
          "type": "address"
        }
      ],
      "name": "transferOwnership",
      "outputs": [],
      "stateMutability": "nonpayable",
      "type": "function"
    },
    {
      "inputs": [
        {
          "internalType": "contract ERC20",
          "name": "_token",
          "type": "address"
        },
        {
          "internalType": "contract PoolConfiguration",
          "name": "_poolConfig",
          "type": "address"
        }
      ],
      "name": "updatePool",
      "outputs": [],
      "stateMutability": "nonpayable",
      "type": "function"
    },
    {
      "inputs": [
        {
          "internalType": "address",
          "name": "",
          "type": "address"
        },
        {
          "internalType": "address",
          "name": "",
          "type": "address"
        }
      ],
      "name": "userPoolData",
      "outputs": [
        {
          "internalType": "bool",
          "name": "disableAsCollateral",
          "type": "bool"
        },
        {
          "internalType": "uint256",
          "name": "borrowShares",
          "type": "uint256"
        }
      ],
      "stateMutability": "view",
      "type": "function"
    },
    {
      "inputs": [
        {
          "internalType": "contract ERC20",
          "name": "_token",
          "type": "address"
        },
        {
          "internalType": "uint256",
          "name": "_amount",
          "type": "uint256"
        }
      ],
      "name": "withdrawByAmount",
      "outputs": [],
      "stateMutability": "nonpayable",
      "type": "function"
    },
    {
      "inputs": [
        {
          "internalType": "contract ERC20",
          "name": "_token",
          "type": "address"
        },
        {
          "internalType": "uint256",
          "name": "_share",
          "type": "uint256"
        }
      ],
      "name": "withdrawByShare",
      "outputs": [],
      "stateMutability": "nonpayable",
      "type": "function"
    },
    {
      "inputs": [
        {
          "internalType": "contract ERC20",
          "name": "_token",
          "type": "address"
        },
        {
          "internalType": "uint256",
          "name": "_amount",
          "type": "uint256"
        }
      ],
      "name": "withdrawReserve",
      "outputs": [],
      "stateMutability": "nonpayable",
      "type": "function"
    }
  ],
  "bytecode": "0x608060405266b1a2bc2ec500006007553480156200001c57600080fd5b5060405162003edf38038062003edf8339810160408190526200003f91620000e9565b6200004a3362000080565b60018055600680546001600160a01b039384166001600160a01b0319918216179091556005805492909316911617905562000128565b600080546001600160a01b038381166001600160a01b0319831681178455604051919092169283917f8be0079c531659141344cd1fd0a4f28419497f9722a3daafe3b4186f6b6457e09190a35050565b6001600160a01b0381168114620000e657600080fd5b50565b60008060408385031215620000fd57600080fd5b82516200010a81620000d0565b60208401519092506200011d81620000d0565b809150509250929050565b613da780620001386000396000f3fe608060405234801561001057600080fd5b50600436106101da5760003560e01c80636386c1c711610104578063a4063dbc116100a2578063c520b56311610071578063c520b56314610494578063e526e4ab146104a7578063e5700388146104ba578063f2fde38b1461050957600080fd5b8063a4063dbc146103db578063a4bae00814610445578063bbe4f6db14610458578063c2ec0dca1461048157600080fd5b80638da5cb5b116100de5780638da5cb5b146103915780638fbe0f10146103a25780639de8ef79146103b55780639ead7222146103c857600080fd5b80636386c1c714610348578063715018a61461037657806380e1ed821461037e57600080fd5b806347e7ef241161017c57806351723e301161014b57806351723e30146102ee578063530e784f1461031957806358d7bf801461032c5780635dd34bc61461033557600080fd5b806347e7ef2414610289578063491db4a21461029c5780634b8a3529146102cc5780634dab4dc0146102df57600080fd5b80632f02d91f116101b85780632f02d91f1461022d57806336481862146102405780633de2f6b2146102635780633f395c021461027657600080fd5b8063181428ae146101df5780631c58ce1414610205578063266e2bd81461021a575b600080fd5b6101f26101ed36600461389d565b61051c565b6040519081526020015b60405180910390f35b6102186102133660046138d6565b6105bc565b005b6101f2610228366004613902565b6108aa565b6101f261023b36600461389d565b610915565b61025361024e366004613902565b610952565b60405190151581526020016101fc565b61021861027136600461391f565b61096b565b61021861028436600461389d565b610c8a565b6102186102973660046138d6565b611095565b6102af6102aa36600461389d565b6113b9565b6040805193845260208401929092521515908201526060016101fc565b6102186102da3660046138d6565b61140c565b6101f26706f05b59d3b2000081565b600654610301906001600160a01b031681565b6040516001600160a01b0390911681526020016101fc565b610218610327366004613902565b6117a3565b6101f260075481565b6102186103433660046138d6565b6117da565b61035b610356366004613902565b611982565b604080519384526020840192909252908201526060016101fc565b610218611b79565b61021861038c36600461389d565b611b8d565b6000546001600160a01b0316610301565b6102186103b03660046138d6565b611c6f565b6101f26103c3366004613902565b611e08565b6103016103d6366004613972565b611e4e565b6104326103e9366004613902565b600260208190526000918252604090912080546001820154928201546003830154600484015460059094015460ff8416956001600160a01b036101009095048516959416939087565b6040516101fc97969594939291906139c3565b6102186104533660046138d6565b611e78565b61046b610466366004613902565b612003565b6040516101fc9a99989796959493929190613a0d565b61021861048f366004613a6c565b612166565b6102186104a23660046138d6565b612206565b6102186104b5366004613972565b61239f565b6104f26104c836600461389d565b60036020908152600092835260408084209091529082529020805460019091015460ff9091169082565b6040805192151583526020830191909152016101fc565b610218610517366004613902565b6123ac565b6001600160a01b03818116600090815260026020526040808220805491516370a0823160e01b815286851660048201529293909284926101009004909116906370a0823190602401602060405180830381865afa158015610581573d6000803e3d6000fd5b505050506040513d601f19601f820116820180604052508101906105a59190613a9e565b90506105b1848261243c565b925050505b92915050565b6105c4612518565b6001600160a01b0380831660009081526002602081905260408220600181015491810154869491939290911690631a7929449061060086611e08565b6040516001600160e01b031960e085901b16815260048101929092526024820152604401602060405180830381865afa158015610641573d6000803e3d6000fd5b505050506040513d601f19601f820116820180604052508101906106659190613a9e565b9050600061067882846005015442612571565b6002840154909150670de0b6b3a76400006106938284613acd565b61069d9190613afa565b60028501819055600754670de0b6b3a7640000916106bc908490613b0e565b6106c69190613acd565b6106d09190613afa565b8460040160008282546106e39190613b21565b909155505042600585015560028401546040516001600160a01b038716917f4459cec4806e5d45ce1ebf79e0c92583bc5f7567c93ee849aaeded68aa2c7b209161073591868252602082015260400190565b60405180910390a26107456125a8565b6001600160a01b03871660008181526002602052604080822090516370a0823160e01b81523060048201529092906370a0823190602401602060405180830381865afa158015610799573d6000803e3d6000fd5b505050506040513d601f19601f820116820180604052508101906107bd9190613a9e565b9050808811156108145760405162461bcd60e51b815260206004820152601460248201527f494e53554646494349454e545f42414c414e434500000000000000000000000060448201526064015b60405180910390fd5b81600401548811156108685760405162461bcd60e51b815260206004820152601a60248201527f494e53554646494349454e545f504f4f4c5f5245534552564553000000000000604482015260640161080b565b61087c6001600160a01b038a16338a612602565b878260040160008282546108909190613b0e565b909155505060018055506108a695505050505050565b5050565b6040516370a0823160e01b81523060048201526000906001600160a01b038316906370a0823190602401602060405180830381865afa1580156108f1573d6000803e3d6000fd5b505050506040513d601f19601f820116820180604052508101906105b69190613a9e565b6001600160a01b03808316600090815260036020908152604080832093851683529290529081206001015461094a838261267f565b949350505050565b600080600061096084611982565b111595945050505050565b610973612518565b6001600160a01b0380841660009081526002602081905260408220600181015491810154879491939290911690631a792944906109af86611e08565b6040516001600160e01b031960e085901b16815260048101929092526024820152604401602060405180830381865afa1580156109f0573d6000803e3d6000fd5b505050506040513d601f19601f82011682018060405250810190610a149190613a9e565b90506000610a2782846005015442612571565b6002840154909150670de0b6b3a7640000610a428284613acd565b610a4c9190613afa565b60028501819055600754670de0b6b3a764000091610a6b908490613b0e565b610a759190613acd565b610a7f9190613afa565b846004016000828254610a929190613b21565b909155505042600585015560028401546040516001600160a01b038716917f4459cec4806e5d45ce1ebf79e0c92583bc5f7567c93ee849aaeded68aa2c7b2091610ae491868252602082015260400190565b60405180910390a26001600160a01b03808716600090815260026020819052604082206001810154918101548a9491939290911690631a79294490610b2886611e08565b6040516001600160e01b031960e085901b16815260048101929092526024820152604401602060405180830381865afa158015610b69573d6000803e3d6000fd5b505050506040513d601f19601f82011682018060405250810190610b8d9190613a9e565b90506000610ba082846005015442612571565b6002840154909150670de0b6b3a7640000610bbb8284613acd565b610bc59190613afa565b60028501819055600754670de0b6b3a764000091610be4908490613b0e565b610bee9190613acd565b610bf89190613afa565b846004016000828254610c0b9190613b21565b909155505042600585015560028401546040516001600160a01b038716917f4459cec4806e5d45ce1ebf79e0c92583bc5f7567c93ee849aaeded68aa2c7b2091610c5d91868252602082015260400190565b60405180910390a2610c718e8e8e8e6126d6565b50505050505050505050610c8460018055565b50505050565b610c926125a8565b60005b600454811015610d3057826001600160a01b031660048281548110610cbc57610cbc613b34565b6000918252602090912001546001600160a01b031603610d1e5760405162461bcd60e51b815260206004820152600a60248201527f504f4f4c5f455849535400000000000000000000000000000000000000000000604482015260640161080b565b80610d2881613b4a565b915050610c95565b506000826001600160a01b03166395d89b416040518163ffffffff1660e01b8152600401600060405180830381865afa158015610d71573d6000803e3d6000fd5b505050506040513d6000823e601f3d908101601f19168201604052610d999190810190613b9d565b604051602001610da99190613c3f565b60405160208183030381529060405290506000836001600160a01b03166306fdde036040518163ffffffff1660e01b8152600401600060405180830381865afa158015610dfa573d6000803e3d6000fd5b505050506040513d6000823e601f3d908101601f19168201604052610e229190810190613b9d565b604051602001610e329190613c3f565b60408051601f19818403018152908290526006547f564cdcb10000000000000000000000000000000000000000000000000000000083529092506000916001600160a01b039091169063564cdcb190610e9390859087908a90600401613cb0565b6020604051808303816000875af1158015610eb2573d6000803e3d6000fd5b505050506040513d601f19601f82011682018060405250810190610ed69190613cef565b905060006040518060e0016040528060006002811115610ef857610ef861398b565b8152602001836001600160a01b03168152602001866001600160a01b031681526020016000815260200160008152602001600081526020014281525090508060026000886001600160a01b03166001600160a01b0316815260200190815260200160002060008201518160000160006101000a81548160ff02191690836002811115610f8657610f8661398b565b0217905550602082015181546001600160a01b03918216610100027fffffffffffffffffffffff0000000000000000000000000000000000000000ff9091161782556040808401516001808501805492851673ffffffffffffffffffffffffffffffffffffffff19938416179055606086015160028601556080860151600386015560a086015160048087019190915560c0909601516005909501949094558454938401855560009485527f8a35acfbc15ff81a39ae7d344fd709f28e8600b4aa8c65c6b64bfe7fe36bd19b90930180548b8416941684179055518882169391861692917fb2684e1b8e116bbb42a14d7a6bc6afa19d85ff0a8666a6b424b79a738c661d8191a4505050505050565b61109d612518565b6001600160a01b0380831660009081526002602081905260408220600181015491810154869491939290911690631a792944906110d986611e08565b6040516001600160e01b031960e085901b16815260048101929092526024820152604401602060405180830381865afa15801561111a573d6000803e3d6000fd5b505050506040513d601f19601f8201168201806040525081019061113e9190613a9e565b9050600061115182846005015442612571565b6002840154909150670de0b6b3a764000061116c8284613acd565b6111769190613afa565b60028501819055600754670de0b6b3a764000091611195908490613b0e565b61119f9190613acd565b6111a99190613afa565b8460040160008282546111bc9190613b21565b909155505042600585015560028401546040516001600160a01b038716917f4459cec4806e5d45ce1ebf79e0c92583bc5f7567c93ee849aaeded68aa2c7b209161120e91868252602082015260400190565b60405180910390a2600086116112665760405162461bcd60e51b815260206004820152601660248201527f494e56414c49445f4445504f5349545f414d4f554e5400000000000000000000604482015260640161080b565b6001600160a01b03871660009081526002602052604090206001815460ff1660028111156112965761129661398b565b146112d85760405162461bcd60e51b8152602060048201526012602482015271494e56414c49445f504f4f4c5f535441544560701b604482015260640161080b565b60006112e48989612c29565b82546040516340c10f1960e01b81523360048201526024810183905291925061010090046001600160a01b0316906340c10f1990604401600060405180830381600087803b15801561133557600080fd5b505af1158015611349573d6000803e3d6000fd5b50611363925050506001600160a01b038a1633308b612cf0565b60408051828152602081018a905233916001600160a01b038c16917fdcbc1c05240f31ff3ad067ef1ee35ce4997762752e3a095284754544f4c709d7910160405180910390a3505050505050506108a660018055565b60008060006113c8858561051c565b92506113d48585610915565b6001600160a01b039586166000908152600360209081526040808320979098168252959095529490932054919460ff90921615925050565b611414612518565b6001600160a01b0380831660009081526002602081905260408220600181015491810154869491939290911690631a7929449061145086611e08565b6040516001600160e01b031960e085901b16815260048101929092526024820152604401602060405180830381865afa158015611491573d6000803e3d6000fd5b505050506040513d601f19601f820116820180604052508101906114b59190613a9e565b905060006114c882846005015442612571565b6002840154909150670de0b6b3a76400006114e38284613acd565b6114ed9190613afa565b60028501819055600754670de0b6b3a76400009161150c908490613b0e565b6115169190613acd565b6115209190613afa565b8460040160008282546115339190613b21565b909155505042600585015560028401546040516001600160a01b038716917f4459cec4806e5d45ce1ebf79e0c92583bc5f7567c93ee849aaeded68aa2c7b209161158591868252602082015260400190565b60405180910390a26001600160a01b03871660009081526002602052604090206001815460ff1660028111156115bd576115bd61398b565b146115ff5760405162461bcd60e51b8152602060048201526012602482015271494e56414c49445f504f4f4c5f535441544560701b604482015260640161080b565b6000871180156116175750611613886108aa565b8711155b6116635760405162461bcd60e51b815260206004820152601560248201527f494e56414c49445f424f52524f575f414d4f554e540000000000000000000000604482015260640161080b565b600061166f8989612d41565b9050878260020160008282546116859190613b21565b92505081905550808260030160008282546116a09190613b21565b90915550503360009081526003602090815260408083206001600160a01b038d1684529091528120600181018054919284926116dd908490613b21565b909155506116f790506001600160a01b038b16338b612602565b61170033610952565b61174c5760405162461bcd60e51b815260206004820152601160248201527f4143434f554e545f554e4845414c544859000000000000000000000000000000604482015260640161080b565b60408051838152602081018b905233916001600160a01b038d16917fc1561b330e73faa7d5d1ac03c968d8f359b0191ccdb9cc002cf7d8eb6ae038cb910160405180910390a350505050505050506108a660018055565b6117ab6125a8565b6005805473ffffffffffffffffffffffffffffffffffffffff19166001600160a01b0392909216919091179055565b6117e2612518565b6001600160a01b0380831660009081526002602081905260408220600181015491810154869491939290911690631a7929449061181e86611e08565b6040516001600160e01b031960e085901b16815260048101929092526024820152604401602060405180830381865afa15801561185f573d6000803e3d6000fd5b505050506040513d601f19601f820116820180604052508101906118839190613a9e565b9050600061189682846005015442612571565b6002840154909150670de0b6b3a76400006118b18284613acd565b6118bb9190613afa565b60028501819055600754670de0b6b3a7640000916118da908490613b0e565b6118e49190613acd565b6118ee9190613afa565b8460040160008282546119019190613b21565b909155505042600585015560028401546040516001600160a01b038716917f4459cec4806e5d45ce1ebf79e0c92583bc5f7567c93ee849aaeded68aa2c7b209161195391868252602082015260400190565b60405180910390a260006119678888612d98565b90506119738882612df1565b5050505050506108a660018055565b60008080805b600454811015611b71576000600482815481106119a7576119a7613b34565b60009182526020808320909101546001600160a01b03168083526002909152604082209092509080806119da8a866113b9565b9250925092508260001415806119ef57508115155b15611b5957600184015460408051631629af8760e21b815290516000926001600160a01b0316916358a6be1c9160048083019260209291908290030181865afa158015611a40573d6000803e3d6000fd5b505050506040513d601f19601f82011682018060405250810190611a649190613a9e565b90506000611a7187612f5c565b905060008111611ac35760405162461bcd60e51b815260206004820152600d60248201527f494e56414c49445f505249434500000000000000000000000000000000000000604482015260640161080b565b6000670de0b6b3a7640000611ad88784613acd565b611ae29190613afa565b9050611aee818d613b21565b9b50600083118015611afd5750835b15611b2c57670de0b6b3a7640000611b158483613acd565b611b1f9190613afa565b611b29908c613b21565b9a505b670de0b6b3a7640000611b3f8684613acd565b611b499190613afa565b611b53908b613b21565b99505050505b50505050508080611b6990613b4a565b915050611988565b509193909250565b611b816125a8565b611b8b6000613096565b565b611b956125a8565b6001600160a01b0380831660009081526002602052604090208054909161010090910416611c055760405162461bcd60e51b815260206004820152600e60248201527f504f4f4c5f4e4f545f4558495354000000000000000000000000000000000000604482015260640161080b565b60018101805473ffffffffffffffffffffffffffffffffffffffff19166001600160a01b03848116918217909255604051908152908416907fed7692d7eac8e25ca74b0bcb7b52fe51d01a8910e8e320c6f3223365708d76de9060200160405180910390a2505050565b611c77612518565b6001600160a01b0380831660009081526002602081905260408220600181015491810154869491939290911690631a79294490611cb386611e08565b6040516001600160e01b031960e085901b16815260048101929092526024820152604401602060405180830381865afa158015611cf4573d6000803e3d6000fd5b505050506040513d601f19601f82011682018060405250810190611d189190613a9e565b90506000611d2b82846005015442612571565b6002840154909150670de0b6b3a7640000611d468284613acd565b611d509190613afa565b60028501819055600754670de0b6b3a764000091611d6f908490613b0e565b611d799190613acd565b611d839190613afa565b846004016000828254611d969190613b21565b909155505042600585015560028401546040516001600160a01b038716917f4459cec4806e5d45ce1ebf79e0c92583bc5f7567c93ee849aaeded68aa2c7b2091611de891868252602082015260400190565b60405180910390a2611dfa87876130f3565b50505050506108a660018055565b6001600160a01b03811660009081526002602052604081206004810154611e2e846108aa565b8260020154611e3d9190613b21565b611e479190613b0e565b9392505050565b60048181548110611e5e57600080fd5b6000918252602090912001546001600160a01b0316905081565b611e80612518565b6001600160a01b0380831660009081526002602081905260408220600181015491810154869491939290911690631a79294490611ebc86611e08565b6040516001600160e01b031960e085901b16815260048101929092526024820152604401602060405180830381865afa158015611efd573d6000803e3d6000fd5b505050506040513d601f19601f82011682018060405250810190611f219190613a9e565b90506000611f3482846005015442612571565b6002840154909150670de0b6b3a7640000611f4f8284613acd565b611f599190613afa565b60028501819055600754670de0b6b3a764000091611f78908490613b0e565b611f829190613acd565b611f8c9190613afa565b846004016000828254611f9f9190613b21565b909155505042600585015560028401546040516001600160a01b038716917f4459cec4806e5d45ce1ebf79e0c92583bc5f7567c93ee849aaeded68aa2c7b2091611ff191868252602082015260400190565b60405180910390a2611dfa8787612df1565b6001600160a01b038082166000908152600260208190526040822080546001820154928201546003830154949561010090920482169493909116929091859081908190819081906120538c611e08565b955061205e8c6108aa565b6005820154825460018401546040517f1a792944000000000000000000000000000000000000000000000000000000008152600481018d9052602481018b905260ff9092169e509297509095506001600160a01b0390911690631a79294490604401602060405180830381865afa1580156120dd573d6000803e3d6000fd5b505050506040513d601f19601f820116820180604052508101906121019190613a9e565b925085156121535761211b86670de0b6b3a7640000613acd565b60075461213090670de0b6b3a7640000613b0e565b61213a8a86613acd565b6121449190613acd565b61214e9190613afa565b612156565b60005b9150509193959799509193959799565b61216e6125a8565b6001600160a01b03808316600090815260026020526040902080549091610100909104166121de5760405162461bcd60e51b815260206004820152600e60248201527f504f4f4c5f4e4f545f4558495354000000000000000000000000000000000000604482015260640161080b565b80548290829060ff191660018360028111156121fc576121fc61398b565b0217905550505050565b61220e612518565b6001600160a01b0380831660009081526002602081905260408220600181015491810154869491939290911690631a7929449061224a86611e08565b6040516001600160e01b031960e085901b16815260048101929092526024820152604401602060405180830381865afa15801561228b573d6000803e3d6000fd5b505050506040513d601f19601f820116820180604052508101906122af9190613a9e565b905060006122c282846005015442612571565b6002840154909150670de0b6b3a76400006122dd8284613acd565b6122e79190613afa565b60028501819055600754670de0b6b3a764000091612306908490613b0e565b6123109190613acd565b61231a9190613afa565b84600401600082825461232d9190613b21565b909155505042600585015560028401546040516001600160a01b038716917f4459cec4806e5d45ce1ebf79e0c92583bc5f7567c93ee849aaeded68aa2c7b209161237f91868252602082015260400190565b60405180910390a26000612393888861335e565b905061197388826130f3565b6123a76125a8565b600755565b6123b46125a8565b6001600160a01b0381166124305760405162461bcd60e51b815260206004820152602660248201527f4f776e61626c653a206e6577206f776e657220697320746865207a65726f206160448201527f6464726573730000000000000000000000000000000000000000000000000000606482015260840161080b565b61243981613096565b50565b6001600160a01b03821660009081526002602052604081208161245e85611e08565b905060008260000160019054906101000a90046001600160a01b03166001600160a01b03166318160ddd6040518163ffffffff1660e01b8152600401602060405180830381865afa1580156124b7573d6000803e3d6000fd5b505050506040513d601f19601f820116820180604052508101906124db9190613a9e565b90508115806124e8575080155b156124f957600093505050506105b6565b806125048387613acd565b61250e9190613afa565b9695505050505050565b60026001540361256a5760405162461bcd60e51b815260206004820152601f60248201527f5265656e7472616e637947756172643a207265656e7472616e742063616c6c00604482015260640161080b565b6002600155565b60006301e133806125828484613b0e565b61258c9086613acd565b6125969190613afa565b61094a90670de0b6b3a7640000613b21565b6000546001600160a01b03163314611b8b5760405162461bcd60e51b815260206004820181905260248201527f4f776e61626c653a2063616c6c6572206973206e6f7420746865206f776e6572604482015260640161080b565b6040516001600160a01b03831660248201526044810182905261267a90849063a9059cbb60e01b906064015b60408051601f198184030181529190526020810180517bffffffffffffffffffffffffffffffffffffffffffffffffffffffff166001600160e01b03199093169290921790915261342d565b505050565b6001600160a01b038216600090815260026020819052604082209081015415806126ab57506003810154155b156126b957829150506105b6565b61094a8160020154846126cc9190613acd565b8260030154613512565b6126df84610952565b1561272c5760405162461bcd60e51b815260206004820152601160248201527f4143434f554e545f49535f4845414c5448000000000000000000000000000000604482015260640161080b565b6001600160a01b038316600090815260026020526040812090815460ff16600281111561275b5761275b61398b565b0361279d5760405162461bcd60e51b8152602060048201526012602482015271494e56414c49445f504f4f4c5f535441544560701b604482015260640161080b565b6001600160a01b038086166000908152600360209081526040808320938616835292905220805460ff16156128145760405162461bcd60e51b815260206004820152601360248201527f434f4c4c41544552414c5f44495341424c454400000000000000000000000000604482015260640161080b565b6001600160a01b03808416600090815260026020908152604080832060018101548251631629af8760e21b81529251919516926358a6be1c92600480820193918290030181865afa15801561286d573d6000803e3d6000fd5b505050506040513d601f19601f820116820180604052508101906128919190613a9e565b116128de5760405162461bcd60e51b815260206004820152601860248201527f504f4f4c5f434f4c4c41544552414c5f44495341424c45440000000000000000604482015260640161080b565b6001600160a01b038088166000908152600360209081526040808320938a1683529290522060018101546129545760405162461bcd60e51b815260206004820152601360248201527f555345525f4449445f4e4f545f424f52524f5700000000000000000000000000604482015260640161080b565b6000670de0b6b3a76400006706f05b59d3b2000083600101546129779190613acd565b6129819190613afa565b9050868181111561298f5750805b600061299b8a8361267f565b905060006129aa8b838b61358b565b905060006129b88a8361335e565b90506129cf6001600160a01b038d16333086612cf0565b86546040516370a0823160e01b81526001600160a01b038f811660048301528392610100900416906370a0823190602401602060405180830381865afa158015612a1d573d6000803e3d6000fd5b505050506040513d601f19601f82011682018060405250810190612a419190613a9e565b11612a8e5760405162461bcd60e51b815260206004820152601760248201527f494e53554646494349454e545f434f4c4c41544552414c000000000000000000604482015260640161080b565b8654604051632770a7eb60e21b81526001600160a01b038f811660048301526024820184905261010090920490911690639dc29fac90604401600060405180830381600087803b158015612ae157600080fd5b505af1158015612af5573d6000803e3d6000fd5b505088546040516340c10f1960e01b8152336004820152602481018590526101009091046001600160a01b031692506340c10f199150604401600060405180830381600087803b158015612b4857600080fd5b505af1158015612b5c573d6000803e3d6000fd5b5050505082896002016000828254612b749190613b0e565b9250508190555083896003016000828254612b8f9190613b0e565b9250508190555083866001016000828254612baa9190613b0e565b9091555050604080516001600160a01b038e811682528c81166020830152918101859052606081018690526080810184905260a081018390523360c0820152908e16907f602f496956f48338da240f5132098504dfefea6c18ee6d8bcb1879c137942ab39060e00160405180910390a250505050505050505050505050565b6001600160a01b038216600090815260026020526040812081612c4b85611e08565b905060008260000160019054906101000a90046001600160a01b03166001600160a01b03166318160ddd6040518163ffffffff1660e01b8152600401602060405180830381865afa158015612ca4573d6000803e3d6000fd5b505050506040513d601f19601f82011682018060405250810190612cc89190613a9e565b9050811580612cd5575080155b15612ce5578493505050506105b6565b816125048287613acd565b6040516001600160a01b0380851660248301528316604482015260648101829052610c849085907f23b872dd000000000000000000000000000000000000000000000000000000009060840161262e565b6001600160a01b03821660009081526002602081905260408220908101541580612d6d57506003810154155b15612d7b57829150506105b6565b61094a816003015484612d8e9190613acd565b8260020154613512565b6001600160a01b03821660009081526002602081905260408220908101541580612dc457506003810154155b15612dd35760009150506105b6565b60028101546003820154612de79085613acd565b61094a9190613afa565b6001600160a01b038216600090815260026020526040812090815460ff166002811115612e2057612e2061398b565b03612e625760405162461bcd60e51b8152602060048201526012602482015271494e56414c49445f504f4f4c5f535441544560701b604482015260640161080b565b3360009081526003602090815260408083206001600160a01b0387168452909152902060018101548390811115612e9a575060018101545b6000612ea6868361267f565b905080846002016000828254612ebc9190613b0e565b9250508190555081846003016000828254612ed79190613b0e565b9250508190555081836001016000828254612ef29190613b0e565b90915550612f0d90506001600160a01b038716333084612cf0565b604080518381526020810183905233916001600160a01b038916917fe4a1ae657f49cb1fb1c7d3a94ae6093565c4c8c0e03de488f79c377c3c3a24e091015b60405180910390a3505050505050565b600554604080517fad5c464800000000000000000000000000000000000000000000000000000000815290516000926001600160a01b03169163ad5c46489160048083019260209291908290030181865afa158015612fbf573d6000803e3d6000fd5b505050506040513d601f19601f82011682018060405250810190612fe39190613cef565b6001600160a01b0316826001600160a01b031614613087576005546040517f81cc7e5c0000000000000000000000000000000000000000000000000000000081526001600160a01b038481166004830152909116906381cc7e5c90602401602060405180830381865afa15801561305e573d6000803e3d6000fd5b505050506040513d601f19601f820116820180604052508101906130829190613a9e565b6105b6565b670de0b6b3a764000092915050565b600080546001600160a01b0383811673ffffffffffffffffffffffffffffffffffffffff19831681178455604051919092169283917f8be0079c531659141344cd1fd0a4f28419497f9722a3daafe3b4186f6b6457e09190a35050565b6001600160a01b03828116600090815260026020526040808220805491516370a0823160e01b81523360048201529093610100909204909116906370a0823190602401602060405180830381865afa158015613153573d6000803e3d6000fd5b505050506040513d601f19601f820116820180604052508101906131779190613a9e565b90506000825460ff1660028111156131915761319161398b565b036131d35760405162461bcd60e51b8152602060048201526012602482015271494e56414c49445f504f4f4c5f535441544560701b604482015260640161080b565b82818111156131df5750805b60006131eb868361243c565b8454604051632770a7eb60e21b81523360048201526024810185905291925061010090046001600160a01b031690639dc29fac90604401600060405180830381600087803b15801561323c57600080fd5b505af1158015613250573d6000803e3d6000fd5b505060405163a9059cbb60e01b8152336004820152602481018490526001600160a01b038916925063a9059cbb91506044016020604051808303816000875af11580156132a1573d6000803e3d6000fd5b505050506040513d601f19601f820116820180604052508101906132c59190613d0c565b506132cf33610952565b61331b5760405162461bcd60e51b815260206004820152601160248201527f4143434f554e545f554e4845414c544859000000000000000000000000000000604482015260640161080b565b604080518381526020810183905233916001600160a01b038916917ff341246adaac6f497bc2a656f546ab9e182111d630394f0c57c710a59a2cb5679101612f4c565b6001600160a01b03821660009081526002602052604081208161338085611e08565b905060008260000160019054906101000a90046001600160a01b03166001600160a01b03166318160ddd6040518163ffffffff1660e01b8152600401602060405180830381865afa1580156133d9573d6000803e3d6000fd5b505050506040513d601f19601f820116820180604052508101906133fd9190613a9e565b905081158061340a575080155b1561341a578493505050506105b6565b61250e6134278287613acd565b83613512565b6000613482826040518060400160405280602081526020017f5361666545524332303a206c6f772d6c6576656c2063616c6c206661696c6564815250856001600160a01b03166137759092919063ffffffff16565b80519091501561267a57808060200190518101906134a09190613d0c565b61267a5760405162461bcd60e51b815260206004820152602a60248201527f5361666545524332303a204552433230206f7065726174696f6e20646964206e60448201527f6f74207375636365656400000000000000000000000000000000000000000000606482015260840161080b565b60008082116135635760405162461bcd60e51b815260206004820152600f60248201527f444956494445445f42595f5a45524f0000000000000000000000000000000000604482015260640161080b565b600061356f8385613afa565b905061357b8385613d2e565b15611e475761094a816001613b21565b6005546000906001600160a01b03166135e65760405162461bcd60e51b815260206004820152601460248201527f494e56414c49445f50524943455f4f5241434c45000000000000000000000000604482015260640161080b565b60006135f185612f5c565b9050600081116136435760405162461bcd60e51b815260206004820152601360248201527f494e56414c49445f544f4b454e5f505249434500000000000000000000000000604482015260640161080b565b600061364e84612f5c565b9050600081116136a05760405162461bcd60e51b815260206004820152601860248201527f494e56414c49445f434f4c4c41544552414c5f50524943450000000000000000604482015260640161080b565b6001600160a01b0380871660009081526002602090815260408083206001015481517fe98376da00000000000000000000000000000000000000000000000000000000815291519394169263e98376da926004808401939192918290030181865afa158015613713573d6000803e3d6000fd5b505050506040513d601f19601f820116820180604052508101906137379190613a9e565b905061374b82670de0b6b3a7640000613acd565b816137568886613acd565b6137609190613acd565b61376a9190613afa565b979650505050505050565b606061094a848460008585600080866001600160a01b0316858760405161379c9190613d42565b60006040518083038185875af1925050503d80600081146137d9576040519150601f19603f3d011682016040523d82523d6000602084013e6137de565b606091505b509150915061376a8783838760608315613859578251600003613852576001600160a01b0385163b6138525760405162461bcd60e51b815260206004820152601d60248201527f416464726573733a2063616c6c20746f206e6f6e2d636f6e7472616374000000604482015260640161080b565b508161094a565b61094a838381511561386e5781518083602001fd5b8060405162461bcd60e51b815260040161080b9190613d5e565b6001600160a01b038116811461243957600080fd5b600080604083850312156138b057600080fd5b82356138bb81613888565b915060208301356138cb81613888565b809150509250929050565b600080604083850312156138e957600080fd5b82356138f481613888565b946020939093013593505050565b60006020828403121561391457600080fd5b8135611e4781613888565b6000806000806080858703121561393557600080fd5b843561394081613888565b9350602085013561395081613888565b925060408501359150606085013561396781613888565b939692955090935050565b60006020828403121561398457600080fd5b5035919050565b634e487b7160e01b600052602160045260246000fd5b600381106139bf57634e487b7160e01b600052602160045260246000fd5b9052565b60e081016139d1828a6139a1565b6001600160a01b0397881660208301529590961660408701526060860193909352608085019190915260a084015260c090920191909152919050565b6101408101613a1c828d6139a1565b6001600160a01b039a8b1660208301529890991660408a01526060890196909652608088019490945260a087019290925260c086015260e085015261010084015261012090920191909152919050565b60008060408385031215613a7f57600080fd5b8235613a8a81613888565b91506020830135600381106138cb57600080fd5b600060208284031215613ab057600080fd5b5051919050565b634e487b7160e01b600052601160045260246000fd5b80820281158282048414176105b6576105b6613ab7565b634e487b7160e01b600052601260045260246000fd5b600082613b0957613b09613ae4565b500490565b818103818111156105b6576105b6613ab7565b808201808211156105b6576105b6613ab7565b634e487b7160e01b600052603260045260246000fd5b600060018201613b5c57613b5c613ab7565b5060010190565b634e487b7160e01b600052604160045260246000fd5b60005b83811015613b94578181015183820152602001613b7c565b50506000910152565b600060208284031215613baf57600080fd5b815167ffffffffffffffff80821115613bc757600080fd5b818401915084601f830112613bdb57600080fd5b815181811115613bed57613bed613b63565b604051601f8201601f19908116603f01168101908382118183101715613c1557613c15613b63565b81604052828152876020848701011115613c2e57600080fd5b61376a836020830160208801613b79565b7f4173736574200000000000000000000000000000000000000000000000000000815260008251613c77816006850160208701613b79565b9190910160060192915050565b60008151808452613c9c816020860160208601613b79565b601f01601f19169290920160200192915050565b606081526000613cc36060830186613c84565b8281036020840152613cd58186613c84565b9150506001600160a01b0383166040830152949350505050565b600060208284031215613d0157600080fd5b8151611e4781613888565b600060208284031215613d1e57600080fd5b81518015158114611e4757600080fd5b600082613d3d57613d3d613ae4565b500690565b60008251613d54818460208701613b79565b9190910192915050565b602081526000611e476020830184613c8456fea26469706673582212206adb32936b0eed1ac9c8da0933ea4834a9a38091611762d77bda37ca20d7d9e564736f6c63430008110033",
  "linkReferences": {},
  "deployedLinkReferences": {}
}