{
  "_format": "hh-sol-artifact-1",
  "contractName": "PairFactory",
  "sourceName": "src/backend/contracts/PairFactory.sol",
  "abi": [
    {
      "inputs": [],
      "stateMutability": "nonpayable",
      "type": "constructor"
    },
    {
      "anonymous": false,
      "inputs": [
        {
          "indexed": true,
          "internalType": "address",
          "name": "previousOwner",
          "type": "address"
        },
        {
          "indexed": true,
          "internalType": "address",
          "name": "newOwner",
          "type": "address"
        }
      ],
      "name": "OwnershipTransferred",
      "type": "event"
    },
    {
      "anonymous": false,
      "inputs": [
        {
          "indexed": true,
          "internalType": "address",
          "name": "tokenA",
          "type": "address"
        },
        {
          "indexed": true,
          "internalType": "address",
          "name": "tokenB",
          "type": "address"
        },
        {
          "indexed": false,
          "internalType": "address",
          "name": "pair",
          "type": "address"
        },
        {
          "indexed": false,
          "internalType": "uint256",
          "name": "",
          "type": "uint256"
        }
      ],
      "name": "PairCreated",
      "type": "event"
    },
    {
      "inputs": [],
      "name": "INIT_CODE_PAIR_HASH",
      "outputs": [
        {
          "internalType": "bytes32",
          "name": "",
          "type": "bytes32"
        }
      ],
      "stateMutability": "view",
      "type": "function"
    },
    {
      "inputs": [
        {
          "internalType": "uint256",
          "name": "",
          "type": "uint256"
        }
      ],
      "name": "allPairs",
      "outputs": [
        {
          "internalType": "address",
          "name": "",
          "type": "address"
        }
      ],
      "stateMutability": "view",
      "type": "function"
    },
    {
      "inputs": [],
      "name": "allPairsLength",
      "outputs": [
        {
          "internalType": "uint256",
          "name": "",
          "type": "uint256"
        }
      ],
      "stateMutability": "view",
      "type": "function"
    },
    {
      "inputs": [
        {
          "internalType": "address",
          "name": "tokenA",
          "type": "address"
        },
        {
          "internalType": "address",
          "name": "tokenB",
          "type": "address"
        }
      ],
      "name": "createPair",
      "outputs": [
        {
          "internalType": "address",
          "name": "pair",
          "type": "address"
        }
      ],
      "stateMutability": "nonpayable",
      "type": "function"
    },
    {
      "inputs": [
        {
          "internalType": "address",
          "name": "",
          "type": "address"
        },
        {
          "internalType": "address",
          "name": "",
          "type": "address"
        }
      ],
      "name": "getPair",
      "outputs": [
        {
          "internalType": "address",
          "name": "",
          "type": "address"
        }
      ],
      "stateMutability": "view",
      "type": "function"
    },
    {
      "inputs": [],
      "name": "owner",
      "outputs": [
        {
          "internalType": "address",
          "name": "",
          "type": "address"
        }
      ],
      "stateMutability": "view",
      "type": "function"
    },
    {
      "inputs": [
        {
          "internalType": "address",
          "name": "tokenA",
          "type": "address"
        },
        {
          "internalType": "address",
          "name": "tokenB",
          "type": "address"
        }
      ],
      "name": "pairFor",
      "outputs": [
        {
          "internalType": "address",
          "name": "pair",
          "type": "address"
        }
      ],
      "stateMutability": "view",
      "type": "function"
    },
    {
      "inputs": [],
      "name": "renounceOwnership",
      "outputs": [],
      "stateMutability": "nonpayable",
      "type": "function"
    },
    {
      "inputs": [],
      "name": "rewardTo",
      "outputs": [
        {
          "internalType": "address",
          "name": "",
          "type": "address"
        }
      ],
      "stateMutability": "view",
      "type": "function"
    },
    {
      "inputs": [
        {
          "internalType": "address",
          "name": "_rewardTo",
          "type": "address"
        }
      ],
      "name": "setRewardTo",
      "outputs": [],
      "stateMutability": "nonpayable",
      "type": "function"
    },
    {
      "inputs": [
        {
          "internalType": "address",
          "name": "newOwner",
          "type": "address"
        }
      ],
      "name": "transferOwnership",
      "outputs": [],
      "stateMutability": "nonpayable",
      "type": "function"
    }
  ],
  "bytecode": "0x608060405234801561001057600080fd5b5061001a33610031565b600180546001600160a01b03191633179055610081565b600080546001600160a01b038381166001600160a01b0319831681178455604051919092169283917f8be0079c531659141344cd1fd0a4f28419497f9722a3daafe3b4186f6b6457e09190a35050565b612eef806100906000396000f3fe608060405234801561001057600080fd5b50600436106100c95760003560e01c8063812b83e911610081578063c9c653961161005b578063c9c653961461016c578063e6a439051461017f578063f2fde38b146101b357600080fd5b8063812b83e9146101355780638da5cb5b1461014857806396ed28f91461015957600080fd5b8063574f2ba3116100b2578063574f2ba3146101115780635855a25a14610123578063715018a61461012b57600080fd5b80631e3dd18b146100ce5780631fdfdeab146100fe575b600080fd5b6100e16100dc366004610855565b6101c6565b6040516001600160a01b0390911681526020015b60405180910390f35b6001546100e1906001600160a01b031681565b6003545b6040519081526020016100f5565b6101156101f0565b61013361023a565b005b61013361014336600461088a565b61024e565b6000546001600160a01b03166100e1565b6100e16101673660046108a5565b610285565b6100e161017a3660046108a5565b6102e1565b6100e161018d3660046108a5565b60026020908152600092835260408084209091529082529020546001600160a01b031681565b6101336101c136600461088a565b610542565b600381815481106101d657600080fd5b6000918252602090912001546001600160a01b0316905081565b6040516101ff60208201610848565b601f1982820381018352601f90910116604081905261022191906020016108d8565b6040516020818303038152906040528051906020012081565b6102426105d2565b61024c600061062c565b565b6102566105d2565b6001805473ffffffffffffffffffffffffffffffffffffffff19166001600160a01b0392909216919091179055565b60006102da3084846040518060200161029d90610848565b601f1982820381018352601f9091011660408190526102bf91906020016108d8565b60405160208183030381529060405280519060200120610689565b9392505050565b60008060006102f0858561075f565b6001600160a01b038083166000908152600260209081526040808320848616845290915290205492945090925016156103705760405162461bcd60e51b815260206004820152601360248201527f504149525f414c52454144595f4558495354530000000000000000000000000060448201526064015b60405180910390fd5b60006040518060200161038290610848565b601f1982820381018352601f9091011660408190526bffffffffffffffffffffffff19606086811b8216602084015285901b166034820152909150600090604801604051602081830303815290604052805190602001209050808251602084016000f56040517f485cc9550000000000000000000000000000000000000000000000000000000081526001600160a01b03868116600483015285811660248301529196509086169063485cc95590604401600060405180830381600087803b15801561044d57600080fd5b505af1158015610461573d6000803e3d6000fd5b505050506001600160a01b0384811660008181526002602081815260408084208987168086529083528185208054978d1673ffffffffffffffffffffffffffffffffffffffff1998891681179091559383528185208686528352818520805488168517905560038054600181018255958190527fc2575a0e9e593c00f959f8c92f12db2869c3395a3b0502d05e2516446f71f85b9095018054909716841790965592548351928352908201527f0d3648bd0f6ba80134a33ba9275ac585d9d315f0ad8355cddefde31afa28d0e9910160405180910390a35050505092915050565b61054a6105d2565b6001600160a01b0381166105c65760405162461bcd60e51b815260206004820152602660248201527f4f776e61626c653a206e6577206f776e657220697320746865207a65726f206160448201527f64647265737300000000000000000000000000000000000000000000000000006064820152608401610367565b6105cf8161062c565b50565b6000546001600160a01b0316331461024c5760405162461bcd60e51b815260206004820181905260248201527f4f776e61626c653a2063616c6c6572206973206e6f7420746865206f776e65726044820152606401610367565b600080546001600160a01b0383811673ffffffffffffffffffffffffffffffffffffffff19831681178455604051919092169283917f8be0079c531659141344cd1fd0a4f28419497f9722a3daafe3b4186f6b6457e09190a35050565b6000806000610698868661075f565b6040516bffffffffffffffffffffffff19606084811b8216602084015283901b16603482015291935091508790604801604051602081830303815290604052805190602001208560405160200161073c939291907fff00000000000000000000000000000000000000000000000000000000000000815260609390931b6bffffffffffffffffffffffff191660018401526015830191909152603582015260550190565b60408051601f198184030181529190528051602090910120979650505050505050565b600080826001600160a01b0316846001600160a01b0316036107c35760405162461bcd60e51b815260206004820152601f60248201527f4944454e544943414c5f4144445245535345535f4e4f545f414c4c4f574544006044820152606401610367565b826001600160a01b0316846001600160a01b0316106107e35782846107e6565b83835b90925090506001600160a01b0382166108415760405162461bcd60e51b815260206004820152601860248201527f5a45524f5f414444524553535f4e4f545f414c4c4f57454400000000000000006044820152606401610367565b9250929050565b6125b28061090883390190565b60006020828403121561086757600080fd5b5035919050565b80356001600160a01b038116811461088557600080fd5b919050565b60006020828403121561089c57600080fd5b6102da8261086e565b600080604083850312156108b857600080fd5b6108c18361086e565b91506108cf6020840161086e565b90509250929050565b6000825160005b818110156108f957602081860181015185830152016108df565b50600092019182525091905056fe60806040523480156200001157600080fd5b506040518060400160405280600e81526020016d2222ac102a37b5b2b7102830b4b960911b8152506040518060400160405280600681526020016504445582d54560d41b81525081600390816200006991906200013d565b5060046200007882826200013d565b5050600160055550600680546001600160a01b0319163317905562000209565b634e487b7160e01b600052604160045260246000fd5b600181811c90821680620000c357607f821691505b602082108103620000e457634e487b7160e01b600052602260045260246000fd5b50919050565b601f8211156200013857600081815260208120601f850160051c81016020861015620001135750805b601f850160051c820191505b8181101562000134578281556001016200011f565b5050505b505050565b81516001600160401b0381111562000159576200015962000098565b62000171816200016a8454620000ae565b84620000ea565b602080601f831160018114620001a95760008415620001905750858301515b600019600386901b1c1916600185901b17855562000134565b600085815260208120601f198616915b82811015620001da57888601518255948401946001909101908401620001b9565b5085821015620001f95787850151600019600388901b60f8161c191681555b5050505050600190811b01905550565b61239980620002196000396000f3fe608060405234801561001057600080fd5b50600436106101a35760003560e01c80636a627842116100ee578063a457c2d711610097578063bc25cf7711610071578063bc25cf7714610387578063c45a01551461039a578063dd62ed3e146103ad578063fff6cae9146103e657600080fd5b8063a457c2d714610358578063a9059cbb1461036b578063ba9a7a561461037e57600080fd5b80637464fc3d116100c85780637464fc3d1461031f57806389afcb441461032857806395d89b411461035057600080fd5b80636a627842146102d05780636d9a640a146102e357806370a08231146102f657600080fd5b8063313ce567116101505780635909c0d51161012a5780635909c0d5146102ab5780635a3d5493146102b45780635f64b55b146102bd57600080fd5b8063313ce567146102745780633950935114610283578063485cc9551461029657600080fd5b80630fc63d10116101815780630fc63d101461022457806318160ddd1461024f57806323b872dd1461026157600080fd5b806306fdde03146101a85780630902f1ac146101c6578063095ea7b314610201575b600080fd5b6101b06103ee565b6040516101bd9190612064565b60405180910390f35b600a54604080516001600160701b038084168252600160701b8404166020820152600160e01b90920463ffffffff16908201526060016101bd565b61021461020f3660046120ac565b610480565b60405190151581526020016101bd565b600754610237906001600160a01b031681565b6040516001600160a01b0390911681526020016101bd565b6002545b6040519081526020016101bd565b61021461026f3660046120d8565b61049a565b604051601281526020016101bd565b6102146102913660046120ac565b6104be565b6102a96102a4366004612119565b6104fd565b005b610253600b5481565b610253600c5481565b600854610237906001600160a01b031681565b6102536102de366004612152565b6105a2565b6102a96102f136600461216f565b610886565b610253610304366004612152565b6001600160a01b031660009081526020819052604090205490565b61025360095481565b61033b610336366004612152565b610d4b565b604080519283526020830191909152016101bd565b6101b06110bd565b6102146103663660046120ac565b6110cc565b6102146103793660046120ac565b611176565b6102536103e881565b6102a9610395366004612152565b611184565b600654610237906001600160a01b031681565b6102536103bb366004612119565b6001600160a01b03918216600090815260016020908152604080832093909416825291909152205490565b6102a961127d565b6060600380546103fd906121a8565b80601f0160208091040260200160405190810160405280929190818152602001828054610429906121a8565b80156104765780601f1061044b57610100808354040283529160200191610476565b820191906000526020600020905b81548152906001019060200180831161045957829003601f168201915b5050505050905090565b60003361048e818585611387565b60019150505b92915050565b6000336104a88582856114df565b6104b3858585611571565b506001949350505050565b3360008181526001602090815260408083206001600160a01b038716845290915281205490919061048e90829086906104f89087906121f8565b611387565b6006546001600160a01b0316331461055c5760405162461bcd60e51b815260206004820152600b60248201527f4e4f545f464143544f525900000000000000000000000000000000000000000060448201526064015b60405180910390fd5b600780546001600160a01b039384167fffffffffffffffffffffffff00000000000000000000000000000000000000009182161790915560088054929093169116179055565b60006105ac61175e565b6000806105dd600a546001600160701b0380821692600160701b83049091169163ffffffff600160e01b9091041690565b506007546040516370a0823160e01b81523060048201529294509092506000916001600160a01b03909116906370a0823190602401602060405180830381865afa15801561062f573d6000803e3d6000fd5b505050506040513d601f19601f82011682018060405250810190610653919061220b565b6008546040516370a0823160e01b81523060048201529192506000916001600160a01b03909116906370a0823190602401602060405180830381865afa1580156106a1573d6000803e3d6000fd5b505050506040513d601f19601f820116820180604052508101906106c5919061220b565b905060006106dc6001600160701b03861684612224565b905060006106f36001600160701b03861684612224565b90506000610713876001600160701b0316876001600160701b03166117b7565b9050600061072060025490565b90508060000361075e576103e861073f61073a8587612237565b6118df565b6107499190612224565b985061075961dead6103e86119ce565b6107a5565b6107a26001600160701b0389166107758387612237565b61077f9190612264565b6001600160701b0389166107938487612237565b61079d9190612264565b611a8d565b98505b600089116107f55760405162461bcd60e51b815260206004820152601d60248201527f494e53554646494349454e545f4c49515549444954595f4d494e5445440000006044820152606401610553565b6107ff8a8a6119ce565b61080b86868a8a611aa3565b811561083457600a54610830906001600160701b03600160701b820481169116612237565b6009555b604080518581526020810185905233917f4c209b5fc8ad50758f13e2e1088ba56a560dff690a1c6fef26394f4c03821c4f910160405180910390a250505050505050506108816001600555565b919050565b61088e61175e565b600083118061089d5750600082115b6108e95760405162461bcd60e51b815260206004820152601560248201527f494e56414c49445f4f55545055545f414d4f554e5400000000000000000000006044820152606401610553565b60008061091a600a546001600160701b0380821692600160701b83049091169163ffffffff600160e01b9091041690565b5091509150816001600160701b03168510801561093f5750806001600160701b031684105b61098b5760405162461bcd60e51b815260206004820152601460248201527f494e53554646494349454e545f524553455256450000000000000000000000006044820152606401610553565b6007546008546001600160a01b039182169190811690851682148015906109c45750806001600160a01b0316856001600160a01b031614155b610a105760405162461bcd60e51b815260206004820152601660248201527f494e56414c49445f4f55545055545f41444452455353000000000000000000006044820152606401610553565b8615610a2157610a21828689611cb1565b8515610a3257610a32818688611cb1565b6040516370a0823160e01b81523060048201526000906001600160a01b038416906370a0823190602401602060405180830381865afa158015610a79573d6000803e3d6000fd5b505050506040513d601f19601f82011682018060405250810190610a9d919061220b565b6040516370a0823160e01b81523060048201529091506000906001600160a01b038416906370a0823190602401602060405180830381865afa158015610ae7573d6000803e3d6000fd5b505050506040513d601f19601f82011682018060405250810190610b0b919061220b565b90506000610b228a6001600160701b038916612224565b8311610b2f576000610b4c565b610b428a6001600160701b038916612224565b610b4c9084612224565b90506000610b638a6001600160701b038916612224565b8311610b70576000610b8d565b610b838a6001600160701b038916612224565b610b8d9084612224565b90506000821180610b9e5750600081115b610bea5760405162461bcd60e51b815260206004820152601960248201527f494e53554646494349454e545f494e5055545f414d4f554e54000000000000006044820152606401610553565b6000610bf7836002612237565b610c03866103e8612237565b610c0d9190612224565b90506000610c1c836002612237565b610c28866103e8612237565b610c329190612224565b600a54909150610c54906001600160701b03600160701b820481169116612237565b610c6190620f4240612237565b610c6b8284612237565b1015610cb95760405162461bcd60e51b815260206004820152601660248201527f494e53554646494349454e545f4c4951554944495459000000000000000000006044820152606401610553565b5050600a54610cdf90859085906001600160701b0380821691600160701b900416611aa3565b60408051838152602081018390529081018c9052606081018b90526001600160a01b038a169033907fd78ad95fa46c994b6551d0da85fc275fe613ce37657fb8d5e3d130840159d8229060800160405180910390a35050505050505050610d466001600555565b505050565b600080610d5661175e565b600080610d87600a546001600160701b0380821692600160701b83049091169163ffffffff600160e01b9091041690565b506007546008546040516370a0823160e01b81523060048201529395509193506001600160a01b039081169291169060009083906370a0823190602401602060405180830381865afa158015610de1573d6000803e3d6000fd5b505050506040513d601f19601f82011682018060405250810190610e05919061220b565b6040516370a0823160e01b81523060048201529091506000906001600160a01b038416906370a0823190602401602060405180830381865afa158015610e4f573d6000803e3d6000fd5b505050506040513d601f19601f82011682018060405250810190610e73919061220b565b30600090815260208190526040812054919250610e9c6001600160701b03808a169089166117b7565b90506000610ea960025490565b905080610eb68685612237565b610ec09190612264565b9a5080610ecd8585612237565b610ed79190612264565b995060008b118015610ee9575060008a115b610f355760405162461bcd60e51b815260206004820152601e60248201527f494e53554646494349454e545f4255524e494e475f4c495155494449545900006044820152606401610553565b610f3f3084611e15565b610f4a878d8d611cb1565b610f55868d8c611cb1565b6040516370a0823160e01b81523060048201526001600160a01b038816906370a0823190602401602060405180830381865afa158015610f99573d6000803e3d6000fd5b505050506040513d601f19601f82011682018060405250810190610fbd919061220b565b6040516370a0823160e01b81523060048201529095506001600160a01b038716906370a0823190602401602060405180830381865afa158015611004573d6000803e3d6000fd5b505050506040513d601f19601f82011682018060405250810190611028919061220b565b935061103685858b8b611aa3565b811561105f57600a5461105b906001600160701b03600160701b820481169116612237565b6009555b604080518c8152602081018c90526001600160a01b038e169133917fdccd412f0b1252819cb1fd330b93224ca42612892bb3f4f789976e6d81936496910160405180910390a35050505050505050506110b86001600555565b915091565b6060600480546103fd906121a8565b3360008181526001602090815260408083206001600160a01b0387168452909152812054909190838110156111695760405162461bcd60e51b815260206004820152602560248201527f45524332303a2064656372656173656420616c6c6f77616e63652062656c6f7760448201527f207a65726f0000000000000000000000000000000000000000000000000000006064820152608401610553565b6104b38286868403611387565b60003361048e818585611571565b61118c61175e565b600754600854600a546040516370a0823160e01b81523060048201526001600160a01b03938416939092169161122691849186916001600160701b03169083906370a08231906024015b602060405180830381865afa1580156111f3573d6000803e3d6000fd5b505050506040513d601f19601f82011682018060405250810190611217919061220b565b6112219190612224565b611cb1565b600a546040516370a0823160e01b815230600482015261126e9183918691600160701b90046001600160701b0316906001600160a01b038416906370a08231906024016111d6565b505061127a6001600555565b50565b61128561175e565b6007546040516370a0823160e01b815230600482015261137b916001600160a01b0316906370a0823190602401602060405180830381865afa1580156112cf573d6000803e3d6000fd5b505050506040513d601f19601f820116820180604052508101906112f3919061220b565b6008546040516370a0823160e01b81523060048201526001600160a01b03909116906370a0823190602401602060405180830381865afa15801561133b573d6000803e3d6000fd5b505050506040513d601f19601f8201168201806040525081019061135f919061220b565b600a546001600160701b0380821691600160701b900416611aa3565b6113856001600555565b565b6001600160a01b0383166114025760405162461bcd60e51b8152602060048201526024808201527f45524332303a20617070726f76652066726f6d20746865207a65726f2061646460448201527f72657373000000000000000000000000000000000000000000000000000000006064820152608401610553565b6001600160a01b03821661147e5760405162461bcd60e51b815260206004820152602260248201527f45524332303a20617070726f766520746f20746865207a65726f20616464726560448201527f73730000000000000000000000000000000000000000000000000000000000006064820152608401610553565b6001600160a01b0383811660008181526001602090815260408083209487168084529482529182902085905590518481527f8c5be1e5ebec7d5bd14f71427d1e84f3dd0314c0f7b2291e5b200ac8c7c3b925910160405180910390a3505050565b6001600160a01b03838116600090815260016020908152604080832093861683529290522054600019811461156b578181101561155e5760405162461bcd60e51b815260206004820152601d60248201527f45524332303a20696e73756666696369656e7420616c6c6f77616e63650000006044820152606401610553565b61156b8484848403611387565b50505050565b6001600160a01b0383166115ed5760405162461bcd60e51b815260206004820152602560248201527f45524332303a207472616e736665722066726f6d20746865207a65726f20616460448201527f64726573730000000000000000000000000000000000000000000000000000006064820152608401610553565b6001600160a01b0382166116695760405162461bcd60e51b815260206004820152602360248201527f45524332303a207472616e7366657220746f20746865207a65726f206164647260448201527f65737300000000000000000000000000000000000000000000000000000000006064820152608401610553565b6001600160a01b038316600090815260208190526040902054818110156116f85760405162461bcd60e51b815260206004820152602660248201527f45524332303a207472616e7366657220616d6f756e742065786365656473206260448201527f616c616e636500000000000000000000000000000000000000000000000000006064820152608401610553565b6001600160a01b03848116600081815260208181526040808320878703905593871680835291849020805487019055925185815290927fddf252ad1be2c89b69c2b068fc378daa952ba7f163c4a11628f55a4df523b3ef910160405180910390a361156b565b6002600554036117b05760405162461bcd60e51b815260206004820152601f60248201527f5265656e7472616e637947756172643a207265656e7472616e742063616c6c006044820152606401610553565b6002600555565b600080600660009054906101000a90046001600160a01b03166001600160a01b0316631fdfdeab6040518163ffffffff1660e01b8152600401602060405180830381865afa15801561180d573d6000803e3d6000fd5b505050506040513d601f19601f820116820180604052508101906118319190612278565b6009546001600160a01b0382161580159450919250906118cb5780156118c657600061186061073a8688612237565b9050600061186d836118df565b9050808211156118c3576000611884836009612237565b61188e90836121f8565b6118988385612224565b6002546118a59190612237565b6118af9190612264565b905080156118c1576118c185826119ce565b505b50505b6118d7565b80156118d75760006009555b505092915050565b6000816000036118f157506000919050565b600060016118fe84611f7e565b901c6001901b905060018184816119175761191761224e565b048201901c9050600181848161192f5761192f61224e565b048201901c905060018184816119475761194761224e565b048201901c9050600181848161195f5761195f61224e565b048201901c905060018184816119775761197761224e565b048201901c9050600181848161198f5761198f61224e565b048201901c905060018184816119a7576119a761224e565b048201901c90506119c7818285816119c1576119c161224e565b04611a8d565b9392505050565b6001600160a01b038216611a245760405162461bcd60e51b815260206004820152601f60248201527f45524332303a206d696e7420746f20746865207a65726f2061646472657373006044820152606401610553565b8060026000828254611a3691906121f8565b90915550506001600160a01b038216600081815260208181526040808320805486019055518481527fddf252ad1be2c89b69c2b068fc378daa952ba7f163c4a11628f55a4df523b3ef910160405180910390a35050565b6000818310611a9c57816119c7565b5090919050565b6001600160701b038411801590611ac157506001600160701b038311155b611b0d5760405162461bcd60e51b815260206004820152600860248201527f4f564552464c4f570000000000000000000000000000000000000000000000006044820152606401610553565b6000611b1e64010000000042612295565b600a54909150600090611b3e90600160e01b900463ffffffff16836122a9565b905060008163ffffffff16118015611b5e57506001600160701b03841615155b8015611b7257506001600160701b03831615155b15611c01578063ffffffff16611b9a85611b8b86612012565b6001600160e01b03169061202b565b6001600160e01b0316611bad9190612237565b600b6000828254611bbe91906121f8565b909155505063ffffffff8116611bd784611b8b87612012565b6001600160e01b0316611bea9190612237565b600c6000828254611bfb91906121f8565b90915550505b600a805463ffffffff8416600160e01b026001600160e01b036001600160701b03898116600160701b9081027fffffffff000000000000000000000000000000000000000000000000000000009095168c83161794909417918216831794859055604080519382169282169290921783529290930490911660208201527f1c411e9a96e071241c2f21f7726b17ae89e3cab4c78be50e062b03a9fffbbad1910160405180910390a1505050505050565b604080518082018252601981527f7472616e7366657228616464726573732c75696e74323536290000000000000060209182015281516001600160a01b0385811660248301526044808301869052845180840390910181526064909201845291810180516001600160e01b03167fa9059cbb0000000000000000000000000000000000000000000000000000000017905291516000928392871691611d5691906122cd565b6000604051808303816000865af19150503d8060008114611d93576040519150601f19603f3d011682016040523d82523d6000602084013e611d98565b606091505b5091509150818015611dc2575080511580611dc2575080806020019051810190611dc291906122e9565b611e0e5760405162461bcd60e51b815260206004820152600f60248201527f5452414e534645525f4641494c454400000000000000000000000000000000006044820152606401610553565b5050505050565b6001600160a01b038216611e915760405162461bcd60e51b815260206004820152602160248201527f45524332303a206275726e2066726f6d20746865207a65726f2061646472657360448201527f73000000000000000000000000000000000000000000000000000000000000006064820152608401610553565b6001600160a01b03821660009081526020819052604090205481811015611f205760405162461bcd60e51b815260206004820152602260248201527f45524332303a206275726e20616d6f756e7420657863656564732062616c616e60448201527f63650000000000000000000000000000000000000000000000000000000000006064820152608401610553565b6001600160a01b0383166000818152602081815260408083208686039055600280548790039055518581529192917fddf252ad1be2c89b69c2b068fc378daa952ba7f163c4a11628f55a4df523b3ef910160405180910390a3505050565b600080608083901c15611f9357608092831c92015b604083901c15611fa557604092831c92015b602083901c15611fb757602092831c92015b601083901c15611fc957601092831c92015b600883901c15611fdb57600892831c92015b600483901c15611fed57600492831c92015b600283901c15611fff57600292831c92015b600183901c156104945760010192915050565b6000610494600160701b6001600160701b03841661230b565b60006119c76001600160701b0383168461233d565b60005b8381101561205b578181015183820152602001612043565b50506000910152565b6020815260008251806020840152612083816040850160208701612040565b601f01601f19169190910160400192915050565b6001600160a01b038116811461127a57600080fd5b600080604083850312156120bf57600080fd5b82356120ca81612097565b946020939093013593505050565b6000806000606084860312156120ed57600080fd5b83356120f881612097565b9250602084013561210881612097565b929592945050506040919091013590565b6000806040838503121561212c57600080fd5b823561213781612097565b9150602083013561214781612097565b809150509250929050565b60006020828403121561216457600080fd5b81356119c781612097565b60008060006060848603121561218457600080fd5b8335925060208401359150604084013561219d81612097565b809150509250925092565b600181811c908216806121bc57607f821691505b6020821081036121dc57634e487b7160e01b600052602260045260246000fd5b50919050565b634e487b7160e01b600052601160045260246000fd5b80820180821115610494576104946121e2565b60006020828403121561221d57600080fd5b5051919050565b81810381811115610494576104946121e2565b8082028115828204841417610494576104946121e2565b634e487b7160e01b600052601260045260246000fd5b6000826122735761227361224e565b500490565b60006020828403121561228a57600080fd5b81516119c781612097565b6000826122a4576122a461224e565b500690565b63ffffffff8281168282160390808211156122c6576122c66121e2565b5092915050565b600082516122df818460208701612040565b9190910192915050565b6000602082840312156122fb57600080fd5b815180151581146119c757600080fd5b6001600160e01b03828116828216818102831692918115828504821417612334576123346121e2565b50505092915050565b60006001600160e01b03808416806123575761235761224e565b9216919091049291505056fea2646970667358221220dd2651f76275b078607245d2df0e39514a2c417c096a35167c24f89b24153aef64736f6c63430008110033a2646970667358221220b31957288346cf2f9a69e8babe7fc851bf56216e506efcb321415f7fb6ee121564736f6c63430008110033",
  "linkReferences": {},
  "deployedLinkReferences": {}
}