{
  "_format": "hh-sol-artifact-1",
  "contractName": "PairFactory",
  "sourceName": "src/backend/contracts/PairFactory.sol",
  "abi": [
    {
      "inputs": [],
      "stateMutability": "nonpayable",
      "type": "constructor"
    },
    {
      "anonymous": false,
      "inputs": [
        {
          "indexed": true,
          "internalType": "address",
          "name": "previousOwner",
          "type": "address"
        },
        {
          "indexed": true,
          "internalType": "address",
          "name": "newOwner",
          "type": "address"
        }
      ],
      "name": "OwnershipTransferred",
      "type": "event"
    },
    {
      "anonymous": false,
      "inputs": [
        {
          "indexed": true,
          "internalType": "address",
          "name": "tokenA",
          "type": "address"
        },
        {
          "indexed": true,
          "internalType": "address",
          "name": "tokenB",
          "type": "address"
        },
        {
          "indexed": false,
          "internalType": "address",
          "name": "pair",
          "type": "address"
        },
        {
          "indexed": false,
          "internalType": "uint256",
          "name": "",
          "type": "uint256"
        }
      ],
      "name": "PairCreated",
      "type": "event"
    },
    {
      "inputs": [],
      "name": "INIT_CODE_PAIR_HASH",
      "outputs": [
        {
          "internalType": "bytes32",
          "name": "",
          "type": "bytes32"
        }
      ],
      "stateMutability": "view",
      "type": "function"
    },
    {
      "inputs": [
        {
          "internalType": "uint256",
          "name": "",
          "type": "uint256"
        }
      ],
      "name": "allPairs",
      "outputs": [
        {
          "internalType": "address",
          "name": "",
          "type": "address"
        }
      ],
      "stateMutability": "view",
      "type": "function"
    },
    {
      "inputs": [],
      "name": "allPairsLength",
      "outputs": [
        {
          "internalType": "uint256",
          "name": "",
          "type": "uint256"
        }
      ],
      "stateMutability": "view",
      "type": "function"
    },
    {
      "inputs": [
        {
          "internalType": "address",
          "name": "tokenA",
          "type": "address"
        },
        {
          "internalType": "address",
          "name": "tokenB",
          "type": "address"
        }
      ],
      "name": "createPair",
      "outputs": [
        {
          "internalType": "address",
          "name": "pair",
          "type": "address"
        }
      ],
      "stateMutability": "nonpayable",
      "type": "function"
    },
    {
      "inputs": [
        {
          "internalType": "address",
          "name": "",
          "type": "address"
        },
        {
          "internalType": "address",
          "name": "",
          "type": "address"
        }
      ],
      "name": "getPair",
      "outputs": [
        {
          "internalType": "address",
          "name": "",
          "type": "address"
        }
      ],
      "stateMutability": "view",
      "type": "function"
    },
    {
      "inputs": [],
      "name": "owner",
      "outputs": [
        {
          "internalType": "address",
          "name": "",
          "type": "address"
        }
      ],
      "stateMutability": "view",
      "type": "function"
    },
    {
      "inputs": [
        {
          "internalType": "address",
          "name": "tokenA",
          "type": "address"
        },
        {
          "internalType": "address",
          "name": "tokenB",
          "type": "address"
        }
      ],
      "name": "pairFor",
      "outputs": [
        {
          "internalType": "address",
          "name": "pair",
          "type": "address"
        }
      ],
      "stateMutability": "view",
      "type": "function"
    },
    {
      "inputs": [],
      "name": "renounceOwnership",
      "outputs": [],
      "stateMutability": "nonpayable",
      "type": "function"
    },
    {
      "inputs": [],
      "name": "rewardTo",
      "outputs": [
        {
          "internalType": "address",
          "name": "",
          "type": "address"
        }
      ],
      "stateMutability": "view",
      "type": "function"
    },
    {
      "inputs": [
        {
          "internalType": "address",
          "name": "_rewardTo",
          "type": "address"
        }
      ],
      "name": "setRewardTo",
      "outputs": [],
      "stateMutability": "nonpayable",
      "type": "function"
    },
    {
      "inputs": [
        {
          "internalType": "address",
          "name": "newOwner",
          "type": "address"
        }
      ],
      "name": "transferOwnership",
      "outputs": [],
      "stateMutability": "nonpayable",
      "type": "function"
    }
  ],
  "bytecode": "0x608060405234801561001057600080fd5b5061001a33610031565b600180546001600160a01b03191633179055610081565b600080546001600160a01b038381166001600160a01b0319831681178455604051919092169283917f8be0079c531659141344cd1fd0a4f28419497f9722a3daafe3b4186f6b6457e09190a35050565b612ad8806100906000396000f3fe608060405234801561001057600080fd5b50600436106100c95760003560e01c8063812b83e911610081578063c9c653961161005b578063c9c653961461016c578063e6a439051461017f578063f2fde38b146101b357600080fd5b8063812b83e9146101355780638da5cb5b1461014857806396ed28f91461015957600080fd5b8063574f2ba3116100b2578063574f2ba3146101115780635855a25a14610123578063715018a61461012b57600080fd5b80631e3dd18b146100ce5780631fdfdeab146100fe575b600080fd5b6100e16100dc366004610855565b6101c6565b6040516001600160a01b0390911681526020015b60405180910390f35b6001546100e1906001600160a01b031681565b6003545b6040519081526020016100f5565b6101156101f0565b61013361023a565b005b61013361014336600461088a565b61024e565b6000546001600160a01b03166100e1565b6100e16101673660046108a5565b610285565b6100e161017a3660046108a5565b6102e1565b6100e161018d3660046108a5565b60026020908152600092835260408084209091529082529020546001600160a01b031681565b6101336101c136600461088a565b610542565b600381815481106101d657600080fd5b6000918252602090912001546001600160a01b0316905081565b6040516101ff60208201610848565b601f1982820381018352601f90910116604081905261022191906020016108d8565b6040516020818303038152906040528051906020012081565b6102426105d2565b61024c600061062c565b565b6102566105d2565b6001805473ffffffffffffffffffffffffffffffffffffffff19166001600160a01b0392909216919091179055565b60006102da3084846040518060200161029d90610848565b601f1982820381018352601f9091011660408190526102bf91906020016108d8565b60405160208183030381529060405280519060200120610689565b9392505050565b60008060006102f0858561075f565b6001600160a01b038083166000908152600260209081526040808320848616845290915290205492945090925016156103705760405162461bcd60e51b815260206004820152601360248201527f504149525f414c52454144595f4558495354530000000000000000000000000060448201526064015b60405180910390fd5b60006040518060200161038290610848565b601f1982820381018352601f9091011660408190526bffffffffffffffffffffffff19606086811b8216602084015285901b166034820152909150600090604801604051602081830303815290604052805190602001209050808251602084016000f56040517f485cc9550000000000000000000000000000000000000000000000000000000081526001600160a01b03868116600483015285811660248301529196509086169063485cc95590604401600060405180830381600087803b15801561044d57600080fd5b505af1158015610461573d6000803e3d6000fd5b505050506001600160a01b0384811660008181526002602081815260408084208987168086529083528185208054978d1673ffffffffffffffffffffffffffffffffffffffff1998891681179091559383528185208686528352818520805488168517905560038054600181018255958190527fc2575a0e9e593c00f959f8c92f12db2869c3395a3b0502d05e2516446f71f85b9095018054909716841790965592548351928352908201527f0d3648bd0f6ba80134a33ba9275ac585d9d315f0ad8355cddefde31afa28d0e9910160405180910390a35050505092915050565b61054a6105d2565b6001600160a01b0381166105c65760405162461bcd60e51b815260206004820152602660248201527f4f776e61626c653a206e6577206f776e657220697320746865207a65726f206160448201527f64647265737300000000000000000000000000000000000000000000000000006064820152608401610367565b6105cf8161062c565b50565b6000546001600160a01b0316331461024c5760405162461bcd60e51b815260206004820181905260248201527f4f776e61626c653a2063616c6c6572206973206e6f7420746865206f776e65726044820152606401610367565b600080546001600160a01b0383811673ffffffffffffffffffffffffffffffffffffffff19831681178455604051919092169283917f8be0079c531659141344cd1fd0a4f28419497f9722a3daafe3b4186f6b6457e09190a35050565b6000806000610698868661075f565b6040516bffffffffffffffffffffffff19606084811b8216602084015283901b16603482015291935091508790604801604051602081830303815290604052805190602001208560405160200161073c939291907fff00000000000000000000000000000000000000000000000000000000000000815260609390931b6bffffffffffffffffffffffff191660018401526015830191909152603582015260550190565b60408051601f198184030181529190528051602090910120979650505050505050565b600080826001600160a01b0316846001600160a01b0316036107c35760405162461bcd60e51b815260206004820152601f60248201527f4944454e544943414c5f4144445245535345535f4e4f545f414c4c4f574544006044820152606401610367565b826001600160a01b0316846001600160a01b0316106107e35782846107e6565b83835b90925090506001600160a01b0382166108415760405162461bcd60e51b815260206004820152601860248201527f5a45524f5f414444524553535f4e4f545f414c4c4f57454400000000000000006044820152606401610367565b9250929050565b61219b8061090883390190565b60006020828403121561086757600080fd5b5035919050565b80356001600160a01b038116811461088557600080fd5b919050565b60006020828403121561089c57600080fd5b6102da8261086e565b600080604083850312156108b857600080fd5b6108c18361086e565b91506108cf6020840161086e565b90509250929050565b6000825160005b818110156108f957602081860181015185830152016108df565b50600092019182525091905056fe60806040523480156200001157600080fd5b506040518060400160405280600e81526020016d2222ac102a37b5b2b7102830b4b960911b8152506040518060400160405280600681526020016504445582d54560d41b81525081600390816200006991906200013d565b5060046200007882826200013d565b5050600160055550600680546001600160a01b0319163317905562000209565b634e487b7160e01b600052604160045260246000fd5b600181811c90821680620000c357607f821691505b602082108103620000e457634e487b7160e01b600052602260045260246000fd5b50919050565b601f8211156200013857600081815260208120601f850160051c81016020861015620001135750805b601f850160051c820191505b8181101562000134578281556001016200011f565b5050505b505050565b81516001600160401b0381111562000159576200015962000098565b62000171816200016a8454620000ae565b84620000ea565b602080601f831160018114620001a95760008415620001905750858301515b600019600386901b1c1916600185901b17855562000134565b600085815260208120601f198616915b82811015620001da57888601518255948401946001909101908401620001b9565b5085821015620001f95787850151600019600388901b60f8161c191681555b5050505050600190811b01905550565b611f8280620002196000396000f3fe608060405234801561001057600080fd5b506004361061018d5760003560e01c80636d9a640a116100e3578063a9059cbb1161008c578063c45a015511610066578063c45a01551461035b578063dd62ed3e1461036e578063fff6cae9146103a757600080fd5b8063a9059cbb1461032c578063ba9a7a561461033f578063bc25cf771461034857600080fd5b806389afcb44116100bd57806389afcb44146102e957806395d89b4114610311578063a457c2d71461031957600080fd5b80636d9a640a146102a457806370a08231146102b75780637464fc3d146102e057600080fd5b806323b872dd11610145578063485cc9551161011f578063485cc955146102695780635f64b55b1461027e5780636a6278421461029157600080fd5b806323b872dd14610234578063313ce56714610247578063395093511461025657600080fd5b8063095ea7b311610176578063095ea7b3146101d45780630fc63d10146101f757806318160ddd1461022257600080fd5b806306fdde03146101925780630902f1ac146101b0575b600080fd5b61019a6103af565b6040516101a79190611ccf565b60405180910390f35b600a54600b54600c54604080519384526020840192909252908201526060016101a7565b6101e76101e2366004611d17565b610441565b60405190151581526020016101a7565b60075461020a906001600160a01b031681565b6040516001600160a01b0390911681526020016101a7565b6002545b6040519081526020016101a7565b6101e7610242366004611d43565b61045b565b604051601281526020016101a7565b6101e7610264366004611d17565b61047f565b61027c610277366004611d84565b6104be565b005b60085461020a906001600160a01b031681565b61022661029f366004611dbd565b610563565b61027c6102b2366004611dda565b6107d3565b6102266102c5366004611dbd565b6001600160a01b031660009081526020819052604090205490565b61022660095481565b6102fc6102f7366004611dbd565b610c08565b604080519283526020830191909152016101a7565b61019a610f34565b6101e7610327366004611d17565b610f43565b6101e761033a366004611d17565b610fed565b6102266103e881565b61027c610356366004611dbd565b610ffb565b60065461020a906001600160a01b031681565b61022661037c366004611d84565b6001600160a01b03918216600090815260016020908152604080832093909416825291909152205490565b61027c6110db565b6060600380546103be90611e13565b80601f01602080910402602001604051908101604052809291908181526020018280546103ea90611e13565b80156104375780601f1061040c57610100808354040283529160200191610437565b820191906000526020600020905b81548152906001019060200180831161041a57829003601f168201915b5050505050905090565b60003361044f8185856111ce565b60019150505b92915050565b600033610469858285611326565b6104748585856113b8565b506001949350505050565b3360008181526001602090815260408083206001600160a01b038716845290915281205490919061044f90829086906104b9908790611e63565b6111ce565b6006546001600160a01b0316331461051d5760405162461bcd60e51b815260206004820152600b60248201527f4e4f545f464143544f525900000000000000000000000000000000000000000060448201526064015b60405180910390fd5b600780546001600160a01b039384167fffffffffffffffffffffffff00000000000000000000000000000000000000009182161790915560088054929093169116179055565b600061056d6115a5565b600a54600b54600754604080516370a0823160e01b815230600482015290516000926001600160a01b0316916370a082319160248083019260209291908290030181865afa1580156105c3573d6000803e3d6000fd5b505050506040513d601f19601f820116820180604052508101906105e79190611e76565b6008546040516370a0823160e01b81523060048201529192506000916001600160a01b03909116906370a0823190602401602060405180830381865afa158015610635573d6000803e3d6000fd5b505050506040513d601f19601f820116820180604052508101906106599190611e76565b905060006106678584611e8f565b905060006106758584611e8f565b9050600061068387876115fe565b9050600061069060025490565b9050806000036106ce576103e86106af6106aa8587611ea2565b611726565b6106b99190611e8f565b98506106c961dead6103e8611815565b610703565b610700886106dc8387611ea2565b6106e69190611ecf565b886106f18487611ea2565b6106fb9190611ecf565b6118d4565b98505b600089116107535760405162461bcd60e51b815260206004820152601d60248201527f494e53554646494349454e545f4c49515549444954595f4d494e5445440000006044820152606401610514565b61075d8a8a611815565b61076786866118ea565b811561078157600b54600a5461077d9190611ea2565b6009555b604080518581526020810185905233917f4c209b5fc8ad50758f13e2e1088ba56a560dff690a1c6fef26394f4c03821c4f910160405180910390a250505050505050506107ce6001600555565b919050565b6107db6115a5565b60008311806107ea5750600082115b6108365760405162461bcd60e51b815260206004820152601560248201527f494e56414c49445f4f55545055545f414d4f554e5400000000000000000000006044820152606401610514565b600a54600b54818510801561084a57508084105b6108965760405162461bcd60e51b815260206004820152601460248201527f494e53554646494349454e545f524553455256450000000000000000000000006044820152606401610514565b6007546008546001600160a01b039182169190811690851682148015906108cf5750806001600160a01b0316856001600160a01b031614155b61091b5760405162461bcd60e51b815260206004820152601660248201527f494e56414c49445f4f55545055545f41444452455353000000000000000000006044820152606401610514565b861561092c5761092c828689611935565b851561093d5761093d818688611935565b6040516370a0823160e01b81523060048201526000906001600160a01b038416906370a0823190602401602060405180830381865afa158015610984573d6000803e3d6000fd5b505050506040513d601f19601f820116820180604052508101906109a89190611e76565b6040516370a0823160e01b81523060048201529091506000906001600160a01b038416906370a0823190602401602060405180830381865afa1580156109f2573d6000803e3d6000fd5b505050506040513d601f19601f82011682018060405250810190610a169190611e76565b90506000610a248a88611e8f565b8311610a31576000610a45565b610a3b8a88611e8f565b610a459084611e8f565b90506000610a538a88611e8f565b8311610a60576000610a74565b610a6a8a88611e8f565b610a749084611e8f565b90506000821180610a855750600081115b610ad15760405162461bcd60e51b815260206004820152601960248201527f494e53554646494349454e545f494e5055545f414d4f554e54000000000000006044820152606401610514565b6000610ade836002611ea2565b610aea866103e8611ea2565b610af49190611e8f565b90506000610b03836002611ea2565b610b0f866103e8611ea2565b610b199190611e8f565b9050600b54600a54610b2b9190611ea2565b610b3890620f4240611ea2565b610b428284611ea2565b1015610b905760405162461bcd60e51b815260206004820152601660248201527f494e53554646494349454e545f4c4951554944495459000000000000000000006044820152606401610514565b5050610b9c84846118ea565b60408051838152602081018390529081018c9052606081018b90526001600160a01b038a169033907fd78ad95fa46c994b6551d0da85fc275fe613ce37657fb8d5e3d130840159d8229060800160405180910390a35050505050505050610c036001600555565b505050565b600080610c136115a5565b600a54600b54600754600854604080516370a0823160e01b815230600482015290516001600160a01b03938416939092169160009184916370a08231916024808201926020929091908290030181865afa158015610c75573d6000803e3d6000fd5b505050506040513d601f19601f82011682018060405250810190610c999190611e76565b6040516370a0823160e01b81523060048201529091506000906001600160a01b038416906370a0823190602401602060405180830381865afa158015610ce3573d6000803e3d6000fd5b505050506040513d601f19601f82011682018060405250810190610d079190611e76565b30600090815260208190526040812054919250610d2488886115fe565b90506000610d3160025490565b905080610d3e8685611ea2565b610d489190611ecf565b9a5080610d558585611ea2565b610d5f9190611ecf565b995060008b118015610d71575060008a115b610dbd5760405162461bcd60e51b815260206004820152601e60248201527f494e53554646494349454e545f4255524e494e475f4c495155494449545900006044820152606401610514565b610dc73084611aae565b610dd2878d8d611935565b610ddd868d8c611935565b6040516370a0823160e01b81523060048201526001600160a01b038816906370a0823190602401602060405180830381865afa158015610e21573d6000803e3d6000fd5b505050506040513d601f19601f82011682018060405250810190610e459190611e76565b6040516370a0823160e01b81523060048201529095506001600160a01b038716906370a0823190602401602060405180830381865afa158015610e8c573d6000803e3d6000fd5b505050506040513d601f19601f82011682018060405250810190610eb09190611e76565b9350610ebc85856118ea565b8115610ed657600b54600a54610ed29190611ea2565b6009555b604080518c8152602081018c90526001600160a01b038e169133917fdccd412f0b1252819cb1fd330b93224ca42612892bb3f4f789976e6d81936496910160405180910390a3505050505050505050610f2f6001600555565b915091565b6060600480546103be90611e13565b3360008181526001602090815260408083206001600160a01b038716845290915281205490919083811015610fe05760405162461bcd60e51b815260206004820152602560248201527f45524332303a2064656372656173656420616c6c6f77616e63652062656c6f7760448201527f207a65726f0000000000000000000000000000000000000000000000000000006064820152608401610514565b61047482868684036111ce565b60003361044f8185856113b8565b6110036115a5565b600754600854600a546040516370a0823160e01b81523060048201526001600160a01b03938416939092169161109491849186919083906370a08231906024015b602060405180830381865afa158015611061573d6000803e3d6000fd5b505050506040513d601f19601f820116820180604052508101906110859190611e76565b61108f9190611e8f565b611935565b600b546040516370a0823160e01b81523060048201526110cc9183918691906001600160a01b038416906370a0823190602401611044565b50506110d86001600555565b50565b6110e36115a5565b6007546040516370a0823160e01b81523060048201526111c2916001600160a01b0316906370a0823190602401602060405180830381865afa15801561112d573d6000803e3d6000fd5b505050506040513d601f19601f820116820180604052508101906111519190611e76565b6008546040516370a0823160e01b81523060048201526001600160a01b03909116906370a0823190602401602060405180830381865afa158015611199573d6000803e3d6000fd5b505050506040513d601f19601f820116820180604052508101906111bd9190611e76565b6118ea565b6111cc6001600555565b565b6001600160a01b0383166112495760405162461bcd60e51b8152602060048201526024808201527f45524332303a20617070726f76652066726f6d20746865207a65726f2061646460448201527f72657373000000000000000000000000000000000000000000000000000000006064820152608401610514565b6001600160a01b0382166112c55760405162461bcd60e51b815260206004820152602260248201527f45524332303a20617070726f766520746f20746865207a65726f20616464726560448201527f73730000000000000000000000000000000000000000000000000000000000006064820152608401610514565b6001600160a01b0383811660008181526001602090815260408083209487168084529482529182902085905590518481527f8c5be1e5ebec7d5bd14f71427d1e84f3dd0314c0f7b2291e5b200ac8c7c3b925910160405180910390a3505050565b6001600160a01b0383811660009081526001602090815260408083209386168352929052205460001981146113b257818110156113a55760405162461bcd60e51b815260206004820152601d60248201527f45524332303a20696e73756666696369656e7420616c6c6f77616e63650000006044820152606401610514565b6113b284848484036111ce565b50505050565b6001600160a01b0383166114345760405162461bcd60e51b815260206004820152602560248201527f45524332303a207472616e736665722066726f6d20746865207a65726f20616460448201527f64726573730000000000000000000000000000000000000000000000000000006064820152608401610514565b6001600160a01b0382166114b05760405162461bcd60e51b815260206004820152602360248201527f45524332303a207472616e7366657220746f20746865207a65726f206164647260448201527f65737300000000000000000000000000000000000000000000000000000000006064820152608401610514565b6001600160a01b0383166000908152602081905260409020548181101561153f5760405162461bcd60e51b815260206004820152602660248201527f45524332303a207472616e7366657220616d6f756e742065786365656473206260448201527f616c616e636500000000000000000000000000000000000000000000000000006064820152608401610514565b6001600160a01b03848116600081815260208181526040808320878703905593871680835291849020805487019055925185815290927fddf252ad1be2c89b69c2b068fc378daa952ba7f163c4a11628f55a4df523b3ef910160405180910390a36113b2565b6002600554036115f75760405162461bcd60e51b815260206004820152601f60248201527f5265656e7472616e637947756172643a207265656e7472616e742063616c6c006044820152606401610514565b6002600555565b600080600660009054906101000a90046001600160a01b03166001600160a01b0316631fdfdeab6040518163ffffffff1660e01b8152600401602060405180830381865afa158015611654573d6000803e3d6000fd5b505050506040513d601f19601f820116820180604052508101906116789190611ef1565b6009546001600160a01b03821615801594509192509061171257801561170d5760006116a76106aa8688611ea2565b905060006116b483611726565b90508082111561170a5760006116cb836009611ea2565b6116d59083611e63565b6116df8385611e8f565b6002546116ec9190611ea2565b6116f69190611ecf565b90508015611708576117088582611815565b505b50505b61171e565b801561171e5760006009555b505092915050565b60008160000361173857506000919050565b6000600161174584611c17565b901c6001901b9050600181848161175e5761175e611eb9565b048201901c9050600181848161177657611776611eb9565b048201901c9050600181848161178e5761178e611eb9565b048201901c905060018184816117a6576117a6611eb9565b048201901c905060018184816117be576117be611eb9565b048201901c905060018184816117d6576117d6611eb9565b048201901c905060018184816117ee576117ee611eb9565b048201901c905061180e8182858161180857611808611eb9565b046118d4565b9392505050565b6001600160a01b03821661186b5760405162461bcd60e51b815260206004820152601f60248201527f45524332303a206d696e7420746f20746865207a65726f2061646472657373006044820152606401610514565b806002600082825461187d9190611e63565b90915550506001600160a01b038216600081815260208181526040808320805486019055518481527fddf252ad1be2c89b69c2b068fc378daa952ba7f163c4a11628f55a4df523b3ef910160405180910390a35050565b60008183106118e3578161180e565b5090919050565b600a829055600b81905542600c5560408051838152602081018390527fcf2aa50876cdfbb541206f89af0ee78d44a2abf8d328e37fa4917f982149848a910160405180910390a15050565b604080518082018252601981527f7472616e7366657228616464726573732c75696e74323536290000000000000060209182015281516001600160a01b0385811660248301526044808301869052845180840390910181526064909201845291810180517bffffffffffffffffffffffffffffffffffffffffffffffffffffffff167fa9059cbb00000000000000000000000000000000000000000000000000000000179052915160009283928716916119ef9190611f0e565b6000604051808303816000865af19150503d8060008114611a2c576040519150601f19603f3d011682016040523d82523d6000602084013e611a31565b606091505b5091509150818015611a5b575080511580611a5b575080806020019051810190611a5b9190611f2a565b611aa75760405162461bcd60e51b815260206004820152600f60248201527f5452414e534645525f4641494c454400000000000000000000000000000000006044820152606401610514565b5050505050565b6001600160a01b038216611b2a5760405162461bcd60e51b815260206004820152602160248201527f45524332303a206275726e2066726f6d20746865207a65726f2061646472657360448201527f73000000000000000000000000000000000000000000000000000000000000006064820152608401610514565b6001600160a01b03821660009081526020819052604090205481811015611bb95760405162461bcd60e51b815260206004820152602260248201527f45524332303a206275726e20616d6f756e7420657863656564732062616c616e60448201527f63650000000000000000000000000000000000000000000000000000000000006064820152608401610514565b6001600160a01b0383166000818152602081815260408083208686039055600280548790039055518581529192917fddf252ad1be2c89b69c2b068fc378daa952ba7f163c4a11628f55a4df523b3ef910160405180910390a3505050565b600080608083901c15611c2c57608092831c92015b604083901c15611c3e57604092831c92015b602083901c15611c5057602092831c92015b601083901c15611c6257601092831c92015b600883901c15611c7457600892831c92015b600483901c15611c8657600492831c92015b600283901c15611c9857600292831c92015b600183901c156104555760010192915050565b60005b83811015611cc6578181015183820152602001611cae565b50506000910152565b6020815260008251806020840152611cee816040850160208701611cab565b601f01601f19169190910160400192915050565b6001600160a01b03811681146110d857600080fd5b60008060408385031215611d2a57600080fd5b8235611d3581611d02565b946020939093013593505050565b600080600060608486031215611d5857600080fd5b8335611d6381611d02565b92506020840135611d7381611d02565b929592945050506040919091013590565b60008060408385031215611d9757600080fd5b8235611da281611d02565b91506020830135611db281611d02565b809150509250929050565b600060208284031215611dcf57600080fd5b813561180e81611d02565b600080600060608486031215611def57600080fd5b83359250602084013591506040840135611e0881611d02565b809150509250925092565b600181811c90821680611e2757607f821691505b602082108103611e4757634e487b7160e01b600052602260045260246000fd5b50919050565b634e487b7160e01b600052601160045260246000fd5b8082018082111561045557610455611e4d565b600060208284031215611e8857600080fd5b5051919050565b8181038181111561045557610455611e4d565b808202811582820484141761045557610455611e4d565b634e487b7160e01b600052601260045260246000fd5b600082611eec57634e487b7160e01b600052601260045260246000fd5b500490565b600060208284031215611f0357600080fd5b815161180e81611d02565b60008251611f20818460208701611cab565b9190910192915050565b600060208284031215611f3c57600080fd5b8151801515811461180e57600080fdfea26469706673582212201f63b7ba4b56ff5d7ca9dcad3af198ad960d8b51787ea1c3e26f1fa532411d7864736f6c63430008110033a26469706673582212204af6f8d279a1aa1b1a122c03035d0fa7cf33a177c91cb288dcfe6bbe46fc49fd64736f6c63430008110033",
  "linkReferences": {},
  "deployedLinkReferences": {}
}