{
  "_format": "hh-sol-artifact-1",
  "contractName": "PriceOracle",
  "sourceName": "src/backend/contracts/PriceOracle.sol",
  "abi": [
    {
      "inputs": [
        {
          "internalType": "address",
          "name": "_router",
          "type": "address"
        },
        {
          "internalType": "address",
          "name": "_WETH",
          "type": "address"
        }
      ],
      "stateMutability": "nonpayable",
      "type": "constructor"
    },
    {
      "inputs": [],
      "name": "WETH",
      "outputs": [
        {
          "internalType": "address",
          "name": "",
          "type": "address"
        }
      ],
      "stateMutability": "view",
      "type": "function"
    },
    {
      "inputs": [
        {
          "internalType": "address",
          "name": "_token",
          "type": "address"
        }
      ],
      "name": "getPriceInWETH",
      "outputs": [
        {
          "internalType": "uint256",
          "name": "",
          "type": "uint256"
        }
      ],
      "stateMutability": "view",
      "type": "function"
    },
    {
      "inputs": [],
      "name": "router",
      "outputs": [
        {
          "internalType": "address",
          "name": "",
          "type": "address"
        }
      ],
      "stateMutability": "view",
      "type": "function"
    }
  ],
  "bytecode": "0x608060405234801561001057600080fd5b506040516105ab3803806105ab83398101604081905261002f9161007c565b600080546001600160a01b039384166001600160a01b031991821617909155600180549290931691161790556100af565b80516001600160a01b038116811461007757600080fd5b919050565b6000806040838503121561008f57600080fd5b61009883610060565b91506100a660208401610060565b90509250929050565b6104ed806100be6000396000f3fe608060405234801561001057600080fd5b50600436106100415760003560e01c806381cc7e5c14610046578063ad5c46481461006c578063f887ea4014610097575b600080fd5b6100596100543660046102e3565b6100aa565b6040519081526020015b60405180910390f35b60015461007f906001600160a01b031681565b6040516001600160a01b039091168152602001610063565b60005461007f906001600160a01b031681565b600080546001546040517fd52bb6f40000000000000000000000000000000000000000000000000000000081526001600160a01b038581166004830152918216602482015283928392169063d52bb6f490604401606060405180830381865afa15801561011b573d6000803e3d6000fd5b505050506040513d601f19601f8201168201806040525081019061013f9190610307565b50915091506000846001600160a01b031663313ce5676040518163ffffffff1660e01b8152600401602060405180830381865afa158015610184573d6000803e3d6000fd5b505050506040513d601f19601f820116820180604052508101906101a89190610340565b60ff1690506101c26101bb82600a61045f565b84846101cb565b95945050505050565b60008084116102215760405162461bcd60e51b815260206004820152601960248201527f494e53554646494349454e545f494e5055545f414d4f554e540000000000000060448201526064015b60405180910390fd5b6000831180156102315750600082115b61027d5760405162461bcd60e51b815260206004820152601660248201527f494e53554646494349454e545f4c4951554944495459000000000000000000006044820152606401610218565b600061028b856103e661046b565b90506000610299848361046b565b90506000826102aa876103e861046b565b6102b49190610482565b90506102c08183610495565b979650505050505050565b6001600160a01b03811681146102e057600080fd5b50565b6000602082840312156102f557600080fd5b8135610300816102cb565b9392505050565b60008060006060848603121561031c57600080fd5b83519250602084015191506040840151610335816102cb565b809150509250925092565b60006020828403121561035257600080fd5b815160ff8116811461030057600080fd5b634e487b7160e01b600052601160045260246000fd5b600181815b808511156103b457816000190482111561039a5761039a610363565b808516156103a757918102915b93841c939080029061037e565b509250929050565b6000826103cb57506001610459565b816103d857506000610459565b81600181146103ee57600281146103f857610414565b6001915050610459565b60ff84111561040957610409610363565b50506001821b610459565b5060208310610133831016604e8410600b8410161715610437575081810a610459565b6104418383610379565b806000190482111561045557610455610363565b0290505b92915050565b600061030083836103bc565b808202811582820484141761045957610459610363565b8082018082111561045957610459610363565b6000826104b257634e487b7160e01b600052601260045260246000fd5b50049056fea264697066735822122014fa8f8b5b05678f3f5a7a646e0901112844d4412bef87da710e9d4b2685649864736f6c63430008110033",
  "linkReferences": {},
  "deployedLinkReferences": {}
}