{
  "_format": "hh-sol-artifact-1",
  "contractName": "PriceOracleV2",
  "sourceName": "src/backend/contracts/PriceOracleV2.sol",
  "abi": [
    {
      "inputs": [
        {
          "internalType": "address",
          "name": "_factory",
          "type": "address"
        },
        {
          "internalType": "address",
          "name": "_WETH",
          "type": "address"
        },
        {
          "internalType": "uint256",
          "name": "_windowSize",
          "type": "uint256"
        },
        {
          "internalType": "uint8",
          "name": "_granularity",
          "type": "uint8"
        }
      ],
      "stateMutability": "nonpayable",
      "type": "constructor"
    },
    {
      "inputs": [],
      "name": "WETH",
      "outputs": [
        {
          "internalType": "address",
          "name": "",
          "type": "address"
        }
      ],
      "stateMutability": "view",
      "type": "function"
    },
    {
      "inputs": [],
      "name": "factory",
      "outputs": [
        {
          "internalType": "address",
          "name": "",
          "type": "address"
        }
      ],
      "stateMutability": "view",
      "type": "function"
    },
    {
      "inputs": [
        {
          "internalType": "address",
          "name": "_token",
          "type": "address"
        }
      ],
      "name": "getPriceInWETH",
      "outputs": [
        {
          "internalType": "uint256",
          "name": "",
          "type": "uint256"
        }
      ],
      "stateMutability": "view",
      "type": "function"
    },
    {
      "inputs": [],
      "name": "granularity",
      "outputs": [
        {
          "internalType": "uint8",
          "name": "",
          "type": "uint8"
        }
      ],
      "stateMutability": "view",
      "type": "function"
    },
    {
      "inputs": [
        {
          "internalType": "uint256",
          "name": "timestamp",
          "type": "uint256"
        }
      ],
      "name": "observationIndexOf",
      "outputs": [
        {
          "internalType": "uint8",
          "name": "index",
          "type": "uint8"
        }
      ],
      "stateMutability": "view",
      "type": "function"
    },
    {
      "inputs": [
        {
          "internalType": "address",
          "name": "",
          "type": "address"
        },
        {
          "internalType": "uint256",
          "name": "",
          "type": "uint256"
        }
      ],
      "name": "pairObservations",
      "outputs": [
        {
          "internalType": "uint256",
          "name": "timestamp",
          "type": "uint256"
        },
        {
          "internalType": "uint256",
          "name": "price0Cumulative",
          "type": "uint256"
        },
        {
          "internalType": "uint256",
          "name": "price1Cumulative",
          "type": "uint256"
        }
      ],
      "stateMutability": "view",
      "type": "function"
    },
    {
      "inputs": [],
      "name": "periodSize",
      "outputs": [
        {
          "internalType": "uint256",
          "name": "",
          "type": "uint256"
        }
      ],
      "stateMutability": "view",
      "type": "function"
    },
    {
      "inputs": [
        {
          "internalType": "address",
          "name": "tokenA",
          "type": "address"
        },
        {
          "internalType": "address",
          "name": "tokenB",
          "type": "address"
        }
      ],
      "name": "update",
      "outputs": [],
      "stateMutability": "nonpayable",
      "type": "function"
    },
    {
      "inputs": [],
      "name": "windowSize",
      "outputs": [
        {
          "internalType": "uint256",
          "name": "",
          "type": "uint256"
        }
      ],
      "stateMutability": "view",
      "type": "function"
    }
  ],
  "bytecode": "0x6101206040523480156200001257600080fd5b50604051620010f0380380620010f0833981016040819052620000359162000144565b60018160ff16116200008e5760405162461bcd60e51b815260206004820152601360248201527f494e56414c49445f4752414e554c41524954590000000000000000000000000060448201526064015b60405180910390fd5b8160ff82166200009f81836200019f565b60e0819052620000b09190620001c2565b14620000ff5760405162461bcd60e51b815260206004820152601b60248201527f57494e444f575f4e4f545f4556454e4c595f444956495349424c450000000000604482015260640162000085565b6001600160a01b03938416608052919092166101005260a09190915260ff1660c052620001ee565b80516001600160a01b03811681146200013f57600080fd5b919050565b600080600080608085870312156200015b57600080fd5b620001668562000127565b9350620001766020860162000127565b925060408501519150606085015160ff811681146200019457600080fd5b939692955090935050565b600082620001bd57634e487b7160e01b600052601260045260246000fd5b500490565b8082028115828204841417620001e857634e487b7160e01b600052601160045260246000fd5b92915050565b60805160a05160c05160e05161010051610e6a620002866000396000818161013301528181610230015261047b0152600081816101ef01528181610363015281816106a401526106fa01526000818160ad015281816105e801528181610728015261076701526000818161010c015281816102eb015261038f0152600081816101a00152818161025d015261055c0152610e6a6000f3fe608060405234801561001057600080fd5b50600436106100a35760003560e01c8063bfcc8e4211610076578063c640752d1161005b578063c640752d146101c2578063dbaad32f146101d7578063e4463eb2146101ea57600080fd5b8063bfcc8e421461016d578063c45a01551461019b57600080fd5b8063556f0dc7146100a857806381cc7e5c146100e65780638a14117a14610107578063ad5c46481461012e575b600080fd5b6100cf7f000000000000000000000000000000000000000000000000000000000000000081565b60405160ff90911681526020015b60405180910390f35b6100f96100f4366004610a63565b610211565b6040519081526020016100dd565b6100f97f000000000000000000000000000000000000000000000000000000000000000081565b6101557f000000000000000000000000000000000000000000000000000000000000000081565b6040516001600160a01b0390911681526020016100dd565b61018061017b366004610a80565b6104f0565b604080519384526020840192909252908201526060016100dd565b6101557f000000000000000000000000000000000000000000000000000000000000000081565b6101d56101d0366004610aac565b610532565b005b6100cf6101e5366004610ae5565b6106f2565b6100f97f000000000000000000000000000000000000000000000000000000000000000081565b60405163e6a4390560e01b81526001600160a01b0382811660048301527f00000000000000000000000000000000000000000000000000000000000000008116602483015260009182917f0000000000000000000000000000000000000000000000000000000000000000169063e6a4390590604401602060405180830381865afa1580156102a4573d6000803e3d6000fd5b505050506040513d601f19601f820116820180604052508101906102c89190610afe565b905060006102d582610755565b80549091506000906102e79042610b31565b90507f000000000000000000000000000000000000000000000000000000000000000081111561035e5760405162461bcd60e51b815260206004820152601e60248201527f4d495353494e475f484953544f524943414c5f4f42534552564154494f4e000060448201526064015b60405180910390fd5b6103897f00000000000000000000000000000000000000000000000000000000000000006002610b44565b6103b3907f0000000000000000000000000000000000000000000000000000000000000000610b31565b8110156104025760405162461bcd60e51b815260206004820152601760248201527f554e45585045435445445f54494d455f454c41505345440000000000000000006044820152606401610355565b60008061040e856107e3565b50915091506000876001600160a01b031663313ce5676040518163ffffffff1660e01b8152600401602060405180830381865afa158015610453573d6000803e3d6000fd5b505050506040513d601f19601f820116820180604052508101906104779190610b5b565b90507f00000000000000000000000000000000000000000000000000000000000000006001600160a01b0316886001600160a01b031610156104da5760018501546104ce9084866104c985600a610c62565b6109cf565b98975050505050505050565b60028501546104ce9083866104c985600a610c62565b6000602052816000526040600020818154811061050c57600080fd5b600091825260209091206003909102018054600182015460029092015490935090915083565b60405163e6a4390560e01b81526001600160a01b03838116600483015282811660248301526000917f00000000000000000000000000000000000000000000000000000000000000009091169063e6a4390590604401602060405180830381865afa1580156105a5573d6000803e3d6000fd5b505050506040513d601f19601f820116820180604052508101906105c99190610afe565b6001600160a01b0381166000908152602081905260409020549091505b7f000000000000000000000000000000000000000000000000000000000000000060ff16811015610644576001600160a01b03821660009081526020819052604081208054600101815590528061063c81610c71565b9150506105e6565b506000610650426106f2565b6001600160a01b03831660009081526020819052604081208054929350909160ff841690811061068257610682610c8a565b60009182526020822060039091020180549092506106a09042610b31565b90507f00000000000000000000000000000000000000000000000000000000000000008111156106ea576000806106d6866107e3565b504286556001860191909155600285015550505b505050505050565b60008061071f7f000000000000000000000000000000000000000000000000000000000000000084610cb6565b905061074e60ff7f00000000000000000000000000000000000000000000000000000000000000001682610cca565b9392505050565b600080610761426106f2565b905060007f0000000000000000000000000000000000000000000000000000000000000000610791836001610cde565b61079b9190610cf7565b6001600160a01b038516600090815260208190526040902080549192509060ff83169081106107cc576107cc610c8a565b906000526020600020906003020192505050919050565b600080806107f664010000000042610cca565b9050836001600160a01b0316635909c0d56040518163ffffffff1660e01b8152600401602060405180830381865afa158015610836573d6000803e3d6000fd5b505050506040513d601f19601f8201168201806040525081019061085a9190610d19565b9250836001600160a01b0316635a3d54936040518163ffffffff1660e01b8152600401602060405180830381865afa15801561089a573d6000803e3d6000fd5b505050506040513d601f19601f820116820180604052508101906108be9190610d19565b91506000806000866001600160a01b0316630902f1ac6040518163ffffffff1660e01b8152600401606060405180830381865afa158015610903573d6000803e3d6000fd5b505050506040513d601f19601f820116820180604052508101906109279190610d55565b9250925092508363ffffffff168163ffffffff16146109c557600061094c8286610da5565b90508063ffffffff1661097185610962866109fe565b6001600160e01b031690610a2f565b6001600160e01b03166109849190610b44565b61098e9088610dc9565b96508063ffffffff166109a484610962876109fe565b6001600160e01b03166109b79190610b44565b6109c19087610dc9565b9550505b5050509193909250565b6000607082846109df8888610b31565b6109e99190610cb6565b6109f39190610b44565b901c95945050505050565b6000610a296e0100000000000000000000000000006dffffffffffffffffffffffffffff8416610ddc565b92915050565b600061074e6dffffffffffffffffffffffffffff831684610e0e565b6001600160a01b0381168114610a6057600080fd5b50565b600060208284031215610a7557600080fd5b813561074e81610a4b565b60008060408385031215610a9357600080fd5b8235610a9e81610a4b565b946020939093013593505050565b60008060408385031215610abf57600080fd5b8235610aca81610a4b565b91506020830135610ada81610a4b565b809150509250929050565b600060208284031215610af757600080fd5b5035919050565b600060208284031215610b1057600080fd5b815161074e81610a4b565b634e487b7160e01b600052601160045260246000fd5b81810381811115610a2957610a29610b1b565b8082028115828204841417610a2957610a29610b1b565b600060208284031215610b6d57600080fd5b815160ff8116811461074e57600080fd5b600181815b80851115610bb9578160001904821115610b9f57610b9f610b1b565b80851615610bac57918102915b93841c9390800290610b83565b509250929050565b600082610bd057506001610a29565b81610bdd57506000610a29565b8160018114610bf35760028114610bfd57610c19565b6001915050610a29565b60ff841115610c0e57610c0e610b1b565b50506001821b610a29565b5060208310610133831016604e8410600b8410161715610c3c575081810a610a29565b610c468383610b7e565b8060001904821115610c5a57610c5a610b1b565b029392505050565b600061074e60ff841683610bc1565b600060018201610c8357610c83610b1b565b5060010190565b634e487b7160e01b600052603260045260246000fd5b634e487b7160e01b600052601260045260246000fd5b600082610cc557610cc5610ca0565b500490565b600082610cd957610cd9610ca0565b500690565b60ff8181168382160190811115610a2957610a29610b1b565b600060ff831680610d0a57610d0a610ca0565b8060ff84160691505092915050565b600060208284031215610d2b57600080fd5b5051919050565b80516dffffffffffffffffffffffffffff81168114610d5057600080fd5b919050565b600080600060608486031215610d6a57600080fd5b610d7384610d32565b9250610d8160208501610d32565b9150604084015163ffffffff81168114610d9a57600080fd5b809150509250925092565b63ffffffff828116828216039080821115610dc257610dc2610b1b565b5092915050565b80820180821115610a2957610a29610b1b565b6001600160e01b03828116828216818102831692918115828504821417610e0557610e05610b1b565b50505092915050565b60006001600160e01b0380841680610e2857610e28610ca0565b9216919091049291505056fea2646970667358221220fbe16db1f51daeb3bf8893e2a11d5f3280e03c438caa73575c1d31f430ca859164736f6c63430008110033",
  "linkReferences": {},
  "deployedLinkReferences": {}
}