{
  "_format": "hh-sol-artifact-1",
  "contractName": "StakingPoolManager",
  "sourceName": "src/backend/contracts/StakingPoolManager.sol",
  "abi": [
    {
      "anonymous": false,
      "inputs": [
        {
          "indexed": false,
          "internalType": "address",
          "name": "owner",
          "type": "address"
        },
        {
          "indexed": false,
          "internalType": "address",
          "name": "stakingPool",
          "type": "address"
        }
      ],
      "name": "CreateStakingPool",
      "type": "event"
    },
    {
      "inputs": [
        {
          "internalType": "contract ERC20",
          "name": "_stakedToken",
          "type": "address"
        },
        {
          "internalType": "contract ERC20",
          "name": "_rewardToken",
          "type": "address"
        },
        {
          "internalType": "uint256",
          "name": "_rewardPerBlock",
          "type": "uint256"
        },
        {
          "internalType": "uint256",
          "name": "_rewardStartBlock",
          "type": "uint256"
        },
        {
          "internalType": "uint256",
          "name": "_rewardEndBlock",
          "type": "uint256"
        }
      ],
      "name": "createStakingPool",
      "outputs": [
        {
          "internalType": "contract StakingPool",
          "name": "",
          "type": "address"
        }
      ],
      "stateMutability": "nonpayable",
      "type": "function"
    },
    {
      "inputs": [],
      "name": "getAllStakingPools",
      "outputs": [
        {
          "internalType": "address[]",
          "name": "",
          "type": "address[]"
        }
      ],
      "stateMutability": "view",
      "type": "function"
    },
    {
      "inputs": [
        {
          "internalType": "uint256",
          "name": "",
          "type": "uint256"
        }
      ],
      "name": "stakingPools",
      "outputs": [
        {
          "internalType": "address",
          "name": "",
          "type": "address"
        }
      ],
      "stateMutability": "view",
      "type": "function"
    }
  ],
  "bytecode": "0x608060405234801561001057600080fd5b50611a7b806100206000396000f3fe608060405234801561001057600080fd5b50600436106100415760003560e01c8063405afeef146100465780635aad6cf014610076578063d9d5485814610089575b600080fd5b6100596100543660046102cc565b61009e565b6040516001600160a01b0390911681526020015b60405180910390f35b610059610084366004610319565b610217565b610091610241565b60405161006d9190610332565b60008086868686866040516100b2906102a3565b6001600160a01b03958616815294909316602085015260408401919091526060830152608082015260a001604051809103906000f0801580156100f9573d6000803e3d6000fd5b506040517ff2fde38b0000000000000000000000000000000000000000000000000000000081523360048201529091506001600160a01b0382169063f2fde38b90602401600060405180830381600087803b15801561015757600080fd5b505af115801561016b573d6000803e3d6000fd5b5050600080546001810182559080527f290decd9548b62a8d60345a988386fc84ba6bc95484008f6362f93160ef3e5630180547fffffffffffffffffffffffff0000000000000000000000000000000000000000166001600160a01b0385169081179091556040805133815260208101929092527f0a9391dd2f7201dd6af8a5b6a5fe8dfee81ba9307eaff717f71c65f9d3df9fff935001905060405180910390a19695505050505050565b6000818154811061022757600080fd5b6000918252602090912001546001600160a01b0316905081565b6060600080548060200260200160405190810160405280929190818152602001828054801561029957602002820191906000526020600020905b81546001600160a01b0316815260019091019060200180831161027b575b5050505050905090565b6116c68061038083390190565b80356001600160a01b03811681146102c757600080fd5b919050565b600080600080600060a086880312156102e457600080fd5b6102ed866102b0565b94506102fb602087016102b0565b94979496505050506040830135926060810135926080909101359150565b60006020828403121561032b57600080fd5b5035919050565b6020808252825182820181905260009190848201906040850190845b818110156103735783516001600160a01b03168352928401929184019160010161034e565b5090969550505050505056fe60a06040523480156200001157600080fd5b50604051620016c6380380620016c68339810160408190526200003491620001f0565b6200003f3362000183565b60018055600880546001600160a01b038088166001600160a01b0319928316179092556007805492871692909116821790556006849055600383905560048281556040805163313ce56760e01b815290516000939263313ce567928082019260209290918290030181865afa158015620000bd573d6000803e3d6000fd5b505050506040513d601f19601f82011682018060405250810190620000e3919062000243565b60ff169050601e8110620001535760405162461bcd60e51b815260206004820152602d60248201527f446563696d616c73206f662072657761726420746f6b656e206d75737420626560448201526c0206c657373207468616e20333609c1b606482015260840160405180910390fd5b6200016081601e62000285565b6200016d90600a6200039e565b608052505060035460055550620003ac92505050565b600080546001600160a01b038381166001600160a01b0319831681178455604051919092169283917f8be0079c531659141344cd1fd0a4f28419497f9722a3daafe3b4186f6b6457e09190a35050565b80516001600160a01b0381168114620001eb57600080fd5b919050565b600080600080600060a086880312156200020957600080fd5b6200021486620001d3565b94506200022460208701620001d3565b6040870151606088015160809098015196999198509695945092505050565b6000602082840312156200025657600080fd5b815160ff811681146200026857600080fd5b9392505050565b634e487b7160e01b600052601160045260246000fd5b818103818111156200029b576200029b6200026f565b92915050565b600181815b80851115620002e2578160001904821115620002c657620002c66200026f565b80851615620002d457918102915b93841c9390800290620002a6565b509250929050565b600082620002fb575060016200029b565b816200030a575060006200029b565b81600181146200032357600281146200032e576200034e565b60019150506200029b565b60ff8411156200034257620003426200026f565b50506001821b6200029b565b5060208310610133831016604e8410600b841016171562000373575081810a6200029b565b6200037f8383620002a1565b80600019048211156200039657620003966200026f565b029392505050565b6000620002688383620002ea565b6080516112c662000400600039600081816102b701528181610411015281816104cb015281816106b8015281816107020152818161075a015281816109ac01528181610a690152610c6101526112c66000f3fe608060405234801561001057600080fd5b506004361061016c5760003560e01c80638f662915116100cd578063b6b55f2511610081578063ccd34cd511610066578063ccd34cd5146102b2578063f2fde38b146102d9578063f7c618c1146102ec57600080fd5b8063b6b55f251461028c578063cc7a262e1461029f57600080fd5b80639513997f116100b25780639513997f14610267578063a9f8d1811461027a578063b2d2900f1461028357600080fd5b80638f66291514610255578063921979af1461025e57600080fd5b8063604ef2e511610124578063797008c611610109578063797008c61461021f5780638ae39cac146102275780638da5cb5b1461023057600080fd5b8063604ef2e51461020e578063715018a61461021757600080fd5b80632e1a7d4d116101555780632e1a7d4d146101c75780633f138d4b146101da5780634df9d6ba146101ed57600080fd5b806301f8a976146101715780631959a00214610186575b600080fd5b61018461017f3660046110ea565b6102ff565b005b6101ad61019436600461111f565b600a602052600090815260409020805460019091015482565b604080519283526020830191909152015b60405180910390f35b6101846101d53660046110ea565b610398565b6101846101e836600461113a565b610546565b6102006101fb36600461111f565b610665565b6040519081526020016101be565b61020060045481565b61018461079e565b6101846107b2565b61020060065481565b6000546001600160a01b03165b6040516001600160a01b0390911681526020016101be565b61020060025481565b61020060095481565b610184610275366004611164565b6107f5565b61020060055481565b61020060035481565b61018461029a3660046110ea565b61097d565b60085461023d906001600160a01b031681565b6102007f000000000000000000000000000000000000000000000000000000000000000081565b6101846102e736600461111f565b610ae0565b60075461023d906001600160a01b031681565b610307610b6d565b600354431061035d5760405162461bcd60e51b815260206004820152601060248201527f506f6f6c2068617320737461727465640000000000000000000000000000000060448201526064015b60405180910390fd5b60068190556040518181527fc606f355efeddd89e42e997e575220501445590def6dd71bf081c2c51d6c0a4d9060200160405180910390a150565b6103a0610bc7565b336000908152600a6020526040902080548211156104005760405162461bcd60e51b815260206004820152601f60248201527f496e73756666696369656e7420616d6f756e7420746f207769746864726177006044820152606401610354565b610408610c20565b600081600101547f00000000000000000000000000000000000000000000000000000000000000006002548460000154610442919061119c565b61044c91906111b3565b61045691906111d5565b905082156104a7578282600001600082825461047291906111d5565b92505081905550826009600082825461048b91906111d5565b90915550506008546104a7906001600160a01b03163385610cad565b80156104c4576007546104c4906001600160a01b03163383610cad565b60025482547f0000000000000000000000000000000000000000000000000000000000000000916104f49161119c565b6104fe91906111b3565b600183015560405183815233907f884edad9ce6fa2440d8a54cc123490eb96d2768479d49ff9c7366125a94243649060200160405180910390a2505061054360018055565b50565b61054e610b6d565b6008546001600160a01b03908116908316036105ac5760405162461bcd60e51b815260206004820152601660248201527f43616e6e6f74206265207374616b656420746f6b656e000000000000000000006044820152606401610354565b6007546001600160a01b039081169083160361060a5760405162461bcd60e51b815260206004820152601660248201527f43616e6e6f742062652072657761726420746f6b656e000000000000000000006044820152606401610354565b61061e6001600160a01b0383163383610cad565b604080516001600160a01b0384168152602081018390527ffba2d3bdfb2d601eb66a89783a2c614856101cadce71556753c2edadd60c831c91015b60405180910390a15050565b6001600160a01b0381166000908152600a602052604081206005544311801561068f575060095415155b1561074e5760006106a260055443610d5b565b6006546106af919061119c565b905060006009547f0000000000000000000000000000000000000000000000000000000000000000836106e2919061119c565b6106ec91906111b3565b6002546106f991906111e8565b905082600101547f0000000000000000000000000000000000000000000000000000000000000000828560000154610731919061119c565b61073b91906111b3565b61074591906111d5565b95945050505050565b600181015460025482547f0000000000000000000000000000000000000000000000000000000000000000916107839161119c565b61078d91906111b3565b61079791906111d5565b9392505050565b6107a6610b6d565b6107b06000610d9c565b565b6107ba610b6d565b4360048190556040519081527fafb6c2f001c26fd9b9b6bfc8fa9dd1a41e3b501527a831cece8570604da4eef39060200160405180910390a1565b6107fd610b6d565b600354431061084e5760405162461bcd60e51b815260206004820152601060248201527f506f6f6c206861732073746172746564000000000000000000000000000000006044820152606401610354565b8082106108c35760405162461bcd60e51b815260206004820152603060248201527f4e657720737461727420626c6f636b206d757374206265206c6f77657220746860448201527f616e206e657720656e6420626c6f636b000000000000000000000000000000006064820152608401610354565b8143106109385760405162461bcd60e51b815260206004820152603160248201527f4e657720737461727420626c6f636b206d75737420626520686967686572207460448201527f68616e2063757272656e7420626c6f636b0000000000000000000000000000006064820152608401610354565b60038290556004819055600582905560408051838152602081018390527f053462fec8f17a9d662e3778a6027b6c0c1ac0da2390a991aa33cb3aa60cae4e9101610659565b610985610bc7565b336000908152600a6020526040902061099c610c20565b805415610a1257600081600101547f000000000000000000000000000000000000000000000000000000000000000060025484600001546109dd919061119c565b6109e791906111b3565b6109f191906111d5565b90508015610a1057600754610a10906001600160a01b03163383610cad565b505b8115610a625781816000016000828254610a2c91906111e8565b925050819055508160096000828254610a4591906111e8565b9091555050600854610a62906001600160a01b0316333085610e04565b60025481547f000000000000000000000000000000000000000000000000000000000000000091610a929161119c565b610a9c91906111b3565b600182015560405182815233907fe1fffcc4923d04b559f4d29a8bfc6cda04eb5b0d3c460751c2402c5c5cc9109c9060200160405180910390a25061054360018055565b610ae8610b6d565b6001600160a01b038116610b645760405162461bcd60e51b815260206004820152602660248201527f4f776e61626c653a206e6577206f776e657220697320746865207a65726f206160448201527f64647265737300000000000000000000000000000000000000000000000000006064820152608401610354565b61054381610d9c565b6000546001600160a01b031633146107b05760405162461bcd60e51b815260206004820181905260248201527f4f776e61626c653a2063616c6c6572206973206e6f7420746865206f776e65726044820152606401610354565b600260015403610c195760405162461bcd60e51b815260206004820152601f60248201527f5265656e7472616e637947756172643a207265656e7472616e742063616c6c006044820152606401610354565b6002600155565b6005544311610c2b57565b600954600003610c3b5743600555565b6000610c4960055443610d5b565b600654610c56919061119c565b600954909150610c867f00000000000000000000000000000000000000000000000000000000000000008361119c565b610c9091906111b3565b60026000828254610ca191906111e8565b90915550504360055550565b6040516001600160a01b038316602482015260448101829052610d569084907fa9059cbb00000000000000000000000000000000000000000000000000000000906064015b60408051601f198184030181529190526020810180517bffffffffffffffffffffffffffffffffffffffffffffffffffffffff167fffffffff0000000000000000000000000000000000000000000000000000000090931692909217909152610e5b565b505050565b60006004548211610d7757610d7083836111d5565b9050610d96565b6004548310610d8857506000610d96565b82600454610d7091906111d5565b92915050565b600080546001600160a01b038381167fffffffffffffffffffffffff0000000000000000000000000000000000000000831681178455604051919092169283917f8be0079c531659141344cd1fd0a4f28419497f9722a3daafe3b4186f6b6457e09190a35050565b6040516001600160a01b0380851660248301528316604482015260648101829052610e559085907f23b872dd0000000000000000000000000000000000000000000000000000000090608401610cf2565b50505050565b6000610eb0826040518060400160405280602081526020017f5361666545524332303a206c6f772d6c6576656c2063616c6c206661696c6564815250856001600160a01b0316610f439092919063ffffffff16565b9050805160001480610ed1575080806020019051810190610ed191906111fb565b610d565760405162461bcd60e51b815260206004820152602a60248201527f5361666545524332303a204552433230206f7065726174696f6e20646964206e60448201527f6f742073756363656564000000000000000000000000000000000000000000006064820152608401610354565b6060610f528484600085610f5a565b949350505050565b606082471015610fd25760405162461bcd60e51b815260206004820152602660248201527f416464726573733a20696e73756666696369656e742062616c616e636520666f60448201527f722063616c6c00000000000000000000000000000000000000000000000000006064820152608401610354565b600080866001600160a01b03168587604051610fee9190611241565b60006040518083038185875af1925050503d806000811461102b576040519150601f19603f3d011682016040523d82523d6000602084013e611030565b606091505b50915091506110418783838761104c565b979650505050505050565b606083156110bb5782516000036110b4576001600160a01b0385163b6110b45760405162461bcd60e51b815260206004820152601d60248201527f416464726573733a2063616c6c20746f206e6f6e2d636f6e74726163740000006044820152606401610354565b5081610f52565b610f5283838151156110d05781518083602001fd5b8060405162461bcd60e51b8152600401610354919061125d565b6000602082840312156110fc57600080fd5b5035919050565b80356001600160a01b038116811461111a57600080fd5b919050565b60006020828403121561113157600080fd5b61079782611103565b6000806040838503121561114d57600080fd5b61115683611103565b946020939093013593505050565b6000806040838503121561117757600080fd5b50508035926020909101359150565b634e487b7160e01b600052601160045260246000fd5b8082028115828204841417610d9657610d96611186565b6000826111d057634e487b7160e01b600052601260045260246000fd5b500490565b81810381811115610d9657610d96611186565b80820180821115610d9657610d96611186565b60006020828403121561120d57600080fd5b8151801515811461079757600080fd5b60005b83811015611238578181015183820152602001611220565b50506000910152565b6000825161125381846020870161121d565b9190910192915050565b602081526000825180602084015261127c81604085016020870161121d565b601f01601f1916919091016040019291505056fea2646970667358221220dd9b8a16913f152e2f7d020904ce778effa362b03f5a54d72546405f42137a6a64736f6c63430008110033a2646970667358221220a2072159de514366afba7b2c8a029be5a2d9a00279ad5e9491b6d72d5112aae764736f6c63430008110033",
  "linkReferences": {},
  "deployedLinkReferences": {}
}