{
  "_format": "hh-sol-artifact-1",
  "contractName": "StakingPoolManager",
  "sourceName": "src/backend/contracts/StakingPoolManager.sol",
  "abi": [
    {
      "anonymous": false,
      "inputs": [
        {
          "indexed": false,
          "internalType": "address",
          "name": "owner",
          "type": "address"
        },
        {
          "indexed": false,
          "internalType": "address",
          "name": "stakingPool",
          "type": "address"
        }
      ],
      "name": "CreateStakingPool",
      "type": "event"
    },
    {
      "inputs": [
        {
          "internalType": "contract ERC20",
          "name": "_stakedToken",
          "type": "address"
        },
        {
          "internalType": "contract ERC20",
          "name": "_rewardToken",
          "type": "address"
        },
        {
          "internalType": "uint256",
          "name": "_rewardPerBlock",
          "type": "uint256"
        },
        {
          "internalType": "uint256",
          "name": "_rewardStartBlock",
          "type": "uint256"
        },
        {
          "internalType": "uint256",
          "name": "_rewardEndBlock",
          "type": "uint256"
        }
      ],
      "name": "createStakingPool",
      "outputs": [
        {
          "internalType": "contract StakingPool",
          "name": "",
          "type": "address"
        }
      ],
      "stateMutability": "nonpayable",
      "type": "function"
    },
    {
      "inputs": [],
      "name": "getAllStakingPools",
      "outputs": [
        {
          "internalType": "address[]",
          "name": "",
          "type": "address[]"
        }
      ],
      "stateMutability": "view",
      "type": "function"
    },
    {
      "inputs": [
        {
          "internalType": "uint256",
          "name": "",
          "type": "uint256"
        }
      ],
      "name": "stakingPools",
      "outputs": [
        {
          "internalType": "address",
          "name": "",
          "type": "address"
        }
      ],
      "stateMutability": "view",
      "type": "function"
    }
  ],
  "bytecode": "0x608060405234801561001057600080fd5b50612eec806100206000396000f3fe60806040523480156200001157600080fd5b5060043610620000465760003560e01c8063405afeef146200004b5780635aad6cf01462000081578063d9d5485814620000b7575b600080fd5b620000696004803603810190620000639190620003d0565b620000d9565b604051620000789190620004c3565b60405180910390f35b6200009f6004803603810190620000999190620004e0565b62000239565b604051620000ae919062000523565b60405180910390f35b620000c162000279565b604051620000d091906200060e565b60405180910390f35b6000808686868686604051620000ef9062000309565b620000ff95949392919062000668565b604051809103906000f0801580156200011c573d6000803e3d6000fd5b5090508073ffffffffffffffffffffffffffffffffffffffff1663f2fde38b336040518263ffffffff1660e01b81526004016200015a919062000523565b600060405180830381600087803b1580156200017557600080fd5b505af11580156200018a573d6000803e3d6000fd5b505050506000819080600181540180825580915050600190039060005260206000200160009091909190916101000a81548173ffffffffffffffffffffffffffffffffffffffff021916908373ffffffffffffffffffffffffffffffffffffffff1602179055507f0a9391dd2f7201dd6af8a5b6a5fe8dfee81ba9307eaff717f71c65f9d3df9fff338260405162000224929190620006c5565b60405180910390a18091505095945050505050565b600081815481106200024a57600080fd5b906000526020600020016000915054906101000a900473ffffffffffffffffffffffffffffffffffffffff1681565b60606000805480602002602001604051908101604052809291908181526020018280548015620002ff57602002820191906000526020600020905b8160009054906101000a900473ffffffffffffffffffffffffffffffffffffffff1673ffffffffffffffffffffffffffffffffffffffff1681526020019060010190808311620002b4575b5050505050905090565b6127c480620006f383390190565b600080fd5b600073ffffffffffffffffffffffffffffffffffffffff82169050919050565b600062000349826200031c565b9050919050565b60006200035d826200033c565b9050919050565b6200036f8162000350565b81146200037b57600080fd5b50565b6000813590506200038f8162000364565b92915050565b6000819050919050565b620003aa8162000395565b8114620003b657600080fd5b50565b600081359050620003ca816200039f565b92915050565b600080600080600060a08688031215620003ef57620003ee62000317565b5b6000620003ff888289016200037e565b955050602062000412888289016200037e565b94505060406200042588828901620003b9565b93505060606200043888828901620003b9565b92505060806200044b88828901620003b9565b9150509295509295909350565b6000819050919050565b6000620004836200047d62000477846200031c565b62000458565b6200031c565b9050919050565b6000620004978262000462565b9050919050565b6000620004ab826200048a565b9050919050565b620004bd816200049e565b82525050565b6000602082019050620004da6000830184620004b2565b92915050565b600060208284031215620004f957620004f862000317565b5b60006200050984828501620003b9565b91505092915050565b6200051d816200033c565b82525050565b60006020820190506200053a600083018462000512565b92915050565b600081519050919050565b600082825260208201905092915050565b6000819050602082019050919050565b62000577816200033c565b82525050565b60006200058b83836200056c565b60208301905092915050565b6000602082019050919050565b6000620005b18262000540565b620005bd81856200054b565b9350620005ca836200055c565b8060005b8381101562000601578151620005e588826200057d565b9750620005f28362000597565b925050600181019050620005ce565b5085935050505092915050565b600060208201905081810360008301526200062a8184620005a4565b905092915050565b60006200063f826200048a565b9050919050565b620006518162000632565b82525050565b620006628162000395565b82525050565b600060a0820190506200067f600083018862000646565b6200068e602083018762000646565b6200069d604083018662000657565b620006ac606083018562000657565b620006bb608083018462000657565b9695505050505050565b6000604082019050620006dc600083018562000512565b620006eb602083018462000512565b939250505056fe60a06040523480156200001157600080fd5b50604051620027c4380380620027c4833981810160405281019062000037919062000394565b620000576200004b6200020f60201b60201c565b6200021760201b60201c565b6001808190555084600860006101000a81548173ffffffffffffffffffffffffffffffffffffffff021916908373ffffffffffffffffffffffffffffffffffffffff16021790555083600760006101000a81548173ffffffffffffffffffffffffffffffffffffffff021916908373ffffffffffffffffffffffffffffffffffffffff1602179055508260068190555081600381905550806004819055506000600760009054906101000a900473ffffffffffffffffffffffffffffffffffffffff1673ffffffffffffffffffffffffffffffffffffffff1663313ce5676040518163ffffffff1660e01b8152600401602060405180830381865afa15801562000165573d6000803e3d6000fd5b505050506040513d601f19601f820116820180604052508101906200018b91906200045a565b60ff169050601e8110620001d6576040517f08c379a0000000000000000000000000000000000000000000000000000000008152600401620001cd9062000513565b60405180910390fd5b80601e620001e5919062000564565b600a620001f39190620006f3565b6080818152505060035460058190555050505050505062000744565b600033905090565b60008060009054906101000a900473ffffffffffffffffffffffffffffffffffffffff169050816000806101000a81548173ffffffffffffffffffffffffffffffffffffffff021916908373ffffffffffffffffffffffffffffffffffffffff1602179055508173ffffffffffffffffffffffffffffffffffffffff168173ffffffffffffffffffffffffffffffffffffffff167f8be0079c531659141344cd1fd0a4f28419497f9722a3daafe3b4186f6b6457e060405160405180910390a35050565b600080fd5b600073ffffffffffffffffffffffffffffffffffffffff82169050919050565b60006200030d82620002e0565b9050919050565b6000620003218262000300565b9050919050565b620003338162000314565b81146200033f57600080fd5b50565b600081519050620003538162000328565b92915050565b6000819050919050565b6200036e8162000359565b81146200037a57600080fd5b50565b6000815190506200038e8162000363565b92915050565b600080600080600060a08688031215620003b357620003b2620002db565b5b6000620003c38882890162000342565b9550506020620003d68882890162000342565b9450506040620003e9888289016200037d565b9350506060620003fc888289016200037d565b92505060806200040f888289016200037d565b9150509295509295909350565b600060ff82169050919050565b62000434816200041c565b81146200044057600080fd5b50565b600081519050620004548162000429565b92915050565b600060208284031215620004735762000472620002db565b5b6000620004838482850162000443565b91505092915050565b600082825260208201905092915050565b7f446563696d616c73206f662072657761726420746f6b656e206d75737420626560008201527f206c657373207468616e20333000000000000000000000000000000000000000602082015250565b6000620004fb602d836200048c565b915062000508826200049d565b604082019050919050565b600060208201905081810360008301526200052e81620004ec565b9050919050565b7f4e487b7100000000000000000000000000000000000000000000000000000000600052601160045260246000fd5b6000620005718262000359565b91506200057e8362000359565b925082820390508181111562000599576200059862000535565b5b92915050565b60008160011c9050919050565b6000808291508390505b6001851115620005fe57808604811115620005d657620005d562000535565b5b6001851615620005e65780820291505b8081029050620005f6856200059f565b9450620005b6565b94509492505050565b600082620006195760019050620006ec565b81620006295760009050620006ec565b81600181146200064257600281146200064d5762000683565b6001915050620006ec565b60ff84111562000662576200066162000535565b5b8360020a9150848211156200067c576200067b62000535565b5b50620006ec565b5060208310610133831016604e8410600b8410161715620006bd5782820a905083811115620006b757620006b662000535565b5b620006ec565b620006cc8484846001620005ac565b92509050818404811115620006e657620006e562000535565b5b81810290505b9392505050565b6000620007008262000359565b91506200070d8362000359565b92506200073c7fffffffffffffffffffffffffffffffffffffffffffffffffffffffffffffffff848462000607565b905092915050565b60805161202c62000798600039600081816104ce015281816105f9015281816108a8015281816108f20152818161094601528181610bcc01528181610cfb01528181610dc00152610f9a015261202c6000f3fe608060405234801561001057600080fd5b506004361061012c5760003560e01c80638f662915116100ad578063b6b55f2511610071578063b6b55f25146102e8578063cc7a262e14610304578063ccd34cd514610322578063f2fde38b14610340578063f7c618c11461035c5761012c565b80638f66291514610254578063921979af146102725780639513997f14610290578063a9f8d181146102ac578063b2d2900f146102ca5761012c565b8063604ef2e5116100f4578063604ef2e5146101e6578063715018a614610204578063797008c61461020e5780638ae39cac146102185780638da5cb5b146102365761012c565b806301f8a976146101315780631959a0021461014d5780632e1a7d4d1461017e5780633f138d4b1461019a5780634df9d6ba146101b6575b600080fd5b61014b600480360381019061014691906114eb565b61037a565b005b61016760048036038101906101629190611576565b610407565b6040516101759291906115b2565b60405180910390f35b610198600480360381019061019391906114eb565b61042b565b005b6101b460048036038101906101af91906115db565b610697565b005b6101d060048036038101906101cb9190611576565b610827565b6040516101dd919061161b565b60405180910390f35b6101ee610994565b6040516101fb919061161b565b60405180910390f35b61020c61099a565b005b6102166109ae565b005b6102206109f8565b60405161022d919061161b565b60405180910390f35b61023e6109fe565b60405161024b9190611645565b60405180910390f35b61025c610a27565b604051610269919061161b565b60405180910390f35b61027a610a2d565b604051610287919061161b565b60405180910390f35b6102aa60048036038101906102a59190611660565b610a33565b005b6102b4610b57565b6040516102c1919061161b565b60405180910390f35b6102d2610b5d565b6040516102df919061161b565b60405180910390f35b61030260048036038101906102fd91906114eb565b610b63565b005b61030c610d98565b60405161031991906116ff565b60405180910390f35b61032a610dbe565b604051610337919061161b565b60405180910390f35b61035a60048036038101906103559190611576565b610de2565b005b610364610e65565b60405161037191906116ff565b60405180910390f35b610382610e8b565b60035443106103c6576040517f08c379a00000000000000000000000000000000000000000000000000000000081526004016103bd90611777565b60405180910390fd5b806006819055507fc606f355efeddd89e42e997e575220501445590def6dd71bf081c2c51d6c0a4d816040516103fc919061161b565b60405180910390a150565b600a6020528060005260406000206000915090508060000154908060010154905082565b610433610f09565b6000600a60003373ffffffffffffffffffffffffffffffffffffffff1673ffffffffffffffffffffffffffffffffffffffff168152602001908152602001600020905081816000015410156104bd576040517f08c379a00000000000000000000000000000000000000000000000000000000081526004016104b4906117e3565b60405180910390fd5b6104c5610f58565b600081600101547f000000000000000000000000000000000000000000000000000000000000000060025484600001546104ff9190611832565b61050991906118a3565b61051391906118d4565b905060008311156105a0578282600001600082825461053291906118d4565b92505081905550826009600082825461054b91906118d4565b9250508190555061059f3384600860009054906101000a900473ffffffffffffffffffffffffffffffffffffffff1673ffffffffffffffffffffffffffffffffffffffff16610ff19092919063ffffffff16565b5b60008111156105f7576105f63382600760009054906101000a900473ffffffffffffffffffffffffffffffffffffffff1673ffffffffffffffffffffffffffffffffffffffff16610ff19092919063ffffffff16565b5b7f0000000000000000000000000000000000000000000000000000000000000000600254836000015461062a9190611832565b61063491906118a3565b82600101819055503373ffffffffffffffffffffffffffffffffffffffff167f884edad9ce6fa2440d8a54cc123490eb96d2768479d49ff9c7366125a942436484604051610682919061161b565b60405180910390a25050610694611077565b50565b61069f610e8b565b600860009054906101000a900473ffffffffffffffffffffffffffffffffffffffff1673ffffffffffffffffffffffffffffffffffffffff168273ffffffffffffffffffffffffffffffffffffffff160361072f576040517f08c379a000000000000000000000000000000000000000000000000000000000815260040161072690611954565b60405180910390fd5b600760009054906101000a900473ffffffffffffffffffffffffffffffffffffffff1673ffffffffffffffffffffffffffffffffffffffff168273ffffffffffffffffffffffffffffffffffffffff16036107bf576040517f08c379a00000000000000000000000000000000000000000000000000000000081526004016107b6906119c0565b60405180910390fd5b6107ea33828473ffffffffffffffffffffffffffffffffffffffff16610ff19092919063ffffffff16565b7ffba2d3bdfb2d601eb66a89783a2c614856101cadce71556753c2edadd60c831c828260405161081b9291906119e0565b60405180910390a15050565b600080600a60008473ffffffffffffffffffffffffffffffffffffffff1673ffffffffffffffffffffffffffffffffffffffff16815260200190815260200160002090506005544311801561087f5750600060095414155b1561093f57600061089260055443611080565b60065461089f9190611832565b905060006009547f0000000000000000000000000000000000000000000000000000000000000000836108d29190611832565b6108dc91906118a3565b6002546108e99190611a09565b905082600101547f00000000000000000000000000000000000000000000000000000000000000008285600001546109219190611832565b61092b91906118a3565b61093591906118d4565b935050505061098f565b80600101547f000000000000000000000000000000000000000000000000000000000000000060025483600001546109779190611832565b61098191906118a3565b61098b91906118d4565b9150505b919050565b60045481565b6109a2610e8b565b6109ac60006110c7565b565b6109b6610e8b565b436004819055507fafb6c2f001c26fd9b9b6bfc8fa9dd1a41e3b501527a831cece8570604da4eef36004546040516109ee919061161b565b60405180910390a1565b60065481565b60008060009054906101000a900473ffffffffffffffffffffffffffffffffffffffff16905090565b60025481565b60095481565b610a3b610e8b565b6003544310610a7f576040517f08c379a0000000000000000000000000000000000000000000000000000000008152600401610a7690611777565b60405180910390fd5b808210610ac1576040517f08c379a0000000000000000000000000000000000000000000000000000000008152600401610ab890611aaf565b60405180910390fd5b814310610b03576040517f08c379a0000000000000000000000000000000000000000000000000000000008152600401610afa90611b41565b60405180910390fd5b81600381905550806004819055506003546005819055507f053462fec8f17a9d662e3778a6027b6c0c1ac0da2390a991aa33cb3aa60cae4e8282604051610b4b9291906115b2565b60405180910390a15050565b60055481565b60035481565b610b6b610f09565b6000600a60003373ffffffffffffffffffffffffffffffffffffffff1673ffffffffffffffffffffffffffffffffffffffff1681526020019081526020016000209050610bb6610f58565b600081600001541115610c6c57600081600101547f00000000000000000000000000000000000000000000000000000000000000006002548460000154610bfd9190611832565b610c0791906118a3565b610c1191906118d4565b90506000811115610c6a57610c693382600760009054906101000a900473ffffffffffffffffffffffffffffffffffffffff1673ffffffffffffffffffffffffffffffffffffffff16610ff19092919063ffffffff16565b5b505b6000821115610cf95781816000016000828254610c899190611a09565b925050819055508160096000828254610ca29190611a09565b92505081905550610cf8333084600860009054906101000a900473ffffffffffffffffffffffffffffffffffffffff1673ffffffffffffffffffffffffffffffffffffffff1661118b909392919063ffffffff16565b5b7f00000000000000000000000000000000000000000000000000000000000000006002548260000154610d2c9190611832565b610d3691906118a3565b81600101819055503373ffffffffffffffffffffffffffffffffffffffff167fe1fffcc4923d04b559f4d29a8bfc6cda04eb5b0d3c460751c2402c5c5cc9109c83604051610d84919061161b565b60405180910390a250610d95611077565b50565b600860009054906101000a900473ffffffffffffffffffffffffffffffffffffffff1681565b7f000000000000000000000000000000000000000000000000000000000000000081565b610dea610e8b565b600073ffffffffffffffffffffffffffffffffffffffff168173ffffffffffffffffffffffffffffffffffffffff1603610e59576040517f08c379a0000000000000000000000000000000000000000000000000000000008152600401610e5090611bd3565b60405180910390fd5b610e62816110c7565b50565b600760009054906101000a900473ffffffffffffffffffffffffffffffffffffffff1681565b610e93611214565b73ffffffffffffffffffffffffffffffffffffffff16610eb16109fe565b73ffffffffffffffffffffffffffffffffffffffff1614610f07576040517f08c379a0000000000000000000000000000000000000000000000000000000008152600401610efe90611c3f565b60405180910390fd5b565b600260015403610f4e576040517f08c379a0000000000000000000000000000000000000000000000000000000008152600401610f4590611cab565b60405180910390fd5b6002600181905550565b600554431115610fef57600060095403610f785743600581905550610fef565b6000610f8660055443611080565b600654610f939190611832565b90506009547f000000000000000000000000000000000000000000000000000000000000000082610fc49190611832565b610fce91906118a3565b60026000828254610fdf9190611a09565b9250508190555043600581905550505b565b6110728363a9059cbb60e01b84846040516024016110109291906119e0565b604051602081830303815290604052907bffffffffffffffffffffffffffffffffffffffffffffffffffffffff19166020820180517bffffffffffffffffffffffffffffffffffffffffffffffffffffffff838183161783525050505061121c565b505050565b60018081905550565b6000600454821161109e57828261109791906118d4565b90506110c1565b60045483106110b057600090506110c1565b826004546110be91906118d4565b90505b92915050565b60008060009054906101000a900473ffffffffffffffffffffffffffffffffffffffff169050816000806101000a81548173ffffffffffffffffffffffffffffffffffffffff021916908373ffffffffffffffffffffffffffffffffffffffff1602179055508173ffffffffffffffffffffffffffffffffffffffff168173ffffffffffffffffffffffffffffffffffffffff167f8be0079c531659141344cd1fd0a4f28419497f9722a3daafe3b4186f6b6457e060405160405180910390a35050565b61120e846323b872dd60e01b8585856040516024016111ac93929190611ccb565b604051602081830303815290604052907bffffffffffffffffffffffffffffffffffffffffffffffffffffffff19166020820180517bffffffffffffffffffffffffffffffffffffffffffffffffffffffff838183161783525050505061121c565b50505050565b600033905090565b600061127e826040518060400160405280602081526020017f5361666545524332303a206c6f772d6c6576656c2063616c6c206661696c65648152508573ffffffffffffffffffffffffffffffffffffffff166112e39092919063ffffffff16565b90506000815111156112de578080602001905181019061129e9190611d3a565b6112dd576040517f08c379a00000000000000000000000000000000000000000000000000000000081526004016112d490611dd9565b60405180910390fd5b5b505050565b60606112f284846000856112fb565b90509392505050565b606082471015611340576040517f08c379a000000000000000000000000000000000000000000000000000000000815260040161133790611e6b565b60405180910390fd5b6000808673ffffffffffffffffffffffffffffffffffffffff1685876040516113699190611efc565b60006040518083038185875af1925050503d80600081146113a6576040519150601f19603f3d011682016040523d82523d6000602084013e6113ab565b606091505b50915091506113bc878383876113c8565b92505050949350505050565b6060831561142a576000835103611422576113e28561143d565b611421576040517f08c379a000000000000000000000000000000000000000000000000000000000815260040161141890611f5f565b60405180910390fd5b5b829050611435565b6114348383611460565b5b949350505050565b6000808273ffffffffffffffffffffffffffffffffffffffff163b119050919050565b6000825111156114735781518083602001fd5b806040517f08c379a00000000000000000000000000000000000000000000000000000000081526004016114a79190611fd4565b60405180910390fd5b600080fd5b6000819050919050565b6114c8816114b5565b81146114d357600080fd5b50565b6000813590506114e5816114bf565b92915050565b600060208284031215611501576115006114b0565b5b600061150f848285016114d6565b91505092915050565b600073ffffffffffffffffffffffffffffffffffffffff82169050919050565b600061154382611518565b9050919050565b61155381611538565b811461155e57600080fd5b50565b6000813590506115708161154a565b92915050565b60006020828403121561158c5761158b6114b0565b5b600061159a84828501611561565b91505092915050565b6115ac816114b5565b82525050565b60006040820190506115c760008301856115a3565b6115d460208301846115a3565b9392505050565b600080604083850312156115f2576115f16114b0565b5b600061160085828601611561565b9250506020611611858286016114d6565b9150509250929050565b600060208201905061163060008301846115a3565b92915050565b61163f81611538565b82525050565b600060208201905061165a6000830184611636565b92915050565b60008060408385031215611677576116766114b0565b5b6000611685858286016114d6565b9250506020611696858286016114d6565b9150509250929050565b6000819050919050565b60006116c56116c06116bb84611518565b6116a0565b611518565b9050919050565b60006116d7826116aa565b9050919050565b60006116e9826116cc565b9050919050565b6116f9816116de565b82525050565b600060208201905061171460008301846116f0565b92915050565b600082825260208201905092915050565b7f506f6f6c20686173207374617274656400000000000000000000000000000000600082015250565b600061176160108361171a565b915061176c8261172b565b602082019050919050565b6000602082019050818103600083015261179081611754565b9050919050565b7f496e73756666696369656e7420616d6f756e7420746f20776974686472617700600082015250565b60006117cd601f8361171a565b91506117d882611797565b602082019050919050565b600060208201905081810360008301526117fc816117c0565b9050919050565b7f4e487b7100000000000000000000000000000000000000000000000000000000600052601160045260246000fd5b600061183d826114b5565b9150611848836114b5565b9250828202611856816114b5565b9150828204841483151761186d5761186c611803565b5b5092915050565b7f4e487b7100000000000000000000000000000000000000000000000000000000600052601260045260246000fd5b60006118ae826114b5565b91506118b9836114b5565b9250826118c9576118c8611874565b5b828204905092915050565b60006118df826114b5565b91506118ea836114b5565b925082820390508181111561190257611901611803565b5b92915050565b7f43616e6e6f74206265207374616b656420746f6b656e00000000000000000000600082015250565b600061193e60168361171a565b915061194982611908565b602082019050919050565b6000602082019050818103600083015261196d81611931565b9050919050565b7f43616e6e6f742062652072657761726420746f6b656e00000000000000000000600082015250565b60006119aa60168361171a565b91506119b582611974565b602082019050919050565b600060208201905081810360008301526119d98161199d565b9050919050565b60006040820190506119f56000830185611636565b611a0260208301846115a3565b9392505050565b6000611a14826114b5565b9150611a1f836114b5565b9250828201905080821115611a3757611a36611803565b5b92915050565b7f4e657720737461727420626c6f636b206d757374206265206c6f77657220746860008201527f616e206e657720656e6420626c6f636b00000000000000000000000000000000602082015250565b6000611a9960308361171a565b9150611aa482611a3d565b604082019050919050565b60006020820190508181036000830152611ac881611a8c565b9050919050565b7f4e657720737461727420626c6f636b206d75737420626520686967686572207460008201527f68616e2063757272656e7420626c6f636b000000000000000000000000000000602082015250565b6000611b2b60318361171a565b9150611b3682611acf565b604082019050919050565b60006020820190508181036000830152611b5a81611b1e565b9050919050565b7f4f776e61626c653a206e6577206f776e657220697320746865207a65726f206160008201527f6464726573730000000000000000000000000000000000000000000000000000602082015250565b6000611bbd60268361171a565b9150611bc882611b61565b604082019050919050565b60006020820190508181036000830152611bec81611bb0565b9050919050565b7f4f776e61626c653a2063616c6c6572206973206e6f7420746865206f776e6572600082015250565b6000611c2960208361171a565b9150611c3482611bf3565b602082019050919050565b60006020820190508181036000830152611c5881611c1c565b9050919050565b7f5265656e7472616e637947756172643a207265656e7472616e742063616c6c00600082015250565b6000611c95601f8361171a565b9150611ca082611c5f565b602082019050919050565b60006020820190508181036000830152611cc481611c88565b9050919050565b6000606082019050611ce06000830186611636565b611ced6020830185611636565b611cfa60408301846115a3565b949350505050565b60008115159050919050565b611d1781611d02565b8114611d2257600080fd5b50565b600081519050611d3481611d0e565b92915050565b600060208284031215611d5057611d4f6114b0565b5b6000611d5e84828501611d25565b91505092915050565b7f5361666545524332303a204552433230206f7065726174696f6e20646964206e60008201527f6f74207375636365656400000000000000000000000000000000000000000000602082015250565b6000611dc3602a8361171a565b9150611dce82611d67565b604082019050919050565b60006020820190508181036000830152611df281611db6565b9050919050565b7f416464726573733a20696e73756666696369656e742062616c616e636520666f60008201527f722063616c6c0000000000000000000000000000000000000000000000000000602082015250565b6000611e5560268361171a565b9150611e6082611df9565b604082019050919050565b60006020820190508181036000830152611e8481611e48565b9050919050565b600081519050919050565b600081905092915050565b60005b83811015611ebf578082015181840152602081019050611ea4565b60008484015250505050565b6000611ed682611e8b565b611ee08185611e96565b9350611ef0818560208601611ea1565b80840191505092915050565b6000611f088284611ecb565b915081905092915050565b7f416464726573733a2063616c6c20746f206e6f6e2d636f6e7472616374000000600082015250565b6000611f49601d8361171a565b9150611f5482611f13565b602082019050919050565b60006020820190508181036000830152611f7881611f3c565b9050919050565b600081519050919050565b6000601f19601f8301169050919050565b6000611fa682611f7f565b611fb0818561171a565b9350611fc0818560208601611ea1565b611fc981611f8a565b840191505092915050565b60006020820190508181036000830152611fee8184611f9b565b90509291505056fea26469706673582212208a4c24b1d8e76d31c89b2ca7718d54e2af1a4ee1725d3084f3a64c38a433a01064736f6c63430008110033a26469706673582212200befc5230e79fa0f4a4e31a0c0b51296e8be630a61029f5a14a1f8340de4600364736f6c63430008110033",
  "linkReferences": {},
  "deployedLinkReferences": {}
}