{
  "_format": "hh-sol-artifact-1",
  "contractName": "StakingPoolManager",
  "sourceName": "src/backend/contracts/StakingPoolManager.sol",
  "abi": [
    {
      "anonymous": false,
      "inputs": [
        {
          "indexed": false,
          "internalType": "address",
          "name": "owner",
          "type": "address"
        },
        {
          "indexed": false,
          "internalType": "address",
          "name": "stakingPool",
          "type": "address"
        }
      ],
      "name": "CreateStakingPool",
      "type": "event"
    },
    {
      "anonymous": false,
      "inputs": [
        {
          "indexed": false,
          "internalType": "address",
          "name": "supplier",
          "type": "address"
        },
        {
          "indexed": false,
          "internalType": "address",
          "name": "stakingPool",
          "type": "address"
        },
        {
          "indexed": false,
          "internalType": "address",
          "name": "rewardToken",
          "type": "address"
        },
        {
          "indexed": false,
          "internalType": "uint256",
          "name": "amount",
          "type": "uint256"
        }
      ],
      "name": "SupplyReward",
      "type": "event"
    },
    {
      "inputs": [
        {
          "internalType": "contract ERC20",
          "name": "_stakedToken",
          "type": "address"
        },
        {
          "internalType": "contract ERC20",
          "name": "_rewardToken",
          "type": "address"
        },
        {
          "internalType": "uint256",
          "name": "_rewardPerBlock",
          "type": "uint256"
        },
        {
          "internalType": "uint256",
          "name": "_rewardStartBlock",
          "type": "uint256"
        },
        {
          "internalType": "uint256",
          "name": "_rewardEndBlock",
          "type": "uint256"
        }
      ],
      "name": "createStakingPool",
      "outputs": [
        {
          "internalType": "contract StakingPool",
          "name": "",
          "type": "address"
        }
      ],
      "stateMutability": "nonpayable",
      "type": "function"
    },
    {
      "inputs": [],
      "name": "getAllStakingPools",
      "outputs": [
        {
          "internalType": "address[]",
          "name": "",
          "type": "address[]"
        }
      ],
      "stateMutability": "view",
      "type": "function"
    },
    {
      "inputs": [
        {
          "internalType": "uint256",
          "name": "",
          "type": "uint256"
        }
      ],
      "name": "stakingPools",
      "outputs": [
        {
          "internalType": "address",
          "name": "",
          "type": "address"
        }
      ],
      "stateMutability": "view",
      "type": "function"
    },
    {
      "inputs": [
        {
          "internalType": "contract StakingPool",
          "name": "_stakingPool",
          "type": "address"
        },
        {
          "internalType": "uint256",
          "name": "_amount",
          "type": "uint256"
        }
      ],
      "name": "supplyReward",
      "outputs": [],
      "stateMutability": "nonpayable",
      "type": "function"
    }
  ],
  "bytecode": "0x608060405234801561001057600080fd5b506135f8806100206000396000f3fe60806040523480156200001157600080fd5b5060043610620000525760003560e01c8063405afeef14620000575780635a18d022146200008d5780635aad6cf014620000ad578063d9d5485814620000e3575b600080fd5b6200007560048036038101906200006f919062000898565b62000105565b6040516200008491906200098b565b60405180910390f35b620000ab6004803603810190620000a59190620009ed565b62000265565b005b620000cb6004803603810190620000c5919062000a34565b620003c0565b604051620000da919062000a77565b60405180910390f35b620000ed62000400565b604051620000fc919062000b62565b60405180910390f35b60008086868686866040516200011b90620007d1565b6200012b95949392919062000bbc565b604051809103906000f08015801562000148573d6000803e3d6000fd5b5090508073ffffffffffffffffffffffffffffffffffffffff1663f2fde38b336040518263ffffffff1660e01b815260040162000186919062000a77565b600060405180830381600087803b158015620001a157600080fd5b505af1158015620001b6573d6000803e3d6000fd5b505050506000819080600181540180825580915050600190039060005260206000200160009091909190916101000a81548173ffffffffffffffffffffffffffffffffffffffff021916908373ffffffffffffffffffffffffffffffffffffffff1602179055507f0a9391dd2f7201dd6af8a5b6a5fe8dfee81ba9307eaff717f71c65f9d3df9fff33826040516200025092919062000c19565b60405180910390a18091505095945050505050565b60008273ffffffffffffffffffffffffffffffffffffffff1663f7c618c16040518163ffffffff1660e01b8152600401602060405180830381865afa158015620002b3573d6000803e3d6000fd5b505050506040513d601f19601f82011682018060405250810190620002d9919062000c5d565b9050600073ffffffffffffffffffffffffffffffffffffffff168173ffffffffffffffffffffffffffffffffffffffff16036200034d576040517f08c379a0000000000000000000000000000000000000000000000000000000008152600401620003449062000d16565b60405180910390fd5b6200037c3384848473ffffffffffffffffffffffffffffffffffffffff1662000490909392919063ffffffff16565b7fa161814123073daa9486f21b7c1122d264b4f27c8b0302ab44d04f8a459acab033848385604051620003b3949392919062000d38565b60405180910390a1505050565b60008181548110620003d157600080fd5b906000526020600020016000915054906101000a900473ffffffffffffffffffffffffffffffffffffffff1681565b606060008054806020026020016040519081016040528092919081815260200182805480156200048657602002820191906000526020600020905b8160009054906101000a900473ffffffffffffffffffffffffffffffffffffffff1673ffffffffffffffffffffffffffffffffffffffff16815260200190600101908083116200043b575b5050505050905090565b62000517846323b872dd60e01b858585604051602401620004b49392919062000d85565b604051602081830303815290604052907bffffffffffffffffffffffffffffffffffffffffffffffffffffffff19166020820180517bffffffffffffffffffffffffffffffffffffffffffffffffffffffff83818316178352505050506200051d565b50505050565b600062000581826040518060400160405280602081526020017f5361666545524332303a206c6f772d6c6576656c2063616c6c206661696c65648152508573ffffffffffffffffffffffffffffffffffffffff16620005ec9092919063ffffffff16565b9050600081511115620005e75780806020019051810190620005a4919062000dff565b620005e6576040517f08c379a0000000000000000000000000000000000000000000000000000000008152600401620005dd9062000ea7565b60405180910390fd5b5b505050565b6060620005fd848460008562000606565b90509392505050565b6060824710156200064e576040517f08c379a0000000000000000000000000000000000000000000000000000000008152600401620006459062000f3f565b60405180910390fd5b6000808673ffffffffffffffffffffffffffffffffffffffff16858760405162000679919062000fda565b60006040518083038185875af1925050503d8060008114620006b8576040519150601f19603f3d011682016040523d82523d6000602084013e620006bd565b606091505b5091509150620006d087838387620006dc565b92505050949350505050565b60608315620007465760008351036200073d57620006fa856200075b565b6200073c576040517f08c379a0000000000000000000000000000000000000000000000000000000008152600401620007339062001043565b60405180910390fd5b5b82905062000753565b6200075283836200077e565b5b949350505050565b6000808273ffffffffffffffffffffffffffffffffffffffff163b119050919050565b600082511115620007925781518083602001fd5b806040517f08c379a0000000000000000000000000000000000000000000000000000000008152600401620007c89190620010c2565b60405180910390fd5b6124dc80620010e783390190565b600080fd5b600073ffffffffffffffffffffffffffffffffffffffff82169050919050565b60006200081182620007e4565b9050919050565b6000620008258262000804565b9050919050565b620008378162000818565b81146200084357600080fd5b50565b60008135905062000857816200082c565b92915050565b6000819050919050565b62000872816200085d565b81146200087e57600080fd5b50565b600081359050620008928162000867565b92915050565b600080600080600060a08688031215620008b757620008b6620007df565b5b6000620008c78882890162000846565b9550506020620008da8882890162000846565b9450506040620008ed8882890162000881565b9350506060620009008882890162000881565b9250506080620009138882890162000881565b9150509295509295909350565b6000819050919050565b60006200094b620009456200093f84620007e4565b62000920565b620007e4565b9050919050565b60006200095f826200092a565b9050919050565b6000620009738262000952565b9050919050565b620009858162000966565b82525050565b6000602082019050620009a260008301846200097a565b92915050565b6000620009b58262000804565b9050919050565b620009c781620009a8565b8114620009d357600080fd5b50565b600081359050620009e781620009bc565b92915050565b6000806040838503121562000a075762000a06620007df565b5b600062000a1785828601620009d6565b925050602062000a2a8582860162000881565b9150509250929050565b60006020828403121562000a4d5762000a4c620007df565b5b600062000a5d8482850162000881565b91505092915050565b62000a718162000804565b82525050565b600060208201905062000a8e600083018462000a66565b92915050565b600081519050919050565b600082825260208201905092915050565b6000819050602082019050919050565b62000acb8162000804565b82525050565b600062000adf838362000ac0565b60208301905092915050565b6000602082019050919050565b600062000b058262000a94565b62000b11818562000a9f565b935062000b1e8362000ab0565b8060005b8381101562000b5557815162000b39888262000ad1565b975062000b468362000aeb565b92505060018101905062000b22565b5085935050505092915050565b6000602082019050818103600083015262000b7e818462000af8565b905092915050565b600062000b938262000952565b9050919050565b62000ba58162000b86565b82525050565b62000bb6816200085d565b82525050565b600060a08201905062000bd3600083018862000b9a565b62000be2602083018762000b9a565b62000bf1604083018662000bab565b62000c00606083018562000bab565b62000c0f608083018462000bab565b9695505050505050565b600060408201905062000c30600083018562000a66565b62000c3f602083018462000a66565b9392505050565b60008151905062000c57816200082c565b92915050565b60006020828403121562000c765762000c75620007df565b5b600062000c868482850162000c46565b91505092915050565b600082825260208201905092915050565b7f496e76616c69642045524332302072657761726420746f6b656e20666f72207360008201527f74616b696e6720706f6f6c000000000000000000000000000000000000000000602082015250565b600062000cfe602b8362000c8f565b915062000d0b8262000ca0565b604082019050919050565b6000602082019050818103600083015262000d318162000cef565b9050919050565b600060808201905062000d4f600083018762000a66565b62000d5e602083018662000a66565b62000d6d604083018562000a66565b62000d7c606083018462000bab565b95945050505050565b600060608201905062000d9c600083018662000a66565b62000dab602083018562000a66565b62000dba604083018462000bab565b949350505050565b60008115159050919050565b62000dd98162000dc2565b811462000de557600080fd5b50565b60008151905062000df98162000dce565b92915050565b60006020828403121562000e185762000e17620007df565b5b600062000e288482850162000de8565b91505092915050565b7f5361666545524332303a204552433230206f7065726174696f6e20646964206e60008201527f6f74207375636365656400000000000000000000000000000000000000000000602082015250565b600062000e8f602a8362000c8f565b915062000e9c8262000e31565b604082019050919050565b6000602082019050818103600083015262000ec28162000e80565b9050919050565b7f416464726573733a20696e73756666696369656e742062616c616e636520666f60008201527f722063616c6c0000000000000000000000000000000000000000000000000000602082015250565b600062000f2760268362000c8f565b915062000f348262000ec9565b604082019050919050565b6000602082019050818103600083015262000f5a8162000f18565b9050919050565b600081519050919050565b600081905092915050565b60005b8381101562000f9757808201518184015260208101905062000f7a565b60008484015250505050565b600062000fb08262000f61565b62000fbc818562000f6c565b935062000fce81856020860162000f77565b80840191505092915050565b600062000fe8828462000fa3565b915081905092915050565b7f416464726573733a2063616c6c20746f206e6f6e2d636f6e7472616374000000600082015250565b60006200102b601d8362000c8f565b9150620010388262000ff3565b602082019050919050565b600060208201905081810360008301526200105e816200101c565b9050919050565b600081519050919050565b6000601f19601f8301169050919050565b60006200108e8262001065565b6200109a818562000c8f565b9350620010ac81856020860162000f77565b620010b78162001070565b840191505092915050565b60006020820190508181036000830152620010de818462001081565b90509291505056fe60a06040523480156200001157600080fd5b50604051620024dc380380620024dc833981810160405281019062000037919062000394565b620000576200004b6200020f60201b60201c565b6200021760201b60201c565b6001808190555084600860006101000a81548173ffffffffffffffffffffffffffffffffffffffff021916908373ffffffffffffffffffffffffffffffffffffffff16021790555083600760006101000a81548173ffffffffffffffffffffffffffffffffffffffff021916908373ffffffffffffffffffffffffffffffffffffffff1602179055508260068190555081600381905550806004819055506000600760009054906101000a900473ffffffffffffffffffffffffffffffffffffffff1673ffffffffffffffffffffffffffffffffffffffff1663313ce5676040518163ffffffff1660e01b8152600401602060405180830381865afa15801562000165573d6000803e3d6000fd5b505050506040513d601f19601f820116820180604052508101906200018b91906200045a565b60ff169050601e8110620001d6576040517f08c379a0000000000000000000000000000000000000000000000000000000008152600401620001cd9062000513565b60405180910390fd5b80601e620001e5919062000564565b600a620001f39190620006f3565b6080818152505060035460058190555050505050505062000744565b600033905090565b60008060009054906101000a900473ffffffffffffffffffffffffffffffffffffffff169050816000806101000a81548173ffffffffffffffffffffffffffffffffffffffff021916908373ffffffffffffffffffffffffffffffffffffffff1602179055508173ffffffffffffffffffffffffffffffffffffffff168173ffffffffffffffffffffffffffffffffffffffff167f8be0079c531659141344cd1fd0a4f28419497f9722a3daafe3b4186f6b6457e060405160405180910390a35050565b600080fd5b600073ffffffffffffffffffffffffffffffffffffffff82169050919050565b60006200030d82620002e0565b9050919050565b6000620003218262000300565b9050919050565b620003338162000314565b81146200033f57600080fd5b50565b600081519050620003538162000328565b92915050565b6000819050919050565b6200036e8162000359565b81146200037a57600080fd5b50565b6000815190506200038e8162000363565b92915050565b600080600080600060a08688031215620003b357620003b2620002db565b5b6000620003c38882890162000342565b9550506020620003d68882890162000342565b9450506040620003e9888289016200037d565b9350506060620003fc888289016200037d565b92505060806200040f888289016200037d565b9150509295509295909350565b600060ff82169050919050565b62000434816200041c565b81146200044057600080fd5b50565b600081519050620004548162000429565b92915050565b600060208284031215620004735762000472620002db565b5b6000620004838482850162000443565b91505092915050565b600082825260208201905092915050565b7f446563696d616c73206f662072657761726420746f6b656e206d75737420626560008201527f206c657373207468616e20333000000000000000000000000000000000000000602082015250565b6000620004fb602d836200048c565b915062000508826200049d565b604082019050919050565b600060208201905081810360008301526200052e81620004ec565b9050919050565b7f4e487b7100000000000000000000000000000000000000000000000000000000600052601160045260246000fd5b6000620005718262000359565b91506200057e8362000359565b925082820390508181111562000599576200059862000535565b5b92915050565b60008160011c9050919050565b6000808291508390505b6001851115620005fe57808604811115620005d657620005d562000535565b5b6001851615620005e65780820291505b8081029050620005f6856200059f565b9450620005b6565b94509492505050565b600082620006195760019050620006ec565b81620006295760009050620006ec565b81600181146200064257600281146200064d5762000683565b6001915050620006ec565b60ff84111562000662576200066162000535565b5b8360020a9150848211156200067c576200067b62000535565b5b50620006ec565b5060208310610133831016604e8410600b8410161715620006bd5782820a905083811115620006b757620006b662000535565b5b620006ec565b620006cc8484846001620005ac565b92509050818404811115620006e657620006e562000535565b5b81810290505b9392505050565b6000620007008262000359565b91506200070d8362000359565b92506200073c7fffffffffffffffffffffffffffffffffffffffffffffffffffffffffffffffff848462000607565b905092915050565b608051611d4462000798600039600081816104a7015281816105d201528181610881015281816108cb0152818161091f01528181610a4801528181610b7701528181610c3c0152610e160152611d446000f3fe608060405234801561001057600080fd5b50600436106101215760003560e01c80638da5cb5b116100ad578063b6b55f2511610071578063b6b55f25146102c1578063cc7a262e146102dd578063ccd34cd5146102fb578063f2fde38b14610319578063f7c618c11461033557610121565b80638da5cb5b1461022b5780638f66291514610249578063921979af14610267578063a9f8d18114610285578063b2d2900f146102a357610121565b80634df9d6ba116100f45780634df9d6ba146101ab578063604ef2e5146101db578063715018a6146101f9578063797008c6146102035780638ae39cac1461020d57610121565b806301f8a976146101265780631959a002146101425780632e1a7d4d146101735780633f138d4b1461018f575b600080fd5b610140600480360381019061013b9190611367565b610353565b005b61015c600480360381019061015791906113f2565b6103e0565b60405161016a92919061142e565b60405180910390f35b61018d60048036038101906101889190611367565b610404565b005b6101a960048036038101906101a49190611457565b610670565b005b6101c560048036038101906101c091906113f2565b610800565b6040516101d29190611497565b60405180910390f35b6101e361096d565b6040516101f09190611497565b60405180910390f35b610201610973565b005b61020b610987565b005b610215610998565b6040516102229190611497565b60405180910390f35b61023361099e565b60405161024091906114c1565b60405180910390f35b6102516109c7565b60405161025e9190611497565b60405180910390f35b61026f6109cd565b60405161027c9190611497565b60405180910390f35b61028d6109d3565b60405161029a9190611497565b60405180910390f35b6102ab6109d9565b6040516102b89190611497565b60405180910390f35b6102db60048036038101906102d69190611367565b6109df565b005b6102e5610c14565b6040516102f2919061153b565b60405180910390f35b610303610c3a565b6040516103109190611497565b60405180910390f35b610333600480360381019061032e91906113f2565b610c5e565b005b61033d610ce1565b60405161034a919061153b565b60405180910390f35b61035b610d07565b600354431061039f576040517f08c379a0000000000000000000000000000000000000000000000000000000008152600401610396906115b3565b60405180910390fd5b806006819055507fc606f355efeddd89e42e997e575220501445590def6dd71bf081c2c51d6c0a4d816040516103d59190611497565b60405180910390a150565b600a6020528060005260406000206000915090508060000154908060010154905082565b61040c610d85565b6000600a60003373ffffffffffffffffffffffffffffffffffffffff1673ffffffffffffffffffffffffffffffffffffffff16815260200190815260200160002090508181600001541015610496576040517f08c379a000000000000000000000000000000000000000000000000000000000815260040161048d9061161f565b60405180910390fd5b61049e610dd4565b600081600101547f000000000000000000000000000000000000000000000000000000000000000060025484600001546104d8919061166e565b6104e291906116df565b6104ec9190611710565b90506000831115610579578282600001600082825461050b9190611710565b9250508190555082600960008282546105249190611710565b925050819055506105783384600860009054906101000a900473ffffffffffffffffffffffffffffffffffffffff1673ffffffffffffffffffffffffffffffffffffffff16610e6d9092919063ffffffff16565b5b60008111156105d0576105cf3382600760009054906101000a900473ffffffffffffffffffffffffffffffffffffffff1673ffffffffffffffffffffffffffffffffffffffff16610e6d9092919063ffffffff16565b5b7f00000000000000000000000000000000000000000000000000000000000000006002548360000154610603919061166e565b61060d91906116df565b82600101819055503373ffffffffffffffffffffffffffffffffffffffff167f884edad9ce6fa2440d8a54cc123490eb96d2768479d49ff9c7366125a94243648460405161065b9190611497565b60405180910390a2505061066d610ef3565b50565b610678610d07565b600860009054906101000a900473ffffffffffffffffffffffffffffffffffffffff1673ffffffffffffffffffffffffffffffffffffffff168273ffffffffffffffffffffffffffffffffffffffff1603610708576040517f08c379a00000000000000000000000000000000000000000000000000000000081526004016106ff90611790565b60405180910390fd5b600760009054906101000a900473ffffffffffffffffffffffffffffffffffffffff1673ffffffffffffffffffffffffffffffffffffffff168273ffffffffffffffffffffffffffffffffffffffff1603610798576040517f08c379a000000000000000000000000000000000000000000000000000000000815260040161078f906117fc565b60405180910390fd5b6107c333828473ffffffffffffffffffffffffffffffffffffffff16610e6d9092919063ffffffff16565b7ffba2d3bdfb2d601eb66a89783a2c614856101cadce71556753c2edadd60c831c82826040516107f492919061181c565b60405180910390a15050565b600080600a60008473ffffffffffffffffffffffffffffffffffffffff1673ffffffffffffffffffffffffffffffffffffffff1681526020019081526020016000209050600554431180156108585750600060095414155b1561091857600061086b60055443610efc565b600654610878919061166e565b905060006009547f0000000000000000000000000000000000000000000000000000000000000000836108ab919061166e565b6108b591906116df565b6002546108c29190611845565b905082600101547f00000000000000000000000000000000000000000000000000000000000000008285600001546108fa919061166e565b61090491906116df565b61090e9190611710565b9350505050610968565b80600101547f00000000000000000000000000000000000000000000000000000000000000006002548360000154610950919061166e565b61095a91906116df565b6109649190611710565b9150505b919050565b60045481565b61097b610d07565b6109856000610f43565b565b61098f610d07565b43600481905550565b60065481565b60008060009054906101000a900473ffffffffffffffffffffffffffffffffffffffff16905090565b60025481565b60095481565b60055481565b60035481565b6109e7610d85565b6000600a60003373ffffffffffffffffffffffffffffffffffffffff1673ffffffffffffffffffffffffffffffffffffffff1681526020019081526020016000209050610a32610dd4565b600081600001541115610ae857600081600101547f00000000000000000000000000000000000000000000000000000000000000006002548460000154610a79919061166e565b610a8391906116df565b610a8d9190611710565b90506000811115610ae657610ae53382600760009054906101000a900473ffffffffffffffffffffffffffffffffffffffff1673ffffffffffffffffffffffffffffffffffffffff16610e6d9092919063ffffffff16565b5b505b6000821115610b755781816000016000828254610b059190611845565b925050819055508160096000828254610b1e9190611845565b92505081905550610b74333084600860009054906101000a900473ffffffffffffffffffffffffffffffffffffffff1673ffffffffffffffffffffffffffffffffffffffff16611007909392919063ffffffff16565b5b7f00000000000000000000000000000000000000000000000000000000000000006002548260000154610ba8919061166e565b610bb291906116df565b81600101819055503373ffffffffffffffffffffffffffffffffffffffff167fe1fffcc4923d04b559f4d29a8bfc6cda04eb5b0d3c460751c2402c5c5cc9109c83604051610c009190611497565b60405180910390a250610c11610ef3565b50565b600860009054906101000a900473ffffffffffffffffffffffffffffffffffffffff1681565b7f000000000000000000000000000000000000000000000000000000000000000081565b610c66610d07565b600073ffffffffffffffffffffffffffffffffffffffff168173ffffffffffffffffffffffffffffffffffffffff1603610cd5576040517f08c379a0000000000000000000000000000000000000000000000000000000008152600401610ccc906118eb565b60405180910390fd5b610cde81610f43565b50565b600760009054906101000a900473ffffffffffffffffffffffffffffffffffffffff1681565b610d0f611090565b73ffffffffffffffffffffffffffffffffffffffff16610d2d61099e565b73ffffffffffffffffffffffffffffffffffffffff1614610d83576040517f08c379a0000000000000000000000000000000000000000000000000000000008152600401610d7a90611957565b60405180910390fd5b565b600260015403610dca576040517f08c379a0000000000000000000000000000000000000000000000000000000008152600401610dc1906119c3565b60405180910390fd5b6002600181905550565b600554431115610e6b57600060095403610df45743600581905550610e6b565b6000610e0260055443610efc565b600654610e0f919061166e565b90506009547f000000000000000000000000000000000000000000000000000000000000000082610e40919061166e565b610e4a91906116df565b60026000828254610e5b9190611845565b9250508190555043600581905550505b565b610eee8363a9059cbb60e01b8484604051602401610e8c92919061181c565b604051602081830303815290604052907bffffffffffffffffffffffffffffffffffffffffffffffffffffffff19166020820180517bffffffffffffffffffffffffffffffffffffffffffffffffffffffff8381831617835250505050611098565b505050565b60018081905550565b60006004548211610f1a578282610f139190611710565b9050610f3d565b6004548310610f2c5760009050610f3d565b82600454610f3a9190611710565b90505b92915050565b60008060009054906101000a900473ffffffffffffffffffffffffffffffffffffffff169050816000806101000a81548173ffffffffffffffffffffffffffffffffffffffff021916908373ffffffffffffffffffffffffffffffffffffffff1602179055508173ffffffffffffffffffffffffffffffffffffffff168173ffffffffffffffffffffffffffffffffffffffff167f8be0079c531659141344cd1fd0a4f28419497f9722a3daafe3b4186f6b6457e060405160405180910390a35050565b61108a846323b872dd60e01b858585604051602401611028939291906119e3565b604051602081830303815290604052907bffffffffffffffffffffffffffffffffffffffffffffffffffffffff19166020820180517bffffffffffffffffffffffffffffffffffffffffffffffffffffffff8381831617835250505050611098565b50505050565b600033905090565b60006110fa826040518060400160405280602081526020017f5361666545524332303a206c6f772d6c6576656c2063616c6c206661696c65648152508573ffffffffffffffffffffffffffffffffffffffff1661115f9092919063ffffffff16565b905060008151111561115a578080602001905181019061111a9190611a52565b611159576040517f08c379a000000000000000000000000000000000000000000000000000000000815260040161115090611af1565b60405180910390fd5b5b505050565b606061116e8484600085611177565b90509392505050565b6060824710156111bc576040517f08c379a00000000000000000000000000000000000000000000000000000000081526004016111b390611b83565b60405180910390fd5b6000808673ffffffffffffffffffffffffffffffffffffffff1685876040516111e59190611c14565b60006040518083038185875af1925050503d8060008114611222576040519150601f19603f3d011682016040523d82523d6000602084013e611227565b606091505b509150915061123887838387611244565b92505050949350505050565b606083156112a657600083510361129e5761125e856112b9565b61129d576040517f08c379a000000000000000000000000000000000000000000000000000000000815260040161129490611c77565b60405180910390fd5b5b8290506112b1565b6112b083836112dc565b5b949350505050565b6000808273ffffffffffffffffffffffffffffffffffffffff163b119050919050565b6000825111156112ef5781518083602001fd5b806040517f08c379a00000000000000000000000000000000000000000000000000000000081526004016113239190611cec565b60405180910390fd5b600080fd5b6000819050919050565b61134481611331565b811461134f57600080fd5b50565b6000813590506113618161133b565b92915050565b60006020828403121561137d5761137c61132c565b5b600061138b84828501611352565b91505092915050565b600073ffffffffffffffffffffffffffffffffffffffff82169050919050565b60006113bf82611394565b9050919050565b6113cf816113b4565b81146113da57600080fd5b50565b6000813590506113ec816113c6565b92915050565b6000602082840312156114085761140761132c565b5b6000611416848285016113dd565b91505092915050565b61142881611331565b82525050565b6000604082019050611443600083018561141f565b611450602083018461141f565b9392505050565b6000806040838503121561146e5761146d61132c565b5b600061147c858286016113dd565b925050602061148d85828601611352565b9150509250929050565b60006020820190506114ac600083018461141f565b92915050565b6114bb816113b4565b82525050565b60006020820190506114d660008301846114b2565b92915050565b6000819050919050565b60006115016114fc6114f784611394565b6114dc565b611394565b9050919050565b6000611513826114e6565b9050919050565b600061152582611508565b9050919050565b6115358161151a565b82525050565b6000602082019050611550600083018461152c565b92915050565b600082825260208201905092915050565b7f506f6f6c20686173207374617274656400000000000000000000000000000000600082015250565b600061159d601083611556565b91506115a882611567565b602082019050919050565b600060208201905081810360008301526115cc81611590565b9050919050565b7f496e73756666696369656e7420616d6f756e7420746f20776974686472617700600082015250565b6000611609601f83611556565b9150611614826115d3565b602082019050919050565b60006020820190508181036000830152611638816115fc565b9050919050565b7f4e487b7100000000000000000000000000000000000000000000000000000000600052601160045260246000fd5b600061167982611331565b915061168483611331565b925082820261169281611331565b915082820484148315176116a9576116a861163f565b5b5092915050565b7f4e487b7100000000000000000000000000000000000000000000000000000000600052601260045260246000fd5b60006116ea82611331565b91506116f583611331565b925082611705576117046116b0565b5b828204905092915050565b600061171b82611331565b915061172683611331565b925082820390508181111561173e5761173d61163f565b5b92915050565b7f43616e6e6f74206265207374616b656420746f6b656e00000000000000000000600082015250565b600061177a601683611556565b915061178582611744565b602082019050919050565b600060208201905081810360008301526117a98161176d565b9050919050565b7f43616e6e6f742062652072657761726420746f6b656e00000000000000000000600082015250565b60006117e6601683611556565b91506117f1826117b0565b602082019050919050565b60006020820190508181036000830152611815816117d9565b9050919050565b600060408201905061183160008301856114b2565b61183e602083018461141f565b9392505050565b600061185082611331565b915061185b83611331565b92508282019050808211156118735761187261163f565b5b92915050565b7f4f776e61626c653a206e6577206f776e657220697320746865207a65726f206160008201527f6464726573730000000000000000000000000000000000000000000000000000602082015250565b60006118d5602683611556565b91506118e082611879565b604082019050919050565b60006020820190508181036000830152611904816118c8565b9050919050565b7f4f776e61626c653a2063616c6c6572206973206e6f7420746865206f776e6572600082015250565b6000611941602083611556565b915061194c8261190b565b602082019050919050565b6000602082019050818103600083015261197081611934565b9050919050565b7f5265656e7472616e637947756172643a207265656e7472616e742063616c6c00600082015250565b60006119ad601f83611556565b91506119b882611977565b602082019050919050565b600060208201905081810360008301526119dc816119a0565b9050919050565b60006060820190506119f860008301866114b2565b611a0560208301856114b2565b611a12604083018461141f565b949350505050565b60008115159050919050565b611a2f81611a1a565b8114611a3a57600080fd5b50565b600081519050611a4c81611a26565b92915050565b600060208284031215611a6857611a6761132c565b5b6000611a7684828501611a3d565b91505092915050565b7f5361666545524332303a204552433230206f7065726174696f6e20646964206e60008201527f6f74207375636365656400000000000000000000000000000000000000000000602082015250565b6000611adb602a83611556565b9150611ae682611a7f565b604082019050919050565b60006020820190508181036000830152611b0a81611ace565b9050919050565b7f416464726573733a20696e73756666696369656e742062616c616e636520666f60008201527f722063616c6c0000000000000000000000000000000000000000000000000000602082015250565b6000611b6d602683611556565b9150611b7882611b11565b604082019050919050565b60006020820190508181036000830152611b9c81611b60565b9050919050565b600081519050919050565b600081905092915050565b60005b83811015611bd7578082015181840152602081019050611bbc565b60008484015250505050565b6000611bee82611ba3565b611bf88185611bae565b9350611c08818560208601611bb9565b80840191505092915050565b6000611c208284611be3565b915081905092915050565b7f416464726573733a2063616c6c20746f206e6f6e2d636f6e7472616374000000600082015250565b6000611c61601d83611556565b9150611c6c82611c2b565b602082019050919050565b60006020820190508181036000830152611c9081611c54565b9050919050565b600081519050919050565b6000601f19601f8301169050919050565b6000611cbe82611c97565b611cc88185611556565b9350611cd8818560208601611bb9565b611ce181611ca2565b840191505092915050565b60006020820190508181036000830152611d068184611cb3565b90509291505056fea264697066735822122018e141ba69eca59e772ce96da7eb914ad36e02fc94ffd03aff384357a46dce4964736f6c63430008110033a2646970667358221220db98f51af328d0e9777806a78a6621e590b7cd3495863b31f48c5c2411d740db64736f6c63430008110033",
  "linkReferences": {},
  "deployedLinkReferences": {}
}